{
	"Clase 03/SimpleWalletO.sol": {
		"Wallet": {
			"abi": [
				{
					"inputs": [],
					"stateMutability": "nonpayable",
					"type": "constructor"
				},
				{
					"inputs": [],
					"name": "balance",
					"outputs": [
						{
							"internalType": "uint256",
							"name": "",
							"type": "uint256"
						}
					],
					"stateMutability": "view",
					"type": "function"
				},
				{
					"inputs": [],
					"name": "deposit",
					"outputs": [],
					"stateMutability": "payable",
					"type": "function"
				},
				{
					"inputs": [],
					"name": "owner",
					"outputs": [
						{
							"internalType": "address",
							"name": "",
							"type": "address"
						}
					],
					"stateMutability": "view",
					"type": "function"
				},
				{
					"inputs": [
						{
							"internalType": "uint256",
							"name": "_amount",
							"type": "uint256"
						}
					],
					"name": "withdraw",
					"outputs": [],
					"stateMutability": "nonpayable",
					"type": "function"
				}
			],
			"devdoc": {
				"kind": "dev",
				"methods": {},
				"version": 1
			},
			"evm": {
				"assembly": "    /* \"Clase 03/SimpleWalletO.sol\":57:706  contract Wallet {... */\n  mstore(0x40, 0x80)\n    /* \"Clase 03/SimpleWalletO.sol\":134:208  constructor() {... */\n  callvalue\n  dup1\n  iszero\n  tag_1\n  jumpi\n  0x00\n  dup1\n  revert\ntag_1:\n  pop\n    /* \"Clase 03/SimpleWalletO.sol\":166:176  msg.sender */\n  caller\n    /* \"Clase 03/SimpleWalletO.sol\":158:163  owner */\n  0x00\n  dup1\n    /* \"Clase 03/SimpleWalletO.sol\":158:176  owner = msg.sender */\n  0x0100\n  exp\n  dup2\n  sload\n  dup2\n  0xffffffffffffffffffffffffffffffffffffffff\n  mul\n  not\n  and\n  swap1\n  dup4\n  0xffffffffffffffffffffffffffffffffffffffff\n  and\n  mul\n  or\n  swap1\n  sstore\n  pop\n    /* \"Clase 03/SimpleWalletO.sol\":196:201  10000 */\n  0x2710\n    /* \"Clase 03/SimpleWalletO.sol\":186:193  balance */\n  0x01\n    /* \"Clase 03/SimpleWalletO.sol\":186:201  balance = 10000 */\n  dup2\n  swap1\n  sstore\n  pop\n    /* \"Clase 03/SimpleWalletO.sol\":57:706  contract Wallet {... */\n  dataSize(sub_0)\n  dup1\n  dataOffset(sub_0)\n  0x00\n  codecopy\n  0x00\n  return\nstop\n\nsub_0: assembly {\n        /* \"Clase 03/SimpleWalletO.sol\":57:706  contract Wallet {... */\n      mstore(0x40, 0x80)\n      jumpi(tag_1, lt(calldatasize, 0x04))\n      shr(0xe0, calldataload(0x00))\n      dup1\n      0x2e1a7d4d\n      eq\n      tag_2\n      jumpi\n      dup1\n      0x8da5cb5b\n      eq\n      tag_3\n      jumpi\n      dup1\n      0xb69ef8a8\n      eq\n      tag_4\n      jumpi\n      dup1\n      0xd0e30db0\n      eq\n      tag_5\n      jumpi\n    tag_1:\n      0x00\n      dup1\n      revert\n        /* \"Clase 03/SimpleWalletO.sol\":444:704  function withdraw(uint256 _amount) public onlyOwner {... */\n    tag_2:\n      callvalue\n      dup1\n      iszero\n      tag_6\n      jumpi\n      0x00\n      dup1\n      revert\n    tag_6:\n      pop\n      tag_7\n      0x04\n      dup1\n      calldatasize\n      sub\n      dup2\n      add\n      swap1\n      tag_8\n      swap2\n      swap1\n      tag_9\n      jump\t// in\n    tag_8:\n      tag_10\n      jump\t// in\n    tag_7:\n      stop\n        /* \"Clase 03/SimpleWalletO.sol\":79:99  address public owner */\n    tag_3:\n      callvalue\n      dup1\n      iszero\n      tag_11\n      jumpi\n      0x00\n      dup1\n      revert\n    tag_11:\n      pop\n      tag_12\n      tag_13\n      jump\t// in\n    tag_12:\n      mload(0x40)\n      tag_14\n      swap2\n      swap1\n      tag_15\n      jump\t// in\n    tag_14:\n      mload(0x40)\n      dup1\n      swap2\n      sub\n      swap1\n      return\n        /* \"Clase 03/SimpleWalletO.sol\":105:127  uint256 public balance */\n    tag_4:\n      callvalue\n      dup1\n      iszero\n      tag_16\n      jumpi\n      0x00\n      dup1\n      revert\n    tag_16:\n      pop\n      tag_17\n      tag_18\n      jump\t// in\n    tag_17:\n      mload(0x40)\n      tag_19\n      swap2\n      swap1\n      tag_20\n      jump\t// in\n    tag_19:\n      mload(0x40)\n      dup1\n      swap2\n      sub\n      swap1\n      return\n        /* \"Clase 03/SimpleWalletO.sol\":320:438  function deposit() public payable {... */\n    tag_5:\n      tag_21\n      tag_22\n      jump\t// in\n    tag_21:\n      stop\n        /* \"Clase 03/SimpleWalletO.sol\":444:704  function withdraw(uint256 _amount) public onlyOwner {... */\n    tag_10:\n        /* \"Clase 03/SimpleWalletO.sol\":267:272  owner */\n      0x00\n      dup1\n      sload\n      swap1\n      0x0100\n      exp\n      swap1\n      div\n      0xffffffffffffffffffffffffffffffffffffffff\n      and\n        /* \"Clase 03/SimpleWalletO.sol\":253:272  msg.sender == owner */\n      0xffffffffffffffffffffffffffffffffffffffff\n      and\n        /* \"Clase 03/SimpleWalletO.sol\":253:263  msg.sender */\n      caller\n        /* \"Clase 03/SimpleWalletO.sol\":253:272  msg.sender == owner */\n      0xffffffffffffffffffffffffffffffffffffffff\n      and\n      eq\n        /* \"Clase 03/SimpleWalletO.sol\":245:296  require(msg.sender == owner, \"Solo el propietario\") */\n      tag_24\n      jumpi\n      mload(0x40)\n      0x08c379a000000000000000000000000000000000000000000000000000000000\n      dup2\n      mstore\n      0x04\n      add\n      tag_25\n      swap1\n      tag_26\n      jump\t// in\n    tag_25:\n      mload(0x40)\n      dup1\n      swap2\n      sub\n      swap1\n      revert\n    tag_24:\n        /* \"Clase 03/SimpleWalletO.sol\":524:525  0 */\n      0x00\n        /* \"Clase 03/SimpleWalletO.sol\":514:521  _amount */\n      dup2\n        /* \"Clase 03/SimpleWalletO.sol\":514:525  _amount > 0 */\n      gt\n        /* \"Clase 03/SimpleWalletO.sol\":506:561  require(_amount > 0, \"Amount should be greater than 0\") */\n      tag_28\n      jumpi\n      mload(0x40)\n      0x08c379a000000000000000000000000000000000000000000000000000000000\n      dup2\n      mstore\n      0x04\n      add\n      tag_29\n      swap1\n      tag_30\n      jump\t// in\n    tag_29:\n      mload(0x40)\n      dup1\n      swap2\n      sub\n      swap1\n      revert\n    tag_28:\n        /* \"Clase 03/SimpleWalletO.sol\":590:597  balance */\n      sload(0x01)\n        /* \"Clase 03/SimpleWalletO.sol\":579:586  _amount */\n      dup2\n        /* \"Clase 03/SimpleWalletO.sol\":579:597  _amount <= balance */\n      gt\n      iszero\n        /* \"Clase 03/SimpleWalletO.sol\":571:622  require(_amount <= balance, \"Insufficient balance\") */\n      tag_31\n      jumpi\n      mload(0x40)\n      0x08c379a000000000000000000000000000000000000000000000000000000000\n      dup2\n      mstore\n      0x04\n      add\n      tag_32\n      swap1\n      tag_33\n      jump\t// in\n    tag_32:\n      mload(0x40)\n      dup1\n      swap2\n      sub\n      swap1\n      revert\n    tag_31:\n        /* \"Clase 03/SimpleWalletO.sol\":643:650  _amount */\n      dup1\n        /* \"Clase 03/SimpleWalletO.sol\":632:639  balance */\n      0x01\n      0x00\n        /* \"Clase 03/SimpleWalletO.sol\":632:650  balance -= _amount */\n      dup3\n      dup3\n      sload\n      tag_34\n      swap2\n      swap1\n      tag_35\n      jump\t// in\n    tag_34:\n      swap3\n      pop\n      pop\n      dup2\n      swap1\n      sstore\n      pop\n        /* \"Clase 03/SimpleWalletO.sol\":668:678  msg.sender */\n      caller\n        /* \"Clase 03/SimpleWalletO.sol\":660:688  payable(msg.sender).transfer */\n      0xffffffffffffffffffffffffffffffffffffffff\n      and\n        /* \"Clase 03/SimpleWalletO.sol\":660:697  payable(msg.sender).transfer(_amount) */\n      0x08fc\n        /* \"Clase 03/SimpleWalletO.sol\":689:696  _amount */\n      dup3\n        /* \"Clase 03/SimpleWalletO.sol\":660:697  payable(msg.sender).transfer(_amount) */\n      swap1\n      dup2\n      iszero\n      mul\n      swap1\n      mload(0x40)\n      0x00\n      mload(0x40)\n      dup1\n      dup4\n      sub\n      dup2\n      dup6\n      dup9\n      dup9\n      call\n      swap4\n      pop\n      pop\n      pop\n      pop\n      iszero\n      dup1\n      iszero\n      tag_37\n      jumpi\n      returndatasize\n      0x00\n      dup1\n      returndatacopy\n      revert(0x00, returndatasize)\n    tag_37:\n      pop\n        /* \"Clase 03/SimpleWalletO.sol\":444:704  function withdraw(uint256 _amount) public onlyOwner {... */\n      pop\n      jump\t// out\n        /* \"Clase 03/SimpleWalletO.sol\":79:99  address public owner */\n    tag_13:\n      0x00\n      dup1\n      sload\n      swap1\n      0x0100\n      exp\n      swap1\n      div\n      0xffffffffffffffffffffffffffffffffffffffff\n      and\n      dup2\n      jump\t// out\n        /* \"Clase 03/SimpleWalletO.sol\":105:127  uint256 public balance */\n    tag_18:\n      sload(0x01)\n      dup2\n      jump\t// out\n        /* \"Clase 03/SimpleWalletO.sol\":320:438  function deposit() public payable {... */\n    tag_22:\n        /* \"Clase 03/SimpleWalletO.sol\":384:385  0 */\n      0x00\n        /* \"Clase 03/SimpleWalletO.sol\":372:381  msg.value */\n      callvalue\n        /* \"Clase 03/SimpleWalletO.sol\":372:385  msg.value > 0 */\n      gt\n        /* \"Clase 03/SimpleWalletO.sol\":364:401  require(msg.value > 0, \"falta plata\") */\n      tag_39\n      jumpi\n      mload(0x40)\n      0x08c379a000000000000000000000000000000000000000000000000000000000\n      dup2\n      mstore\n      0x04\n      add\n      tag_40\n      swap1\n      tag_41\n      jump\t// in\n    tag_40:\n      mload(0x40)\n      dup1\n      swap2\n      sub\n      swap1\n      revert\n    tag_39:\n        /* \"Clase 03/SimpleWalletO.sol\":422:431  msg.value */\n      callvalue\n        /* \"Clase 03/SimpleWalletO.sol\":411:418  balance */\n      0x01\n      0x00\n        /* \"Clase 03/SimpleWalletO.sol\":411:431  balance += msg.value */\n      dup3\n      dup3\n      sload\n      tag_42\n      swap2\n      swap1\n      tag_43\n      jump\t// in\n    tag_42:\n      swap3\n      pop\n      pop\n      dup2\n      swap1\n      sstore\n      pop\n        /* \"Clase 03/SimpleWalletO.sol\":320:438  function deposit() public payable {... */\n      jump\t// out\n        /* \"#utility.yul\":88:205   */\n    tag_45:\n        /* \"#utility.yul\":197:198   */\n      0x00\n        /* \"#utility.yul\":194:195   */\n      dup1\n        /* \"#utility.yul\":187:199   */\n      revert\n        /* \"#utility.yul\":334:411   */\n    tag_47:\n        /* \"#utility.yul\":371:378   */\n      0x00\n        /* \"#utility.yul\":400:405   */\n      dup2\n        /* \"#utility.yul\":389:405   */\n      swap1\n      pop\n        /* \"#utility.yul\":334:411   */\n      swap2\n      swap1\n      pop\n      jump\t// out\n        /* \"#utility.yul\":417:539   */\n    tag_48:\n        /* \"#utility.yul\":490:514   */\n      tag_70\n        /* \"#utility.yul\":508:513   */\n      dup2\n        /* \"#utility.yul\":490:514   */\n      tag_47\n      jump\t// in\n    tag_70:\n        /* \"#utility.yul\":483:488   */\n      dup2\n        /* \"#utility.yul\":480:515   */\n      eq\n        /* \"#utility.yul\":470:533   */\n      tag_71\n      jumpi\n        /* \"#utility.yul\":529:530   */\n      0x00\n        /* \"#utility.yul\":526:527   */\n      dup1\n        /* \"#utility.yul\":519:531   */\n      revert\n        /* \"#utility.yul\":470:533   */\n    tag_71:\n        /* \"#utility.yul\":417:539   */\n      pop\n      jump\t// out\n        /* \"#utility.yul\":545:684   */\n    tag_49:\n        /* \"#utility.yul\":591:596   */\n      0x00\n        /* \"#utility.yul\":629:635   */\n      dup2\n        /* \"#utility.yul\":616:636   */\n      calldataload\n        /* \"#utility.yul\":607:636   */\n      swap1\n      pop\n        /* \"#utility.yul\":645:678   */\n      tag_73\n        /* \"#utility.yul\":672:677   */\n      dup2\n        /* \"#utility.yul\":645:678   */\n      tag_48\n      jump\t// in\n    tag_73:\n        /* \"#utility.yul\":545:684   */\n      swap3\n      swap2\n      pop\n      pop\n      jump\t// out\n        /* \"#utility.yul\":690:1019   */\n    tag_9:\n        /* \"#utility.yul\":749:755   */\n      0x00\n        /* \"#utility.yul\":798:800   */\n      0x20\n        /* \"#utility.yul\":786:795   */\n      dup3\n        /* \"#utility.yul\":777:784   */\n      dup5\n        /* \"#utility.yul\":773:796   */\n      sub\n        /* \"#utility.yul\":769:801   */\n      slt\n        /* \"#utility.yul\":766:885   */\n      iszero\n      tag_75\n      jumpi\n        /* \"#utility.yul\":804:883   */\n      tag_76\n      tag_45\n      jump\t// in\n    tag_76:\n        /* \"#utility.yul\":766:885   */\n    tag_75:\n        /* \"#utility.yul\":924:925   */\n      0x00\n        /* \"#utility.yul\":949:1002   */\n      tag_77\n        /* \"#utility.yul\":994:1001   */\n      dup5\n        /* \"#utility.yul\":985:991   */\n      dup3\n        /* \"#utility.yul\":974:983   */\n      dup6\n        /* \"#utility.yul\":970:992   */\n      add\n        /* \"#utility.yul\":949:1002   */\n      tag_49\n      jump\t// in\n    tag_77:\n        /* \"#utility.yul\":939:1002   */\n      swap2\n      pop\n        /* \"#utility.yul\":895:1012   */\n      pop\n        /* \"#utility.yul\":690:1019   */\n      swap3\n      swap2\n      pop\n      pop\n      jump\t// out\n        /* \"#utility.yul\":1025:1151   */\n    tag_50:\n        /* \"#utility.yul\":1062:1069   */\n      0x00\n        /* \"#utility.yul\":1102:1144   */\n      0xffffffffffffffffffffffffffffffffffffffff\n        /* \"#utility.yul\":1095:1100   */\n      dup3\n        /* \"#utility.yul\":1091:1145   */\n      and\n        /* \"#utility.yul\":1080:1145   */\n      swap1\n      pop\n        /* \"#utility.yul\":1025:1151   */\n      swap2\n      swap1\n      pop\n      jump\t// out\n        /* \"#utility.yul\":1157:1253   */\n    tag_51:\n        /* \"#utility.yul\":1194:1201   */\n      0x00\n        /* \"#utility.yul\":1223:1247   */\n      tag_80\n        /* \"#utility.yul\":1241:1246   */\n      dup3\n        /* \"#utility.yul\":1223:1247   */\n      tag_50\n      jump\t// in\n    tag_80:\n        /* \"#utility.yul\":1212:1247   */\n      swap1\n      pop\n        /* \"#utility.yul\":1157:1253   */\n      swap2\n      swap1\n      pop\n      jump\t// out\n        /* \"#utility.yul\":1259:1377   */\n    tag_52:\n        /* \"#utility.yul\":1346:1370   */\n      tag_82\n        /* \"#utility.yul\":1364:1369   */\n      dup2\n        /* \"#utility.yul\":1346:1370   */\n      tag_51\n      jump\t// in\n    tag_82:\n        /* \"#utility.yul\":1341:1344   */\n      dup3\n        /* \"#utility.yul\":1334:1371   */\n      mstore\n        /* \"#utility.yul\":1259:1377   */\n      pop\n      pop\n      jump\t// out\n        /* \"#utility.yul\":1383:1605   */\n    tag_15:\n        /* \"#utility.yul\":1476:1480   */\n      0x00\n        /* \"#utility.yul\":1514:1516   */\n      0x20\n        /* \"#utility.yul\":1503:1512   */\n      dup3\n        /* \"#utility.yul\":1499:1517   */\n      add\n        /* \"#utility.yul\":1491:1517   */\n      swap1\n      pop\n        /* \"#utility.yul\":1527:1598   */\n      tag_84\n        /* \"#utility.yul\":1595:1596   */\n      0x00\n        /* \"#utility.yul\":1584:1593   */\n      dup4\n        /* \"#utility.yul\":1580:1597   */\n      add\n        /* \"#utility.yul\":1571:1577   */\n      dup5\n        /* \"#utility.yul\":1527:1598   */\n      tag_52\n      jump\t// in\n    tag_84:\n        /* \"#utility.yul\":1383:1605   */\n      swap3\n      swap2\n      pop\n      pop\n      jump\t// out\n        /* \"#utility.yul\":1611:1729   */\n    tag_53:\n        /* \"#utility.yul\":1698:1722   */\n      tag_86\n        /* \"#utility.yul\":1716:1721   */\n      dup2\n        /* \"#utility.yul\":1698:1722   */\n      tag_47\n      jump\t// in\n    tag_86:\n        /* \"#utility.yul\":1693:1696   */\n      dup3\n        /* \"#utility.yul\":1686:1723   */\n      mstore\n        /* \"#utility.yul\":1611:1729   */\n      pop\n      pop\n      jump\t// out\n        /* \"#utility.yul\":1735:1957   */\n    tag_20:\n        /* \"#utility.yul\":1828:1832   */\n      0x00\n        /* \"#utility.yul\":1866:1868   */\n      0x20\n        /* \"#utility.yul\":1855:1864   */\n      dup3\n        /* \"#utility.yul\":1851:1869   */\n      add\n        /* \"#utility.yul\":1843:1869   */\n      swap1\n      pop\n        /* \"#utility.yul\":1879:1950   */\n      tag_88\n        /* \"#utility.yul\":1947:1948   */\n      0x00\n        /* \"#utility.yul\":1936:1945   */\n      dup4\n        /* \"#utility.yul\":1932:1949   */\n      add\n        /* \"#utility.yul\":1923:1929   */\n      dup5\n        /* \"#utility.yul\":1879:1950   */\n      tag_53\n      jump\t// in\n    tag_88:\n        /* \"#utility.yul\":1735:1957   */\n      swap3\n      swap2\n      pop\n      pop\n      jump\t// out\n        /* \"#utility.yul\":1963:2132   */\n    tag_54:\n        /* \"#utility.yul\":2047:2058   */\n      0x00\n        /* \"#utility.yul\":2081:2087   */\n      dup3\n        /* \"#utility.yul\":2076:2079   */\n      dup3\n        /* \"#utility.yul\":2069:2088   */\n      mstore\n        /* \"#utility.yul\":2121:2125   */\n      0x20\n        /* \"#utility.yul\":2116:2119   */\n      dup3\n        /* \"#utility.yul\":2112:2126   */\n      add\n        /* \"#utility.yul\":2097:2126   */\n      swap1\n      pop\n        /* \"#utility.yul\":1963:2132   */\n      swap3\n      swap2\n      pop\n      pop\n      jump\t// out\n        /* \"#utility.yul\":2138:2307   */\n    tag_55:\n        /* \"#utility.yul\":2278:2299   */\n      0x536f6c6f20656c2070726f706965746172696f00000000000000000000000000\n        /* \"#utility.yul\":2274:2275   */\n      0x00\n        /* \"#utility.yul\":2266:2272   */\n      dup3\n        /* \"#utility.yul\":2262:2276   */\n      add\n        /* \"#utility.yul\":2255:2300   */\n      mstore\n        /* \"#utility.yul\":2138:2307   */\n      pop\n      jump\t// out\n        /* \"#utility.yul\":2313:2679   */\n    tag_56:\n        /* \"#utility.yul\":2455:2458   */\n      0x00\n        /* \"#utility.yul\":2476:2543   */\n      tag_92\n        /* \"#utility.yul\":2540:2542   */\n      0x13\n        /* \"#utility.yul\":2535:2538   */\n      dup4\n        /* \"#utility.yul\":2476:2543   */\n      tag_54\n      jump\t// in\n    tag_92:\n        /* \"#utility.yul\":2469:2543   */\n      swap2\n      pop\n        /* \"#utility.yul\":2552:2645   */\n      tag_93\n        /* \"#utility.yul\":2641:2644   */\n      dup3\n        /* \"#utility.yul\":2552:2645   */\n      tag_55\n      jump\t// in\n    tag_93:\n        /* \"#utility.yul\":2670:2672   */\n      0x20\n        /* \"#utility.yul\":2665:2668   */\n      dup3\n        /* \"#utility.yul\":2661:2673   */\n      add\n        /* \"#utility.yul\":2654:2673   */\n      swap1\n      pop\n        /* \"#utility.yul\":2313:2679   */\n      swap2\n      swap1\n      pop\n      jump\t// out\n        /* \"#utility.yul\":2685:3104   */\n    tag_26:\n        /* \"#utility.yul\":2851:2855   */\n      0x00\n        /* \"#utility.yul\":2889:2891   */\n      0x20\n        /* \"#utility.yul\":2878:2887   */\n      dup3\n        /* \"#utility.yul\":2874:2892   */\n      add\n        /* \"#utility.yul\":2866:2892   */\n      swap1\n      pop\n        /* \"#utility.yul\":2938:2947   */\n      dup2\n        /* \"#utility.yul\":2932:2936   */\n      dup2\n        /* \"#utility.yul\":2928:2948   */\n      sub\n        /* \"#utility.yul\":2924:2925   */\n      0x00\n        /* \"#utility.yul\":2913:2922   */\n      dup4\n        /* \"#utility.yul\":2909:2926   */\n      add\n        /* \"#utility.yul\":2902:2949   */\n      mstore\n        /* \"#utility.yul\":2966:3097   */\n      tag_95\n        /* \"#utility.yul\":3092:3096   */\n      dup2\n        /* \"#utility.yul\":2966:3097   */\n      tag_56\n      jump\t// in\n    tag_95:\n        /* \"#utility.yul\":2958:3097   */\n      swap1\n      pop\n        /* \"#utility.yul\":2685:3104   */\n      swap2\n      swap1\n      pop\n      jump\t// out\n        /* \"#utility.yul\":3110:3291   */\n    tag_57:\n        /* \"#utility.yul\":3250:3283   */\n      0x416d6f756e742073686f756c642062652067726561746572207468616e203000\n        /* \"#utility.yul\":3246:3247   */\n      0x00\n        /* \"#utility.yul\":3238:3244   */\n      dup3\n        /* \"#utility.yul\":3234:3248   */\n      add\n        /* \"#utility.yul\":3227:3284   */\n      mstore\n        /* \"#utility.yul\":3110:3291   */\n      pop\n      jump\t// out\n        /* \"#utility.yul\":3297:3663   */\n    tag_58:\n        /* \"#utility.yul\":3439:3442   */\n      0x00\n        /* \"#utility.yul\":3460:3527   */\n      tag_98\n        /* \"#utility.yul\":3524:3526   */\n      0x1f\n        /* \"#utility.yul\":3519:3522   */\n      dup4\n        /* \"#utility.yul\":3460:3527   */\n      tag_54\n      jump\t// in\n    tag_98:\n        /* \"#utility.yul\":3453:3527   */\n      swap2\n      pop\n        /* \"#utility.yul\":3536:3629   */\n      tag_99\n        /* \"#utility.yul\":3625:3628   */\n      dup3\n        /* \"#utility.yul\":3536:3629   */\n      tag_57\n      jump\t// in\n    tag_99:\n        /* \"#utility.yul\":3654:3656   */\n      0x20\n        /* \"#utility.yul\":3649:3652   */\n      dup3\n        /* \"#utility.yul\":3645:3657   */\n      add\n        /* \"#utility.yul\":3638:3657   */\n      swap1\n      pop\n        /* \"#utility.yul\":3297:3663   */\n      swap2\n      swap1\n      pop\n      jump\t// out\n        /* \"#utility.yul\":3669:4088   */\n    tag_30:\n        /* \"#utility.yul\":3835:3839   */\n      0x00\n        /* \"#utility.yul\":3873:3875   */\n      0x20\n        /* \"#utility.yul\":3862:3871   */\n      dup3\n        /* \"#utility.yul\":3858:3876   */\n      add\n        /* \"#utility.yul\":3850:3876   */\n      swap1\n      pop\n        /* \"#utility.yul\":3922:3931   */\n      dup2\n        /* \"#utility.yul\":3916:3920   */\n      dup2\n        /* \"#utility.yul\":3912:3932   */\n      sub\n        /* \"#utility.yul\":3908:3909   */\n      0x00\n        /* \"#utility.yul\":3897:3906   */\n      dup4\n        /* \"#utility.yul\":3893:3910   */\n      add\n        /* \"#utility.yul\":3886:3933   */\n      mstore\n        /* \"#utility.yul\":3950:4081   */\n      tag_101\n        /* \"#utility.yul\":4076:4080   */\n      dup2\n        /* \"#utility.yul\":3950:4081   */\n      tag_58\n      jump\t// in\n    tag_101:\n        /* \"#utility.yul\":3942:4081   */\n      swap1\n      pop\n        /* \"#utility.yul\":3669:4088   */\n      swap2\n      swap1\n      pop\n      jump\t// out\n        /* \"#utility.yul\":4094:4264   */\n    tag_59:\n        /* \"#utility.yul\":4234:4256   */\n      0x496e73756666696369656e742062616c616e6365000000000000000000000000\n        /* \"#utility.yul\":4230:4231   */\n      0x00\n        /* \"#utility.yul\":4222:4228   */\n      dup3\n        /* \"#utility.yul\":4218:4232   */\n      add\n        /* \"#utility.yul\":4211:4257   */\n      mstore\n        /* \"#utility.yul\":4094:4264   */\n      pop\n      jump\t// out\n        /* \"#utility.yul\":4270:4636   */\n    tag_60:\n        /* \"#utility.yul\":4412:4415   */\n      0x00\n        /* \"#utility.yul\":4433:4500   */\n      tag_104\n        /* \"#utility.yul\":4497:4499   */\n      0x14\n        /* \"#utility.yul\":4492:4495   */\n      dup4\n        /* \"#utility.yul\":4433:4500   */\n      tag_54\n      jump\t// in\n    tag_104:\n        /* \"#utility.yul\":4426:4500   */\n      swap2\n      pop\n        /* \"#utility.yul\":4509:4602   */\n      tag_105\n        /* \"#utility.yul\":4598:4601   */\n      dup3\n        /* \"#utility.yul\":4509:4602   */\n      tag_59\n      jump\t// in\n    tag_105:\n        /* \"#utility.yul\":4627:4629   */\n      0x20\n        /* \"#utility.yul\":4622:4625   */\n      dup3\n        /* \"#utility.yul\":4618:4630   */\n      add\n        /* \"#utility.yul\":4611:4630   */\n      swap1\n      pop\n        /* \"#utility.yul\":4270:4636   */\n      swap2\n      swap1\n      pop\n      jump\t// out\n        /* \"#utility.yul\":4642:5061   */\n    tag_33:\n        /* \"#utility.yul\":4808:4812   */\n      0x00\n        /* \"#utility.yul\":4846:4848   */\n      0x20\n        /* \"#utility.yul\":4835:4844   */\n      dup3\n        /* \"#utility.yul\":4831:4849   */\n      add\n        /* \"#utility.yul\":4823:4849   */\n      swap1\n      pop\n        /* \"#utility.yul\":4895:4904   */\n      dup2\n        /* \"#utility.yul\":4889:4893   */\n      dup2\n        /* \"#utility.yul\":4885:4905   */\n      sub\n        /* \"#utility.yul\":4881:4882   */\n      0x00\n        /* \"#utility.yul\":4870:4879   */\n      dup4\n        /* \"#utility.yul\":4866:4883   */\n      add\n        /* \"#utility.yul\":4859:4906   */\n      mstore\n        /* \"#utility.yul\":4923:5054   */\n      tag_107\n        /* \"#utility.yul\":5049:5053   */\n      dup2\n        /* \"#utility.yul\":4923:5054   */\n      tag_60\n      jump\t// in\n    tag_107:\n        /* \"#utility.yul\":4915:5054   */\n      swap1\n      pop\n        /* \"#utility.yul\":4642:5061   */\n      swap2\n      swap1\n      pop\n      jump\t// out\n        /* \"#utility.yul\":5067:5247   */\n    tag_61:\n        /* \"#utility.yul\":5115:5192   */\n      0x4e487b7100000000000000000000000000000000000000000000000000000000\n        /* \"#utility.yul\":5112:5113   */\n      0x00\n        /* \"#utility.yul\":5105:5193   */\n      mstore\n        /* \"#utility.yul\":5212:5216   */\n      0x11\n        /* \"#utility.yul\":5209:5210   */\n      0x04\n        /* \"#utility.yul\":5202:5217   */\n      mstore\n        /* \"#utility.yul\":5236:5240   */\n      0x24\n        /* \"#utility.yul\":5233:5234   */\n      0x00\n        /* \"#utility.yul\":5226:5241   */\n      revert\n        /* \"#utility.yul\":5253:5447   */\n    tag_35:\n        /* \"#utility.yul\":5293:5297   */\n      0x00\n        /* \"#utility.yul\":5313:5333   */\n      tag_110\n        /* \"#utility.yul\":5331:5332   */\n      dup3\n        /* \"#utility.yul\":5313:5333   */\n      tag_47\n      jump\t// in\n    tag_110:\n        /* \"#utility.yul\":5308:5333   */\n      swap2\n      pop\n        /* \"#utility.yul\":5347:5367   */\n      tag_111\n        /* \"#utility.yul\":5365:5366   */\n      dup4\n        /* \"#utility.yul\":5347:5367   */\n      tag_47\n      jump\t// in\n    tag_111:\n        /* \"#utility.yul\":5342:5367   */\n      swap3\n      pop\n        /* \"#utility.yul\":5391:5392   */\n      dup3\n        /* \"#utility.yul\":5388:5389   */\n      dup3\n        /* \"#utility.yul\":5384:5393   */\n      sub\n        /* \"#utility.yul\":5376:5393   */\n      swap1\n      pop\n        /* \"#utility.yul\":5415:5416   */\n      dup2\n        /* \"#utility.yul\":5409:5413   */\n      dup2\n        /* \"#utility.yul\":5406:5417   */\n      gt\n        /* \"#utility.yul\":5403:5440   */\n      iszero\n      tag_112\n      jumpi\n        /* \"#utility.yul\":5420:5438   */\n      tag_113\n      tag_61\n      jump\t// in\n    tag_113:\n        /* \"#utility.yul\":5403:5440   */\n    tag_112:\n        /* \"#utility.yul\":5253:5447   */\n      swap3\n      swap2\n      pop\n      pop\n      jump\t// out\n        /* \"#utility.yul\":5453:5614   */\n    tag_62:\n        /* \"#utility.yul\":5593:5606   */\n      0x66616c746120706c617461000000000000000000000000000000000000000000\n        /* \"#utility.yul\":5589:5590   */\n      0x00\n        /* \"#utility.yul\":5581:5587   */\n      dup3\n        /* \"#utility.yul\":5577:5591   */\n      add\n        /* \"#utility.yul\":5570:5607   */\n      mstore\n        /* \"#utility.yul\":5453:5614   */\n      pop\n      jump\t// out\n        /* \"#utility.yul\":5620:5986   */\n    tag_63:\n        /* \"#utility.yul\":5762:5765   */\n      0x00\n        /* \"#utility.yul\":5783:5850   */\n      tag_116\n        /* \"#utility.yul\":5847:5849   */\n      0x0b\n        /* \"#utility.yul\":5842:5845   */\n      dup4\n        /* \"#utility.yul\":5783:5850   */\n      tag_54\n      jump\t// in\n    tag_116:\n        /* \"#utility.yul\":5776:5850   */\n      swap2\n      pop\n        /* \"#utility.yul\":5859:5952   */\n      tag_117\n        /* \"#utility.yul\":5948:5951   */\n      dup3\n        /* \"#utility.yul\":5859:5952   */\n      tag_62\n      jump\t// in\n    tag_117:\n        /* \"#utility.yul\":5977:5979   */\n      0x20\n        /* \"#utility.yul\":5972:5975   */\n      dup3\n        /* \"#utility.yul\":5968:5980   */\n      add\n        /* \"#utility.yul\":5961:5980   */\n      swap1\n      pop\n        /* \"#utility.yul\":5620:5986   */\n      swap2\n      swap1\n      pop\n      jump\t// out\n        /* \"#utility.yul\":5992:6411   */\n    tag_41:\n        /* \"#utility.yul\":6158:6162   */\n      0x00\n        /* \"#utility.yul\":6196:6198   */\n      0x20\n        /* \"#utility.yul\":6185:6194   */\n      dup3\n        /* \"#utility.yul\":6181:6199   */\n      add\n        /* \"#utility.yul\":6173:6199   */\n      swap1\n      pop\n        /* \"#utility.yul\":6245:6254   */\n      dup2\n        /* \"#utility.yul\":6239:6243   */\n      dup2\n        /* \"#utility.yul\":6235:6255   */\n      sub\n        /* \"#utility.yul\":6231:6232   */\n      0x00\n        /* \"#utility.yul\":6220:6229   */\n      dup4\n        /* \"#utility.yul\":6216:6233   */\n      add\n        /* \"#utility.yul\":6209:6256   */\n      mstore\n        /* \"#utility.yul\":6273:6404   */\n      tag_119\n        /* \"#utility.yul\":6399:6403   */\n      dup2\n        /* \"#utility.yul\":6273:6404   */\n      tag_63\n      jump\t// in\n    tag_119:\n        /* \"#utility.yul\":6265:6404   */\n      swap1\n      pop\n        /* \"#utility.yul\":5992:6411   */\n      swap2\n      swap1\n      pop\n      jump\t// out\n        /* \"#utility.yul\":6417:6608   */\n    tag_43:\n        /* \"#utility.yul\":6457:6460   */\n      0x00\n        /* \"#utility.yul\":6476:6496   */\n      tag_121\n        /* \"#utility.yul\":6494:6495   */\n      dup3\n        /* \"#utility.yul\":6476:6496   */\n      tag_47\n      jump\t// in\n    tag_121:\n        /* \"#utility.yul\":6471:6496   */\n      swap2\n      pop\n        /* \"#utility.yul\":6510:6530   */\n      tag_122\n        /* \"#utility.yul\":6528:6529   */\n      dup4\n        /* \"#utility.yul\":6510:6530   */\n      tag_47\n      jump\t// in\n    tag_122:\n        /* \"#utility.yul\":6505:6530   */\n      swap3\n      pop\n        /* \"#utility.yul\":6553:6554   */\n      dup3\n        /* \"#utility.yul\":6550:6551   */\n      dup3\n        /* \"#utility.yul\":6546:6555   */\n      add\n        /* \"#utility.yul\":6539:6555   */\n      swap1\n      pop\n        /* \"#utility.yul\":6574:6577   */\n      dup1\n        /* \"#utility.yul\":6571:6572   */\n      dup3\n        /* \"#utility.yul\":6568:6578   */\n      gt\n        /* \"#utility.yul\":6565:6601   */\n      iszero\n      tag_123\n      jumpi\n        /* \"#utility.yul\":6581:6599   */\n      tag_124\n      tag_61\n      jump\t// in\n    tag_124:\n        /* \"#utility.yul\":6565:6601   */\n    tag_123:\n        /* \"#utility.yul\":6417:6608   */\n      swap3\n      swap2\n      pop\n      pop\n      jump\t// out\n\n    auxdata: 0xa264697066735822122007111b0ee4dfcaa883c9523fe84c94f29eb0a7d4ea0c5bc8720c827dca89351664736f6c63430008110033\n}\n",
				"bytecode": {
					"linkReferences": {},
					"object": "608060405234801561001057600080fd5b50336000806101000a81548173ffffffffffffffffffffffffffffffffffffffff021916908373ffffffffffffffffffffffffffffffffffffffff16021790555061271060018190555061064a806100696000396000f3fe60806040526004361061003f5760003560e01c80632e1a7d4d146100445780638da5cb5b1461006d578063b69ef8a814610098578063d0e30db0146100c3575b600080fd5b34801561005057600080fd5b5061006b60048036038101906100669190610309565b6100cd565b005b34801561007957600080fd5b50610082610246565b60405161008f9190610377565b60405180910390f35b3480156100a457600080fd5b506100ad61026a565b6040516100ba91906103a1565b60405180910390f35b6100cb610270565b005b60008054906101000a900473ffffffffffffffffffffffffffffffffffffffff1673ffffffffffffffffffffffffffffffffffffffff163373ffffffffffffffffffffffffffffffffffffffff161461015b576040517f08c379a000000000000000000000000000000000000000000000000000000000815260040161015290610419565b60405180910390fd5b6000811161019e576040517f08c379a000000000000000000000000000000000000000000000000000000000815260040161019590610485565b60405180910390fd5b6001548111156101e3576040517f08c379a00000000000000000000000000000000000000000000000000000000081526004016101da906104f1565b60405180910390fd5b80600160008282546101f59190610540565b925050819055503373ffffffffffffffffffffffffffffffffffffffff166108fc829081150290604051600060405180830381858888f19350505050158015610242573d6000803e3d6000fd5b5050565b60008054906101000a900473ffffffffffffffffffffffffffffffffffffffff1681565b60015481565b600034116102b3576040517f08c379a00000000000000000000000000000000000000000000000000000000081526004016102aa906105c0565b60405180910390fd5b34600160008282546102c591906105e0565b92505081905550565b600080fd5b6000819050919050565b6102e6816102d3565b81146102f157600080fd5b50565b600081359050610303816102dd565b92915050565b60006020828403121561031f5761031e6102ce565b5b600061032d848285016102f4565b91505092915050565b600073ffffffffffffffffffffffffffffffffffffffff82169050919050565b600061036182610336565b9050919050565b61037181610356565b82525050565b600060208201905061038c6000830184610368565b92915050565b61039b816102d3565b82525050565b60006020820190506103b66000830184610392565b92915050565b600082825260208201905092915050565b7f536f6c6f20656c2070726f706965746172696f00000000000000000000000000600082015250565b60006104036013836103bc565b915061040e826103cd565b602082019050919050565b60006020820190508181036000830152610432816103f6565b9050919050565b7f416d6f756e742073686f756c642062652067726561746572207468616e203000600082015250565b600061046f601f836103bc565b915061047a82610439565b602082019050919050565b6000602082019050818103600083015261049e81610462565b9050919050565b7f496e73756666696369656e742062616c616e6365000000000000000000000000600082015250565b60006104db6014836103bc565b91506104e6826104a5565b602082019050919050565b6000602082019050818103600083015261050a816104ce565b9050919050565b7f4e487b7100000000000000000000000000000000000000000000000000000000600052601160045260246000fd5b600061054b826102d3565b9150610556836102d3565b925082820390508181111561056e5761056d610511565b5b92915050565b7f66616c746120706c617461000000000000000000000000000000000000000000600082015250565b60006105aa600b836103bc565b91506105b582610574565b602082019050919050565b600060208201905081810360008301526105d98161059d565b9050919050565b60006105eb826102d3565b91506105f6836102d3565b925082820190508082111561060e5761060d610511565b5b9291505056fea264697066735822122007111b0ee4dfcaa883c9523fe84c94f29eb0a7d4ea0c5bc8720c827dca89351664736f6c63430008110033",
					"opcodes": "PUSH1 0x80 PUSH1 0x40 MSTORE CALLVALUE DUP1 ISZERO PUSH2 0x10 JUMPI PUSH1 0x0 DUP1 REVERT JUMPDEST POP CALLER PUSH1 0x0 DUP1 PUSH2 0x100 EXP DUP2 SLOAD DUP2 PUSH20 0xFFFFFFFFFFFFFFFFFFFFFFFFFFFFFFFFFFFFFFFF MUL NOT AND SWAP1 DUP4 PUSH20 0xFFFFFFFFFFFFFFFFFFFFFFFFFFFFFFFFFFFFFFFF AND MUL OR SWAP1 SSTORE POP PUSH2 0x2710 PUSH1 0x1 DUP2 SWAP1 SSTORE POP PUSH2 0x64A DUP1 PUSH2 0x69 PUSH1 0x0 CODECOPY PUSH1 0x0 RETURN INVALID PUSH1 0x80 PUSH1 0x40 MSTORE PUSH1 0x4 CALLDATASIZE LT PUSH2 0x3F JUMPI PUSH1 0x0 CALLDATALOAD PUSH1 0xE0 SHR DUP1 PUSH4 0x2E1A7D4D EQ PUSH2 0x44 JUMPI DUP1 PUSH4 0x8DA5CB5B EQ PUSH2 0x6D JUMPI DUP1 PUSH4 0xB69EF8A8 EQ PUSH2 0x98 JUMPI DUP1 PUSH4 0xD0E30DB0 EQ PUSH2 0xC3 JUMPI JUMPDEST PUSH1 0x0 DUP1 REVERT JUMPDEST CALLVALUE DUP1 ISZERO PUSH2 0x50 JUMPI PUSH1 0x0 DUP1 REVERT JUMPDEST POP PUSH2 0x6B PUSH1 0x4 DUP1 CALLDATASIZE SUB DUP2 ADD SWAP1 PUSH2 0x66 SWAP2 SWAP1 PUSH2 0x309 JUMP JUMPDEST PUSH2 0xCD JUMP JUMPDEST STOP JUMPDEST CALLVALUE DUP1 ISZERO PUSH2 0x79 JUMPI PUSH1 0x0 DUP1 REVERT JUMPDEST POP PUSH2 0x82 PUSH2 0x246 JUMP JUMPDEST PUSH1 0x40 MLOAD PUSH2 0x8F SWAP2 SWAP1 PUSH2 0x377 JUMP JUMPDEST PUSH1 0x40 MLOAD DUP1 SWAP2 SUB SWAP1 RETURN JUMPDEST CALLVALUE DUP1 ISZERO PUSH2 0xA4 JUMPI PUSH1 0x0 DUP1 REVERT JUMPDEST POP PUSH2 0xAD PUSH2 0x26A JUMP JUMPDEST PUSH1 0x40 MLOAD PUSH2 0xBA SWAP2 SWAP1 PUSH2 0x3A1 JUMP JUMPDEST PUSH1 0x40 MLOAD DUP1 SWAP2 SUB SWAP1 RETURN JUMPDEST PUSH2 0xCB PUSH2 0x270 JUMP JUMPDEST STOP JUMPDEST PUSH1 0x0 DUP1 SLOAD SWAP1 PUSH2 0x100 EXP SWAP1 DIV PUSH20 0xFFFFFFFFFFFFFFFFFFFFFFFFFFFFFFFFFFFFFFFF AND PUSH20 0xFFFFFFFFFFFFFFFFFFFFFFFFFFFFFFFFFFFFFFFF AND CALLER PUSH20 0xFFFFFFFFFFFFFFFFFFFFFFFFFFFFFFFFFFFFFFFF AND EQ PUSH2 0x15B JUMPI PUSH1 0x40 MLOAD PUSH32 0x8C379A000000000000000000000000000000000000000000000000000000000 DUP2 MSTORE PUSH1 0x4 ADD PUSH2 0x152 SWAP1 PUSH2 0x419 JUMP JUMPDEST PUSH1 0x40 MLOAD DUP1 SWAP2 SUB SWAP1 REVERT JUMPDEST PUSH1 0x0 DUP2 GT PUSH2 0x19E JUMPI PUSH1 0x40 MLOAD PUSH32 0x8C379A000000000000000000000000000000000000000000000000000000000 DUP2 MSTORE PUSH1 0x4 ADD PUSH2 0x195 SWAP1 PUSH2 0x485 JUMP JUMPDEST PUSH1 0x40 MLOAD DUP1 SWAP2 SUB SWAP1 REVERT JUMPDEST PUSH1 0x1 SLOAD DUP2 GT ISZERO PUSH2 0x1E3 JUMPI PUSH1 0x40 MLOAD PUSH32 0x8C379A000000000000000000000000000000000000000000000000000000000 DUP2 MSTORE PUSH1 0x4 ADD PUSH2 0x1DA SWAP1 PUSH2 0x4F1 JUMP JUMPDEST PUSH1 0x40 MLOAD DUP1 SWAP2 SUB SWAP1 REVERT JUMPDEST DUP1 PUSH1 0x1 PUSH1 0x0 DUP3 DUP3 SLOAD PUSH2 0x1F5 SWAP2 SWAP1 PUSH2 0x540 JUMP JUMPDEST SWAP3 POP POP DUP2 SWAP1 SSTORE POP CALLER PUSH20 0xFFFFFFFFFFFFFFFFFFFFFFFFFFFFFFFFFFFFFFFF AND PUSH2 0x8FC DUP3 SWAP1 DUP2 ISZERO MUL SWAP1 PUSH1 0x40 MLOAD PUSH1 0x0 PUSH1 0x40 MLOAD DUP1 DUP4 SUB DUP2 DUP6 DUP9 DUP9 CALL SWAP4 POP POP POP POP ISZERO DUP1 ISZERO PUSH2 0x242 JUMPI RETURNDATASIZE PUSH1 0x0 DUP1 RETURNDATACOPY RETURNDATASIZE PUSH1 0x0 REVERT JUMPDEST POP POP JUMP JUMPDEST PUSH1 0x0 DUP1 SLOAD SWAP1 PUSH2 0x100 EXP SWAP1 DIV PUSH20 0xFFFFFFFFFFFFFFFFFFFFFFFFFFFFFFFFFFFFFFFF AND DUP2 JUMP JUMPDEST PUSH1 0x1 SLOAD DUP2 JUMP JUMPDEST PUSH1 0x0 CALLVALUE GT PUSH2 0x2B3 JUMPI PUSH1 0x40 MLOAD PUSH32 0x8C379A000000000000000000000000000000000000000000000000000000000 DUP2 MSTORE PUSH1 0x4 ADD PUSH2 0x2AA SWAP1 PUSH2 0x5C0 JUMP JUMPDEST PUSH1 0x40 MLOAD DUP1 SWAP2 SUB SWAP1 REVERT JUMPDEST CALLVALUE PUSH1 0x1 PUSH1 0x0 DUP3 DUP3 SLOAD PUSH2 0x2C5 SWAP2 SWAP1 PUSH2 0x5E0 JUMP JUMPDEST SWAP3 POP POP DUP2 SWAP1 SSTORE POP JUMP JUMPDEST PUSH1 0x0 DUP1 REVERT JUMPDEST PUSH1 0x0 DUP2 SWAP1 POP SWAP2 SWAP1 POP JUMP JUMPDEST PUSH2 0x2E6 DUP2 PUSH2 0x2D3 JUMP JUMPDEST DUP2 EQ PUSH2 0x2F1 JUMPI PUSH1 0x0 DUP1 REVERT JUMPDEST POP JUMP JUMPDEST PUSH1 0x0 DUP2 CALLDATALOAD SWAP1 POP PUSH2 0x303 DUP2 PUSH2 0x2DD JUMP JUMPDEST SWAP3 SWAP2 POP POP JUMP JUMPDEST PUSH1 0x0 PUSH1 0x20 DUP3 DUP5 SUB SLT ISZERO PUSH2 0x31F JUMPI PUSH2 0x31E PUSH2 0x2CE JUMP JUMPDEST JUMPDEST PUSH1 0x0 PUSH2 0x32D DUP5 DUP3 DUP6 ADD PUSH2 0x2F4 JUMP JUMPDEST SWAP2 POP POP SWAP3 SWAP2 POP POP JUMP JUMPDEST PUSH1 0x0 PUSH20 0xFFFFFFFFFFFFFFFFFFFFFFFFFFFFFFFFFFFFFFFF DUP3 AND SWAP1 POP SWAP2 SWAP1 POP JUMP JUMPDEST PUSH1 0x0 PUSH2 0x361 DUP3 PUSH2 0x336 JUMP JUMPDEST SWAP1 POP SWAP2 SWAP1 POP JUMP JUMPDEST PUSH2 0x371 DUP2 PUSH2 0x356 JUMP JUMPDEST DUP3 MSTORE POP POP JUMP JUMPDEST PUSH1 0x0 PUSH1 0x20 DUP3 ADD SWAP1 POP PUSH2 0x38C PUSH1 0x0 DUP4 ADD DUP5 PUSH2 0x368 JUMP JUMPDEST SWAP3 SWAP2 POP POP JUMP JUMPDEST PUSH2 0x39B DUP2 PUSH2 0x2D3 JUMP JUMPDEST DUP3 MSTORE POP POP JUMP JUMPDEST PUSH1 0x0 PUSH1 0x20 DUP3 ADD SWAP1 POP PUSH2 0x3B6 PUSH1 0x0 DUP4 ADD DUP5 PUSH2 0x392 JUMP JUMPDEST SWAP3 SWAP2 POP POP JUMP JUMPDEST PUSH1 0x0 DUP3 DUP3 MSTORE PUSH1 0x20 DUP3 ADD SWAP1 POP SWAP3 SWAP2 POP POP JUMP JUMPDEST PUSH32 0x536F6C6F20656C2070726F706965746172696F00000000000000000000000000 PUSH1 0x0 DUP3 ADD MSTORE POP JUMP JUMPDEST PUSH1 0x0 PUSH2 0x403 PUSH1 0x13 DUP4 PUSH2 0x3BC JUMP JUMPDEST SWAP2 POP PUSH2 0x40E DUP3 PUSH2 0x3CD JUMP JUMPDEST PUSH1 0x20 DUP3 ADD SWAP1 POP SWAP2 SWAP1 POP JUMP JUMPDEST PUSH1 0x0 PUSH1 0x20 DUP3 ADD SWAP1 POP DUP2 DUP2 SUB PUSH1 0x0 DUP4 ADD MSTORE PUSH2 0x432 DUP2 PUSH2 0x3F6 JUMP JUMPDEST SWAP1 POP SWAP2 SWAP1 POP JUMP JUMPDEST PUSH32 0x416D6F756E742073686F756C642062652067726561746572207468616E203000 PUSH1 0x0 DUP3 ADD MSTORE POP JUMP JUMPDEST PUSH1 0x0 PUSH2 0x46F PUSH1 0x1F DUP4 PUSH2 0x3BC JUMP JUMPDEST SWAP2 POP PUSH2 0x47A DUP3 PUSH2 0x439 JUMP JUMPDEST PUSH1 0x20 DUP3 ADD SWAP1 POP SWAP2 SWAP1 POP JUMP JUMPDEST PUSH1 0x0 PUSH1 0x20 DUP3 ADD SWAP1 POP DUP2 DUP2 SUB PUSH1 0x0 DUP4 ADD MSTORE PUSH2 0x49E DUP2 PUSH2 0x462 JUMP JUMPDEST SWAP1 POP SWAP2 SWAP1 POP JUMP JUMPDEST PUSH32 0x496E73756666696369656E742062616C616E6365000000000000000000000000 PUSH1 0x0 DUP3 ADD MSTORE POP JUMP JUMPDEST PUSH1 0x0 PUSH2 0x4DB PUSH1 0x14 DUP4 PUSH2 0x3BC JUMP JUMPDEST SWAP2 POP PUSH2 0x4E6 DUP3 PUSH2 0x4A5 JUMP JUMPDEST PUSH1 0x20 DUP3 ADD SWAP1 POP SWAP2 SWAP1 POP JUMP JUMPDEST PUSH1 0x0 PUSH1 0x20 DUP3 ADD SWAP1 POP DUP2 DUP2 SUB PUSH1 0x0 DUP4 ADD MSTORE PUSH2 0x50A DUP2 PUSH2 0x4CE JUMP JUMPDEST SWAP1 POP SWAP2 SWAP1 POP JUMP JUMPDEST PUSH32 0x4E487B7100000000000000000000000000000000000000000000000000000000 PUSH1 0x0 MSTORE PUSH1 0x11 PUSH1 0x4 MSTORE PUSH1 0x24 PUSH1 0x0 REVERT JUMPDEST PUSH1 0x0 PUSH2 0x54B DUP3 PUSH2 0x2D3 JUMP JUMPDEST SWAP2 POP PUSH2 0x556 DUP4 PUSH2 0x2D3 JUMP JUMPDEST SWAP3 POP DUP3 DUP3 SUB SWAP1 POP DUP2 DUP2 GT ISZERO PUSH2 0x56E JUMPI PUSH2 0x56D PUSH2 0x511 JUMP JUMPDEST JUMPDEST SWAP3 SWAP2 POP POP JUMP JUMPDEST PUSH32 0x66616C746120706C617461000000000000000000000000000000000000000000 PUSH1 0x0 DUP3 ADD MSTORE POP JUMP JUMPDEST PUSH1 0x0 PUSH2 0x5AA PUSH1 0xB DUP4 PUSH2 0x3BC JUMP JUMPDEST SWAP2 POP PUSH2 0x5B5 DUP3 PUSH2 0x574 JUMP JUMPDEST PUSH1 0x20 DUP3 ADD SWAP1 POP SWAP2 SWAP1 POP JUMP JUMPDEST PUSH1 0x0 PUSH1 0x20 DUP3 ADD SWAP1 POP DUP2 DUP2 SUB PUSH1 0x0 DUP4 ADD MSTORE PUSH2 0x5D9 DUP2 PUSH2 0x59D JUMP JUMPDEST SWAP1 POP SWAP2 SWAP1 POP JUMP JUMPDEST PUSH1 0x0 PUSH2 0x5EB DUP3 PUSH2 0x2D3 JUMP JUMPDEST SWAP2 POP PUSH2 0x5F6 DUP4 PUSH2 0x2D3 JUMP JUMPDEST SWAP3 POP DUP3 DUP3 ADD SWAP1 POP DUP1 DUP3 GT ISZERO PUSH2 0x60E JUMPI PUSH2 0x60D PUSH2 0x511 JUMP JUMPDEST JUMPDEST SWAP3 SWAP2 POP POP JUMP INVALID LOG2 PUSH5 0x6970667358 0x22 SLT KECCAK256 SMOD GT SHL 0xE 0xE4 0xDF 0xCA 0xA8 DUP4 0xC9 MSTORE EXTCODEHASH 0xE8 0x4C SWAP5 CALLCODE SWAP15 0xB0 0xA7 0xD4 0xEA 0xC JUMPDEST 0xC8 PUSH19 0xC827DCA89351664736F6C6343000811003300 "
				},
				"gasEstimates": {
					"creation": {
						"codeDepositCost": "322000",
						"executionCost": "46742",
						"totalCost": "368742"
					},
					"external": {
						"balance()": "2451",
						"deposit()": "infinite",
						"owner()": "2511",
						"withdraw(uint256)": "infinite"
					}
				},
				"methodIdentifiers": {
					"balance()": "b69ef8a8",
					"deposit()": "d0e30db0",
					"owner()": "8da5cb5b",
					"withdraw(uint256)": "2e1a7d4d"
				}
			},
			"storageLayout": {
				"storage": [
					{
						"astId": 3,
						"contract": "Clase 03/SimpleWalletO.sol:Wallet",
						"label": "owner",
						"offset": 0,
						"slot": "0",
						"type": "t_address"
					},
					{
						"astId": 5,
						"contract": "Clase 03/SimpleWalletO.sol:Wallet",
						"label": "balance",
						"offset": 0,
						"slot": "1",
						"type": "t_uint256"
					}
				],
				"types": {
					"t_address": {
						"encoding": "inplace",
						"label": "address",
						"numberOfBytes": "20"
					},
					"t_uint256": {
						"encoding": "inplace",
						"label": "uint256",
						"numberOfBytes": "32"
					}
				}
			},
			"userdoc": {
				"kind": "user",
				"methods": {},
				"version": 1
			}
		}
	}
}