{
	"Clase 03/mySecondSC.sol": {
		"SimpleWallet": {
			"abi": [
				{
					"inputs": [],
					"stateMutability": "nonpayable",
					"type": "constructor"
				},
				{
					"inputs": [
						{
							"internalType": "uint256",
							"name": "a",
							"type": "uint256"
						},
						{
							"internalType": "uint256",
							"name": "b",
							"type": "uint256"
						}
					],
					"name": "add",
					"outputs": [
						{
							"internalType": "uint256",
							"name": "",
							"type": "uint256"
						}
					],
					"stateMutability": "pure",
					"type": "function"
				},
				{
					"inputs": [],
					"name": "balance",
					"outputs": [
						{
							"internalType": "uint256",
							"name": "",
							"type": "uint256"
						}
					],
					"stateMutability": "view",
					"type": "function"
				},
				{
					"inputs": [],
					"name": "checkBalance",
					"outputs": [
						{
							"internalType": "uint256",
							"name": "",
							"type": "uint256"
						}
					],
					"stateMutability": "view",
					"type": "function"
				},
				{
					"inputs": [],
					"name": "deposit",
					"outputs": [],
					"stateMutability": "payable",
					"type": "function"
				},
				{
					"inputs": [],
					"name": "getOwner",
					"outputs": [
						{
							"internalType": "address",
							"name": "",
							"type": "address"
						}
					],
					"stateMutability": "view",
					"type": "function"
				},
				{
					"inputs": [],
					"name": "owner",
					"outputs": [
						{
							"internalType": "address",
							"name": "",
							"type": "address"
						}
					],
					"stateMutability": "view",
					"type": "function"
				},
				{
					"inputs": [
						{
							"internalType": "uint256",
							"name": "amount",
							"type": "uint256"
						}
					],
					"name": "withdraw",
					"outputs": [],
					"stateMutability": "nonpayable",
					"type": "function"
				}
			],
			"devdoc": {
				"kind": "dev",
				"methods": {},
				"version": 1
			},
			"evm": {
				"assembly": "    /* \"Clase 03/mySecondSC.sol\":57:1340  contract SimpleWallet {... */\n  mstore(0x40, 0x80)\n    /* \"Clase 03/mySecondSC.sol\":176:225  constructor() {... */\n  callvalue\n  dup1\n  iszero\n  tag_1\n  jumpi\n  0x00\n  dup1\n  revert\ntag_1:\n  pop\n    /* \"Clase 03/mySecondSC.sol\":208:218  msg.sender */\n  caller\n    /* \"Clase 03/mySecondSC.sol\":200:205  owner */\n  0x00\n  dup1\n    /* \"Clase 03/mySecondSC.sol\":200:218  owner = msg.sender */\n  0x0100\n  exp\n  dup2\n  sload\n  dup2\n  0xffffffffffffffffffffffffffffffffffffffff\n  mul\n  not\n  and\n  swap1\n  dup4\n  0xffffffffffffffffffffffffffffffffffffffff\n  and\n  mul\n  or\n  swap1\n  sstore\n  pop\n    /* \"Clase 03/mySecondSC.sol\":57:1340  contract SimpleWallet {... */\n  dataSize(sub_0)\n  dup1\n  dataOffset(sub_0)\n  0x00\n  codecopy\n  0x00\n  return\nstop\n\nsub_0: assembly {\n        /* \"Clase 03/mySecondSC.sol\":57:1340  contract SimpleWallet {... */\n      mstore(0x40, 0x80)\n      jumpi(tag_1, lt(calldatasize, 0x04))\n      shr(0xe0, calldataload(0x00))\n      dup1\n      0x8da5cb5b\n      gt\n      tag_9\n      jumpi\n      dup1\n      0x8da5cb5b\n      eq\n      tag_5\n      jumpi\n      dup1\n      0xb69ef8a8\n      eq\n      tag_6\n      jumpi\n      dup1\n      0xc71daccb\n      eq\n      tag_7\n      jumpi\n      dup1\n      0xd0e30db0\n      eq\n      tag_8\n      jumpi\n      jump(tag_1)\n    tag_9:\n      dup1\n      0x2e1a7d4d\n      eq\n      tag_2\n      jumpi\n      dup1\n      0x771602f7\n      eq\n      tag_3\n      jumpi\n      dup1\n      0x893d20e8\n      eq\n      tag_4\n      jumpi\n    tag_1:\n      0x00\n      dup1\n      revert\n        /* \"Clase 03/mySecondSC.sol\":496:753  function withdraw(uint256 amount) public {... */\n    tag_2:\n      callvalue\n      dup1\n      iszero\n      tag_10\n      jumpi\n      0x00\n      dup1\n      revert\n    tag_10:\n      pop\n      tag_11\n      0x04\n      dup1\n      calldatasize\n      sub\n      dup2\n      add\n      swap1\n      tag_12\n      swap2\n      swap1\n      tag_13\n      jump\t// in\n    tag_12:\n      tag_14\n      jump\t// in\n    tag_11:\n      stop\n        /* \"Clase 03/mySecondSC.sol\":1111:1205  function add(uint256 a, uint256 b) public pure returns (uint256) {... */\n    tag_3:\n      callvalue\n      dup1\n      iszero\n      tag_15\n      jumpi\n      0x00\n      dup1\n      revert\n    tag_15:\n      pop\n      tag_16\n      0x04\n      dup1\n      calldatasize\n      sub\n      dup2\n      add\n      swap1\n      tag_17\n      swap2\n      swap1\n      tag_18\n      jump\t// in\n    tag_17:\n      tag_19\n      jump\t// in\n    tag_16:\n      mload(0x40)\n      tag_20\n      swap2\n      swap1\n      tag_21\n      jump\t// in\n    tag_20:\n      mload(0x40)\n      dup1\n      swap2\n      sub\n      swap1\n      return\n        /* \"Clase 03/mySecondSC.sol\":1259:1338  function getOwner() public view returns (address) {... */\n    tag_4:\n      callvalue\n      dup1\n      iszero\n      tag_22\n      jumpi\n      0x00\n      dup1\n      revert\n    tag_22:\n      pop\n      tag_23\n      tag_24\n      jump\t// in\n    tag_23:\n      mload(0x40)\n      tag_25\n      swap2\n      swap1\n      tag_26\n      jump\t// in\n    tag_25:\n      mload(0x40)\n      dup1\n      swap2\n      sub\n      swap1\n      return\n        /* \"Clase 03/mySecondSC.sol\":85:105  address public owner */\n    tag_5:\n      callvalue\n      dup1\n      iszero\n      tag_27\n      jumpi\n      0x00\n      dup1\n      revert\n    tag_27:\n      pop\n      tag_28\n      tag_29\n      jump\t// in\n    tag_28:\n      mload(0x40)\n      tag_30\n      swap2\n      swap1\n      tag_26\n      jump\t// in\n    tag_30:\n      mload(0x40)\n      dup1\n      swap2\n      sub\n      swap1\n      return\n        /* \"Clase 03/mySecondSC.sol\":111:133  uint256 public balance */\n    tag_6:\n      callvalue\n      dup1\n      iszero\n      tag_31\n      jumpi\n      0x00\n      dup1\n      revert\n    tag_31:\n      pop\n      tag_32\n      tag_33\n      jump\t// in\n    tag_32:\n      mload(0x40)\n      tag_34\n      swap2\n      swap1\n      tag_21\n      jump\t// in\n    tag_34:\n      mload(0x40)\n      dup1\n      swap2\n      sub\n      swap1\n      return\n        /* \"Clase 03/mySecondSC.sol\":958:1048  function checkBalance() public view returns (uint256) {... */\n    tag_7:\n      callvalue\n      dup1\n      iszero\n      tag_35\n      jumpi\n      0x00\n      dup1\n      revert\n    tag_35:\n      pop\n      tag_36\n      tag_37\n      jump\t// in\n    tag_36:\n      mload(0x40)\n      tag_38\n      swap2\n      swap1\n      tag_21\n      jump\t// in\n    tag_38:\n      mload(0x40)\n      dup1\n      swap2\n      sub\n      swap1\n      return\n        /* \"Clase 03/mySecondSC.sol\":287:433  function deposit() public payable {... */\n    tag_8:\n      tag_39\n      tag_40\n      jump\t// in\n    tag_39:\n      stop\n        /* \"Clase 03/mySecondSC.sol\":496:753  function withdraw(uint256 amount) public {... */\n    tag_14:\n        /* \"Clase 03/mySecondSC.sol\":564:565  0 */\n      0x00\n        /* \"Clase 03/mySecondSC.sol\":555:561  amount */\n      dup2\n        /* \"Clase 03/mySecondSC.sol\":555:565  amount > 0 */\n      gt\n        /* \"Clase 03/mySecondSC.sol\":547:612  require(amount > 0, \"Withdrawal amount should be greater than 0\") */\n      tag_42\n      jumpi\n      mload(0x40)\n      0x08c379a000000000000000000000000000000000000000000000000000000000\n      dup2\n      mstore\n      0x04\n      add\n      tag_43\n      swap1\n      tag_44\n      jump\t// in\n    tag_43:\n      mload(0x40)\n      dup1\n      swap2\n      sub\n      swap1\n      revert\n    tag_42:\n        /* \"Clase 03/mySecondSC.sol\":640:647  balance */\n      sload(0x01)\n        /* \"Clase 03/mySecondSC.sol\":630:636  amount */\n      dup2\n        /* \"Clase 03/mySecondSC.sol\":630:647  amount <= balance */\n      gt\n      iszero\n        /* \"Clase 03/mySecondSC.sol\":622:672  require(amount <= balance, \"Insufficient balance\") */\n      tag_45\n      jumpi\n      mload(0x40)\n      0x08c379a000000000000000000000000000000000000000000000000000000000\n      dup2\n      mstore\n      0x04\n      add\n      tag_46\n      swap1\n      tag_47\n      jump\t// in\n    tag_46:\n      mload(0x40)\n      dup1\n      swap2\n      sub\n      swap1\n      revert\n    tag_45:\n        /* \"Clase 03/mySecondSC.sol\":694:700  amount */\n      dup1\n        /* \"Clase 03/mySecondSC.sol\":683:690  balance */\n      0x01\n      0x00\n        /* \"Clase 03/mySecondSC.sol\":683:700  balance -= amount */\n      dup3\n      dup3\n      sload\n      tag_48\n      swap2\n      swap1\n      tag_49\n      jump\t// in\n    tag_48:\n      swap3\n      pop\n      pop\n      dup2\n      swap1\n      sstore\n      pop\n        /* \"Clase 03/mySecondSC.sol\":718:728  msg.sender */\n      caller\n        /* \"Clase 03/mySecondSC.sol\":710:738  payable(msg.sender).transfer */\n      0xffffffffffffffffffffffffffffffffffffffff\n      and\n        /* \"Clase 03/mySecondSC.sol\":710:746  payable(msg.sender).transfer(amount) */\n      0x08fc\n        /* \"Clase 03/mySecondSC.sol\":739:745  amount */\n      dup3\n        /* \"Clase 03/mySecondSC.sol\":710:746  payable(msg.sender).transfer(amount) */\n      swap1\n      dup2\n      iszero\n      mul\n      swap1\n      mload(0x40)\n      0x00\n      mload(0x40)\n      dup1\n      dup4\n      sub\n      dup2\n      dup6\n      dup9\n      dup9\n      call\n      swap4\n      pop\n      pop\n      pop\n      pop\n      iszero\n      dup1\n      iszero\n      tag_51\n      jumpi\n      returndatasize\n      0x00\n      dup1\n      returndatacopy\n      revert(0x00, returndatasize)\n    tag_51:\n      pop\n        /* \"Clase 03/mySecondSC.sol\":496:753  function withdraw(uint256 amount) public {... */\n      pop\n      jump\t// out\n        /* \"Clase 03/mySecondSC.sol\":1111:1205  function add(uint256 a, uint256 b) public pure returns (uint256) {... */\n    tag_19:\n        /* \"Clase 03/mySecondSC.sol\":1167:1174  uint256 */\n      0x00\n        /* \"Clase 03/mySecondSC.sol\":1197:1198  b */\n      dup2\n        /* \"Clase 03/mySecondSC.sol\":1193:1194  a */\n      dup4\n        /* \"Clase 03/mySecondSC.sol\":1193:1198  a + b */\n      tag_53\n      swap2\n      swap1\n      tag_54\n      jump\t// in\n    tag_53:\n        /* \"Clase 03/mySecondSC.sol\":1186:1198  return a + b */\n      swap1\n      pop\n        /* \"Clase 03/mySecondSC.sol\":1111:1205  function add(uint256 a, uint256 b) public pure returns (uint256) {... */\n      swap3\n      swap2\n      pop\n      pop\n      jump\t// out\n        /* \"Clase 03/mySecondSC.sol\":1259:1338  function getOwner() public view returns (address) {... */\n    tag_24:\n        /* \"Clase 03/mySecondSC.sol\":1300:1307  address */\n      0x00\n        /* \"Clase 03/mySecondSC.sol\":1326:1331  owner */\n      dup1\n      0x00\n      swap1\n      sload\n      swap1\n      0x0100\n      exp\n      swap1\n      div\n      0xffffffffffffffffffffffffffffffffffffffff\n      and\n        /* \"Clase 03/mySecondSC.sol\":1319:1331  return owner */\n      swap1\n      pop\n        /* \"Clase 03/mySecondSC.sol\":1259:1338  function getOwner() public view returns (address) {... */\n      swap1\n      jump\t// out\n        /* \"Clase 03/mySecondSC.sol\":85:105  address public owner */\n    tag_29:\n      0x00\n      dup1\n      sload\n      swap1\n      0x0100\n      exp\n      swap1\n      div\n      0xffffffffffffffffffffffffffffffffffffffff\n      and\n      dup2\n      jump\t// out\n        /* \"Clase 03/mySecondSC.sol\":111:133  uint256 public balance */\n    tag_33:\n      sload(0x01)\n      dup2\n      jump\t// out\n        /* \"Clase 03/mySecondSC.sol\":958:1048  function checkBalance() public view returns (uint256) {... */\n    tag_37:\n        /* \"Clase 03/mySecondSC.sol\":1003:1010  uint256 */\n      0x00\n        /* \"Clase 03/mySecondSC.sol\":1029:1041  getBalance() */\n      tag_57\n        /* \"Clase 03/mySecondSC.sol\":1029:1039  getBalance */\n      tag_58\n        /* \"Clase 03/mySecondSC.sol\":1029:1041  getBalance() */\n      jump\t// in\n    tag_57:\n        /* \"Clase 03/mySecondSC.sol\":1022:1041  return getBalance() */\n      swap1\n      pop\n        /* \"Clase 03/mySecondSC.sol\":958:1048  function checkBalance() public view returns (uint256) {... */\n      swap1\n      jump\t// out\n        /* \"Clase 03/mySecondSC.sol\":287:433  function deposit() public payable {... */\n    tag_40:\n        /* \"Clase 03/mySecondSC.sol\":351:352  0 */\n      0x00\n        /* \"Clase 03/mySecondSC.sol\":339:348  msg.value */\n      callvalue\n        /* \"Clase 03/mySecondSC.sol\":339:352  msg.value > 0 */\n      gt\n        /* \"Clase 03/mySecondSC.sol\":331:396  require(msg.value > 0, \"Deposit amount should be greater than 0\") */\n      tag_60\n      jumpi\n      mload(0x40)\n      0x08c379a000000000000000000000000000000000000000000000000000000000\n      dup2\n      mstore\n      0x04\n      add\n      tag_61\n      swap1\n      tag_62\n      jump\t// in\n    tag_61:\n      mload(0x40)\n      dup1\n      swap2\n      sub\n      swap1\n      revert\n    tag_60:\n        /* \"Clase 03/mySecondSC.sol\":417:426  msg.value */\n      callvalue\n        /* \"Clase 03/mySecondSC.sol\":406:413  balance */\n      0x01\n      0x00\n        /* \"Clase 03/mySecondSC.sol\":406:426  balance += msg.value */\n      dup3\n      dup3\n      sload\n      tag_63\n      swap2\n      swap1\n      tag_54\n      jump\t// in\n    tag_63:\n      swap3\n      pop\n      pop\n      dup2\n      swap1\n      sstore\n      pop\n        /* \"Clase 03/mySecondSC.sol\":287:433  function deposit() public payable {... */\n      jump\t// out\n        /* \"Clase 03/mySecondSC.sol\":813:897  function getBalance() private view returns (uint256) {... */\n    tag_58:\n        /* \"Clase 03/mySecondSC.sol\":857:864  uint256 */\n      0x00\n        /* \"Clase 03/mySecondSC.sol\":883:890  balance */\n      sload(0x01)\n        /* \"Clase 03/mySecondSC.sol\":876:890  return balance */\n      swap1\n      pop\n        /* \"Clase 03/mySecondSC.sol\":813:897  function getBalance() private view returns (uint256) {... */\n      swap1\n      jump\t// out\n        /* \"#utility.yul\":88:205   */\n    tag_66:\n        /* \"#utility.yul\":197:198   */\n      0x00\n        /* \"#utility.yul\":194:195   */\n      dup1\n        /* \"#utility.yul\":187:199   */\n      revert\n        /* \"#utility.yul\":334:411   */\n    tag_68:\n        /* \"#utility.yul\":371:378   */\n      0x00\n        /* \"#utility.yul\":400:405   */\n      dup2\n        /* \"#utility.yul\":389:405   */\n      swap1\n      pop\n        /* \"#utility.yul\":334:411   */\n      swap2\n      swap1\n      pop\n      jump\t// out\n        /* \"#utility.yul\":417:539   */\n    tag_69:\n        /* \"#utility.yul\":490:514   */\n      tag_89\n        /* \"#utility.yul\":508:513   */\n      dup2\n        /* \"#utility.yul\":490:514   */\n      tag_68\n      jump\t// in\n    tag_89:\n        /* \"#utility.yul\":483:488   */\n      dup2\n        /* \"#utility.yul\":480:515   */\n      eq\n        /* \"#utility.yul\":470:533   */\n      tag_90\n      jumpi\n        /* \"#utility.yul\":529:530   */\n      0x00\n        /* \"#utility.yul\":526:527   */\n      dup1\n        /* \"#utility.yul\":519:531   */\n      revert\n        /* \"#utility.yul\":470:533   */\n    tag_90:\n        /* \"#utility.yul\":417:539   */\n      pop\n      jump\t// out\n        /* \"#utility.yul\":545:684   */\n    tag_70:\n        /* \"#utility.yul\":591:596   */\n      0x00\n        /* \"#utility.yul\":629:635   */\n      dup2\n        /* \"#utility.yul\":616:636   */\n      calldataload\n        /* \"#utility.yul\":607:636   */\n      swap1\n      pop\n        /* \"#utility.yul\":645:678   */\n      tag_92\n        /* \"#utility.yul\":672:677   */\n      dup2\n        /* \"#utility.yul\":645:678   */\n      tag_69\n      jump\t// in\n    tag_92:\n        /* \"#utility.yul\":545:684   */\n      swap3\n      swap2\n      pop\n      pop\n      jump\t// out\n        /* \"#utility.yul\":690:1019   */\n    tag_13:\n        /* \"#utility.yul\":749:755   */\n      0x00\n        /* \"#utility.yul\":798:800   */\n      0x20\n        /* \"#utility.yul\":786:795   */\n      dup3\n        /* \"#utility.yul\":777:784   */\n      dup5\n        /* \"#utility.yul\":773:796   */\n      sub\n        /* \"#utility.yul\":769:801   */\n      slt\n        /* \"#utility.yul\":766:885   */\n      iszero\n      tag_94\n      jumpi\n        /* \"#utility.yul\":804:883   */\n      tag_95\n      tag_66\n      jump\t// in\n    tag_95:\n        /* \"#utility.yul\":766:885   */\n    tag_94:\n        /* \"#utility.yul\":924:925   */\n      0x00\n        /* \"#utility.yul\":949:1002   */\n      tag_96\n        /* \"#utility.yul\":994:1001   */\n      dup5\n        /* \"#utility.yul\":985:991   */\n      dup3\n        /* \"#utility.yul\":974:983   */\n      dup6\n        /* \"#utility.yul\":970:992   */\n      add\n        /* \"#utility.yul\":949:1002   */\n      tag_70\n      jump\t// in\n    tag_96:\n        /* \"#utility.yul\":939:1002   */\n      swap2\n      pop\n        /* \"#utility.yul\":895:1012   */\n      pop\n        /* \"#utility.yul\":690:1019   */\n      swap3\n      swap2\n      pop\n      pop\n      jump\t// out\n        /* \"#utility.yul\":1025:1499   */\n    tag_18:\n        /* \"#utility.yul\":1093:1099   */\n      0x00\n        /* \"#utility.yul\":1101:1107   */\n      dup1\n        /* \"#utility.yul\":1150:1152   */\n      0x40\n        /* \"#utility.yul\":1138:1147   */\n      dup4\n        /* \"#utility.yul\":1129:1136   */\n      dup6\n        /* \"#utility.yul\":1125:1148   */\n      sub\n        /* \"#utility.yul\":1121:1153   */\n      slt\n        /* \"#utility.yul\":1118:1237   */\n      iszero\n      tag_98\n      jumpi\n        /* \"#utility.yul\":1156:1235   */\n      tag_99\n      tag_66\n      jump\t// in\n    tag_99:\n        /* \"#utility.yul\":1118:1237   */\n    tag_98:\n        /* \"#utility.yul\":1276:1277   */\n      0x00\n        /* \"#utility.yul\":1301:1354   */\n      tag_100\n        /* \"#utility.yul\":1346:1353   */\n      dup6\n        /* \"#utility.yul\":1337:1343   */\n      dup3\n        /* \"#utility.yul\":1326:1335   */\n      dup7\n        /* \"#utility.yul\":1322:1344   */\n      add\n        /* \"#utility.yul\":1301:1354   */\n      tag_70\n      jump\t// in\n    tag_100:\n        /* \"#utility.yul\":1291:1354   */\n      swap3\n      pop\n        /* \"#utility.yul\":1247:1364   */\n      pop\n        /* \"#utility.yul\":1403:1405   */\n      0x20\n        /* \"#utility.yul\":1429:1482   */\n      tag_101\n        /* \"#utility.yul\":1474:1481   */\n      dup6\n        /* \"#utility.yul\":1465:1471   */\n      dup3\n        /* \"#utility.yul\":1454:1463   */\n      dup7\n        /* \"#utility.yul\":1450:1472   */\n      add\n        /* \"#utility.yul\":1429:1482   */\n      tag_70\n      jump\t// in\n    tag_101:\n        /* \"#utility.yul\":1419:1482   */\n      swap2\n      pop\n        /* \"#utility.yul\":1374:1492   */\n      pop\n        /* \"#utility.yul\":1025:1499   */\n      swap3\n      pop\n      swap3\n      swap1\n      pop\n      jump\t// out\n        /* \"#utility.yul\":1505:1623   */\n    tag_71:\n        /* \"#utility.yul\":1592:1616   */\n      tag_103\n        /* \"#utility.yul\":1610:1615   */\n      dup2\n        /* \"#utility.yul\":1592:1616   */\n      tag_68\n      jump\t// in\n    tag_103:\n        /* \"#utility.yul\":1587:1590   */\n      dup3\n        /* \"#utility.yul\":1580:1617   */\n      mstore\n        /* \"#utility.yul\":1505:1623   */\n      pop\n      pop\n      jump\t// out\n        /* \"#utility.yul\":1629:1851   */\n    tag_21:\n        /* \"#utility.yul\":1722:1726   */\n      0x00\n        /* \"#utility.yul\":1760:1762   */\n      0x20\n        /* \"#utility.yul\":1749:1758   */\n      dup3\n        /* \"#utility.yul\":1745:1763   */\n      add\n        /* \"#utility.yul\":1737:1763   */\n      swap1\n      pop\n        /* \"#utility.yul\":1773:1844   */\n      tag_105\n        /* \"#utility.yul\":1841:1842   */\n      0x00\n        /* \"#utility.yul\":1830:1839   */\n      dup4\n        /* \"#utility.yul\":1826:1843   */\n      add\n        /* \"#utility.yul\":1817:1823   */\n      dup5\n        /* \"#utility.yul\":1773:1844   */\n      tag_71\n      jump\t// in\n    tag_105:\n        /* \"#utility.yul\":1629:1851   */\n      swap3\n      swap2\n      pop\n      pop\n      jump\t// out\n        /* \"#utility.yul\":1857:1983   */\n    tag_72:\n        /* \"#utility.yul\":1894:1901   */\n      0x00\n        /* \"#utility.yul\":1934:1976   */\n      0xffffffffffffffffffffffffffffffffffffffff\n        /* \"#utility.yul\":1927:1932   */\n      dup3\n        /* \"#utility.yul\":1923:1977   */\n      and\n        /* \"#utility.yul\":1912:1977   */\n      swap1\n      pop\n        /* \"#utility.yul\":1857:1983   */\n      swap2\n      swap1\n      pop\n      jump\t// out\n        /* \"#utility.yul\":1989:2085   */\n    tag_73:\n        /* \"#utility.yul\":2026:2033   */\n      0x00\n        /* \"#utility.yul\":2055:2079   */\n      tag_108\n        /* \"#utility.yul\":2073:2078   */\n      dup3\n        /* \"#utility.yul\":2055:2079   */\n      tag_72\n      jump\t// in\n    tag_108:\n        /* \"#utility.yul\":2044:2079   */\n      swap1\n      pop\n        /* \"#utility.yul\":1989:2085   */\n      swap2\n      swap1\n      pop\n      jump\t// out\n        /* \"#utility.yul\":2091:2209   */\n    tag_74:\n        /* \"#utility.yul\":2178:2202   */\n      tag_110\n        /* \"#utility.yul\":2196:2201   */\n      dup2\n        /* \"#utility.yul\":2178:2202   */\n      tag_73\n      jump\t// in\n    tag_110:\n        /* \"#utility.yul\":2173:2176   */\n      dup3\n        /* \"#utility.yul\":2166:2203   */\n      mstore\n        /* \"#utility.yul\":2091:2209   */\n      pop\n      pop\n      jump\t// out\n        /* \"#utility.yul\":2215:2437   */\n    tag_26:\n        /* \"#utility.yul\":2308:2312   */\n      0x00\n        /* \"#utility.yul\":2346:2348   */\n      0x20\n        /* \"#utility.yul\":2335:2344   */\n      dup3\n        /* \"#utility.yul\":2331:2349   */\n      add\n        /* \"#utility.yul\":2323:2349   */\n      swap1\n      pop\n        /* \"#utility.yul\":2359:2430   */\n      tag_112\n        /* \"#utility.yul\":2427:2428   */\n      0x00\n        /* \"#utility.yul\":2416:2425   */\n      dup4\n        /* \"#utility.yul\":2412:2429   */\n      add\n        /* \"#utility.yul\":2403:2409   */\n      dup5\n        /* \"#utility.yul\":2359:2430   */\n      tag_74\n      jump\t// in\n    tag_112:\n        /* \"#utility.yul\":2215:2437   */\n      swap3\n      swap2\n      pop\n      pop\n      jump\t// out\n        /* \"#utility.yul\":2443:2612   */\n    tag_75:\n        /* \"#utility.yul\":2527:2538   */\n      0x00\n        /* \"#utility.yul\":2561:2567   */\n      dup3\n        /* \"#utility.yul\":2556:2559   */\n      dup3\n        /* \"#utility.yul\":2549:2568   */\n      mstore\n        /* \"#utility.yul\":2601:2605   */\n      0x20\n        /* \"#utility.yul\":2596:2599   */\n      dup3\n        /* \"#utility.yul\":2592:2606   */\n      add\n        /* \"#utility.yul\":2577:2606   */\n      swap1\n      pop\n        /* \"#utility.yul\":2443:2612   */\n      swap3\n      swap2\n      pop\n      pop\n      jump\t// out\n        /* \"#utility.yul\":2618:2847   */\n    tag_76:\n        /* \"#utility.yul\":2758:2792   */\n      0x5769746864726177616c20616d6f756e742073686f756c642062652067726561\n        /* \"#utility.yul\":2754:2755   */\n      0x00\n        /* \"#utility.yul\":2746:2752   */\n      dup3\n        /* \"#utility.yul\":2742:2756   */\n      add\n        /* \"#utility.yul\":2735:2793   */\n      mstore\n        /* \"#utility.yul\":2827:2839   */\n      0x746572207468616e203000000000000000000000000000000000000000000000\n        /* \"#utility.yul\":2822:2824   */\n      0x20\n        /* \"#utility.yul\":2814:2820   */\n      dup3\n        /* \"#utility.yul\":2810:2825   */\n      add\n        /* \"#utility.yul\":2803:2840   */\n      mstore\n        /* \"#utility.yul\":2618:2847   */\n      pop\n      jump\t// out\n        /* \"#utility.yul\":2853:3219   */\n    tag_77:\n        /* \"#utility.yul\":2995:2998   */\n      0x00\n        /* \"#utility.yul\":3016:3083   */\n      tag_116\n        /* \"#utility.yul\":3080:3082   */\n      0x2a\n        /* \"#utility.yul\":3075:3078   */\n      dup4\n        /* \"#utility.yul\":3016:3083   */\n      tag_75\n      jump\t// in\n    tag_116:\n        /* \"#utility.yul\":3009:3083   */\n      swap2\n      pop\n        /* \"#utility.yul\":3092:3185   */\n      tag_117\n        /* \"#utility.yul\":3181:3184   */\n      dup3\n        /* \"#utility.yul\":3092:3185   */\n      tag_76\n      jump\t// in\n    tag_117:\n        /* \"#utility.yul\":3210:3212   */\n      0x40\n        /* \"#utility.yul\":3205:3208   */\n      dup3\n        /* \"#utility.yul\":3201:3213   */\n      add\n        /* \"#utility.yul\":3194:3213   */\n      swap1\n      pop\n        /* \"#utility.yul\":2853:3219   */\n      swap2\n      swap1\n      pop\n      jump\t// out\n        /* \"#utility.yul\":3225:3644   */\n    tag_44:\n        /* \"#utility.yul\":3391:3395   */\n      0x00\n        /* \"#utility.yul\":3429:3431   */\n      0x20\n        /* \"#utility.yul\":3418:3427   */\n      dup3\n        /* \"#utility.yul\":3414:3432   */\n      add\n        /* \"#utility.yul\":3406:3432   */\n      swap1\n      pop\n        /* \"#utility.yul\":3478:3487   */\n      dup2\n        /* \"#utility.yul\":3472:3476   */\n      dup2\n        /* \"#utility.yul\":3468:3488   */\n      sub\n        /* \"#utility.yul\":3464:3465   */\n      0x00\n        /* \"#utility.yul\":3453:3462   */\n      dup4\n        /* \"#utility.yul\":3449:3466   */\n      add\n        /* \"#utility.yul\":3442:3489   */\n      mstore\n        /* \"#utility.yul\":3506:3637   */\n      tag_119\n        /* \"#utility.yul\":3632:3636   */\n      dup2\n        /* \"#utility.yul\":3506:3637   */\n      tag_77\n      jump\t// in\n    tag_119:\n        /* \"#utility.yul\":3498:3637   */\n      swap1\n      pop\n        /* \"#utility.yul\":3225:3644   */\n      swap2\n      swap1\n      pop\n      jump\t// out\n        /* \"#utility.yul\":3650:3820   */\n    tag_78:\n        /* \"#utility.yul\":3790:3812   */\n      0x496e73756666696369656e742062616c616e6365000000000000000000000000\n        /* \"#utility.yul\":3786:3787   */\n      0x00\n        /* \"#utility.yul\":3778:3784   */\n      dup3\n        /* \"#utility.yul\":3774:3788   */\n      add\n        /* \"#utility.yul\":3767:3813   */\n      mstore\n        /* \"#utility.yul\":3650:3820   */\n      pop\n      jump\t// out\n        /* \"#utility.yul\":3826:4192   */\n    tag_79:\n        /* \"#utility.yul\":3968:3971   */\n      0x00\n        /* \"#utility.yul\":3989:4056   */\n      tag_122\n        /* \"#utility.yul\":4053:4055   */\n      0x14\n        /* \"#utility.yul\":4048:4051   */\n      dup4\n        /* \"#utility.yul\":3989:4056   */\n      tag_75\n      jump\t// in\n    tag_122:\n        /* \"#utility.yul\":3982:4056   */\n      swap2\n      pop\n        /* \"#utility.yul\":4065:4158   */\n      tag_123\n        /* \"#utility.yul\":4154:4157   */\n      dup3\n        /* \"#utility.yul\":4065:4158   */\n      tag_78\n      jump\t// in\n    tag_123:\n        /* \"#utility.yul\":4183:4185   */\n      0x20\n        /* \"#utility.yul\":4178:4181   */\n      dup3\n        /* \"#utility.yul\":4174:4186   */\n      add\n        /* \"#utility.yul\":4167:4186   */\n      swap1\n      pop\n        /* \"#utility.yul\":3826:4192   */\n      swap2\n      swap1\n      pop\n      jump\t// out\n        /* \"#utility.yul\":4198:4617   */\n    tag_47:\n        /* \"#utility.yul\":4364:4368   */\n      0x00\n        /* \"#utility.yul\":4402:4404   */\n      0x20\n        /* \"#utility.yul\":4391:4400   */\n      dup3\n        /* \"#utility.yul\":4387:4405   */\n      add\n        /* \"#utility.yul\":4379:4405   */\n      swap1\n      pop\n        /* \"#utility.yul\":4451:4460   */\n      dup2\n        /* \"#utility.yul\":4445:4449   */\n      dup2\n        /* \"#utility.yul\":4441:4461   */\n      sub\n        /* \"#utility.yul\":4437:4438   */\n      0x00\n        /* \"#utility.yul\":4426:4435   */\n      dup4\n        /* \"#utility.yul\":4422:4439   */\n      add\n        /* \"#utility.yul\":4415:4462   */\n      mstore\n        /* \"#utility.yul\":4479:4610   */\n      tag_125\n        /* \"#utility.yul\":4605:4609   */\n      dup2\n        /* \"#utility.yul\":4479:4610   */\n      tag_79\n      jump\t// in\n    tag_125:\n        /* \"#utility.yul\":4471:4610   */\n      swap1\n      pop\n        /* \"#utility.yul\":4198:4617   */\n      swap2\n      swap1\n      pop\n      jump\t// out\n        /* \"#utility.yul\":4623:4803   */\n    tag_80:\n        /* \"#utility.yul\":4671:4748   */\n      0x4e487b7100000000000000000000000000000000000000000000000000000000\n        /* \"#utility.yul\":4668:4669   */\n      0x00\n        /* \"#utility.yul\":4661:4749   */\n      mstore\n        /* \"#utility.yul\":4768:4772   */\n      0x11\n        /* \"#utility.yul\":4765:4766   */\n      0x04\n        /* \"#utility.yul\":4758:4773   */\n      mstore\n        /* \"#utility.yul\":4792:4796   */\n      0x24\n        /* \"#utility.yul\":4789:4790   */\n      0x00\n        /* \"#utility.yul\":4782:4797   */\n      revert\n        /* \"#utility.yul\":4809:5003   */\n    tag_49:\n        /* \"#utility.yul\":4849:4853   */\n      0x00\n        /* \"#utility.yul\":4869:4889   */\n      tag_128\n        /* \"#utility.yul\":4887:4888   */\n      dup3\n        /* \"#utility.yul\":4869:4889   */\n      tag_68\n      jump\t// in\n    tag_128:\n        /* \"#utility.yul\":4864:4889   */\n      swap2\n      pop\n        /* \"#utility.yul\":4903:4923   */\n      tag_129\n        /* \"#utility.yul\":4921:4922   */\n      dup4\n        /* \"#utility.yul\":4903:4923   */\n      tag_68\n      jump\t// in\n    tag_129:\n        /* \"#utility.yul\":4898:4923   */\n      swap3\n      pop\n        /* \"#utility.yul\":4947:4948   */\n      dup3\n        /* \"#utility.yul\":4944:4945   */\n      dup3\n        /* \"#utility.yul\":4940:4949   */\n      sub\n        /* \"#utility.yul\":4932:4949   */\n      swap1\n      pop\n        /* \"#utility.yul\":4971:4972   */\n      dup2\n        /* \"#utility.yul\":4965:4969   */\n      dup2\n        /* \"#utility.yul\":4962:4973   */\n      gt\n        /* \"#utility.yul\":4959:4996   */\n      iszero\n      tag_130\n      jumpi\n        /* \"#utility.yul\":4976:4994   */\n      tag_131\n      tag_80\n      jump\t// in\n    tag_131:\n        /* \"#utility.yul\":4959:4996   */\n    tag_130:\n        /* \"#utility.yul\":4809:5003   */\n      swap3\n      swap2\n      pop\n      pop\n      jump\t// out\n        /* \"#utility.yul\":5009:5200   */\n    tag_54:\n        /* \"#utility.yul\":5049:5052   */\n      0x00\n        /* \"#utility.yul\":5068:5088   */\n      tag_133\n        /* \"#utility.yul\":5086:5087   */\n      dup3\n        /* \"#utility.yul\":5068:5088   */\n      tag_68\n      jump\t// in\n    tag_133:\n        /* \"#utility.yul\":5063:5088   */\n      swap2\n      pop\n        /* \"#utility.yul\":5102:5122   */\n      tag_134\n        /* \"#utility.yul\":5120:5121   */\n      dup4\n        /* \"#utility.yul\":5102:5122   */\n      tag_68\n      jump\t// in\n    tag_134:\n        /* \"#utility.yul\":5097:5122   */\n      swap3\n      pop\n        /* \"#utility.yul\":5145:5146   */\n      dup3\n        /* \"#utility.yul\":5142:5143   */\n      dup3\n        /* \"#utility.yul\":5138:5147   */\n      add\n        /* \"#utility.yul\":5131:5147   */\n      swap1\n      pop\n        /* \"#utility.yul\":5166:5169   */\n      dup1\n        /* \"#utility.yul\":5163:5164   */\n      dup3\n        /* \"#utility.yul\":5160:5170   */\n      gt\n        /* \"#utility.yul\":5157:5193   */\n      iszero\n      tag_135\n      jumpi\n        /* \"#utility.yul\":5173:5191   */\n      tag_136\n      tag_80\n      jump\t// in\n    tag_136:\n        /* \"#utility.yul\":5157:5193   */\n    tag_135:\n        /* \"#utility.yul\":5009:5200   */\n      swap3\n      swap2\n      pop\n      pop\n      jump\t// out\n        /* \"#utility.yul\":5206:5432   */\n    tag_81:\n        /* \"#utility.yul\":5346:5380   */\n      0x4465706f73697420616d6f756e742073686f756c642062652067726561746572\n        /* \"#utility.yul\":5342:5343   */\n      0x00\n        /* \"#utility.yul\":5334:5340   */\n      dup3\n        /* \"#utility.yul\":5330:5344   */\n      add\n        /* \"#utility.yul\":5323:5381   */\n      mstore\n        /* \"#utility.yul\":5415:5424   */\n      0x207468616e203000000000000000000000000000000000000000000000000000\n        /* \"#utility.yul\":5410:5412   */\n      0x20\n        /* \"#utility.yul\":5402:5408   */\n      dup3\n        /* \"#utility.yul\":5398:5413   */\n      add\n        /* \"#utility.yul\":5391:5425   */\n      mstore\n        /* \"#utility.yul\":5206:5432   */\n      pop\n      jump\t// out\n        /* \"#utility.yul\":5438:5804   */\n    tag_82:\n        /* \"#utility.yul\":5580:5583   */\n      0x00\n        /* \"#utility.yul\":5601:5668   */\n      tag_139\n        /* \"#utility.yul\":5665:5667   */\n      0x27\n        /* \"#utility.yul\":5660:5663   */\n      dup4\n        /* \"#utility.yul\":5601:5668   */\n      tag_75\n      jump\t// in\n    tag_139:\n        /* \"#utility.yul\":5594:5668   */\n      swap2\n      pop\n        /* \"#utility.yul\":5677:5770   */\n      tag_140\n        /* \"#utility.yul\":5766:5769   */\n      dup3\n        /* \"#utility.yul\":5677:5770   */\n      tag_81\n      jump\t// in\n    tag_140:\n        /* \"#utility.yul\":5795:5797   */\n      0x40\n        /* \"#utility.yul\":5790:5793   */\n      dup3\n        /* \"#utility.yul\":5786:5798   */\n      add\n        /* \"#utility.yul\":5779:5798   */\n      swap1\n      pop\n        /* \"#utility.yul\":5438:5804   */\n      swap2\n      swap1\n      pop\n      jump\t// out\n        /* \"#utility.yul\":5810:6229   */\n    tag_62:\n        /* \"#utility.yul\":5976:5980   */\n      0x00\n        /* \"#utility.yul\":6014:6016   */\n      0x20\n        /* \"#utility.yul\":6003:6012   */\n      dup3\n        /* \"#utility.yul\":5999:6017   */\n      add\n        /* \"#utility.yul\":5991:6017   */\n      swap1\n      pop\n        /* \"#utility.yul\":6063:6072   */\n      dup2\n        /* \"#utility.yul\":6057:6061   */\n      dup2\n        /* \"#utility.yul\":6053:6073   */\n      sub\n        /* \"#utility.yul\":6049:6050   */\n      0x00\n        /* \"#utility.yul\":6038:6047   */\n      dup4\n        /* \"#utility.yul\":6034:6051   */\n      add\n        /* \"#utility.yul\":6027:6074   */\n      mstore\n        /* \"#utility.yul\":6091:6222   */\n      tag_142\n        /* \"#utility.yul\":6217:6221   */\n      dup2\n        /* \"#utility.yul\":6091:6222   */\n      tag_82\n      jump\t// in\n    tag_142:\n        /* \"#utility.yul\":6083:6222   */\n      swap1\n      pop\n        /* \"#utility.yul\":5810:6229   */\n      swap2\n      swap1\n      pop\n      jump\t// out\n\n    auxdata: 0xa26469706673582212206417371f6b5000405c4e9213352332ae155219fbe4cf8662ccfa762744427c8464736f6c63430008110033\n}\n",
				"bytecode": {
					"linkReferences": {},
					"object": "608060405234801561001057600080fd5b50336000806101000a81548173ffffffffffffffffffffffffffffffffffffffff021916908373ffffffffffffffffffffffffffffffffffffffff1602179055506106f8806100606000396000f3fe6080604052600436106100705760003560e01c80638da5cb5b1161004e5780638da5cb5b14610106578063b69ef8a814610131578063c71daccb1461015c578063d0e30db01461018757610070565b80632e1a7d4d14610075578063771602f71461009e578063893d20e8146100db575b600080fd5b34801561008157600080fd5b5061009c60048036038101906100979190610397565b610191565b005b3480156100aa57600080fd5b506100c560048036038101906100c091906103c4565b61027c565b6040516100d29190610413565b60405180910390f35b3480156100e757600080fd5b506100f0610292565b6040516100fd919061046f565b60405180910390f35b34801561011257600080fd5b5061011b6102bb565b604051610128919061046f565b60405180910390f35b34801561013d57600080fd5b506101466102df565b6040516101539190610413565b60405180910390f35b34801561016857600080fd5b506101716102e5565b60405161017e9190610413565b60405180910390f35b61018f6102f4565b005b600081116101d4576040517f08c379a00000000000000000000000000000000000000000000000000000000081526004016101cb9061050d565b60405180910390fd5b600154811115610219576040517f08c379a000000000000000000000000000000000000000000000000000000000815260040161021090610579565b60405180910390fd5b806001600082825461022b91906105c8565b925050819055503373ffffffffffffffffffffffffffffffffffffffff166108fc829081150290604051600060405180830381858888f19350505050158015610278573d6000803e3d6000fd5b5050565b6000818361028a91906105fc565b905092915050565b60008060009054906101000a900473ffffffffffffffffffffffffffffffffffffffff16905090565b60008054906101000a900473ffffffffffffffffffffffffffffffffffffffff1681565b60015481565b60006102ef610352565b905090565b60003411610337576040517f08c379a000000000000000000000000000000000000000000000000000000000815260040161032e906106a2565b60405180910390fd5b346001600082825461034991906105fc565b92505081905550565b6000600154905090565b600080fd5b6000819050919050565b61037481610361565b811461037f57600080fd5b50565b6000813590506103918161036b565b92915050565b6000602082840312156103ad576103ac61035c565b5b60006103bb84828501610382565b91505092915050565b600080604083850312156103db576103da61035c565b5b60006103e985828601610382565b92505060206103fa85828601610382565b9150509250929050565b61040d81610361565b82525050565b60006020820190506104286000830184610404565b92915050565b600073ffffffffffffffffffffffffffffffffffffffff82169050919050565b60006104598261042e565b9050919050565b6104698161044e565b82525050565b60006020820190506104846000830184610460565b92915050565b600082825260208201905092915050565b7f5769746864726177616c20616d6f756e742073686f756c64206265206772656160008201527f746572207468616e203000000000000000000000000000000000000000000000602082015250565b60006104f7602a8361048a565b91506105028261049b565b604082019050919050565b60006020820190508181036000830152610526816104ea565b9050919050565b7f496e73756666696369656e742062616c616e6365000000000000000000000000600082015250565b600061056360148361048a565b915061056e8261052d565b602082019050919050565b6000602082019050818103600083015261059281610556565b9050919050565b7f4e487b7100000000000000000000000000000000000000000000000000000000600052601160045260246000fd5b60006105d382610361565b91506105de83610361565b92508282039050818111156105f6576105f5610599565b5b92915050565b600061060782610361565b915061061283610361565b925082820190508082111561062a57610629610599565b5b92915050565b7f4465706f73697420616d6f756e742073686f756c64206265206772656174657260008201527f207468616e203000000000000000000000000000000000000000000000000000602082015250565b600061068c60278361048a565b915061069782610630565b604082019050919050565b600060208201905081810360008301526106bb8161067f565b905091905056fea26469706673582212206417371f6b5000405c4e9213352332ae155219fbe4cf8662ccfa762744427c8464736f6c63430008110033",
					"opcodes": "PUSH1 0x80 PUSH1 0x40 MSTORE CALLVALUE DUP1 ISZERO PUSH2 0x10 JUMPI PUSH1 0x0 DUP1 REVERT JUMPDEST POP CALLER PUSH1 0x0 DUP1 PUSH2 0x100 EXP DUP2 SLOAD DUP2 PUSH20 0xFFFFFFFFFFFFFFFFFFFFFFFFFFFFFFFFFFFFFFFF MUL NOT AND SWAP1 DUP4 PUSH20 0xFFFFFFFFFFFFFFFFFFFFFFFFFFFFFFFFFFFFFFFF AND MUL OR SWAP1 SSTORE POP PUSH2 0x6F8 DUP1 PUSH2 0x60 PUSH1 0x0 CODECOPY PUSH1 0x0 RETURN INVALID PUSH1 0x80 PUSH1 0x40 MSTORE PUSH1 0x4 CALLDATASIZE LT PUSH2 0x70 JUMPI PUSH1 0x0 CALLDATALOAD PUSH1 0xE0 SHR DUP1 PUSH4 0x8DA5CB5B GT PUSH2 0x4E JUMPI DUP1 PUSH4 0x8DA5CB5B EQ PUSH2 0x106 JUMPI DUP1 PUSH4 0xB69EF8A8 EQ PUSH2 0x131 JUMPI DUP1 PUSH4 0xC71DACCB EQ PUSH2 0x15C JUMPI DUP1 PUSH4 0xD0E30DB0 EQ PUSH2 0x187 JUMPI PUSH2 0x70 JUMP JUMPDEST DUP1 PUSH4 0x2E1A7D4D EQ PUSH2 0x75 JUMPI DUP1 PUSH4 0x771602F7 EQ PUSH2 0x9E JUMPI DUP1 PUSH4 0x893D20E8 EQ PUSH2 0xDB JUMPI JUMPDEST PUSH1 0x0 DUP1 REVERT JUMPDEST CALLVALUE DUP1 ISZERO PUSH2 0x81 JUMPI PUSH1 0x0 DUP1 REVERT JUMPDEST POP PUSH2 0x9C PUSH1 0x4 DUP1 CALLDATASIZE SUB DUP2 ADD SWAP1 PUSH2 0x97 SWAP2 SWAP1 PUSH2 0x397 JUMP JUMPDEST PUSH2 0x191 JUMP JUMPDEST STOP JUMPDEST CALLVALUE DUP1 ISZERO PUSH2 0xAA JUMPI PUSH1 0x0 DUP1 REVERT JUMPDEST POP PUSH2 0xC5 PUSH1 0x4 DUP1 CALLDATASIZE SUB DUP2 ADD SWAP1 PUSH2 0xC0 SWAP2 SWAP1 PUSH2 0x3C4 JUMP JUMPDEST PUSH2 0x27C JUMP JUMPDEST PUSH1 0x40 MLOAD PUSH2 0xD2 SWAP2 SWAP1 PUSH2 0x413 JUMP JUMPDEST PUSH1 0x40 MLOAD DUP1 SWAP2 SUB SWAP1 RETURN JUMPDEST CALLVALUE DUP1 ISZERO PUSH2 0xE7 JUMPI PUSH1 0x0 DUP1 REVERT JUMPDEST POP PUSH2 0xF0 PUSH2 0x292 JUMP JUMPDEST PUSH1 0x40 MLOAD PUSH2 0xFD SWAP2 SWAP1 PUSH2 0x46F JUMP JUMPDEST PUSH1 0x40 MLOAD DUP1 SWAP2 SUB SWAP1 RETURN JUMPDEST CALLVALUE DUP1 ISZERO PUSH2 0x112 JUMPI PUSH1 0x0 DUP1 REVERT JUMPDEST POP PUSH2 0x11B PUSH2 0x2BB JUMP JUMPDEST PUSH1 0x40 MLOAD PUSH2 0x128 SWAP2 SWAP1 PUSH2 0x46F JUMP JUMPDEST PUSH1 0x40 MLOAD DUP1 SWAP2 SUB SWAP1 RETURN JUMPDEST CALLVALUE DUP1 ISZERO PUSH2 0x13D JUMPI PUSH1 0x0 DUP1 REVERT JUMPDEST POP PUSH2 0x146 PUSH2 0x2DF JUMP JUMPDEST PUSH1 0x40 MLOAD PUSH2 0x153 SWAP2 SWAP1 PUSH2 0x413 JUMP JUMPDEST PUSH1 0x40 MLOAD DUP1 SWAP2 SUB SWAP1 RETURN JUMPDEST CALLVALUE DUP1 ISZERO PUSH2 0x168 JUMPI PUSH1 0x0 DUP1 REVERT JUMPDEST POP PUSH2 0x171 PUSH2 0x2E5 JUMP JUMPDEST PUSH1 0x40 MLOAD PUSH2 0x17E SWAP2 SWAP1 PUSH2 0x413 JUMP JUMPDEST PUSH1 0x40 MLOAD DUP1 SWAP2 SUB SWAP1 RETURN JUMPDEST PUSH2 0x18F PUSH2 0x2F4 JUMP JUMPDEST STOP JUMPDEST PUSH1 0x0 DUP2 GT PUSH2 0x1D4 JUMPI PUSH1 0x40 MLOAD PUSH32 0x8C379A000000000000000000000000000000000000000000000000000000000 DUP2 MSTORE PUSH1 0x4 ADD PUSH2 0x1CB SWAP1 PUSH2 0x50D JUMP JUMPDEST PUSH1 0x40 MLOAD DUP1 SWAP2 SUB SWAP1 REVERT JUMPDEST PUSH1 0x1 SLOAD DUP2 GT ISZERO PUSH2 0x219 JUMPI PUSH1 0x40 MLOAD PUSH32 0x8C379A000000000000000000000000000000000000000000000000000000000 DUP2 MSTORE PUSH1 0x4 ADD PUSH2 0x210 SWAP1 PUSH2 0x579 JUMP JUMPDEST PUSH1 0x40 MLOAD DUP1 SWAP2 SUB SWAP1 REVERT JUMPDEST DUP1 PUSH1 0x1 PUSH1 0x0 DUP3 DUP3 SLOAD PUSH2 0x22B SWAP2 SWAP1 PUSH2 0x5C8 JUMP JUMPDEST SWAP3 POP POP DUP2 SWAP1 SSTORE POP CALLER PUSH20 0xFFFFFFFFFFFFFFFFFFFFFFFFFFFFFFFFFFFFFFFF AND PUSH2 0x8FC DUP3 SWAP1 DUP2 ISZERO MUL SWAP1 PUSH1 0x40 MLOAD PUSH1 0x0 PUSH1 0x40 MLOAD DUP1 DUP4 SUB DUP2 DUP6 DUP9 DUP9 CALL SWAP4 POP POP POP POP ISZERO DUP1 ISZERO PUSH2 0x278 JUMPI RETURNDATASIZE PUSH1 0x0 DUP1 RETURNDATACOPY RETURNDATASIZE PUSH1 0x0 REVERT JUMPDEST POP POP JUMP JUMPDEST PUSH1 0x0 DUP2 DUP4 PUSH2 0x28A SWAP2 SWAP1 PUSH2 0x5FC JUMP JUMPDEST SWAP1 POP SWAP3 SWAP2 POP POP JUMP JUMPDEST PUSH1 0x0 DUP1 PUSH1 0x0 SWAP1 SLOAD SWAP1 PUSH2 0x100 EXP SWAP1 DIV PUSH20 0xFFFFFFFFFFFFFFFFFFFFFFFFFFFFFFFFFFFFFFFF AND SWAP1 POP SWAP1 JUMP JUMPDEST PUSH1 0x0 DUP1 SLOAD SWAP1 PUSH2 0x100 EXP SWAP1 DIV PUSH20 0xFFFFFFFFFFFFFFFFFFFFFFFFFFFFFFFFFFFFFFFF AND DUP2 JUMP JUMPDEST PUSH1 0x1 SLOAD DUP2 JUMP JUMPDEST PUSH1 0x0 PUSH2 0x2EF PUSH2 0x352 JUMP JUMPDEST SWAP1 POP SWAP1 JUMP JUMPDEST PUSH1 0x0 CALLVALUE GT PUSH2 0x337 JUMPI PUSH1 0x40 MLOAD PUSH32 0x8C379A000000000000000000000000000000000000000000000000000000000 DUP2 MSTORE PUSH1 0x4 ADD PUSH2 0x32E SWAP1 PUSH2 0x6A2 JUMP JUMPDEST PUSH1 0x40 MLOAD DUP1 SWAP2 SUB SWAP1 REVERT JUMPDEST CALLVALUE PUSH1 0x1 PUSH1 0x0 DUP3 DUP3 SLOAD PUSH2 0x349 SWAP2 SWAP1 PUSH2 0x5FC JUMP JUMPDEST SWAP3 POP POP DUP2 SWAP1 SSTORE POP JUMP JUMPDEST PUSH1 0x0 PUSH1 0x1 SLOAD SWAP1 POP SWAP1 JUMP JUMPDEST PUSH1 0x0 DUP1 REVERT JUMPDEST PUSH1 0x0 DUP2 SWAP1 POP SWAP2 SWAP1 POP JUMP JUMPDEST PUSH2 0x374 DUP2 PUSH2 0x361 JUMP JUMPDEST DUP2 EQ PUSH2 0x37F JUMPI PUSH1 0x0 DUP1 REVERT JUMPDEST POP JUMP JUMPDEST PUSH1 0x0 DUP2 CALLDATALOAD SWAP1 POP PUSH2 0x391 DUP2 PUSH2 0x36B JUMP JUMPDEST SWAP3 SWAP2 POP POP JUMP JUMPDEST PUSH1 0x0 PUSH1 0x20 DUP3 DUP5 SUB SLT ISZERO PUSH2 0x3AD JUMPI PUSH2 0x3AC PUSH2 0x35C JUMP JUMPDEST JUMPDEST PUSH1 0x0 PUSH2 0x3BB DUP5 DUP3 DUP6 ADD PUSH2 0x382 JUMP JUMPDEST SWAP2 POP POP SWAP3 SWAP2 POP POP JUMP JUMPDEST PUSH1 0x0 DUP1 PUSH1 0x40 DUP4 DUP6 SUB SLT ISZERO PUSH2 0x3DB JUMPI PUSH2 0x3DA PUSH2 0x35C JUMP JUMPDEST JUMPDEST PUSH1 0x0 PUSH2 0x3E9 DUP6 DUP3 DUP7 ADD PUSH2 0x382 JUMP JUMPDEST SWAP3 POP POP PUSH1 0x20 PUSH2 0x3FA DUP6 DUP3 DUP7 ADD PUSH2 0x382 JUMP JUMPDEST SWAP2 POP POP SWAP3 POP SWAP3 SWAP1 POP JUMP JUMPDEST PUSH2 0x40D DUP2 PUSH2 0x361 JUMP JUMPDEST DUP3 MSTORE POP POP JUMP JUMPDEST PUSH1 0x0 PUSH1 0x20 DUP3 ADD SWAP1 POP PUSH2 0x428 PUSH1 0x0 DUP4 ADD DUP5 PUSH2 0x404 JUMP JUMPDEST SWAP3 SWAP2 POP POP JUMP JUMPDEST PUSH1 0x0 PUSH20 0xFFFFFFFFFFFFFFFFFFFFFFFFFFFFFFFFFFFFFFFF DUP3 AND SWAP1 POP SWAP2 SWAP1 POP JUMP JUMPDEST PUSH1 0x0 PUSH2 0x459 DUP3 PUSH2 0x42E JUMP JUMPDEST SWAP1 POP SWAP2 SWAP1 POP JUMP JUMPDEST PUSH2 0x469 DUP2 PUSH2 0x44E JUMP JUMPDEST DUP3 MSTORE POP POP JUMP JUMPDEST PUSH1 0x0 PUSH1 0x20 DUP3 ADD SWAP1 POP PUSH2 0x484 PUSH1 0x0 DUP4 ADD DUP5 PUSH2 0x460 JUMP JUMPDEST SWAP3 SWAP2 POP POP JUMP JUMPDEST PUSH1 0x0 DUP3 DUP3 MSTORE PUSH1 0x20 DUP3 ADD SWAP1 POP SWAP3 SWAP2 POP POP JUMP JUMPDEST PUSH32 0x5769746864726177616C20616D6F756E742073686F756C642062652067726561 PUSH1 0x0 DUP3 ADD MSTORE PUSH32 0x746572207468616E203000000000000000000000000000000000000000000000 PUSH1 0x20 DUP3 ADD MSTORE POP JUMP JUMPDEST PUSH1 0x0 PUSH2 0x4F7 PUSH1 0x2A DUP4 PUSH2 0x48A JUMP JUMPDEST SWAP2 POP PUSH2 0x502 DUP3 PUSH2 0x49B JUMP JUMPDEST PUSH1 0x40 DUP3 ADD SWAP1 POP SWAP2 SWAP1 POP JUMP JUMPDEST PUSH1 0x0 PUSH1 0x20 DUP3 ADD SWAP1 POP DUP2 DUP2 SUB PUSH1 0x0 DUP4 ADD MSTORE PUSH2 0x526 DUP2 PUSH2 0x4EA JUMP JUMPDEST SWAP1 POP SWAP2 SWAP1 POP JUMP JUMPDEST PUSH32 0x496E73756666696369656E742062616C616E6365000000000000000000000000 PUSH1 0x0 DUP3 ADD MSTORE POP JUMP JUMPDEST PUSH1 0x0 PUSH2 0x563 PUSH1 0x14 DUP4 PUSH2 0x48A JUMP JUMPDEST SWAP2 POP PUSH2 0x56E DUP3 PUSH2 0x52D JUMP JUMPDEST PUSH1 0x20 DUP3 ADD SWAP1 POP SWAP2 SWAP1 POP JUMP JUMPDEST PUSH1 0x0 PUSH1 0x20 DUP3 ADD SWAP1 POP DUP2 DUP2 SUB PUSH1 0x0 DUP4 ADD MSTORE PUSH2 0x592 DUP2 PUSH2 0x556 JUMP JUMPDEST SWAP1 POP SWAP2 SWAP1 POP JUMP JUMPDEST PUSH32 0x4E487B7100000000000000000000000000000000000000000000000000000000 PUSH1 0x0 MSTORE PUSH1 0x11 PUSH1 0x4 MSTORE PUSH1 0x24 PUSH1 0x0 REVERT JUMPDEST PUSH1 0x0 PUSH2 0x5D3 DUP3 PUSH2 0x361 JUMP JUMPDEST SWAP2 POP PUSH2 0x5DE DUP4 PUSH2 0x361 JUMP JUMPDEST SWAP3 POP DUP3 DUP3 SUB SWAP1 POP DUP2 DUP2 GT ISZERO PUSH2 0x5F6 JUMPI PUSH2 0x5F5 PUSH2 0x599 JUMP JUMPDEST JUMPDEST SWAP3 SWAP2 POP POP JUMP JUMPDEST PUSH1 0x0 PUSH2 0x607 DUP3 PUSH2 0x361 JUMP JUMPDEST SWAP2 POP PUSH2 0x612 DUP4 PUSH2 0x361 JUMP JUMPDEST SWAP3 POP DUP3 DUP3 ADD SWAP1 POP DUP1 DUP3 GT ISZERO PUSH2 0x62A JUMPI PUSH2 0x629 PUSH2 0x599 JUMP JUMPDEST JUMPDEST SWAP3 SWAP2 POP POP JUMP JUMPDEST PUSH32 0x4465706F73697420616D6F756E742073686F756C642062652067726561746572 PUSH1 0x0 DUP3 ADD MSTORE PUSH32 0x207468616E203000000000000000000000000000000000000000000000000000 PUSH1 0x20 DUP3 ADD MSTORE POP JUMP JUMPDEST PUSH1 0x0 PUSH2 0x68C PUSH1 0x27 DUP4 PUSH2 0x48A JUMP JUMPDEST SWAP2 POP PUSH2 0x697 DUP3 PUSH2 0x630 JUMP JUMPDEST PUSH1 0x40 DUP3 ADD SWAP1 POP SWAP2 SWAP1 POP JUMP JUMPDEST PUSH1 0x0 PUSH1 0x20 DUP3 ADD SWAP1 POP DUP2 DUP2 SUB PUSH1 0x0 DUP4 ADD MSTORE PUSH2 0x6BB DUP2 PUSH2 0x67F JUMP JUMPDEST SWAP1 POP SWAP2 SWAP1 POP JUMP INVALID LOG2 PUSH5 0x6970667358 0x22 SLT KECCAK256 PUSH5 0x17371F6B50 STOP BLOCKHASH 0x5C 0x4E SWAP3 SGT CALLDATALOAD 0x23 ORIGIN 0xAE ISZERO MSTORE NOT 0xFB 0xE4 0xCF DUP7 PUSH3 0xCCFA76 0x27 DIFFICULTY TIMESTAMP PUSH29 0x8464736F6C634300081100330000000000000000000000000000000000 "
				},
				"gasEstimates": {
					"creation": {
						"codeDepositCost": "356800",
						"executionCost": "24659",
						"totalCost": "381459"
					},
					"external": {
						"add(uint256,uint256)": "infinite",
						"balance()": "2451",
						"checkBalance()": "2516",
						"deposit()": "infinite",
						"getOwner()": "2567",
						"owner()": "2511",
						"withdraw(uint256)": "infinite"
					},
					"internal": {
						"getBalance()": "2123"
					}
				},
				"methodIdentifiers": {
					"add(uint256,uint256)": "771602f7",
					"balance()": "b69ef8a8",
					"checkBalance()": "c71daccb",
					"deposit()": "d0e30db0",
					"getOwner()": "893d20e8",
					"owner()": "8da5cb5b",
					"withdraw(uint256)": "2e1a7d4d"
				}
			},
			"storageLayout": {
				"storage": [
					{
						"astId": 3,
						"contract": "Clase 03/mySecondSC.sol:SimpleWallet",
						"label": "owner",
						"offset": 0,
						"slot": "0",
						"type": "t_address"
					},
					{
						"astId": 5,
						"contract": "Clase 03/mySecondSC.sol:SimpleWallet",
						"label": "balance",
						"offset": 0,
						"slot": "1",
						"type": "t_uint256"
					}
				],
				"types": {
					"t_address": {
						"encoding": "inplace",
						"label": "address",
						"numberOfBytes": "20"
					},
					"t_uint256": {
						"encoding": "inplace",
						"label": "uint256",
						"numberOfBytes": "32"
					}
				}
			},
			"userdoc": {
				"kind": "user",
				"methods": {},
				"version": 1
			}
		}
	}
}