{
	"Clase 03/myMap.sol": {
		"myMapping": {
			"abi": [
				{
					"inputs": [],
					"stateMutability": "nonpayable",
					"type": "constructor"
				},
				{
					"inputs": [
						{
							"internalType": "address",
							"name": "_addr",
							"type": "address"
						}
					],
					"name": "get",
					"outputs": [
						{
							"internalType": "uint256",
							"name": "",
							"type": "uint256"
						}
					],
					"stateMutability": "view",
					"type": "function"
				},
				{
					"inputs": [
						{
							"internalType": "address",
							"name": "_addr",
							"type": "address"
						}
					],
					"name": "getS",
					"outputs": [
						{
							"internalType": "string",
							"name": "",
							"type": "string"
						}
					],
					"stateMutability": "view",
					"type": "function"
				},
				{
					"inputs": [
						{
							"internalType": "address",
							"name": "",
							"type": "address"
						}
					],
					"name": "myMap",
					"outputs": [
						{
							"internalType": "uint256",
							"name": "",
							"type": "uint256"
						}
					],
					"stateMutability": "view",
					"type": "function"
				},
				{
					"inputs": [
						{
							"internalType": "address",
							"name": "",
							"type": "address"
						}
					],
					"name": "myMapS",
					"outputs": [
						{
							"internalType": "string",
							"name": "",
							"type": "string"
						}
					],
					"stateMutability": "view",
					"type": "function"
				},
				{
					"inputs": [
						{
							"internalType": "address",
							"name": "_addr",
							"type": "address"
						},
						{
							"internalType": "uint256",
							"name": "_i",
							"type": "uint256"
						}
					],
					"name": "set",
					"outputs": [],
					"stateMutability": "nonpayable",
					"type": "function"
				},
				{
					"inputs": [
						{
							"internalType": "address",
							"name": "_addr",
							"type": "address"
						},
						{
							"internalType": "string",
							"name": "_i",
							"type": "string"
						}
					],
					"name": "setS",
					"outputs": [],
					"stateMutability": "nonpayable",
					"type": "function"
				}
			],
			"devdoc": {
				"kind": "dev",
				"methods": {},
				"version": 1
			},
			"evm": {
				"assembly": "    /* \"Clase 03/myMap.sol\":70:630  contract myMapping {... */\n  mstore(0x40, 0x80)\n    /* \"Clase 03/myMap.sol\":97:151  constructor(){... */\n  callvalue\n  dup1\n  iszero\n  tag_1\n  jumpi\n  0x00\n  dup1\n  revert\ntag_1:\n  pop\n    /* \"Clase 03/myMap.sol\":140:144  1000 */\n  0x03e8\n    /* \"Clase 03/myMap.sol\":120:125  myMap */\n  0x00\n    /* \"Clase 03/myMap.sol\":120:137  myMap[msg.sender] */\n  dup1\n    /* \"Clase 03/myMap.sol\":126:136  msg.sender */\n  caller\n    /* \"Clase 03/myMap.sol\":120:137  myMap[msg.sender] */\n  0xffffffffffffffffffffffffffffffffffffffff\n  and\n  0xffffffffffffffffffffffffffffffffffffffff\n  and\n  dup2\n  mstore\n  0x20\n  add\n  swap1\n  dup2\n  mstore\n  0x20\n  add\n  0x00\n  keccak256\n    /* \"Clase 03/myMap.sol\":120:144  myMap[msg.sender] = 1000 */\n  dup2\n  swap1\n  sstore\n  pop\n    /* \"Clase 03/myMap.sol\":70:630  contract myMapping {... */\n  dataSize(sub_0)\n  dup1\n  dataOffset(sub_0)\n  0x00\n  codecopy\n  0x00\n  return\nstop\n\nsub_0: assembly {\n        /* \"Clase 03/myMap.sol\":70:630  contract myMapping {... */\n      mstore(0x40, 0x80)\n      callvalue\n      dup1\n      iszero\n      tag_1\n      jumpi\n      0x00\n      dup1\n      revert\n    tag_1:\n      pop\n      jumpi(tag_2, lt(calldatasize, 0x04))\n      shr(0xe0, calldataload(0x00))\n      dup1\n      0x0540e5b9\n      eq\n      tag_3\n      jumpi\n      dup1\n      0x27cbd529\n      eq\n      tag_4\n      jumpi\n      dup1\n      0x3825d828\n      eq\n      tag_5\n      jumpi\n      dup1\n      0x63d679b3\n      eq\n      tag_6\n      jumpi\n      dup1\n      0xc2bc2efc\n      eq\n      tag_7\n      jumpi\n      dup1\n      0xe6c70275\n      eq\n      tag_8\n      jumpi\n    tag_2:\n      0x00\n      dup1\n      revert\n        /* \"Clase 03/myMap.sol\":540:628  function setS(address _addr,string memory _i) public {... */\n    tag_3:\n      tag_9\n      0x04\n      dup1\n      calldatasize\n      sub\n      dup2\n      add\n      swap1\n      tag_10\n      swap2\n      swap1\n      tag_11\n      jump\t// in\n    tag_10:\n      tag_12\n      jump\t// in\n    tag_9:\n      stop\n        /* \"Clase 03/myMap.sol\":157:197  mapping(address => uint256) public myMap */\n    tag_4:\n      tag_13\n      0x04\n      dup1\n      calldatasize\n      sub\n      dup2\n      add\n      swap1\n      tag_14\n      swap2\n      swap1\n      tag_15\n      jump\t// in\n    tag_14:\n      tag_16\n      jump\t// in\n    tag_13:\n      mload(0x40)\n      tag_17\n      swap2\n      swap1\n      tag_18\n      jump\t// in\n    tag_17:\n      mload(0x40)\n      dup1\n      swap2\n      sub\n      swap1\n      return\n        /* \"Clase 03/myMap.sol\":348:429  function set(address _addr, uint256 _i) public {... */\n    tag_5:\n      tag_19\n      0x04\n      dup1\n      calldatasize\n      sub\n      dup2\n      add\n      swap1\n      tag_20\n      swap2\n      swap1\n      tag_21\n      jump\t// in\n    tag_20:\n      tag_22\n      jump\t// in\n    tag_19:\n      stop\n        /* \"Clase 03/myMap.sol\":203:243  mapping(address => string) public myMapS */\n    tag_6:\n      tag_23\n      0x04\n      dup1\n      calldatasize\n      sub\n      dup2\n      add\n      swap1\n      tag_24\n      swap2\n      swap1\n      tag_15\n      jump\t// in\n    tag_24:\n      tag_25\n      jump\t// in\n    tag_23:\n      mload(0x40)\n      tag_26\n      swap2\n      swap1\n      tag_27\n      jump\t// in\n    tag_26:\n      mload(0x40)\n      dup1\n      swap2\n      sub\n      swap1\n      return\n        /* \"Clase 03/myMap.sol\":250:342  function get(address _addr) public view returns(uint256){... */\n    tag_7:\n      tag_28\n      0x04\n      dup1\n      calldatasize\n      sub\n      dup2\n      add\n      swap1\n      tag_29\n      swap2\n      swap1\n      tag_15\n      jump\t// in\n    tag_29:\n      tag_30\n      jump\t// in\n    tag_28:\n      mload(0x40)\n      tag_31\n      swap2\n      swap1\n      tag_18\n      jump\t// in\n    tag_31:\n      mload(0x40)\n      dup1\n      swap2\n      sub\n      swap1\n      return\n        /* \"Clase 03/myMap.sol\":434:534  function getS(address _addr) public view returns(string memory){... */\n    tag_8:\n      tag_32\n      0x04\n      dup1\n      calldatasize\n      sub\n      dup2\n      add\n      swap1\n      tag_33\n      swap2\n      swap1\n      tag_15\n      jump\t// in\n    tag_33:\n      tag_34\n      jump\t// in\n    tag_32:\n      mload(0x40)\n      tag_35\n      swap2\n      swap1\n      tag_27\n      jump\t// in\n    tag_35:\n      mload(0x40)\n      dup1\n      swap2\n      sub\n      swap1\n      return\n        /* \"Clase 03/myMap.sol\":540:628  function setS(address _addr,string memory _i) public {... */\n    tag_12:\n        /* \"Clase 03/myMap.sol\":619:621  _i */\n      dup1\n        /* \"Clase 03/myMap.sol\":603:609  myMapS */\n      0x01\n        /* \"Clase 03/myMap.sol\":603:616  myMapS[_addr] */\n      0x00\n        /* \"Clase 03/myMap.sol\":610:615  _addr */\n      dup5\n        /* \"Clase 03/myMap.sol\":603:616  myMapS[_addr] */\n      0xffffffffffffffffffffffffffffffffffffffff\n      and\n      0xffffffffffffffffffffffffffffffffffffffff\n      and\n      dup2\n      mstore\n      0x20\n      add\n      swap1\n      dup2\n      mstore\n      0x20\n      add\n      0x00\n      keccak256\n        /* \"Clase 03/myMap.sol\":603:621  myMapS[_addr] = _i */\n      swap1\n      dup2\n      tag_37\n      swap2\n      swap1\n      tag_38\n      jump\t// in\n    tag_37:\n      pop\n        /* \"Clase 03/myMap.sol\":540:628  function setS(address _addr,string memory _i) public {... */\n      pop\n      pop\n      jump\t// out\n        /* \"Clase 03/myMap.sol\":157:197  mapping(address => uint256) public myMap */\n    tag_16:\n      mstore(0x20, 0x00)\n      dup1\n      0x00\n      mstore\n      keccak256(0x00, 0x40)\n      0x00\n      swap2\n      pop\n      swap1\n      pop\n      sload\n      dup2\n      jump\t// out\n        /* \"Clase 03/myMap.sol\":348:429  function set(address _addr, uint256 _i) public {... */\n    tag_22:\n        /* \"Clase 03/myMap.sol\":420:422  _i */\n      dup1\n        /* \"Clase 03/myMap.sol\":405:410  myMap */\n      0x00\n        /* \"Clase 03/myMap.sol\":405:417  myMap[_addr] */\n      dup1\n        /* \"Clase 03/myMap.sol\":411:416  _addr */\n      dup5\n        /* \"Clase 03/myMap.sol\":405:417  myMap[_addr] */\n      0xffffffffffffffffffffffffffffffffffffffff\n      and\n      0xffffffffffffffffffffffffffffffffffffffff\n      and\n      dup2\n      mstore\n      0x20\n      add\n      swap1\n      dup2\n      mstore\n      0x20\n      add\n      0x00\n      keccak256\n        /* \"Clase 03/myMap.sol\":405:422  myMap[_addr] = _i */\n      dup2\n      swap1\n      sstore\n      pop\n        /* \"Clase 03/myMap.sol\":348:429  function set(address _addr, uint256 _i) public {... */\n      pop\n      pop\n      jump\t// out\n        /* \"Clase 03/myMap.sol\":203:243  mapping(address => string) public myMapS */\n    tag_25:\n      mstore(0x20, 0x01)\n      dup1\n      0x00\n      mstore\n      keccak256(0x00, 0x40)\n      0x00\n      swap2\n      pop\n      swap1\n      pop\n      dup1\n      sload\n      tag_40\n      swap1\n      tag_41\n      jump\t// in\n    tag_40:\n      dup1\n      0x1f\n      add\n      0x20\n      dup1\n      swap2\n      div\n      mul\n      0x20\n      add\n      mload(0x40)\n      swap1\n      dup2\n      add\n      0x40\n      mstore\n      dup1\n      swap3\n      swap2\n      swap1\n      dup2\n      dup2\n      mstore\n      0x20\n      add\n      dup3\n      dup1\n      sload\n      tag_42\n      swap1\n      tag_41\n      jump\t// in\n    tag_42:\n      dup1\n      iszero\n      tag_43\n      jumpi\n      dup1\n      0x1f\n      lt\n      tag_44\n      jumpi\n      0x0100\n      dup1\n      dup4\n      sload\n      div\n      mul\n      dup4\n      mstore\n      swap2\n      0x20\n      add\n      swap2\n      jump(tag_43)\n    tag_44:\n      dup3\n      add\n      swap2\n      swap1\n      0x00\n      mstore\n      keccak256(0x00, 0x20)\n      swap1\n    tag_45:\n      dup2\n      sload\n      dup2\n      mstore\n      swap1\n      0x01\n      add\n      swap1\n      0x20\n      add\n      dup1\n      dup4\n      gt\n      tag_45\n      jumpi\n      dup3\n      swap1\n      sub\n      0x1f\n      and\n      dup3\n      add\n      swap2\n    tag_43:\n      pop\n      pop\n      pop\n      pop\n      pop\n      dup2\n      jump\t// out\n        /* \"Clase 03/myMap.sol\":250:342  function get(address _addr) public view returns(uint256){... */\n    tag_30:\n        /* \"Clase 03/myMap.sol\":298:305  uint256 */\n      0x00\n        /* \"Clase 03/myMap.sol\":323:328  myMap */\n      dup1\n        /* \"Clase 03/myMap.sol\":323:335  myMap[_addr] */\n      0x00\n        /* \"Clase 03/myMap.sol\":329:334  _addr */\n      dup4\n        /* \"Clase 03/myMap.sol\":323:335  myMap[_addr] */\n      0xffffffffffffffffffffffffffffffffffffffff\n      and\n      0xffffffffffffffffffffffffffffffffffffffff\n      and\n      dup2\n      mstore\n      0x20\n      add\n      swap1\n      dup2\n      mstore\n      0x20\n      add\n      0x00\n      keccak256\n      sload\n        /* \"Clase 03/myMap.sol\":316:335  return myMap[_addr] */\n      swap1\n      pop\n        /* \"Clase 03/myMap.sol\":250:342  function get(address _addr) public view returns(uint256){... */\n      swap2\n      swap1\n      pop\n      jump\t// out\n        /* \"Clase 03/myMap.sol\":434:534  function getS(address _addr) public view returns(string memory){... */\n    tag_34:\n        /* \"Clase 03/myMap.sol\":483:496  string memory */\n      0x60\n        /* \"Clase 03/myMap.sol\":514:520  myMapS */\n      0x01\n        /* \"Clase 03/myMap.sol\":514:527  myMapS[_addr] */\n      0x00\n        /* \"Clase 03/myMap.sol\":521:526  _addr */\n      dup4\n        /* \"Clase 03/myMap.sol\":514:527  myMapS[_addr] */\n      0xffffffffffffffffffffffffffffffffffffffff\n      and\n      0xffffffffffffffffffffffffffffffffffffffff\n      and\n      dup2\n      mstore\n      0x20\n      add\n      swap1\n      dup2\n      mstore\n      0x20\n      add\n      0x00\n      keccak256\n        /* \"Clase 03/myMap.sol\":507:527  return myMapS[_addr] */\n      dup1\n      sload\n      tag_48\n      swap1\n      tag_41\n      jump\t// in\n    tag_48:\n      dup1\n      0x1f\n      add\n      0x20\n      dup1\n      swap2\n      div\n      mul\n      0x20\n      add\n      mload(0x40)\n      swap1\n      dup2\n      add\n      0x40\n      mstore\n      dup1\n      swap3\n      swap2\n      swap1\n      dup2\n      dup2\n      mstore\n      0x20\n      add\n      dup3\n      dup1\n      sload\n      tag_49\n      swap1\n      tag_41\n      jump\t// in\n    tag_49:\n      dup1\n      iszero\n      tag_50\n      jumpi\n      dup1\n      0x1f\n      lt\n      tag_51\n      jumpi\n      0x0100\n      dup1\n      dup4\n      sload\n      div\n      mul\n      dup4\n      mstore\n      swap2\n      0x20\n      add\n      swap2\n      jump(tag_50)\n    tag_51:\n      dup3\n      add\n      swap2\n      swap1\n      0x00\n      mstore\n      keccak256(0x00, 0x20)\n      swap1\n    tag_52:\n      dup2\n      sload\n      dup2\n      mstore\n      swap1\n      0x01\n      add\n      swap1\n      0x20\n      add\n      dup1\n      dup4\n      gt\n      tag_52\n      jumpi\n      dup3\n      swap1\n      sub\n      0x1f\n      and\n      dup3\n      add\n      swap2\n    tag_50:\n      pop\n      pop\n      pop\n      pop\n      pop\n      swap1\n      pop\n        /* \"Clase 03/myMap.sol\":434:534  function getS(address _addr) public view returns(string memory){... */\n      swap2\n      swap1\n      pop\n      jump\t// out\n        /* \"#utility.yul\":7:82   */\n    tag_53:\n        /* \"#utility.yul\":40:46   */\n      0x00\n        /* \"#utility.yul\":73:75   */\n      0x40\n        /* \"#utility.yul\":67:76   */\n      mload\n        /* \"#utility.yul\":57:76   */\n      swap1\n      pop\n        /* \"#utility.yul\":7:82   */\n      swap1\n      jump\t// out\n        /* \"#utility.yul\":88:205   */\n    tag_54:\n        /* \"#utility.yul\":197:198   */\n      0x00\n        /* \"#utility.yul\":194:195   */\n      dup1\n        /* \"#utility.yul\":187:199   */\n      revert\n        /* \"#utility.yul\":211:328   */\n    tag_55:\n        /* \"#utility.yul\":320:321   */\n      0x00\n        /* \"#utility.yul\":317:318   */\n      dup1\n        /* \"#utility.yul\":310:322   */\n      revert\n        /* \"#utility.yul\":334:460   */\n    tag_56:\n        /* \"#utility.yul\":371:378   */\n      0x00\n        /* \"#utility.yul\":411:453   */\n      0xffffffffffffffffffffffffffffffffffffffff\n        /* \"#utility.yul\":404:409   */\n      dup3\n        /* \"#utility.yul\":400:454   */\n      and\n        /* \"#utility.yul\":389:454   */\n      swap1\n      pop\n        /* \"#utility.yul\":334:460   */\n      swap2\n      swap1\n      pop\n      jump\t// out\n        /* \"#utility.yul\":466:562   */\n    tag_57:\n        /* \"#utility.yul\":503:510   */\n      0x00\n        /* \"#utility.yul\":532:556   */\n      tag_100\n        /* \"#utility.yul\":550:555   */\n      dup3\n        /* \"#utility.yul\":532:556   */\n      tag_56\n      jump\t// in\n    tag_100:\n        /* \"#utility.yul\":521:556   */\n      swap1\n      pop\n        /* \"#utility.yul\":466:562   */\n      swap2\n      swap1\n      pop\n      jump\t// out\n        /* \"#utility.yul\":568:690   */\n    tag_58:\n        /* \"#utility.yul\":641:665   */\n      tag_102\n        /* \"#utility.yul\":659:664   */\n      dup2\n        /* \"#utility.yul\":641:665   */\n      tag_57\n      jump\t// in\n    tag_102:\n        /* \"#utility.yul\":634:639   */\n      dup2\n        /* \"#utility.yul\":631:666   */\n      eq\n        /* \"#utility.yul\":621:684   */\n      tag_103\n      jumpi\n        /* \"#utility.yul\":680:681   */\n      0x00\n        /* \"#utility.yul\":677:678   */\n      dup1\n        /* \"#utility.yul\":670:682   */\n      revert\n        /* \"#utility.yul\":621:684   */\n    tag_103:\n        /* \"#utility.yul\":568:690   */\n      pop\n      jump\t// out\n        /* \"#utility.yul\":696:835   */\n    tag_59:\n        /* \"#utility.yul\":742:747   */\n      0x00\n        /* \"#utility.yul\":780:786   */\n      dup2\n        /* \"#utility.yul\":767:787   */\n      calldataload\n        /* \"#utility.yul\":758:787   */\n      swap1\n      pop\n        /* \"#utility.yul\":796:829   */\n      tag_105\n        /* \"#utility.yul\":823:828   */\n      dup2\n        /* \"#utility.yul\":796:829   */\n      tag_58\n      jump\t// in\n    tag_105:\n        /* \"#utility.yul\":696:835   */\n      swap3\n      swap2\n      pop\n      pop\n      jump\t// out\n        /* \"#utility.yul\":841:958   */\n    tag_60:\n        /* \"#utility.yul\":950:951   */\n      0x00\n        /* \"#utility.yul\":947:948   */\n      dup1\n        /* \"#utility.yul\":940:952   */\n      revert\n        /* \"#utility.yul\":964:1081   */\n    tag_61:\n        /* \"#utility.yul\":1073:1074   */\n      0x00\n        /* \"#utility.yul\":1070:1071   */\n      dup1\n        /* \"#utility.yul\":1063:1075   */\n      revert\n        /* \"#utility.yul\":1087:1189   */\n    tag_62:\n        /* \"#utility.yul\":1128:1134   */\n      0x00\n        /* \"#utility.yul\":1179:1181   */\n      0x1f\n        /* \"#utility.yul\":1175:1182   */\n      not\n        /* \"#utility.yul\":1170:1172   */\n      0x1f\n        /* \"#utility.yul\":1163:1168   */\n      dup4\n        /* \"#utility.yul\":1159:1173   */\n      add\n        /* \"#utility.yul\":1155:1183   */\n      and\n        /* \"#utility.yul\":1145:1183   */\n      swap1\n      pop\n        /* \"#utility.yul\":1087:1189   */\n      swap2\n      swap1\n      pop\n      jump\t// out\n        /* \"#utility.yul\":1195:1375   */\n    tag_63:\n        /* \"#utility.yul\":1243:1320   */\n      0x4e487b7100000000000000000000000000000000000000000000000000000000\n        /* \"#utility.yul\":1240:1241   */\n      0x00\n        /* \"#utility.yul\":1233:1321   */\n      mstore\n        /* \"#utility.yul\":1340:1344   */\n      0x41\n        /* \"#utility.yul\":1337:1338   */\n      0x04\n        /* \"#utility.yul\":1330:1345   */\n      mstore\n        /* \"#utility.yul\":1364:1368   */\n      0x24\n        /* \"#utility.yul\":1361:1362   */\n      0x00\n        /* \"#utility.yul\":1354:1369   */\n      revert\n        /* \"#utility.yul\":1381:1662   */\n    tag_64:\n        /* \"#utility.yul\":1464:1491   */\n      tag_111\n        /* \"#utility.yul\":1486:1490   */\n      dup3\n        /* \"#utility.yul\":1464:1491   */\n      tag_62\n      jump\t// in\n    tag_111:\n        /* \"#utility.yul\":1456:1462   */\n      dup2\n        /* \"#utility.yul\":1452:1492   */\n      add\n        /* \"#utility.yul\":1594:1600   */\n      dup2\n        /* \"#utility.yul\":1582:1592   */\n      dup2\n        /* \"#utility.yul\":1579:1601   */\n      lt\n        /* \"#utility.yul\":1558:1576   */\n      0xffffffffffffffff\n        /* \"#utility.yul\":1546:1556   */\n      dup3\n        /* \"#utility.yul\":1543:1577   */\n      gt\n        /* \"#utility.yul\":1540:1602   */\n      or\n        /* \"#utility.yul\":1537:1625   */\n      iszero\n      tag_112\n      jumpi\n        /* \"#utility.yul\":1605:1623   */\n      tag_113\n      tag_63\n      jump\t// in\n    tag_113:\n        /* \"#utility.yul\":1537:1625   */\n    tag_112:\n        /* \"#utility.yul\":1645:1655   */\n      dup1\n        /* \"#utility.yul\":1641:1643   */\n      0x40\n        /* \"#utility.yul\":1634:1656   */\n      mstore\n        /* \"#utility.yul\":1424:1662   */\n      pop\n        /* \"#utility.yul\":1381:1662   */\n      pop\n      pop\n      jump\t// out\n        /* \"#utility.yul\":1668:1797   */\n    tag_65:\n        /* \"#utility.yul\":1702:1708   */\n      0x00\n        /* \"#utility.yul\":1729:1749   */\n      tag_115\n      tag_53\n      jump\t// in\n    tag_115:\n        /* \"#utility.yul\":1719:1749   */\n      swap1\n      pop\n        /* \"#utility.yul\":1758:1791   */\n      tag_116\n        /* \"#utility.yul\":1786:1790   */\n      dup3\n        /* \"#utility.yul\":1778:1784   */\n      dup3\n        /* \"#utility.yul\":1758:1791   */\n      tag_64\n      jump\t// in\n    tag_116:\n        /* \"#utility.yul\":1668:1797   */\n      swap2\n      swap1\n      pop\n      jump\t// out\n        /* \"#utility.yul\":1803:2111   */\n    tag_66:\n        /* \"#utility.yul\":1865:1869   */\n      0x00\n        /* \"#utility.yul\":1955:1973   */\n      0xffffffffffffffff\n        /* \"#utility.yul\":1947:1953   */\n      dup3\n        /* \"#utility.yul\":1944:1974   */\n      gt\n        /* \"#utility.yul\":1941:1997   */\n      iszero\n      tag_118\n      jumpi\n        /* \"#utility.yul\":1977:1995   */\n      tag_119\n      tag_63\n      jump\t// in\n    tag_119:\n        /* \"#utility.yul\":1941:1997   */\n    tag_118:\n        /* \"#utility.yul\":2015:2044   */\n      tag_120\n        /* \"#utility.yul\":2037:2043   */\n      dup3\n        /* \"#utility.yul\":2015:2044   */\n      tag_62\n      jump\t// in\n    tag_120:\n        /* \"#utility.yul\":2007:2044   */\n      swap1\n      pop\n        /* \"#utility.yul\":2099:2103   */\n      0x20\n        /* \"#utility.yul\":2093:2097   */\n      dup2\n        /* \"#utility.yul\":2089:2104   */\n      add\n        /* \"#utility.yul\":2081:2104   */\n      swap1\n      pop\n        /* \"#utility.yul\":1803:2111   */\n      swap2\n      swap1\n      pop\n      jump\t// out\n        /* \"#utility.yul\":2117:2263   */\n    tag_67:\n        /* \"#utility.yul\":2214:2220   */\n      dup3\n        /* \"#utility.yul\":2209:2212   */\n      dup2\n        /* \"#utility.yul\":2204:2207   */\n      dup4\n        /* \"#utility.yul\":2191:2221   */\n      calldatacopy\n        /* \"#utility.yul\":2255:2256   */\n      0x00\n        /* \"#utility.yul\":2246:2252   */\n      dup4\n        /* \"#utility.yul\":2241:2244   */\n      dup4\n        /* \"#utility.yul\":2237:2253   */\n      add\n        /* \"#utility.yul\":2230:2257   */\n      mstore\n        /* \"#utility.yul\":2117:2263   */\n      pop\n      pop\n      pop\n      jump\t// out\n        /* \"#utility.yul\":2269:2694   */\n    tag_68:\n        /* \"#utility.yul\":2347:2352   */\n      0x00\n        /* \"#utility.yul\":2372:2438   */\n      tag_123\n        /* \"#utility.yul\":2388:2437   */\n      tag_124\n        /* \"#utility.yul\":2430:2436   */\n      dup5\n        /* \"#utility.yul\":2388:2437   */\n      tag_66\n      jump\t// in\n    tag_124:\n        /* \"#utility.yul\":2372:2438   */\n      tag_65\n      jump\t// in\n    tag_123:\n        /* \"#utility.yul\":2363:2438   */\n      swap1\n      pop\n        /* \"#utility.yul\":2461:2467   */\n      dup3\n        /* \"#utility.yul\":2454:2459   */\n      dup2\n        /* \"#utility.yul\":2447:2468   */\n      mstore\n        /* \"#utility.yul\":2499:2503   */\n      0x20\n        /* \"#utility.yul\":2492:2497   */\n      dup2\n        /* \"#utility.yul\":2488:2504   */\n      add\n        /* \"#utility.yul\":2537:2540   */\n      dup5\n        /* \"#utility.yul\":2528:2534   */\n      dup5\n        /* \"#utility.yul\":2523:2526   */\n      dup5\n        /* \"#utility.yul\":2519:2535   */\n      add\n        /* \"#utility.yul\":2516:2541   */\n      gt\n        /* \"#utility.yul\":2513:2625   */\n      iszero\n      tag_125\n      jumpi\n        /* \"#utility.yul\":2544:2623   */\n      tag_126\n      tag_61\n      jump\t// in\n    tag_126:\n        /* \"#utility.yul\":2513:2625   */\n    tag_125:\n        /* \"#utility.yul\":2634:2688   */\n      tag_127\n        /* \"#utility.yul\":2681:2687   */\n      dup5\n        /* \"#utility.yul\":2676:2679   */\n      dup3\n        /* \"#utility.yul\":2671:2674   */\n      dup6\n        /* \"#utility.yul\":2634:2688   */\n      tag_67\n      jump\t// in\n    tag_127:\n        /* \"#utility.yul\":2353:2694   */\n      pop\n        /* \"#utility.yul\":2269:2694   */\n      swap4\n      swap3\n      pop\n      pop\n      pop\n      jump\t// out\n        /* \"#utility.yul\":2714:3054   */\n    tag_69:\n        /* \"#utility.yul\":2770:2775   */\n      0x00\n        /* \"#utility.yul\":2819:2822   */\n      dup3\n        /* \"#utility.yul\":2812:2816   */\n      0x1f\n        /* \"#utility.yul\":2804:2810   */\n      dup4\n        /* \"#utility.yul\":2800:2817   */\n      add\n        /* \"#utility.yul\":2796:2823   */\n      slt\n        /* \"#utility.yul\":2786:2908   */\n      tag_129\n      jumpi\n        /* \"#utility.yul\":2827:2906   */\n      tag_130\n      tag_60\n      jump\t// in\n    tag_130:\n        /* \"#utility.yul\":2786:2908   */\n    tag_129:\n        /* \"#utility.yul\":2944:2950   */\n      dup2\n        /* \"#utility.yul\":2931:2951   */\n      calldataload\n        /* \"#utility.yul\":2969:3048   */\n      tag_131\n        /* \"#utility.yul\":3044:3047   */\n      dup5\n        /* \"#utility.yul\":3036:3042   */\n      dup3\n        /* \"#utility.yul\":3029:3033   */\n      0x20\n        /* \"#utility.yul\":3021:3027   */\n      dup7\n        /* \"#utility.yul\":3017:3034   */\n      add\n        /* \"#utility.yul\":2969:3048   */\n      tag_68\n      jump\t// in\n    tag_131:\n        /* \"#utility.yul\":2960:3048   */\n      swap2\n      pop\n        /* \"#utility.yul\":2776:3054   */\n      pop\n        /* \"#utility.yul\":2714:3054   */\n      swap3\n      swap2\n      pop\n      pop\n      jump\t// out\n        /* \"#utility.yul\":3060:3714   */\n    tag_11:\n        /* \"#utility.yul\":3138:3144   */\n      0x00\n        /* \"#utility.yul\":3146:3152   */\n      dup1\n        /* \"#utility.yul\":3195:3197   */\n      0x40\n        /* \"#utility.yul\":3183:3192   */\n      dup4\n        /* \"#utility.yul\":3174:3181   */\n      dup6\n        /* \"#utility.yul\":3170:3193   */\n      sub\n        /* \"#utility.yul\":3166:3198   */\n      slt\n        /* \"#utility.yul\":3163:3282   */\n      iszero\n      tag_133\n      jumpi\n        /* \"#utility.yul\":3201:3280   */\n      tag_134\n      tag_54\n      jump\t// in\n    tag_134:\n        /* \"#utility.yul\":3163:3282   */\n    tag_133:\n        /* \"#utility.yul\":3321:3322   */\n      0x00\n        /* \"#utility.yul\":3346:3399   */\n      tag_135\n        /* \"#utility.yul\":3391:3398   */\n      dup6\n        /* \"#utility.yul\":3382:3388   */\n      dup3\n        /* \"#utility.yul\":3371:3380   */\n      dup7\n        /* \"#utility.yul\":3367:3389   */\n      add\n        /* \"#utility.yul\":3346:3399   */\n      tag_59\n      jump\t// in\n    tag_135:\n        /* \"#utility.yul\":3336:3399   */\n      swap3\n      pop\n        /* \"#utility.yul\":3292:3409   */\n      pop\n        /* \"#utility.yul\":3476:3478   */\n      0x20\n        /* \"#utility.yul\":3465:3474   */\n      dup4\n        /* \"#utility.yul\":3461:3479   */\n      add\n        /* \"#utility.yul\":3448:3480   */\n      calldataload\n        /* \"#utility.yul\":3507:3525   */\n      0xffffffffffffffff\n        /* \"#utility.yul\":3499:3505   */\n      dup2\n        /* \"#utility.yul\":3496:3526   */\n      gt\n        /* \"#utility.yul\":3493:3610   */\n      iszero\n      tag_136\n      jumpi\n        /* \"#utility.yul\":3529:3608   */\n      tag_137\n      tag_55\n      jump\t// in\n    tag_137:\n        /* \"#utility.yul\":3493:3610   */\n    tag_136:\n        /* \"#utility.yul\":3634:3697   */\n      tag_138\n        /* \"#utility.yul\":3689:3696   */\n      dup6\n        /* \"#utility.yul\":3680:3686   */\n      dup3\n        /* \"#utility.yul\":3669:3678   */\n      dup7\n        /* \"#utility.yul\":3665:3687   */\n      add\n        /* \"#utility.yul\":3634:3697   */\n      tag_69\n      jump\t// in\n    tag_138:\n        /* \"#utility.yul\":3624:3697   */\n      swap2\n      pop\n        /* \"#utility.yul\":3419:3707   */\n      pop\n        /* \"#utility.yul\":3060:3714   */\n      swap3\n      pop\n      swap3\n      swap1\n      pop\n      jump\t// out\n        /* \"#utility.yul\":3720:4049   */\n    tag_15:\n        /* \"#utility.yul\":3779:3785   */\n      0x00\n        /* \"#utility.yul\":3828:3830   */\n      0x20\n        /* \"#utility.yul\":3816:3825   */\n      dup3\n        /* \"#utility.yul\":3807:3814   */\n      dup5\n        /* \"#utility.yul\":3803:3826   */\n      sub\n        /* \"#utility.yul\":3799:3831   */\n      slt\n        /* \"#utility.yul\":3796:3915   */\n      iszero\n      tag_140\n      jumpi\n        /* \"#utility.yul\":3834:3913   */\n      tag_141\n      tag_54\n      jump\t// in\n    tag_141:\n        /* \"#utility.yul\":3796:3915   */\n    tag_140:\n        /* \"#utility.yul\":3954:3955   */\n      0x00\n        /* \"#utility.yul\":3979:4032   */\n      tag_142\n        /* \"#utility.yul\":4024:4031   */\n      dup5\n        /* \"#utility.yul\":4015:4021   */\n      dup3\n        /* \"#utility.yul\":4004:4013   */\n      dup6\n        /* \"#utility.yul\":4000:4022   */\n      add\n        /* \"#utility.yul\":3979:4032   */\n      tag_59\n      jump\t// in\n    tag_142:\n        /* \"#utility.yul\":3969:4032   */\n      swap2\n      pop\n        /* \"#utility.yul\":3925:4042   */\n      pop\n        /* \"#utility.yul\":3720:4049   */\n      swap3\n      swap2\n      pop\n      pop\n      jump\t// out\n        /* \"#utility.yul\":4055:4132   */\n    tag_70:\n        /* \"#utility.yul\":4092:4099   */\n      0x00\n        /* \"#utility.yul\":4121:4126   */\n      dup2\n        /* \"#utility.yul\":4110:4126   */\n      swap1\n      pop\n        /* \"#utility.yul\":4055:4132   */\n      swap2\n      swap1\n      pop\n      jump\t// out\n        /* \"#utility.yul\":4138:4256   */\n    tag_71:\n        /* \"#utility.yul\":4225:4249   */\n      tag_145\n        /* \"#utility.yul\":4243:4248   */\n      dup2\n        /* \"#utility.yul\":4225:4249   */\n      tag_70\n      jump\t// in\n    tag_145:\n        /* \"#utility.yul\":4220:4223   */\n      dup3\n        /* \"#utility.yul\":4213:4250   */\n      mstore\n        /* \"#utility.yul\":4138:4256   */\n      pop\n      pop\n      jump\t// out\n        /* \"#utility.yul\":4262:4484   */\n    tag_18:\n        /* \"#utility.yul\":4355:4359   */\n      0x00\n        /* \"#utility.yul\":4393:4395   */\n      0x20\n        /* \"#utility.yul\":4382:4391   */\n      dup3\n        /* \"#utility.yul\":4378:4396   */\n      add\n        /* \"#utility.yul\":4370:4396   */\n      swap1\n      pop\n        /* \"#utility.yul\":4406:4477   */\n      tag_147\n        /* \"#utility.yul\":4474:4475   */\n      0x00\n        /* \"#utility.yul\":4463:4472   */\n      dup4\n        /* \"#utility.yul\":4459:4476   */\n      add\n        /* \"#utility.yul\":4450:4456   */\n      dup5\n        /* \"#utility.yul\":4406:4477   */\n      tag_71\n      jump\t// in\n    tag_147:\n        /* \"#utility.yul\":4262:4484   */\n      swap3\n      swap2\n      pop\n      pop\n      jump\t// out\n        /* \"#utility.yul\":4490:4612   */\n    tag_72:\n        /* \"#utility.yul\":4563:4587   */\n      tag_149\n        /* \"#utility.yul\":4581:4586   */\n      dup2\n        /* \"#utility.yul\":4563:4587   */\n      tag_70\n      jump\t// in\n    tag_149:\n        /* \"#utility.yul\":4556:4561   */\n      dup2\n        /* \"#utility.yul\":4553:4588   */\n      eq\n        /* \"#utility.yul\":4543:4606   */\n      tag_150\n      jumpi\n        /* \"#utility.yul\":4602:4603   */\n      0x00\n        /* \"#utility.yul\":4599:4600   */\n      dup1\n        /* \"#utility.yul\":4592:4604   */\n      revert\n        /* \"#utility.yul\":4543:4606   */\n    tag_150:\n        /* \"#utility.yul\":4490:4612   */\n      pop\n      jump\t// out\n        /* \"#utility.yul\":4618:4757   */\n    tag_73:\n        /* \"#utility.yul\":4664:4669   */\n      0x00\n        /* \"#utility.yul\":4702:4708   */\n      dup2\n        /* \"#utility.yul\":4689:4709   */\n      calldataload\n        /* \"#utility.yul\":4680:4709   */\n      swap1\n      pop\n        /* \"#utility.yul\":4718:4751   */\n      tag_152\n        /* \"#utility.yul\":4745:4750   */\n      dup2\n        /* \"#utility.yul\":4718:4751   */\n      tag_72\n      jump\t// in\n    tag_152:\n        /* \"#utility.yul\":4618:4757   */\n      swap3\n      swap2\n      pop\n      pop\n      jump\t// out\n        /* \"#utility.yul\":4763:5237   */\n    tag_21:\n        /* \"#utility.yul\":4831:4837   */\n      0x00\n        /* \"#utility.yul\":4839:4845   */\n      dup1\n        /* \"#utility.yul\":4888:4890   */\n      0x40\n        /* \"#utility.yul\":4876:4885   */\n      dup4\n        /* \"#utility.yul\":4867:4874   */\n      dup6\n        /* \"#utility.yul\":4863:4886   */\n      sub\n        /* \"#utility.yul\":4859:4891   */\n      slt\n        /* \"#utility.yul\":4856:4975   */\n      iszero\n      tag_154\n      jumpi\n        /* \"#utility.yul\":4894:4973   */\n      tag_155\n      tag_54\n      jump\t// in\n    tag_155:\n        /* \"#utility.yul\":4856:4975   */\n    tag_154:\n        /* \"#utility.yul\":5014:5015   */\n      0x00\n        /* \"#utility.yul\":5039:5092   */\n      tag_156\n        /* \"#utility.yul\":5084:5091   */\n      dup6\n        /* \"#utility.yul\":5075:5081   */\n      dup3\n        /* \"#utility.yul\":5064:5073   */\n      dup7\n        /* \"#utility.yul\":5060:5082   */\n      add\n        /* \"#utility.yul\":5039:5092   */\n      tag_59\n      jump\t// in\n    tag_156:\n        /* \"#utility.yul\":5029:5092   */\n      swap3\n      pop\n        /* \"#utility.yul\":4985:5102   */\n      pop\n        /* \"#utility.yul\":5141:5143   */\n      0x20\n        /* \"#utility.yul\":5167:5220   */\n      tag_157\n        /* \"#utility.yul\":5212:5219   */\n      dup6\n        /* \"#utility.yul\":5203:5209   */\n      dup3\n        /* \"#utility.yul\":5192:5201   */\n      dup7\n        /* \"#utility.yul\":5188:5210   */\n      add\n        /* \"#utility.yul\":5167:5220   */\n      tag_73\n      jump\t// in\n    tag_157:\n        /* \"#utility.yul\":5157:5220   */\n      swap2\n      pop\n        /* \"#utility.yul\":5112:5230   */\n      pop\n        /* \"#utility.yul\":4763:5237   */\n      swap3\n      pop\n      swap3\n      swap1\n      pop\n      jump\t// out\n        /* \"#utility.yul\":5243:5342   */\n    tag_74:\n        /* \"#utility.yul\":5295:5301   */\n      0x00\n        /* \"#utility.yul\":5329:5334   */\n      dup2\n        /* \"#utility.yul\":5323:5335   */\n      mload\n        /* \"#utility.yul\":5313:5335   */\n      swap1\n      pop\n        /* \"#utility.yul\":5243:5342   */\n      swap2\n      swap1\n      pop\n      jump\t// out\n        /* \"#utility.yul\":5348:5517   */\n    tag_75:\n        /* \"#utility.yul\":5432:5443   */\n      0x00\n        /* \"#utility.yul\":5466:5472   */\n      dup3\n        /* \"#utility.yul\":5461:5464   */\n      dup3\n        /* \"#utility.yul\":5454:5473   */\n      mstore\n        /* \"#utility.yul\":5506:5510   */\n      0x20\n        /* \"#utility.yul\":5501:5504   */\n      dup3\n        /* \"#utility.yul\":5497:5511   */\n      add\n        /* \"#utility.yul\":5482:5511   */\n      swap1\n      pop\n        /* \"#utility.yul\":5348:5517   */\n      swap3\n      swap2\n      pop\n      pop\n      jump\t// out\n        /* \"#utility.yul\":5523:5769   */\n    tag_76:\n        /* \"#utility.yul\":5604:5605   */\n      0x00\n        /* \"#utility.yul\":5614:5727   */\n    tag_161:\n        /* \"#utility.yul\":5628:5634   */\n      dup4\n        /* \"#utility.yul\":5625:5626   */\n      dup2\n        /* \"#utility.yul\":5622:5635   */\n      lt\n        /* \"#utility.yul\":5614:5727   */\n      iszero\n      tag_163\n      jumpi\n        /* \"#utility.yul\":5713:5714   */\n      dup1\n        /* \"#utility.yul\":5708:5711   */\n      dup3\n        /* \"#utility.yul\":5704:5715   */\n      add\n        /* \"#utility.yul\":5698:5716   */\n      mload\n        /* \"#utility.yul\":5694:5695   */\n      dup2\n        /* \"#utility.yul\":5689:5692   */\n      dup5\n        /* \"#utility.yul\":5685:5696   */\n      add\n        /* \"#utility.yul\":5678:5717   */\n      mstore\n        /* \"#utility.yul\":5650:5652   */\n      0x20\n        /* \"#utility.yul\":5647:5648   */\n      dup2\n        /* \"#utility.yul\":5643:5653   */\n      add\n        /* \"#utility.yul\":5638:5653   */\n      swap1\n      pop\n        /* \"#utility.yul\":5614:5727   */\n      jump(tag_161)\n    tag_163:\n        /* \"#utility.yul\":5761:5762   */\n      0x00\n        /* \"#utility.yul\":5752:5758   */\n      dup5\n        /* \"#utility.yul\":5747:5750   */\n      dup5\n        /* \"#utility.yul\":5743:5759   */\n      add\n        /* \"#utility.yul\":5736:5763   */\n      mstore\n        /* \"#utility.yul\":5585:5769   */\n      pop\n        /* \"#utility.yul\":5523:5769   */\n      pop\n      pop\n      pop\n      jump\t// out\n        /* \"#utility.yul\":5775:6152   */\n    tag_77:\n        /* \"#utility.yul\":5863:5866   */\n      0x00\n        /* \"#utility.yul\":5891:5930   */\n      tag_165\n        /* \"#utility.yul\":5924:5929   */\n      dup3\n        /* \"#utility.yul\":5891:5930   */\n      tag_74\n      jump\t// in\n    tag_165:\n        /* \"#utility.yul\":5946:6017   */\n      tag_166\n        /* \"#utility.yul\":6010:6016   */\n      dup2\n        /* \"#utility.yul\":6005:6008   */\n      dup6\n        /* \"#utility.yul\":5946:6017   */\n      tag_75\n      jump\t// in\n    tag_166:\n        /* \"#utility.yul\":5939:6017   */\n      swap4\n      pop\n        /* \"#utility.yul\":6026:6091   */\n      tag_167\n        /* \"#utility.yul\":6084:6090   */\n      dup2\n        /* \"#utility.yul\":6079:6082   */\n      dup6\n        /* \"#utility.yul\":6072:6076   */\n      0x20\n        /* \"#utility.yul\":6065:6070   */\n      dup7\n        /* \"#utility.yul\":6061:6077   */\n      add\n        /* \"#utility.yul\":6026:6091   */\n      tag_76\n      jump\t// in\n    tag_167:\n        /* \"#utility.yul\":6116:6145   */\n      tag_168\n        /* \"#utility.yul\":6138:6144   */\n      dup2\n        /* \"#utility.yul\":6116:6145   */\n      tag_62\n      jump\t// in\n    tag_168:\n        /* \"#utility.yul\":6111:6114   */\n      dup5\n        /* \"#utility.yul\":6107:6146   */\n      add\n        /* \"#utility.yul\":6100:6146   */\n      swap2\n      pop\n        /* \"#utility.yul\":5867:6152   */\n      pop\n        /* \"#utility.yul\":5775:6152   */\n      swap3\n      swap2\n      pop\n      pop\n      jump\t// out\n        /* \"#utility.yul\":6158:6471   */\n    tag_27:\n        /* \"#utility.yul\":6271:6275   */\n      0x00\n        /* \"#utility.yul\":6309:6311   */\n      0x20\n        /* \"#utility.yul\":6298:6307   */\n      dup3\n        /* \"#utility.yul\":6294:6312   */\n      add\n        /* \"#utility.yul\":6286:6312   */\n      swap1\n      pop\n        /* \"#utility.yul\":6358:6367   */\n      dup2\n        /* \"#utility.yul\":6352:6356   */\n      dup2\n        /* \"#utility.yul\":6348:6368   */\n      sub\n        /* \"#utility.yul\":6344:6345   */\n      0x00\n        /* \"#utility.yul\":6333:6342   */\n      dup4\n        /* \"#utility.yul\":6329:6346   */\n      add\n        /* \"#utility.yul\":6322:6369   */\n      mstore\n        /* \"#utility.yul\":6386:6464   */\n      tag_170\n        /* \"#utility.yul\":6459:6463   */\n      dup2\n        /* \"#utility.yul\":6450:6456   */\n      dup5\n        /* \"#utility.yul\":6386:6464   */\n      tag_77\n      jump\t// in\n    tag_170:\n        /* \"#utility.yul\":6378:6464   */\n      swap1\n      pop\n        /* \"#utility.yul\":6158:6471   */\n      swap3\n      swap2\n      pop\n      pop\n      jump\t// out\n        /* \"#utility.yul\":6477:6657   */\n    tag_78:\n        /* \"#utility.yul\":6525:6602   */\n      0x4e487b7100000000000000000000000000000000000000000000000000000000\n        /* \"#utility.yul\":6522:6523   */\n      0x00\n        /* \"#utility.yul\":6515:6603   */\n      mstore\n        /* \"#utility.yul\":6622:6626   */\n      0x22\n        /* \"#utility.yul\":6619:6620   */\n      0x04\n        /* \"#utility.yul\":6612:6627   */\n      mstore\n        /* \"#utility.yul\":6646:6650   */\n      0x24\n        /* \"#utility.yul\":6643:6644   */\n      0x00\n        /* \"#utility.yul\":6636:6651   */\n      revert\n        /* \"#utility.yul\":6663:6983   */\n    tag_41:\n        /* \"#utility.yul\":6707:6713   */\n      0x00\n        /* \"#utility.yul\":6744:6745   */\n      0x02\n        /* \"#utility.yul\":6738:6742   */\n      dup3\n        /* \"#utility.yul\":6734:6746   */\n      div\n        /* \"#utility.yul\":6724:6746   */\n      swap1\n      pop\n        /* \"#utility.yul\":6791:6792   */\n      0x01\n        /* \"#utility.yul\":6785:6789   */\n      dup3\n        /* \"#utility.yul\":6781:6793   */\n      and\n        /* \"#utility.yul\":6812:6830   */\n      dup1\n        /* \"#utility.yul\":6802:6883   */\n      tag_173\n      jumpi\n        /* \"#utility.yul\":6868:6872   */\n      0x7f\n        /* \"#utility.yul\":6860:6866   */\n      dup3\n        /* \"#utility.yul\":6856:6873   */\n      and\n        /* \"#utility.yul\":6846:6873   */\n      swap2\n      pop\n        /* \"#utility.yul\":6802:6883   */\n    tag_173:\n        /* \"#utility.yul\":6930:6932   */\n      0x20\n        /* \"#utility.yul\":6922:6928   */\n      dup3\n        /* \"#utility.yul\":6919:6933   */\n      lt\n        /* \"#utility.yul\":6899:6917   */\n      dup2\n        /* \"#utility.yul\":6896:6934   */\n      sub\n        /* \"#utility.yul\":6893:6977   */\n      tag_174\n      jumpi\n        /* \"#utility.yul\":6949:6967   */\n      tag_175\n      tag_78\n      jump\t// in\n    tag_175:\n        /* \"#utility.yul\":6893:6977   */\n    tag_174:\n        /* \"#utility.yul\":6714:6983   */\n      pop\n        /* \"#utility.yul\":6663:6983   */\n      swap2\n      swap1\n      pop\n      jump\t// out\n        /* \"#utility.yul\":6989:7130   */\n    tag_79:\n        /* \"#utility.yul\":7038:7042   */\n      0x00\n        /* \"#utility.yul\":7061:7064   */\n      dup2\n        /* \"#utility.yul\":7053:7064   */\n      swap1\n      pop\n        /* \"#utility.yul\":7084:7087   */\n      dup2\n        /* \"#utility.yul\":7081:7082   */\n      0x00\n        /* \"#utility.yul\":7074:7088   */\n      mstore\n        /* \"#utility.yul\":7118:7122   */\n      0x20\n        /* \"#utility.yul\":7115:7116   */\n      0x00\n        /* \"#utility.yul\":7105:7123   */\n      keccak256\n        /* \"#utility.yul\":7097:7123   */\n      swap1\n      pop\n        /* \"#utility.yul\":6989:7130   */\n      swap2\n      swap1\n      pop\n      jump\t// out\n        /* \"#utility.yul\":7136:7229   */\n    tag_80:\n        /* \"#utility.yul\":7173:7179   */\n      0x00\n        /* \"#utility.yul\":7220:7222   */\n      0x20\n        /* \"#utility.yul\":7215:7217   */\n      0x1f\n        /* \"#utility.yul\":7208:7213   */\n      dup4\n        /* \"#utility.yul\":7204:7218   */\n      add\n        /* \"#utility.yul\":7200:7223   */\n      div\n        /* \"#utility.yul\":7190:7223   */\n      swap1\n      pop\n        /* \"#utility.yul\":7136:7229   */\n      swap2\n      swap1\n      pop\n      jump\t// out\n        /* \"#utility.yul\":7235:7342   */\n    tag_81:\n        /* \"#utility.yul\":7279:7287   */\n      0x00\n        /* \"#utility.yul\":7329:7334   */\n      dup3\n        /* \"#utility.yul\":7323:7327   */\n      dup3\n        /* \"#utility.yul\":7319:7335   */\n      shl\n        /* \"#utility.yul\":7298:7335   */\n      swap1\n      pop\n        /* \"#utility.yul\":7235:7342   */\n      swap3\n      swap2\n      pop\n      pop\n      jump\t// out\n        /* \"#utility.yul\":7348:7741   */\n    tag_82:\n        /* \"#utility.yul\":7417:7423   */\n      0x00\n        /* \"#utility.yul\":7467:7468   */\n      0x08\n        /* \"#utility.yul\":7455:7465   */\n      dup4\n        /* \"#utility.yul\":7451:7469   */\n      mul\n        /* \"#utility.yul\":7490:7587   */\n      tag_180\n        /* \"#utility.yul\":7520:7586   */\n      0xffffffffffffffffffffffffffffffffffffffffffffffffffffffffffffffff\n        /* \"#utility.yul\":7509:7518   */\n      dup3\n        /* \"#utility.yul\":7490:7587   */\n      tag_81\n      jump\t// in\n    tag_180:\n        /* \"#utility.yul\":7608:7647   */\n      tag_181\n        /* \"#utility.yul\":7638:7646   */\n      dup7\n        /* \"#utility.yul\":7627:7636   */\n      dup4\n        /* \"#utility.yul\":7608:7647   */\n      tag_81\n      jump\t// in\n    tag_181:\n        /* \"#utility.yul\":7596:7647   */\n      swap6\n      pop\n        /* \"#utility.yul\":7680:7684   */\n      dup1\n        /* \"#utility.yul\":7676:7685   */\n      not\n        /* \"#utility.yul\":7669:7674   */\n      dup5\n        /* \"#utility.yul\":7665:7686   */\n      and\n        /* \"#utility.yul\":7656:7686   */\n      swap4\n      pop\n        /* \"#utility.yul\":7729:7733   */\n      dup1\n        /* \"#utility.yul\":7719:7727   */\n      dup7\n        /* \"#utility.yul\":7715:7734   */\n      and\n        /* \"#utility.yul\":7708:7713   */\n      dup5\n        /* \"#utility.yul\":7705:7735   */\n      or\n        /* \"#utility.yul\":7695:7735   */\n      swap3\n      pop\n        /* \"#utility.yul\":7424:7741   */\n      pop\n      pop\n        /* \"#utility.yul\":7348:7741   */\n      swap4\n      swap3\n      pop\n      pop\n      pop\n      jump\t// out\n        /* \"#utility.yul\":7747:7807   */\n    tag_83:\n        /* \"#utility.yul\":7775:7778   */\n      0x00\n        /* \"#utility.yul\":7796:7801   */\n      dup2\n        /* \"#utility.yul\":7789:7801   */\n      swap1\n      pop\n        /* \"#utility.yul\":7747:7807   */\n      swap2\n      swap1\n      pop\n      jump\t// out\n        /* \"#utility.yul\":7813:7955   */\n    tag_84:\n        /* \"#utility.yul\":7863:7872   */\n      0x00\n        /* \"#utility.yul\":7896:7949   */\n      tag_184\n        /* \"#utility.yul\":7914:7948   */\n      tag_185\n        /* \"#utility.yul\":7923:7947   */\n      tag_186\n        /* \"#utility.yul\":7941:7946   */\n      dup5\n        /* \"#utility.yul\":7923:7947   */\n      tag_70\n      jump\t// in\n    tag_186:\n        /* \"#utility.yul\":7914:7948   */\n      tag_83\n      jump\t// in\n    tag_185:\n        /* \"#utility.yul\":7896:7949   */\n      tag_70\n      jump\t// in\n    tag_184:\n        /* \"#utility.yul\":7883:7949   */\n      swap1\n      pop\n        /* \"#utility.yul\":7813:7955   */\n      swap2\n      swap1\n      pop\n      jump\t// out\n        /* \"#utility.yul\":7961:8036   */\n    tag_85:\n        /* \"#utility.yul\":8004:8007   */\n      0x00\n        /* \"#utility.yul\":8025:8030   */\n      dup2\n        /* \"#utility.yul\":8018:8030   */\n      swap1\n      pop\n        /* \"#utility.yul\":7961:8036   */\n      swap2\n      swap1\n      pop\n      jump\t// out\n        /* \"#utility.yul\":8042:8311   */\n    tag_86:\n        /* \"#utility.yul\":8152:8191   */\n      tag_189\n        /* \"#utility.yul\":8183:8190   */\n      dup4\n        /* \"#utility.yul\":8152:8191   */\n      tag_84\n      jump\t// in\n    tag_189:\n        /* \"#utility.yul\":8213:8304   */\n      tag_190\n        /* \"#utility.yul\":8262:8303   */\n      tag_191\n        /* \"#utility.yul\":8286:8302   */\n      dup3\n        /* \"#utility.yul\":8262:8303   */\n      tag_85\n      jump\t// in\n    tag_191:\n        /* \"#utility.yul\":8254:8260   */\n      dup5\n        /* \"#utility.yul\":8247:8251   */\n      dup5\n        /* \"#utility.yul\":8241:8252   */\n      sload\n        /* \"#utility.yul\":8213:8304   */\n      tag_82\n      jump\t// in\n    tag_190:\n        /* \"#utility.yul\":8207:8211   */\n      dup3\n        /* \"#utility.yul\":8200:8305   */\n      sstore\n        /* \"#utility.yul\":8118:8311   */\n      pop\n        /* \"#utility.yul\":8042:8311   */\n      pop\n      pop\n      pop\n      jump\t// out\n        /* \"#utility.yul\":8317:8390   */\n    tag_87:\n        /* \"#utility.yul\":8362:8365   */\n      0x00\n        /* \"#utility.yul\":8317:8390   */\n      swap1\n      jump\t// out\n        /* \"#utility.yul\":8396:8585   */\n    tag_88:\n        /* \"#utility.yul\":8473:8505   */\n      tag_194\n      tag_87\n      jump\t// in\n    tag_194:\n        /* \"#utility.yul\":8514:8579   */\n      tag_195\n        /* \"#utility.yul\":8572:8578   */\n      dup2\n        /* \"#utility.yul\":8564:8570   */\n      dup5\n        /* \"#utility.yul\":8558:8562   */\n      dup5\n        /* \"#utility.yul\":8514:8579   */\n      tag_86\n      jump\t// in\n    tag_195:\n        /* \"#utility.yul\":8449:8585   */\n      pop\n        /* \"#utility.yul\":8396:8585   */\n      pop\n      pop\n      jump\t// out\n        /* \"#utility.yul\":8591:8777   */\n    tag_89:\n        /* \"#utility.yul\":8651:8771   */\n    tag_197:\n        /* \"#utility.yul\":8668:8671   */\n      dup2\n        /* \"#utility.yul\":8661:8666   */\n      dup2\n        /* \"#utility.yul\":8658:8672   */\n      lt\n        /* \"#utility.yul\":8651:8771   */\n      iszero\n      tag_199\n      jumpi\n        /* \"#utility.yul\":8722:8761   */\n      tag_200\n        /* \"#utility.yul\":8759:8760   */\n      0x00\n        /* \"#utility.yul\":8752:8757   */\n      dup3\n        /* \"#utility.yul\":8722:8761   */\n      tag_88\n      jump\t// in\n    tag_200:\n        /* \"#utility.yul\":8695:8696   */\n      0x01\n        /* \"#utility.yul\":8688:8693   */\n      dup2\n        /* \"#utility.yul\":8684:8697   */\n      add\n        /* \"#utility.yul\":8675:8697   */\n      swap1\n      pop\n        /* \"#utility.yul\":8651:8771   */\n      jump(tag_197)\n    tag_199:\n        /* \"#utility.yul\":8591:8777   */\n      pop\n      pop\n      jump\t// out\n        /* \"#utility.yul\":8783:9326   */\n    tag_90:\n        /* \"#utility.yul\":8884:8886   */\n      0x1f\n        /* \"#utility.yul\":8879:8882   */\n      dup3\n        /* \"#utility.yul\":8876:8887   */\n      gt\n        /* \"#utility.yul\":8873:9319   */\n      iszero\n      tag_202\n      jumpi\n        /* \"#utility.yul\":8918:8956   */\n      tag_203\n        /* \"#utility.yul\":8950:8955   */\n      dup2\n        /* \"#utility.yul\":8918:8956   */\n      tag_79\n      jump\t// in\n    tag_203:\n        /* \"#utility.yul\":9002:9031   */\n      tag_204\n        /* \"#utility.yul\":9020:9030   */\n      dup5\n        /* \"#utility.yul\":9002:9031   */\n      tag_80\n      jump\t// in\n    tag_204:\n        /* \"#utility.yul\":8992:9000   */\n      dup2\n        /* \"#utility.yul\":8988:9032   */\n      add\n        /* \"#utility.yul\":9185:9187   */\n      0x20\n        /* \"#utility.yul\":9173:9183   */\n      dup6\n        /* \"#utility.yul\":9170:9188   */\n      lt\n        /* \"#utility.yul\":9167:9216   */\n      iszero\n      tag_205\n      jumpi\n        /* \"#utility.yul\":9206:9214   */\n      dup2\n        /* \"#utility.yul\":9191:9214   */\n      swap1\n      pop\n        /* \"#utility.yul\":9167:9216   */\n    tag_205:\n        /* \"#utility.yul\":9229:9309   */\n      tag_206\n        /* \"#utility.yul\":9285:9307   */\n      tag_207\n        /* \"#utility.yul\":9303:9306   */\n      dup6\n        /* \"#utility.yul\":9285:9307   */\n      tag_80\n      jump\t// in\n    tag_207:\n        /* \"#utility.yul\":9275:9283   */\n      dup4\n        /* \"#utility.yul\":9271:9308   */\n      add\n        /* \"#utility.yul\":9258:9269   */\n      dup3\n        /* \"#utility.yul\":9229:9309   */\n      tag_89\n      jump\t// in\n    tag_206:\n        /* \"#utility.yul\":8888:9319   */\n      pop\n      pop\n        /* \"#utility.yul\":8873:9319   */\n    tag_202:\n        /* \"#utility.yul\":8783:9326   */\n      pop\n      pop\n      pop\n      jump\t// out\n        /* \"#utility.yul\":9332:9449   */\n    tag_91:\n        /* \"#utility.yul\":9386:9394   */\n      0x00\n        /* \"#utility.yul\":9436:9441   */\n      dup3\n        /* \"#utility.yul\":9430:9434   */\n      dup3\n        /* \"#utility.yul\":9426:9442   */\n      shr\n        /* \"#utility.yul\":9405:9442   */\n      swap1\n      pop\n        /* \"#utility.yul\":9332:9449   */\n      swap3\n      swap2\n      pop\n      pop\n      jump\t// out\n        /* \"#utility.yul\":9455:9624   */\n    tag_92:\n        /* \"#utility.yul\":9499:9505   */\n      0x00\n        /* \"#utility.yul\":9532:9583   */\n      tag_210\n        /* \"#utility.yul\":9580:9581   */\n      0x00\n        /* \"#utility.yul\":9576:9582   */\n      not\n        /* \"#utility.yul\":9568:9573   */\n      dup5\n        /* \"#utility.yul\":9565:9566   */\n      0x08\n        /* \"#utility.yul\":9561:9574   */\n      mul\n        /* \"#utility.yul\":9532:9583   */\n      tag_91\n      jump\t// in\n    tag_210:\n        /* \"#utility.yul\":9528:9584   */\n      not\n        /* \"#utility.yul\":9613:9617   */\n      dup1\n        /* \"#utility.yul\":9607:9611   */\n      dup4\n        /* \"#utility.yul\":9603:9618   */\n      and\n        /* \"#utility.yul\":9593:9618   */\n      swap2\n      pop\n        /* \"#utility.yul\":9506:9624   */\n      pop\n        /* \"#utility.yul\":9455:9624   */\n      swap3\n      swap2\n      pop\n      pop\n      jump\t// out\n        /* \"#utility.yul\":9629:9924   */\n    tag_93:\n        /* \"#utility.yul\":9705:9709   */\n      0x00\n        /* \"#utility.yul\":9851:9880   */\n      tag_212\n        /* \"#utility.yul\":9876:9879   */\n      dup4\n        /* \"#utility.yul\":9870:9874   */\n      dup4\n        /* \"#utility.yul\":9851:9880   */\n      tag_92\n      jump\t// in\n    tag_212:\n        /* \"#utility.yul\":9843:9880   */\n      swap2\n      pop\n        /* \"#utility.yul\":9913:9916   */\n      dup3\n        /* \"#utility.yul\":9910:9911   */\n      0x02\n        /* \"#utility.yul\":9906:9917   */\n      mul\n        /* \"#utility.yul\":9900:9904   */\n      dup3\n        /* \"#utility.yul\":9897:9918   */\n      or\n        /* \"#utility.yul\":9889:9918   */\n      swap1\n      pop\n        /* \"#utility.yul\":9629:9924   */\n      swap3\n      swap2\n      pop\n      pop\n      jump\t// out\n        /* \"#utility.yul\":9929:11324   */\n    tag_38:\n        /* \"#utility.yul\":10046:10083   */\n      tag_214\n        /* \"#utility.yul\":10079:10082   */\n      dup3\n        /* \"#utility.yul\":10046:10083   */\n      tag_74\n      jump\t// in\n    tag_214:\n        /* \"#utility.yul\":10148:10166   */\n      0xffffffffffffffff\n        /* \"#utility.yul\":10140:10146   */\n      dup2\n        /* \"#utility.yul\":10137:10167   */\n      gt\n        /* \"#utility.yul\":10134:10190   */\n      iszero\n      tag_215\n      jumpi\n        /* \"#utility.yul\":10170:10188   */\n      tag_216\n      tag_63\n      jump\t// in\n    tag_216:\n        /* \"#utility.yul\":10134:10190   */\n    tag_215:\n        /* \"#utility.yul\":10214:10252   */\n      tag_217\n        /* \"#utility.yul\":10246:10250   */\n      dup3\n        /* \"#utility.yul\":10240:10251   */\n      sload\n        /* \"#utility.yul\":10214:10252   */\n      tag_41\n      jump\t// in\n    tag_217:\n        /* \"#utility.yul\":10299:10366   */\n      tag_218\n        /* \"#utility.yul\":10359:10365   */\n      dup3\n        /* \"#utility.yul\":10351:10357   */\n      dup3\n        /* \"#utility.yul\":10345:10349   */\n      dup6\n        /* \"#utility.yul\":10299:10366   */\n      tag_90\n      jump\t// in\n    tag_218:\n        /* \"#utility.yul\":10393:10394   */\n      0x00\n        /* \"#utility.yul\":10417:10421   */\n      0x20\n        /* \"#utility.yul\":10404:10421   */\n      swap1\n      pop\n        /* \"#utility.yul\":10449:10451   */\n      0x1f\n        /* \"#utility.yul\":10441:10447   */\n      dup4\n        /* \"#utility.yul\":10438:10452   */\n      gt\n        /* \"#utility.yul\":10466:10467   */\n      0x01\n        /* \"#utility.yul\":10461:11079   */\n      dup2\n      eq\n      tag_220\n      jumpi\n        /* \"#utility.yul\":11123:11124   */\n      0x00\n        /* \"#utility.yul\":11140:11146   */\n      dup5\n        /* \"#utility.yul\":11137:11214   */\n      iszero\n      tag_221\n      jumpi\n        /* \"#utility.yul\":11189:11198   */\n      dup3\n        /* \"#utility.yul\":11184:11187   */\n      dup8\n        /* \"#utility.yul\":11180:11199   */\n      add\n        /* \"#utility.yul\":11174:11200   */\n      mload\n        /* \"#utility.yul\":11165:11200   */\n      swap1\n      pop\n        /* \"#utility.yul\":11137:11214   */\n    tag_221:\n        /* \"#utility.yul\":11240:11307   */\n      tag_222\n        /* \"#utility.yul\":11300:11306   */\n      dup6\n        /* \"#utility.yul\":11293:11298   */\n      dup3\n        /* \"#utility.yul\":11240:11307   */\n      tag_93\n      jump\t// in\n    tag_222:\n        /* \"#utility.yul\":11234:11238   */\n      dup7\n        /* \"#utility.yul\":11227:11308   */\n      sstore\n        /* \"#utility.yul\":11096:11318   */\n      pop\n        /* \"#utility.yul\":10431:11318   */\n      jump(tag_219)\n        /* \"#utility.yul\":10461:11079   */\n    tag_220:\n        /* \"#utility.yul\":10513:10517   */\n      0x1f\n        /* \"#utility.yul\":10509:10518   */\n      not\n        /* \"#utility.yul\":10501:10507   */\n      dup5\n        /* \"#utility.yul\":10497:10519   */\n      and\n        /* \"#utility.yul\":10547:10584   */\n      tag_223\n        /* \"#utility.yul\":10579:10583   */\n      dup7\n        /* \"#utility.yul\":10547:10584   */\n      tag_79\n      jump\t// in\n    tag_223:\n        /* \"#utility.yul\":10606:10607   */\n      0x00\n        /* \"#utility.yul\":10620:10828   */\n    tag_224:\n        /* \"#utility.yul\":10634:10641   */\n      dup3\n        /* \"#utility.yul\":10631:10632   */\n      dup2\n        /* \"#utility.yul\":10628:10642   */\n      lt\n        /* \"#utility.yul\":10620:10828   */\n      iszero\n      tag_226\n      jumpi\n        /* \"#utility.yul\":10713:10722   */\n      dup5\n        /* \"#utility.yul\":10708:10711   */\n      dup10\n        /* \"#utility.yul\":10704:10723   */\n      add\n        /* \"#utility.yul\":10698:10724   */\n      mload\n        /* \"#utility.yul\":10690:10696   */\n      dup3\n        /* \"#utility.yul\":10683:10725   */\n      sstore\n        /* \"#utility.yul\":10764:10765   */\n      0x01\n        /* \"#utility.yul\":10756:10762   */\n      dup3\n        /* \"#utility.yul\":10752:10766   */\n      add\n        /* \"#utility.yul\":10742:10766   */\n      swap2\n      pop\n        /* \"#utility.yul\":10811:10813   */\n      0x20\n        /* \"#utility.yul\":10800:10809   */\n      dup6\n        /* \"#utility.yul\":10796:10814   */\n      add\n        /* \"#utility.yul\":10783:10814   */\n      swap5\n      pop\n        /* \"#utility.yul\":10657:10661   */\n      0x20\n        /* \"#utility.yul\":10654:10655   */\n      dup2\n        /* \"#utility.yul\":10650:10662   */\n      add\n        /* \"#utility.yul\":10645:10662   */\n      swap1\n      pop\n        /* \"#utility.yul\":10620:10828   */\n      jump(tag_224)\n    tag_226:\n        /* \"#utility.yul\":10856:10862   */\n      dup7\n        /* \"#utility.yul\":10847:10854   */\n      dup4\n        /* \"#utility.yul\":10844:10863   */\n      lt\n        /* \"#utility.yul\":10841:11020   */\n      iszero\n      tag_227\n      jumpi\n        /* \"#utility.yul\":10914:10923   */\n      dup5\n        /* \"#utility.yul\":10909:10912   */\n      dup10\n        /* \"#utility.yul\":10905:10924   */\n      add\n        /* \"#utility.yul\":10899:10925   */\n      mload\n        /* \"#utility.yul\":10957:11005   */\n      tag_228\n        /* \"#utility.yul\":10999:11003   */\n      0x1f\n        /* \"#utility.yul\":10991:10997   */\n      dup10\n        /* \"#utility.yul\":10987:11004   */\n      and\n        /* \"#utility.yul\":10976:10985   */\n      dup3\n        /* \"#utility.yul\":10957:11005   */\n      tag_92\n      jump\t// in\n    tag_228:\n        /* \"#utility.yul\":10949:10955   */\n      dup4\n        /* \"#utility.yul\":10942:11006   */\n      sstore\n        /* \"#utility.yul\":10864:11020   */\n      pop\n        /* \"#utility.yul\":10841:11020   */\n    tag_227:\n        /* \"#utility.yul\":11066:11067   */\n      0x01\n        /* \"#utility.yul\":11062:11063   */\n      0x02\n        /* \"#utility.yul\":11054:11060   */\n      dup9\n        /* \"#utility.yul\":11050:11064   */\n      mul\n        /* \"#utility.yul\":11046:11068   */\n      add\n        /* \"#utility.yul\":11040:11044   */\n      dup9\n        /* \"#utility.yul\":11033:11069   */\n      sstore\n        /* \"#utility.yul\":10468:11079   */\n      pop\n      pop\n      pop\n        /* \"#utility.yul\":10431:11318   */\n    tag_219:\n      pop\n        /* \"#utility.yul\":10021:11324   */\n      pop\n      pop\n      pop\n        /* \"#utility.yul\":9929:11324   */\n      pop\n      pop\n      jump\t// out\n\n    auxdata: 0xa2646970667358221220daf75229252c44077be517ebb08d9f1d9d5b05907370011a53e9abaf06d4819e64736f6c63430008110033\n}\n",
				"bytecode": {
					"linkReferences": {},
					"object": "608060405234801561001057600080fd5b506103e86000803373ffffffffffffffffffffffffffffffffffffffff1673ffffffffffffffffffffffffffffffffffffffff16815260200190815260200160002081905550610a5e806100656000396000f3fe608060405234801561001057600080fd5b50600436106100625760003560e01c80630540e5b91461006757806327cbd529146100835780633825d828146100b357806363d679b3146100cf578063c2bc2efc146100ff578063e6c702751461012f575b600080fd5b610081600480360381019061007c9190610580565b61015f565b005b61009d600480360381019061009891906105dc565b6101b0565b6040516100aa9190610622565b60405180910390f35b6100cd60048036038101906100c89190610669565b6101c8565b005b6100e960048036038101906100e491906105dc565b61020f565b6040516100f69190610728565b60405180910390f35b610119600480360381019061011491906105dc565b6102af565b6040516101269190610622565b60405180910390f35b610149600480360381019061014491906105dc565b6102f7565b6040516101569190610728565b60405180910390f35b80600160008473ffffffffffffffffffffffffffffffffffffffff1673ffffffffffffffffffffffffffffffffffffffff16815260200190815260200160002090816101ab9190610956565b505050565b60006020528060005260406000206000915090505481565b806000808473ffffffffffffffffffffffffffffffffffffffff1673ffffffffffffffffffffffffffffffffffffffff168152602001908152602001600020819055505050565b6001602052806000526040600020600091509050805461022e90610779565b80601f016020809104026020016040519081016040528092919081815260200182805461025a90610779565b80156102a75780601f1061027c576101008083540402835291602001916102a7565b820191906000526020600020905b81548152906001019060200180831161028a57829003601f168201915b505050505081565b60008060008373ffffffffffffffffffffffffffffffffffffffff1673ffffffffffffffffffffffffffffffffffffffff168152602001908152602001600020549050919050565b6060600160008373ffffffffffffffffffffffffffffffffffffffff1673ffffffffffffffffffffffffffffffffffffffff168152602001908152602001600020805461034390610779565b80601f016020809104026020016040519081016040528092919081815260200182805461036f90610779565b80156103bc5780601f10610391576101008083540402835291602001916103bc565b820191906000526020600020905b81548152906001019060200180831161039f57829003601f168201915b50505050509050919050565b6000604051905090565b600080fd5b600080fd5b600073ffffffffffffffffffffffffffffffffffffffff82169050919050565b6000610407826103dc565b9050919050565b610417816103fc565b811461042257600080fd5b50565b6000813590506104348161040e565b92915050565b600080fd5b600080fd5b6000601f19601f8301169050919050565b7f4e487b7100000000000000000000000000000000000000000000000000000000600052604160045260246000fd5b61048d82610444565b810181811067ffffffffffffffff821117156104ac576104ab610455565b5b80604052505050565b60006104bf6103c8565b90506104cb8282610484565b919050565b600067ffffffffffffffff8211156104eb576104ea610455565b5b6104f482610444565b9050602081019050919050565b82818337600083830152505050565b600061052361051e846104d0565b6104b5565b90508281526020810184848401111561053f5761053e61043f565b5b61054a848285610501565b509392505050565b600082601f8301126105675761056661043a565b5b8135610577848260208601610510565b91505092915050565b60008060408385031215610597576105966103d2565b5b60006105a585828601610425565b925050602083013567ffffffffffffffff8111156105c6576105c56103d7565b5b6105d285828601610552565b9150509250929050565b6000602082840312156105f2576105f16103d2565b5b600061060084828501610425565b91505092915050565b6000819050919050565b61061c81610609565b82525050565b60006020820190506106376000830184610613565b92915050565b61064681610609565b811461065157600080fd5b50565b6000813590506106638161063d565b92915050565b600080604083850312156106805761067f6103d2565b5b600061068e85828601610425565b925050602061069f85828601610654565b9150509250929050565b600081519050919050565b600082825260208201905092915050565b60005b838110156106e35780820151818401526020810190506106c8565b60008484015250505050565b60006106fa826106a9565b61070481856106b4565b93506107148185602086016106c5565b61071d81610444565b840191505092915050565b6000602082019050818103600083015261074281846106ef565b905092915050565b7f4e487b7100000000000000000000000000000000000000000000000000000000600052602260045260246000fd5b6000600282049050600182168061079157607f821691505b6020821081036107a4576107a361074a565b5b50919050565b60008190508160005260206000209050919050565b60006020601f8301049050919050565b600082821b905092915050565b60006008830261080c7fffffffffffffffffffffffffffffffffffffffffffffffffffffffffffffffff826107cf565b61081686836107cf565b95508019841693508086168417925050509392505050565b6000819050919050565b600061085361084e61084984610609565b61082e565b610609565b9050919050565b6000819050919050565b61086d83610838565b6108816108798261085a565b8484546107dc565b825550505050565b600090565b610896610889565b6108a1818484610864565b505050565b5b818110156108c5576108ba60008261088e565b6001810190506108a7565b5050565b601f82111561090a576108db816107aa565b6108e4846107bf565b810160208510156108f3578190505b6109076108ff856107bf565b8301826108a6565b50505b505050565b600082821c905092915050565b600061092d6000198460080261090f565b1980831691505092915050565b6000610946838361091c565b9150826002028217905092915050565b61095f826106a9565b67ffffffffffffffff81111561097857610977610455565b5b6109828254610779565b61098d8282856108c9565b600060209050601f8311600181146109c057600084156109ae578287015190505b6109b8858261093a565b865550610a20565b601f1984166109ce866107aa565b60005b828110156109f6578489015182556001820191506020850194506020810190506109d1565b86831015610a135784890151610a0f601f89168261091c565b8355505b6001600288020188555050505b50505050505056fea2646970667358221220daf75229252c44077be517ebb08d9f1d9d5b05907370011a53e9abaf06d4819e64736f6c63430008110033",
					"opcodes": "PUSH1 0x80 PUSH1 0x40 MSTORE CALLVALUE DUP1 ISZERO PUSH2 0x10 JUMPI PUSH1 0x0 DUP1 REVERT JUMPDEST POP PUSH2 0x3E8 PUSH1 0x0 DUP1 CALLER PUSH20 0xFFFFFFFFFFFFFFFFFFFFFFFFFFFFFFFFFFFFFFFF AND PUSH20 0xFFFFFFFFFFFFFFFFFFFFFFFFFFFFFFFFFFFFFFFF AND DUP2 MSTORE PUSH1 0x20 ADD SWAP1 DUP2 MSTORE PUSH1 0x20 ADD PUSH1 0x0 KECCAK256 DUP2 SWAP1 SSTORE POP PUSH2 0xA5E DUP1 PUSH2 0x65 PUSH1 0x0 CODECOPY PUSH1 0x0 RETURN INVALID PUSH1 0x80 PUSH1 0x40 MSTORE CALLVALUE DUP1 ISZERO PUSH2 0x10 JUMPI PUSH1 0x0 DUP1 REVERT JUMPDEST POP PUSH1 0x4 CALLDATASIZE LT PUSH2 0x62 JUMPI PUSH1 0x0 CALLDATALOAD PUSH1 0xE0 SHR DUP1 PUSH4 0x540E5B9 EQ PUSH2 0x67 JUMPI DUP1 PUSH4 0x27CBD529 EQ PUSH2 0x83 JUMPI DUP1 PUSH4 0x3825D828 EQ PUSH2 0xB3 JUMPI DUP1 PUSH4 0x63D679B3 EQ PUSH2 0xCF JUMPI DUP1 PUSH4 0xC2BC2EFC EQ PUSH2 0xFF JUMPI DUP1 PUSH4 0xE6C70275 EQ PUSH2 0x12F JUMPI JUMPDEST PUSH1 0x0 DUP1 REVERT JUMPDEST PUSH2 0x81 PUSH1 0x4 DUP1 CALLDATASIZE SUB DUP2 ADD SWAP1 PUSH2 0x7C SWAP2 SWAP1 PUSH2 0x580 JUMP JUMPDEST PUSH2 0x15F JUMP JUMPDEST STOP JUMPDEST PUSH2 0x9D PUSH1 0x4 DUP1 CALLDATASIZE SUB DUP2 ADD SWAP1 PUSH2 0x98 SWAP2 SWAP1 PUSH2 0x5DC JUMP JUMPDEST PUSH2 0x1B0 JUMP JUMPDEST PUSH1 0x40 MLOAD PUSH2 0xAA SWAP2 SWAP1 PUSH2 0x622 JUMP JUMPDEST PUSH1 0x40 MLOAD DUP1 SWAP2 SUB SWAP1 RETURN JUMPDEST PUSH2 0xCD PUSH1 0x4 DUP1 CALLDATASIZE SUB DUP2 ADD SWAP1 PUSH2 0xC8 SWAP2 SWAP1 PUSH2 0x669 JUMP JUMPDEST PUSH2 0x1C8 JUMP JUMPDEST STOP JUMPDEST PUSH2 0xE9 PUSH1 0x4 DUP1 CALLDATASIZE SUB DUP2 ADD SWAP1 PUSH2 0xE4 SWAP2 SWAP1 PUSH2 0x5DC JUMP JUMPDEST PUSH2 0x20F JUMP JUMPDEST PUSH1 0x40 MLOAD PUSH2 0xF6 SWAP2 SWAP1 PUSH2 0x728 JUMP JUMPDEST PUSH1 0x40 MLOAD DUP1 SWAP2 SUB SWAP1 RETURN JUMPDEST PUSH2 0x119 PUSH1 0x4 DUP1 CALLDATASIZE SUB DUP2 ADD SWAP1 PUSH2 0x114 SWAP2 SWAP1 PUSH2 0x5DC JUMP JUMPDEST PUSH2 0x2AF JUMP JUMPDEST PUSH1 0x40 MLOAD PUSH2 0x126 SWAP2 SWAP1 PUSH2 0x622 JUMP JUMPDEST PUSH1 0x40 MLOAD DUP1 SWAP2 SUB SWAP1 RETURN JUMPDEST PUSH2 0x149 PUSH1 0x4 DUP1 CALLDATASIZE SUB DUP2 ADD SWAP1 PUSH2 0x144 SWAP2 SWAP1 PUSH2 0x5DC JUMP JUMPDEST PUSH2 0x2F7 JUMP JUMPDEST PUSH1 0x40 MLOAD PUSH2 0x156 SWAP2 SWAP1 PUSH2 0x728 JUMP JUMPDEST PUSH1 0x40 MLOAD DUP1 SWAP2 SUB SWAP1 RETURN JUMPDEST DUP1 PUSH1 0x1 PUSH1 0x0 DUP5 PUSH20 0xFFFFFFFFFFFFFFFFFFFFFFFFFFFFFFFFFFFFFFFF AND PUSH20 0xFFFFFFFFFFFFFFFFFFFFFFFFFFFFFFFFFFFFFFFF AND DUP2 MSTORE PUSH1 0x20 ADD SWAP1 DUP2 MSTORE PUSH1 0x20 ADD PUSH1 0x0 KECCAK256 SWAP1 DUP2 PUSH2 0x1AB SWAP2 SWAP1 PUSH2 0x956 JUMP JUMPDEST POP POP POP JUMP JUMPDEST PUSH1 0x0 PUSH1 0x20 MSTORE DUP1 PUSH1 0x0 MSTORE PUSH1 0x40 PUSH1 0x0 KECCAK256 PUSH1 0x0 SWAP2 POP SWAP1 POP SLOAD DUP2 JUMP JUMPDEST DUP1 PUSH1 0x0 DUP1 DUP5 PUSH20 0xFFFFFFFFFFFFFFFFFFFFFFFFFFFFFFFFFFFFFFFF AND PUSH20 0xFFFFFFFFFFFFFFFFFFFFFFFFFFFFFFFFFFFFFFFF AND DUP2 MSTORE PUSH1 0x20 ADD SWAP1 DUP2 MSTORE PUSH1 0x20 ADD PUSH1 0x0 KECCAK256 DUP2 SWAP1 SSTORE POP POP POP JUMP JUMPDEST PUSH1 0x1 PUSH1 0x20 MSTORE DUP1 PUSH1 0x0 MSTORE PUSH1 0x40 PUSH1 0x0 KECCAK256 PUSH1 0x0 SWAP2 POP SWAP1 POP DUP1 SLOAD PUSH2 0x22E SWAP1 PUSH2 0x779 JUMP JUMPDEST DUP1 PUSH1 0x1F ADD PUSH1 0x20 DUP1 SWAP2 DIV MUL PUSH1 0x20 ADD PUSH1 0x40 MLOAD SWAP1 DUP2 ADD PUSH1 0x40 MSTORE DUP1 SWAP3 SWAP2 SWAP1 DUP2 DUP2 MSTORE PUSH1 0x20 ADD DUP3 DUP1 SLOAD PUSH2 0x25A SWAP1 PUSH2 0x779 JUMP JUMPDEST DUP1 ISZERO PUSH2 0x2A7 JUMPI DUP1 PUSH1 0x1F LT PUSH2 0x27C JUMPI PUSH2 0x100 DUP1 DUP4 SLOAD DIV MUL DUP4 MSTORE SWAP2 PUSH1 0x20 ADD SWAP2 PUSH2 0x2A7 JUMP JUMPDEST DUP3 ADD SWAP2 SWAP1 PUSH1 0x0 MSTORE PUSH1 0x20 PUSH1 0x0 KECCAK256 SWAP1 JUMPDEST DUP2 SLOAD DUP2 MSTORE SWAP1 PUSH1 0x1 ADD SWAP1 PUSH1 0x20 ADD DUP1 DUP4 GT PUSH2 0x28A JUMPI DUP3 SWAP1 SUB PUSH1 0x1F AND DUP3 ADD SWAP2 JUMPDEST POP POP POP POP POP DUP2 JUMP JUMPDEST PUSH1 0x0 DUP1 PUSH1 0x0 DUP4 PUSH20 0xFFFFFFFFFFFFFFFFFFFFFFFFFFFFFFFFFFFFFFFF AND PUSH20 0xFFFFFFFFFFFFFFFFFFFFFFFFFFFFFFFFFFFFFFFF AND DUP2 MSTORE PUSH1 0x20 ADD SWAP1 DUP2 MSTORE PUSH1 0x20 ADD PUSH1 0x0 KECCAK256 SLOAD SWAP1 POP SWAP2 SWAP1 POP JUMP JUMPDEST PUSH1 0x60 PUSH1 0x1 PUSH1 0x0 DUP4 PUSH20 0xFFFFFFFFFFFFFFFFFFFFFFFFFFFFFFFFFFFFFFFF AND PUSH20 0xFFFFFFFFFFFFFFFFFFFFFFFFFFFFFFFFFFFFFFFF AND DUP2 MSTORE PUSH1 0x20 ADD SWAP1 DUP2 MSTORE PUSH1 0x20 ADD PUSH1 0x0 KECCAK256 DUP1 SLOAD PUSH2 0x343 SWAP1 PUSH2 0x779 JUMP JUMPDEST DUP1 PUSH1 0x1F ADD PUSH1 0x20 DUP1 SWAP2 DIV MUL PUSH1 0x20 ADD PUSH1 0x40 MLOAD SWAP1 DUP2 ADD PUSH1 0x40 MSTORE DUP1 SWAP3 SWAP2 SWAP1 DUP2 DUP2 MSTORE PUSH1 0x20 ADD DUP3 DUP1 SLOAD PUSH2 0x36F SWAP1 PUSH2 0x779 JUMP JUMPDEST DUP1 ISZERO PUSH2 0x3BC JUMPI DUP1 PUSH1 0x1F LT PUSH2 0x391 JUMPI PUSH2 0x100 DUP1 DUP4 SLOAD DIV MUL DUP4 MSTORE SWAP2 PUSH1 0x20 ADD SWAP2 PUSH2 0x3BC JUMP JUMPDEST DUP3 ADD SWAP2 SWAP1 PUSH1 0x0 MSTORE PUSH1 0x20 PUSH1 0x0 KECCAK256 SWAP1 JUMPDEST DUP2 SLOAD DUP2 MSTORE SWAP1 PUSH1 0x1 ADD SWAP1 PUSH1 0x20 ADD DUP1 DUP4 GT PUSH2 0x39F JUMPI DUP3 SWAP1 SUB PUSH1 0x1F AND DUP3 ADD SWAP2 JUMPDEST POP POP POP POP POP SWAP1 POP SWAP2 SWAP1 POP JUMP JUMPDEST PUSH1 0x0 PUSH1 0x40 MLOAD SWAP1 POP SWAP1 JUMP JUMPDEST PUSH1 0x0 DUP1 REVERT JUMPDEST PUSH1 0x0 DUP1 REVERT JUMPDEST PUSH1 0x0 PUSH20 0xFFFFFFFFFFFFFFFFFFFFFFFFFFFFFFFFFFFFFFFF DUP3 AND SWAP1 POP SWAP2 SWAP1 POP JUMP JUMPDEST PUSH1 0x0 PUSH2 0x407 DUP3 PUSH2 0x3DC JUMP JUMPDEST SWAP1 POP SWAP2 SWAP1 POP JUMP JUMPDEST PUSH2 0x417 DUP2 PUSH2 0x3FC JUMP JUMPDEST DUP2 EQ PUSH2 0x422 JUMPI PUSH1 0x0 DUP1 REVERT JUMPDEST POP JUMP JUMPDEST PUSH1 0x0 DUP2 CALLDATALOAD SWAP1 POP PUSH2 0x434 DUP2 PUSH2 0x40E JUMP JUMPDEST SWAP3 SWAP2 POP POP JUMP JUMPDEST PUSH1 0x0 DUP1 REVERT JUMPDEST PUSH1 0x0 DUP1 REVERT JUMPDEST PUSH1 0x0 PUSH1 0x1F NOT PUSH1 0x1F DUP4 ADD AND SWAP1 POP SWAP2 SWAP1 POP JUMP JUMPDEST PUSH32 0x4E487B7100000000000000000000000000000000000000000000000000000000 PUSH1 0x0 MSTORE PUSH1 0x41 PUSH1 0x4 MSTORE PUSH1 0x24 PUSH1 0x0 REVERT JUMPDEST PUSH2 0x48D DUP3 PUSH2 0x444 JUMP JUMPDEST DUP2 ADD DUP2 DUP2 LT PUSH8 0xFFFFFFFFFFFFFFFF DUP3 GT OR ISZERO PUSH2 0x4AC JUMPI PUSH2 0x4AB PUSH2 0x455 JUMP JUMPDEST JUMPDEST DUP1 PUSH1 0x40 MSTORE POP POP POP JUMP JUMPDEST PUSH1 0x0 PUSH2 0x4BF PUSH2 0x3C8 JUMP JUMPDEST SWAP1 POP PUSH2 0x4CB DUP3 DUP3 PUSH2 0x484 JUMP JUMPDEST SWAP2 SWAP1 POP JUMP JUMPDEST PUSH1 0x0 PUSH8 0xFFFFFFFFFFFFFFFF DUP3 GT ISZERO PUSH2 0x4EB JUMPI PUSH2 0x4EA PUSH2 0x455 JUMP JUMPDEST JUMPDEST PUSH2 0x4F4 DUP3 PUSH2 0x444 JUMP JUMPDEST SWAP1 POP PUSH1 0x20 DUP2 ADD SWAP1 POP SWAP2 SWAP1 POP JUMP JUMPDEST DUP3 DUP2 DUP4 CALLDATACOPY PUSH1 0x0 DUP4 DUP4 ADD MSTORE POP POP POP JUMP JUMPDEST PUSH1 0x0 PUSH2 0x523 PUSH2 0x51E DUP5 PUSH2 0x4D0 JUMP JUMPDEST PUSH2 0x4B5 JUMP JUMPDEST SWAP1 POP DUP3 DUP2 MSTORE PUSH1 0x20 DUP2 ADD DUP5 DUP5 DUP5 ADD GT ISZERO PUSH2 0x53F JUMPI PUSH2 0x53E PUSH2 0x43F JUMP JUMPDEST JUMPDEST PUSH2 0x54A DUP5 DUP3 DUP6 PUSH2 0x501 JUMP JUMPDEST POP SWAP4 SWAP3 POP POP POP JUMP JUMPDEST PUSH1 0x0 DUP3 PUSH1 0x1F DUP4 ADD SLT PUSH2 0x567 JUMPI PUSH2 0x566 PUSH2 0x43A JUMP JUMPDEST JUMPDEST DUP2 CALLDATALOAD PUSH2 0x577 DUP5 DUP3 PUSH1 0x20 DUP7 ADD PUSH2 0x510 JUMP JUMPDEST SWAP2 POP POP SWAP3 SWAP2 POP POP JUMP JUMPDEST PUSH1 0x0 DUP1 PUSH1 0x40 DUP4 DUP6 SUB SLT ISZERO PUSH2 0x597 JUMPI PUSH2 0x596 PUSH2 0x3D2 JUMP JUMPDEST JUMPDEST PUSH1 0x0 PUSH2 0x5A5 DUP6 DUP3 DUP7 ADD PUSH2 0x425 JUMP JUMPDEST SWAP3 POP POP PUSH1 0x20 DUP4 ADD CALLDATALOAD PUSH8 0xFFFFFFFFFFFFFFFF DUP2 GT ISZERO PUSH2 0x5C6 JUMPI PUSH2 0x5C5 PUSH2 0x3D7 JUMP JUMPDEST JUMPDEST PUSH2 0x5D2 DUP6 DUP3 DUP7 ADD PUSH2 0x552 JUMP JUMPDEST SWAP2 POP POP SWAP3 POP SWAP3 SWAP1 POP JUMP JUMPDEST PUSH1 0x0 PUSH1 0x20 DUP3 DUP5 SUB SLT ISZERO PUSH2 0x5F2 JUMPI PUSH2 0x5F1 PUSH2 0x3D2 JUMP JUMPDEST JUMPDEST PUSH1 0x0 PUSH2 0x600 DUP5 DUP3 DUP6 ADD PUSH2 0x425 JUMP JUMPDEST SWAP2 POP POP SWAP3 SWAP2 POP POP JUMP JUMPDEST PUSH1 0x0 DUP2 SWAP1 POP SWAP2 SWAP1 POP JUMP JUMPDEST PUSH2 0x61C DUP2 PUSH2 0x609 JUMP JUMPDEST DUP3 MSTORE POP POP JUMP JUMPDEST PUSH1 0x0 PUSH1 0x20 DUP3 ADD SWAP1 POP PUSH2 0x637 PUSH1 0x0 DUP4 ADD DUP5 PUSH2 0x613 JUMP JUMPDEST SWAP3 SWAP2 POP POP JUMP JUMPDEST PUSH2 0x646 DUP2 PUSH2 0x609 JUMP JUMPDEST DUP2 EQ PUSH2 0x651 JUMPI PUSH1 0x0 DUP1 REVERT JUMPDEST POP JUMP JUMPDEST PUSH1 0x0 DUP2 CALLDATALOAD SWAP1 POP PUSH2 0x663 DUP2 PUSH2 0x63D JUMP JUMPDEST SWAP3 SWAP2 POP POP JUMP JUMPDEST PUSH1 0x0 DUP1 PUSH1 0x40 DUP4 DUP6 SUB SLT ISZERO PUSH2 0x680 JUMPI PUSH2 0x67F PUSH2 0x3D2 JUMP JUMPDEST JUMPDEST PUSH1 0x0 PUSH2 0x68E DUP6 DUP3 DUP7 ADD PUSH2 0x425 JUMP JUMPDEST SWAP3 POP POP PUSH1 0x20 PUSH2 0x69F DUP6 DUP3 DUP7 ADD PUSH2 0x654 JUMP JUMPDEST SWAP2 POP POP SWAP3 POP SWAP3 SWAP1 POP JUMP JUMPDEST PUSH1 0x0 DUP2 MLOAD SWAP1 POP SWAP2 SWAP1 POP JUMP JUMPDEST PUSH1 0x0 DUP3 DUP3 MSTORE PUSH1 0x20 DUP3 ADD SWAP1 POP SWAP3 SWAP2 POP POP JUMP JUMPDEST PUSH1 0x0 JUMPDEST DUP4 DUP2 LT ISZERO PUSH2 0x6E3 JUMPI DUP1 DUP3 ADD MLOAD DUP2 DUP5 ADD MSTORE PUSH1 0x20 DUP2 ADD SWAP1 POP PUSH2 0x6C8 JUMP JUMPDEST PUSH1 0x0 DUP5 DUP5 ADD MSTORE POP POP POP POP JUMP JUMPDEST PUSH1 0x0 PUSH2 0x6FA DUP3 PUSH2 0x6A9 JUMP JUMPDEST PUSH2 0x704 DUP2 DUP6 PUSH2 0x6B4 JUMP JUMPDEST SWAP4 POP PUSH2 0x714 DUP2 DUP6 PUSH1 0x20 DUP7 ADD PUSH2 0x6C5 JUMP JUMPDEST PUSH2 0x71D DUP2 PUSH2 0x444 JUMP JUMPDEST DUP5 ADD SWAP2 POP POP SWAP3 SWAP2 POP POP JUMP JUMPDEST PUSH1 0x0 PUSH1 0x20 DUP3 ADD SWAP1 POP DUP2 DUP2 SUB PUSH1 0x0 DUP4 ADD MSTORE PUSH2 0x742 DUP2 DUP5 PUSH2 0x6EF JUMP JUMPDEST SWAP1 POP SWAP3 SWAP2 POP POP JUMP JUMPDEST PUSH32 0x4E487B7100000000000000000000000000000000000000000000000000000000 PUSH1 0x0 MSTORE PUSH1 0x22 PUSH1 0x4 MSTORE PUSH1 0x24 PUSH1 0x0 REVERT JUMPDEST PUSH1 0x0 PUSH1 0x2 DUP3 DIV SWAP1 POP PUSH1 0x1 DUP3 AND DUP1 PUSH2 0x791 JUMPI PUSH1 0x7F DUP3 AND SWAP2 POP JUMPDEST PUSH1 0x20 DUP3 LT DUP2 SUB PUSH2 0x7A4 JUMPI PUSH2 0x7A3 PUSH2 0x74A JUMP JUMPDEST JUMPDEST POP SWAP2 SWAP1 POP JUMP JUMPDEST PUSH1 0x0 DUP2 SWAP1 POP DUP2 PUSH1 0x0 MSTORE PUSH1 0x20 PUSH1 0x0 KECCAK256 SWAP1 POP SWAP2 SWAP1 POP JUMP JUMPDEST PUSH1 0x0 PUSH1 0x20 PUSH1 0x1F DUP4 ADD DIV SWAP1 POP SWAP2 SWAP1 POP JUMP JUMPDEST PUSH1 0x0 DUP3 DUP3 SHL SWAP1 POP SWAP3 SWAP2 POP POP JUMP JUMPDEST PUSH1 0x0 PUSH1 0x8 DUP4 MUL PUSH2 0x80C PUSH32 0xFFFFFFFFFFFFFFFFFFFFFFFFFFFFFFFFFFFFFFFFFFFFFFFFFFFFFFFFFFFFFFFF DUP3 PUSH2 0x7CF JUMP JUMPDEST PUSH2 0x816 DUP7 DUP4 PUSH2 0x7CF JUMP JUMPDEST SWAP6 POP DUP1 NOT DUP5 AND SWAP4 POP DUP1 DUP7 AND DUP5 OR SWAP3 POP POP POP SWAP4 SWAP3 POP POP POP JUMP JUMPDEST PUSH1 0x0 DUP2 SWAP1 POP SWAP2 SWAP1 POP JUMP JUMPDEST PUSH1 0x0 PUSH2 0x853 PUSH2 0x84E PUSH2 0x849 DUP5 PUSH2 0x609 JUMP JUMPDEST PUSH2 0x82E JUMP JUMPDEST PUSH2 0x609 JUMP JUMPDEST SWAP1 POP SWAP2 SWAP1 POP JUMP JUMPDEST PUSH1 0x0 DUP2 SWAP1 POP SWAP2 SWAP1 POP JUMP JUMPDEST PUSH2 0x86D DUP4 PUSH2 0x838 JUMP JUMPDEST PUSH2 0x881 PUSH2 0x879 DUP3 PUSH2 0x85A JUMP JUMPDEST DUP5 DUP5 SLOAD PUSH2 0x7DC JUMP JUMPDEST DUP3 SSTORE POP POP POP POP JUMP JUMPDEST PUSH1 0x0 SWAP1 JUMP JUMPDEST PUSH2 0x896 PUSH2 0x889 JUMP JUMPDEST PUSH2 0x8A1 DUP2 DUP5 DUP5 PUSH2 0x864 JUMP JUMPDEST POP POP POP JUMP JUMPDEST JUMPDEST DUP2 DUP2 LT ISZERO PUSH2 0x8C5 JUMPI PUSH2 0x8BA PUSH1 0x0 DUP3 PUSH2 0x88E JUMP JUMPDEST PUSH1 0x1 DUP2 ADD SWAP1 POP PUSH2 0x8A7 JUMP JUMPDEST POP POP JUMP JUMPDEST PUSH1 0x1F DUP3 GT ISZERO PUSH2 0x90A JUMPI PUSH2 0x8DB DUP2 PUSH2 0x7AA JUMP JUMPDEST PUSH2 0x8E4 DUP5 PUSH2 0x7BF JUMP JUMPDEST DUP2 ADD PUSH1 0x20 DUP6 LT ISZERO PUSH2 0x8F3 JUMPI DUP2 SWAP1 POP JUMPDEST PUSH2 0x907 PUSH2 0x8FF DUP6 PUSH2 0x7BF JUMP JUMPDEST DUP4 ADD DUP3 PUSH2 0x8A6 JUMP JUMPDEST POP POP JUMPDEST POP POP POP JUMP JUMPDEST PUSH1 0x0 DUP3 DUP3 SHR SWAP1 POP SWAP3 SWAP2 POP POP JUMP JUMPDEST PUSH1 0x0 PUSH2 0x92D PUSH1 0x0 NOT DUP5 PUSH1 0x8 MUL PUSH2 0x90F JUMP JUMPDEST NOT DUP1 DUP4 AND SWAP2 POP POP SWAP3 SWAP2 POP POP JUMP JUMPDEST PUSH1 0x0 PUSH2 0x946 DUP4 DUP4 PUSH2 0x91C JUMP JUMPDEST SWAP2 POP DUP3 PUSH1 0x2 MUL DUP3 OR SWAP1 POP SWAP3 SWAP2 POP POP JUMP JUMPDEST PUSH2 0x95F DUP3 PUSH2 0x6A9 JUMP JUMPDEST PUSH8 0xFFFFFFFFFFFFFFFF DUP2 GT ISZERO PUSH2 0x978 JUMPI PUSH2 0x977 PUSH2 0x455 JUMP JUMPDEST JUMPDEST PUSH2 0x982 DUP3 SLOAD PUSH2 0x779 JUMP JUMPDEST PUSH2 0x98D DUP3 DUP3 DUP6 PUSH2 0x8C9 JUMP JUMPDEST PUSH1 0x0 PUSH1 0x20 SWAP1 POP PUSH1 0x1F DUP4 GT PUSH1 0x1 DUP2 EQ PUSH2 0x9C0 JUMPI PUSH1 0x0 DUP5 ISZERO PUSH2 0x9AE JUMPI DUP3 DUP8 ADD MLOAD SWAP1 POP JUMPDEST PUSH2 0x9B8 DUP6 DUP3 PUSH2 0x93A JUMP JUMPDEST DUP7 SSTORE POP PUSH2 0xA20 JUMP JUMPDEST PUSH1 0x1F NOT DUP5 AND PUSH2 0x9CE DUP7 PUSH2 0x7AA JUMP JUMPDEST PUSH1 0x0 JUMPDEST DUP3 DUP2 LT ISZERO PUSH2 0x9F6 JUMPI DUP5 DUP10 ADD MLOAD DUP3 SSTORE PUSH1 0x1 DUP3 ADD SWAP2 POP PUSH1 0x20 DUP6 ADD SWAP5 POP PUSH1 0x20 DUP2 ADD SWAP1 POP PUSH2 0x9D1 JUMP JUMPDEST DUP7 DUP4 LT ISZERO PUSH2 0xA13 JUMPI DUP5 DUP10 ADD MLOAD PUSH2 0xA0F PUSH1 0x1F DUP10 AND DUP3 PUSH2 0x91C JUMP JUMPDEST DUP4 SSTORE POP JUMPDEST PUSH1 0x1 PUSH1 0x2 DUP9 MUL ADD DUP9 SSTORE POP POP POP JUMPDEST POP POP POP POP POP POP JUMP INVALID LOG2 PUSH5 0x6970667358 0x22 SLT KECCAK256 0xDA 0xF7 MSTORE 0x29 0x25 0x2C DIFFICULTY SMOD PUSH28 0xE517EBB08D9F1D9D5B05907370011A53E9ABAF06D4819E64736F6C63 NUMBER STOP ADDMOD GT STOP CALLER "
				},
				"gasEstimates": {
					"creation": {
						"codeDepositCost": "530800",
						"executionCost": "22765",
						"totalCost": "553565"
					},
					"external": {
						"get(address)": "2907",
						"getS(address)": "infinite",
						"myMap(address)": "2814",
						"myMapS(address)": "infinite",
						"set(address,uint256)": "22854",
						"setS(address,string)": "infinite"
					}
				},
				"methodIdentifiers": {
					"get(address)": "c2bc2efc",
					"getS(address)": "e6c70275",
					"myMap(address)": "27cbd529",
					"myMapS(address)": "63d679b3",
					"set(address,uint256)": "3825d828",
					"setS(address,string)": "0540e5b9"
				}
			},
			"storageLayout": {
				"storage": [
					{
						"astId": 16,
						"contract": "Clase 03/myMap.sol:myMapping",
						"label": "myMap",
						"offset": 0,
						"slot": "0",
						"type": "t_mapping(t_address,t_uint256)"
					},
					{
						"astId": 20,
						"contract": "Clase 03/myMap.sol:myMapping",
						"label": "myMapS",
						"offset": 0,
						"slot": "1",
						"type": "t_mapping(t_address,t_string_storage)"
					}
				],
				"types": {
					"t_address": {
						"encoding": "inplace",
						"label": "address",
						"numberOfBytes": "20"
					},
					"t_mapping(t_address,t_string_storage)": {
						"encoding": "mapping",
						"key": "t_address",
						"label": "mapping(address => string)",
						"numberOfBytes": "32",
						"value": "t_string_storage"
					},
					"t_mapping(t_address,t_uint256)": {
						"encoding": "mapping",
						"key": "t_address",
						"label": "mapping(address => uint256)",
						"numberOfBytes": "32",
						"value": "t_uint256"
					},
					"t_string_storage": {
						"encoding": "bytes",
						"label": "string",
						"numberOfBytes": "32"
					},
					"t_uint256": {
						"encoding": "inplace",
						"label": "uint256",
						"numberOfBytes": "32"
					}
				}
			},
			"userdoc": {
				"kind": "user",
				"methods": {},
				"version": 1
			}
		}
	}
}