{
	"Clase 03/msg/msgSC.sol": {
		"MessageExample": {
			"abi": [
				{
					"anonymous": false,
					"inputs": [
						{
							"indexed": false,
							"internalType": "bytes",
							"name": "data",
							"type": "bytes"
						},
						{
							"indexed": false,
							"internalType": "uint256",
							"name": "gas",
							"type": "uint256"
						},
						{
							"indexed": false,
							"internalType": "address",
							"name": "sender",
							"type": "address"
						},
						{
							"indexed": false,
							"internalType": "bytes4",
							"name": "sig",
							"type": "bytes4"
						},
						{
							"indexed": false,
							"internalType": "uint256",
							"name": "value",
							"type": "uint256"
						}
					],
					"name": "MessageDetails",
					"type": "event"
				},
				{
					"inputs": [],
					"name": "sendMessage",
					"outputs": [],
					"stateMutability": "payable",
					"type": "function"
				},
				{
					"stateMutability": "payable",
					"type": "receive"
				}
			],
			"devdoc": {
				"kind": "dev",
				"methods": {},
				"version": 1
			},
			"evm": {
				"assembly": "    /* \"Clase 03/msg/msgSC.sol\":57:778  contract MessageExample {... */\n  mstore(0x40, 0x80)\n  callvalue\n  dup1\n  iszero\n  tag_1\n  jumpi\n  0x00\n  dup1\n  revert\ntag_1:\n  pop\n  dataSize(sub_0)\n  dup1\n  dataOffset(sub_0)\n  0x00\n  codecopy\n  0x00\n  return\nstop\n\nsub_0: assembly {\n        /* \"Clase 03/msg/msgSC.sol\":57:778  contract MessageExample {... */\n      mstore(0x40, 0x80)\n      jumpi(tag_1, lt(calldatasize, 0x04))\n      shr(0xe0, calldataload(0x00))\n      dup1\n      0xe5aed28a\n      eq\n      tag_3\n      jumpi\n      jump(tag_2)\n    tag_1:\n      jumpi(tag_2, calldatasize)\n      stop\n    tag_2:\n      0x00\n      dup1\n      revert\n        /* \"Clase 03/msg/msgSC.sol\":325:708  function sendMessage() public payable {... */\n    tag_3:\n      tag_6\n      tag_7\n      jump\t// in\n    tag_6:\n      stop\n    tag_7:\n        /* \"Clase 03/msg/msgSC.sol\":414:701  MessageDetails(... */\n      0xc327d06a73b98fb772ec0330d35381af7eac065c1c79410dac0629c2d04834f9\n        /* \"Clase 03/msg/msgSC.sol\":442:450  msg.data */\n      0x00\n      calldatasize\n        /* \"Clase 03/msg/msgSC.sol\":491:500  gasleft() */\n      gas\n        /* \"Clase 03/msg/msgSC.sol\":536:546  msg.sender */\n      caller\n        /* \"Clase 03/msg/msgSC.sol\":589:596  msg.sig */\n      and(0xffffffff00000000000000000000000000000000000000000000000000000000, calldataload(0x00))\n        /* \"Clase 03/msg/msgSC.sol\":653:662  msg.value */\n      callvalue\n        /* \"Clase 03/msg/msgSC.sol\":414:701  MessageDetails(... */\n      mload(0x40)\n      tag_9\n      swap7\n      swap6\n      swap5\n      swap4\n      swap3\n      swap2\n      swap1\n      tag_10\n      jump\t// in\n    tag_9:\n      mload(0x40)\n      dup1\n      swap2\n      sub\n      swap1\n      log1\n        /* \"Clase 03/msg/msgSC.sol\":325:708  function sendMessage() public payable {... */\n      jump\t// out\n        /* \"#utility.yul\":7:175   */\n    tag_11:\n        /* \"#utility.yul\":90:101   */\n      0x00\n        /* \"#utility.yul\":124:130   */\n      dup3\n        /* \"#utility.yul\":119:122   */\n      dup3\n        /* \"#utility.yul\":112:131   */\n      mstore\n        /* \"#utility.yul\":164:168   */\n      0x20\n        /* \"#utility.yul\":159:162   */\n      dup3\n        /* \"#utility.yul\":155:169   */\n      add\n        /* \"#utility.yul\":140:169   */\n      swap1\n      pop\n        /* \"#utility.yul\":7:175   */\n      swap3\n      swap2\n      pop\n      pop\n      jump\t// out\n        /* \"#utility.yul\":181:327   */\n    tag_12:\n        /* \"#utility.yul\":278:284   */\n      dup3\n        /* \"#utility.yul\":273:276   */\n      dup2\n        /* \"#utility.yul\":268:271   */\n      dup4\n        /* \"#utility.yul\":255:285   */\n      calldatacopy\n        /* \"#utility.yul\":319:320   */\n      0x00\n        /* \"#utility.yul\":310:316   */\n      dup4\n        /* \"#utility.yul\":305:308   */\n      dup4\n        /* \"#utility.yul\":301:317   */\n      add\n        /* \"#utility.yul\":294:321   */\n      mstore\n        /* \"#utility.yul\":181:327   */\n      pop\n      pop\n      pop\n      jump\t// out\n        /* \"#utility.yul\":333:435   */\n    tag_13:\n        /* \"#utility.yul\":374:380   */\n      0x00\n        /* \"#utility.yul\":425:427   */\n      0x1f\n        /* \"#utility.yul\":421:428   */\n      not\n        /* \"#utility.yul\":416:418   */\n      0x1f\n        /* \"#utility.yul\":409:414   */\n      dup4\n        /* \"#utility.yul\":405:419   */\n      add\n        /* \"#utility.yul\":401:429   */\n      and\n        /* \"#utility.yul\":391:429   */\n      swap1\n      pop\n        /* \"#utility.yul\":333:435   */\n      swap2\n      swap1\n      pop\n      jump\t// out\n        /* \"#utility.yul\":463:777   */\n    tag_14:\n        /* \"#utility.yul\":559:562   */\n      0x00\n        /* \"#utility.yul\":580:650   */\n      tag_27\n        /* \"#utility.yul\":643:649   */\n      dup4\n        /* \"#utility.yul\":638:641   */\n      dup6\n        /* \"#utility.yul\":580:650   */\n      tag_11\n      jump\t// in\n    tag_27:\n        /* \"#utility.yul\":573:650   */\n      swap4\n      pop\n        /* \"#utility.yul\":660:716   */\n      tag_28\n        /* \"#utility.yul\":709:715   */\n      dup4\n        /* \"#utility.yul\":704:707   */\n      dup6\n        /* \"#utility.yul\":697:702   */\n      dup5\n        /* \"#utility.yul\":660:716   */\n      tag_12\n      jump\t// in\n    tag_28:\n        /* \"#utility.yul\":741:770   */\n      tag_29\n        /* \"#utility.yul\":763:769   */\n      dup4\n        /* \"#utility.yul\":741:770   */\n      tag_13\n      jump\t// in\n    tag_29:\n        /* \"#utility.yul\":736:739   */\n      dup5\n        /* \"#utility.yul\":732:771   */\n      add\n        /* \"#utility.yul\":725:771   */\n      swap1\n      pop\n        /* \"#utility.yul\":463:777   */\n      swap4\n      swap3\n      pop\n      pop\n      pop\n      jump\t// out\n        /* \"#utility.yul\":783:860   */\n    tag_15:\n        /* \"#utility.yul\":820:827   */\n      0x00\n        /* \"#utility.yul\":849:854   */\n      dup2\n        /* \"#utility.yul\":838:854   */\n      swap1\n      pop\n        /* \"#utility.yul\":783:860   */\n      swap2\n      swap1\n      pop\n      jump\t// out\n        /* \"#utility.yul\":866:984   */\n    tag_16:\n        /* \"#utility.yul\":953:977   */\n      tag_32\n        /* \"#utility.yul\":971:976   */\n      dup2\n        /* \"#utility.yul\":953:977   */\n      tag_15\n      jump\t// in\n    tag_32:\n        /* \"#utility.yul\":948:951   */\n      dup3\n        /* \"#utility.yul\":941:978   */\n      mstore\n        /* \"#utility.yul\":866:984   */\n      pop\n      pop\n      jump\t// out\n        /* \"#utility.yul\":990:1116   */\n    tag_17:\n        /* \"#utility.yul\":1027:1034   */\n      0x00\n        /* \"#utility.yul\":1067:1109   */\n      0xffffffffffffffffffffffffffffffffffffffff\n        /* \"#utility.yul\":1060:1065   */\n      dup3\n        /* \"#utility.yul\":1056:1110   */\n      and\n        /* \"#utility.yul\":1045:1110   */\n      swap1\n      pop\n        /* \"#utility.yul\":990:1116   */\n      swap2\n      swap1\n      pop\n      jump\t// out\n        /* \"#utility.yul\":1122:1218   */\n    tag_18:\n        /* \"#utility.yul\":1159:1166   */\n      0x00\n        /* \"#utility.yul\":1188:1212   */\n      tag_35\n        /* \"#utility.yul\":1206:1211   */\n      dup3\n        /* \"#utility.yul\":1188:1212   */\n      tag_17\n      jump\t// in\n    tag_35:\n        /* \"#utility.yul\":1177:1212   */\n      swap1\n      pop\n        /* \"#utility.yul\":1122:1218   */\n      swap2\n      swap1\n      pop\n      jump\t// out\n        /* \"#utility.yul\":1224:1342   */\n    tag_19:\n        /* \"#utility.yul\":1311:1335   */\n      tag_37\n        /* \"#utility.yul\":1329:1334   */\n      dup2\n        /* \"#utility.yul\":1311:1335   */\n      tag_18\n      jump\t// in\n    tag_37:\n        /* \"#utility.yul\":1306:1309   */\n      dup3\n        /* \"#utility.yul\":1299:1336   */\n      mstore\n        /* \"#utility.yul\":1224:1342   */\n      pop\n      pop\n      jump\t// out\n        /* \"#utility.yul\":1348:1497   */\n    tag_20:\n        /* \"#utility.yul\":1384:1391   */\n      0x00\n        /* \"#utility.yul\":1424:1490   */\n      0xffffffff00000000000000000000000000000000000000000000000000000000\n        /* \"#utility.yul\":1417:1422   */\n      dup3\n        /* \"#utility.yul\":1413:1491   */\n      and\n        /* \"#utility.yul\":1402:1491   */\n      swap1\n      pop\n        /* \"#utility.yul\":1348:1497   */\n      swap2\n      swap1\n      pop\n      jump\t// out\n        /* \"#utility.yul\":1503:1618   */\n    tag_21:\n        /* \"#utility.yul\":1588:1611   */\n      tag_40\n        /* \"#utility.yul\":1605:1610   */\n      dup2\n        /* \"#utility.yul\":1588:1611   */\n      tag_20\n      jump\t// in\n    tag_40:\n        /* \"#utility.yul\":1583:1586   */\n      dup3\n        /* \"#utility.yul\":1576:1612   */\n      mstore\n        /* \"#utility.yul\":1503:1618   */\n      pop\n      pop\n      jump\t// out\n        /* \"#utility.yul\":1624:2391   */\n    tag_10:\n        /* \"#utility.yul\":1855:1859   */\n      0x00\n        /* \"#utility.yul\":1893:1896   */\n      0xa0\n        /* \"#utility.yul\":1882:1891   */\n      dup3\n        /* \"#utility.yul\":1878:1897   */\n      add\n        /* \"#utility.yul\":1870:1897   */\n      swap1\n      pop\n        /* \"#utility.yul\":1943:1952   */\n      dup2\n        /* \"#utility.yul\":1937:1941   */\n      dup2\n        /* \"#utility.yul\":1933:1953   */\n      sub\n        /* \"#utility.yul\":1929:1930   */\n      0x00\n        /* \"#utility.yul\":1918:1927   */\n      dup4\n        /* \"#utility.yul\":1914:1931   */\n      add\n        /* \"#utility.yul\":1907:1954   */\n      mstore\n        /* \"#utility.yul\":1971:2057   */\n      tag_42\n        /* \"#utility.yul\":2052:2056   */\n      dup2\n        /* \"#utility.yul\":2043:2049   */\n      dup9\n        /* \"#utility.yul\":2035:2041   */\n      dup11\n        /* \"#utility.yul\":1971:2057   */\n      tag_14\n      jump\t// in\n    tag_42:\n        /* \"#utility.yul\":1963:2057   */\n      swap1\n      pop\n        /* \"#utility.yul\":2067:2139   */\n      tag_43\n        /* \"#utility.yul\":2135:2137   */\n      0x20\n        /* \"#utility.yul\":2124:2133   */\n      dup4\n        /* \"#utility.yul\":2120:2138   */\n      add\n        /* \"#utility.yul\":2111:2117   */\n      dup8\n        /* \"#utility.yul\":2067:2139   */\n      tag_16\n      jump\t// in\n    tag_43:\n        /* \"#utility.yul\":2149:2221   */\n      tag_44\n        /* \"#utility.yul\":2217:2219   */\n      0x40\n        /* \"#utility.yul\":2206:2215   */\n      dup4\n        /* \"#utility.yul\":2202:2220   */\n      add\n        /* \"#utility.yul\":2193:2199   */\n      dup7\n        /* \"#utility.yul\":2149:2221   */\n      tag_19\n      jump\t// in\n    tag_44:\n        /* \"#utility.yul\":2231:2301   */\n      tag_45\n        /* \"#utility.yul\":2297:2299   */\n      0x60\n        /* \"#utility.yul\":2286:2295   */\n      dup4\n        /* \"#utility.yul\":2282:2300   */\n      add\n        /* \"#utility.yul\":2273:2279   */\n      dup6\n        /* \"#utility.yul\":2231:2301   */\n      tag_21\n      jump\t// in\n    tag_45:\n        /* \"#utility.yul\":2311:2384   */\n      tag_46\n        /* \"#utility.yul\":2379:2382   */\n      0x80\n        /* \"#utility.yul\":2368:2377   */\n      dup4\n        /* \"#utility.yul\":2364:2383   */\n      add\n        /* \"#utility.yul\":2355:2361   */\n      dup5\n        /* \"#utility.yul\":2311:2384   */\n      tag_16\n      jump\t// in\n    tag_46:\n        /* \"#utility.yul\":1624:2391   */\n      swap8\n      swap7\n      pop\n      pop\n      pop\n      pop\n      pop\n      pop\n      pop\n      jump\t// out\n\n    auxdata: 0xa2646970667358221220605c3f2ffa279e6ed4b82ae7fd1d7c3ab114cf1741cf174bd9484471c04d0b3d64736f6c63430008160033\n}\n",
				"bytecode": {
					"linkReferences": {},
					"object": "608060405234801561000f575f80fd5b506102178061001d5f395ff3fe608060405260043610610021575f3560e01c8063e5aed28a1461002c57610028565b3661002857005b5f80fd5b610034610036565b005b7fc327d06a73b98fb772ec0330d35381af7eac065c1c79410dac0629c2d04834f95f365a335f357fffffffff00000000000000000000000000000000000000000000000000000000163460405161009296959493929190610187565b60405180910390a1565b5f82825260208201905092915050565b828183375f83830152505050565b5f601f19601f8301169050919050565b5f6100d5838561009c565b93506100e28385846100ac565b6100eb836100ba565b840190509392505050565b5f819050919050565b610108816100f6565b82525050565b5f73ffffffffffffffffffffffffffffffffffffffff82169050919050565b5f6101378261010e565b9050919050565b6101478161012d565b82525050565b5f7fffffffff0000000000000000000000000000000000000000000000000000000082169050919050565b6101818161014d565b82525050565b5f60a0820190508181035f8301526101a081888a6100ca565b90506101af60208301876100ff565b6101bc604083018661013e565b6101c96060830185610178565b6101d660808301846100ff565b97965050505050505056fea2646970667358221220605c3f2ffa279e6ed4b82ae7fd1d7c3ab114cf1741cf174bd9484471c04d0b3d64736f6c63430008160033",
					"opcodes": "PUSH1 0x80 PUSH1 0x40 MSTORE CALLVALUE DUP1 ISZERO PUSH2 0xF JUMPI PUSH0 DUP1 REVERT JUMPDEST POP PUSH2 0x217 DUP1 PUSH2 0x1D PUSH0 CODECOPY PUSH0 RETURN INVALID PUSH1 0x80 PUSH1 0x40 MSTORE PUSH1 0x4 CALLDATASIZE LT PUSH2 0x21 JUMPI PUSH0 CALLDATALOAD PUSH1 0xE0 SHR DUP1 PUSH4 0xE5AED28A EQ PUSH2 0x2C JUMPI PUSH2 0x28 JUMP JUMPDEST CALLDATASIZE PUSH2 0x28 JUMPI STOP JUMPDEST PUSH0 DUP1 REVERT JUMPDEST PUSH2 0x34 PUSH2 0x36 JUMP JUMPDEST STOP JUMPDEST PUSH32 0xC327D06A73B98FB772EC0330D35381AF7EAC065C1C79410DAC0629C2D04834F9 PUSH0 CALLDATASIZE GAS CALLER PUSH0 CALLDATALOAD PUSH32 0xFFFFFFFF00000000000000000000000000000000000000000000000000000000 AND CALLVALUE PUSH1 0x40 MLOAD PUSH2 0x92 SWAP7 SWAP6 SWAP5 SWAP4 SWAP3 SWAP2 SWAP1 PUSH2 0x187 JUMP JUMPDEST PUSH1 0x40 MLOAD DUP1 SWAP2 SUB SWAP1 LOG1 JUMP JUMPDEST PUSH0 DUP3 DUP3 MSTORE PUSH1 0x20 DUP3 ADD SWAP1 POP SWAP3 SWAP2 POP POP JUMP JUMPDEST DUP3 DUP2 DUP4 CALLDATACOPY PUSH0 DUP4 DUP4 ADD MSTORE POP POP POP JUMP JUMPDEST PUSH0 PUSH1 0x1F NOT PUSH1 0x1F DUP4 ADD AND SWAP1 POP SWAP2 SWAP1 POP JUMP JUMPDEST PUSH0 PUSH2 0xD5 DUP4 DUP6 PUSH2 0x9C JUMP JUMPDEST SWAP4 POP PUSH2 0xE2 DUP4 DUP6 DUP5 PUSH2 0xAC JUMP JUMPDEST PUSH2 0xEB DUP4 PUSH2 0xBA JUMP JUMPDEST DUP5 ADD SWAP1 POP SWAP4 SWAP3 POP POP POP JUMP JUMPDEST PUSH0 DUP2 SWAP1 POP SWAP2 SWAP1 POP JUMP JUMPDEST PUSH2 0x108 DUP2 PUSH2 0xF6 JUMP JUMPDEST DUP3 MSTORE POP POP JUMP JUMPDEST PUSH0 PUSH20 0xFFFFFFFFFFFFFFFFFFFFFFFFFFFFFFFFFFFFFFFF DUP3 AND SWAP1 POP SWAP2 SWAP1 POP JUMP JUMPDEST PUSH0 PUSH2 0x137 DUP3 PUSH2 0x10E JUMP JUMPDEST SWAP1 POP SWAP2 SWAP1 POP JUMP JUMPDEST PUSH2 0x147 DUP2 PUSH2 0x12D JUMP JUMPDEST DUP3 MSTORE POP POP JUMP JUMPDEST PUSH0 PUSH32 0xFFFFFFFF00000000000000000000000000000000000000000000000000000000 DUP3 AND SWAP1 POP SWAP2 SWAP1 POP JUMP JUMPDEST PUSH2 0x181 DUP2 PUSH2 0x14D JUMP JUMPDEST DUP3 MSTORE POP POP JUMP JUMPDEST PUSH0 PUSH1 0xA0 DUP3 ADD SWAP1 POP DUP2 DUP2 SUB PUSH0 DUP4 ADD MSTORE PUSH2 0x1A0 DUP2 DUP9 DUP11 PUSH2 0xCA JUMP JUMPDEST SWAP1 POP PUSH2 0x1AF PUSH1 0x20 DUP4 ADD DUP8 PUSH2 0xFF JUMP JUMPDEST PUSH2 0x1BC PUSH1 0x40 DUP4 ADD DUP7 PUSH2 0x13E JUMP JUMPDEST PUSH2 0x1C9 PUSH1 0x60 DUP4 ADD DUP6 PUSH2 0x178 JUMP JUMPDEST PUSH2 0x1D6 PUSH1 0x80 DUP4 ADD DUP5 PUSH2 0xFF JUMP JUMPDEST SWAP8 SWAP7 POP POP POP POP POP POP POP JUMP INVALID LOG2 PUSH5 0x6970667358 0x22 SLT KECCAK256 PUSH1 0x5C EXTCODEHASH 0x2F STATICCALL 0x27 SWAP15 PUSH15 0xD4B82AE7FD1D7C3AB114CF1741CF17 0x4B 0xD9 BASEFEE PREVRANDAO PUSH18 0xC04D0B3D64736F6C63430008160033000000 "
				},
				"gasEstimates": {
					"creation": {
						"codeDepositCost": "107000",
						"executionCost": "151",
						"totalCost": "107151"
					},
					"external": {
						"sendMessage()": "infinite"
					}
				},
				"methodIdentifiers": {
					"sendMessage()": "e5aed28a"
				}
			},
			"storageLayout": {
				"storage": [],
				"types": null
			},
			"userdoc": {
				"kind": "user",
				"methods": {},
				"version": 1
			}
		}
	}
}