{
	"Clase 02/pru1.sol": {
		"pru1": {
			"abi": [
				{
					"inputs": [
						{
							"internalType": "string",
							"name": "x",
							"type": "string"
						},
						{
							"internalType": "uint256",
							"name": "y",
							"type": "uint256"
						}
					],
					"name": "adiciona",
					"outputs": [],
					"stateMutability": "nonpayable",
					"type": "function"
				},
				{
					"inputs": [
						{
							"internalType": "uint256",
							"name": "x",
							"type": "uint256"
						}
					],
					"name": "devuelve",
					"outputs": [
						{
							"internalType": "string",
							"name": "",
							"type": "string"
						},
						{
							"internalType": "uint256",
							"name": "",
							"type": "uint256"
						}
					],
					"stateMutability": "view",
					"type": "function"
				},
				{
					"inputs": [],
					"name": "devuelveNombres",
					"outputs": [
						{
							"internalType": "string[25]",
							"name": "",
							"type": "string[25]"
						},
						{
							"internalType": "uint256[25]",
							"name": "",
							"type": "uint256[25]"
						}
					],
					"stateMutability": "view",
					"type": "function"
				},
				{
					"inputs": [],
					"name": "nroPersonas",
					"outputs": [
						{
							"internalType": "uint256",
							"name": "",
							"type": "uint256"
						}
					],
					"stateMutability": "view",
					"type": "function"
				}
			],
			"devdoc": {
				"kind": "dev",
				"methods": {},
				"version": 1
			},
			"evm": {
				"assembly": "    /* \"Clase 02/pru1.sol\":68:673  contract pru1 { //0xf14b6da370335cc1286c29F3C957188E396ce1e6... */\n  mstore(0x40, 0x80)\n    /* \"Clase 02/pru1.sol\":219:220  0 */\n  0x00\n    /* \"Clase 02/pru1.sol\":193:220  uint public nroPersonas = 0 */\n  0x32\n  sstore\n    /* \"Clase 02/pru1.sol\":68:673  contract pru1 { //0xf14b6da370335cc1286c29F3C957188E396ce1e6... */\n  callvalue\n  dup1\n  iszero\n  tag_1\n  jumpi\n  0x00\n  dup1\n  revert\ntag_1:\n  pop\n  dataSize(sub_0)\n  dup1\n  dataOffset(sub_0)\n  0x00\n  codecopy\n  0x00\n  return\nstop\n\nsub_0: assembly {\n        /* \"Clase 02/pru1.sol\":68:673  contract pru1 { //0xf14b6da370335cc1286c29F3C957188E396ce1e6... */\n      mstore(0x40, 0x80)\n      callvalue\n      dup1\n      iszero\n      tag_1\n      jumpi\n      0x00\n      dup1\n      revert\n    tag_1:\n      pop\n      jumpi(tag_2, lt(calldatasize, 0x04))\n      shr(0xe0, calldataload(0x00))\n      dup1\n      0xd3fb3a9a\n      eq\n      tag_3\n      jumpi\n      dup1\n      0xdf8eda7a\n      eq\n      tag_4\n      jumpi\n      dup1\n      0xfa29caa5\n      eq\n      tag_5\n      jumpi\n      dup1\n      0xfb26ee24\n      eq\n      tag_6\n      jumpi\n    tag_2:\n      0x00\n      dup1\n      revert\n        /* \"Clase 02/pru1.sol\":544:666  function devuelveNombres() public view returns(string[25] memory, uint[25] memory) {... */\n    tag_3:\n      tag_7\n      tag_8\n      jump\t// in\n    tag_7:\n      mload(0x40)\n      tag_9\n      swap3\n      swap2\n      swap1\n      tag_10\n      jump\t// in\n    tag_9:\n      mload(0x40)\n      dup1\n      swap2\n      sub\n      swap1\n      return\n        /* \"Clase 02/pru1.sol\":226:422  function adiciona(string memory x, uint y) public {... */\n    tag_4:\n      tag_11\n      0x04\n      dup1\n      calldatasize\n      sub\n      dup2\n      add\n      swap1\n      tag_12\n      swap2\n      swap1\n      tag_13\n      jump\t// in\n    tag_12:\n      tag_14\n      jump\t// in\n    tag_11:\n      stop\n        /* \"Clase 02/pru1.sol\":427:539  function devuelve(uint x) public view returns(string memory, uint) {... */\n    tag_5:\n      tag_15\n      0x04\n      dup1\n      calldatasize\n      sub\n      dup2\n      add\n      swap1\n      tag_16\n      swap2\n      swap1\n      tag_17\n      jump\t// in\n    tag_16:\n      tag_18\n      jump\t// in\n    tag_15:\n      mload(0x40)\n      tag_19\n      swap3\n      swap2\n      swap1\n      tag_20\n      jump\t// in\n    tag_19:\n      mload(0x40)\n      dup1\n      swap2\n      sub\n      swap1\n      return\n        /* \"Clase 02/pru1.sol\":193:220  uint public nroPersonas = 0 */\n    tag_6:\n      tag_21\n      tag_22\n      jump\t// in\n    tag_21:\n      mload(0x40)\n      tag_23\n      swap2\n      swap1\n      tag_24\n      jump\t// in\n    tag_23:\n      mload(0x40)\n      dup1\n      swap2\n      sub\n      swap1\n      return\n        /* \"Clase 02/pru1.sol\":544:666  function devuelveNombres() public view returns(string[25] memory, uint[25] memory) {... */\n    tag_8:\n        /* \"Clase 02/pru1.sol\":591:608  string[25] memory */\n      tag_25\n      tag_26\n      jump\t// in\n    tag_25:\n        /* \"Clase 02/pru1.sol\":610:625  uint[25] memory */\n      tag_27\n      tag_28\n      jump\t// in\n    tag_27:\n        /* \"Clase 02/pru1.sol\":645:653  personas */\n      0x00\n        /* \"Clase 02/pru1.sol\":654:658  edad */\n      0x19\n        /* \"Clase 02/pru1.sol\":637:659  return (personas,edad) */\n      dup2\n      0x19\n      dup1\n      0x20\n      mul\n      mload(0x40)\n      swap1\n      dup2\n      add\n      0x40\n      mstore\n      dup1\n      swap3\n      swap2\n      swap1\n      0x00\n      swap1\n    tag_30:\n      dup3\n      dup3\n      lt\n      iszero\n      tag_31\n      jumpi\n      dup4\n      dup3\n      add\n      dup1\n      sload\n      tag_33\n      swap1\n      tag_34\n      jump\t// in\n    tag_33:\n      dup1\n      0x1f\n      add\n      0x20\n      dup1\n      swap2\n      div\n      mul\n      0x20\n      add\n      mload(0x40)\n      swap1\n      dup2\n      add\n      0x40\n      mstore\n      dup1\n      swap3\n      swap2\n      swap1\n      dup2\n      dup2\n      mstore\n      0x20\n      add\n      dup3\n      dup1\n      sload\n      tag_35\n      swap1\n      tag_34\n      jump\t// in\n    tag_35:\n      dup1\n      iszero\n      tag_36\n      jumpi\n      dup1\n      0x1f\n      lt\n      tag_37\n      jumpi\n      0x0100\n      dup1\n      dup4\n      sload\n      div\n      mul\n      dup4\n      mstore\n      swap2\n      0x20\n      add\n      swap2\n      jump(tag_36)\n    tag_37:\n      dup3\n      add\n      swap2\n      swap1\n      0x00\n      mstore\n      keccak256(0x00, 0x20)\n      swap1\n    tag_38:\n      dup2\n      sload\n      dup2\n      mstore\n      swap1\n      0x01\n      add\n      swap1\n      0x20\n      add\n      dup1\n      dup4\n      gt\n      tag_38\n      jumpi\n      dup3\n      swap1\n      sub\n      0x1f\n      and\n      dup3\n      add\n      swap2\n    tag_36:\n      pop\n      pop\n      pop\n      pop\n      pop\n      dup2\n      mstore\n      0x20\n      add\n      swap1\n      0x01\n      add\n      swap1\n      jump(tag_30)\n    tag_31:\n      pop\n      pop\n      pop\n      pop\n      swap2\n      pop\n      dup1\n      0x19\n      dup1\n      0x20\n      mul\n      mload(0x40)\n      swap1\n      dup2\n      add\n      0x40\n      mstore\n      dup1\n      swap3\n      swap2\n      swap1\n      dup3\n      0x19\n      dup1\n      iszero\n      tag_39\n      jumpi\n      0x20\n      mul\n      dup3\n      add\n      swap2\n    tag_40:\n      dup2\n      sload\n      dup2\n      mstore\n      0x20\n      add\n      swap1\n      0x01\n      add\n      swap1\n      dup1\n      dup4\n      gt\n      tag_40\n      jumpi\n    tag_39:\n      pop\n      pop\n      pop\n      pop\n      pop\n      swap1\n      pop\n      swap2\n      pop\n      swap2\n      pop\n        /* \"Clase 02/pru1.sol\":544:666  function devuelveNombres() public view returns(string[25] memory, uint[25] memory) {... */\n      swap1\n      swap2\n      jump\t// out\n        /* \"Clase 02/pru1.sol\":226:422  function adiciona(string memory x, uint y) public {... */\n    tag_14:\n        /* \"Clase 02/pru1.sol\":304:306  25 */\n      0x19\n        /* \"Clase 02/pru1.sol\":290:301  nroPersonas */\n      sload(0x32)\n        /* \"Clase 02/pru1.sol\":290:306  nroPersonas < 25 */\n      lt\n        /* \"Clase 02/pru1.sol\":286:416  if (nroPersonas < 25){... */\n      iszero\n      tag_42\n      jumpi\n        /* \"Clase 02/pru1.sol\":343:344  x */\n      dup2\n        /* \"Clase 02/pru1.sol\":321:329  personas */\n      0x00\n        /* \"Clase 02/pru1.sol\":330:341  nroPersonas */\n      sload(0x32)\n        /* \"Clase 02/pru1.sol\":321:342  personas[nroPersonas] */\n      0x19\n      dup2\n      lt\n      tag_43\n      jumpi\n      tag_44\n      tag_45\n      jump\t// in\n    tag_44:\n    tag_43:\n      add\n        /* \"Clase 02/pru1.sol\":321:344  personas[nroPersonas]=x */\n      swap1\n      dup2\n      tag_47\n      swap2\n      swap1\n      tag_48\n      jump\t// in\n    tag_47:\n      pop\n        /* \"Clase 02/pru1.sol\":376:377  y */\n      dup1\n        /* \"Clase 02/pru1.sol\":358:362  edad */\n      0x19\n        /* \"Clase 02/pru1.sol\":363:374  nroPersonas */\n      sload(0x32)\n        /* \"Clase 02/pru1.sol\":358:375  edad[nroPersonas] */\n      0x19\n      dup2\n      lt\n      tag_49\n      jumpi\n      tag_50\n      tag_45\n      jump\t// in\n    tag_50:\n    tag_49:\n      add\n        /* \"Clase 02/pru1.sol\":358:377  edad[nroPersonas]=y */\n      dup2\n      swap1\n      sstore\n      pop\n        /* \"Clase 02/pru1.sol\":391:402  nroPersonas */\n      0x32\n      0x00\n        /* \"Clase 02/pru1.sol\":391:405  nroPersonas ++ */\n      dup2\n      sload\n      dup1\n      swap3\n      swap2\n      swap1\n      tag_52\n      swap1\n      tag_53\n      jump\t// in\n    tag_52:\n      swap2\n      swap1\n      pop\n      sstore\n      pop\n        /* \"Clase 02/pru1.sol\":286:416  if (nroPersonas < 25){... */\n    tag_42:\n        /* \"Clase 02/pru1.sol\":226:422  function adiciona(string memory x, uint y) public {... */\n      pop\n      pop\n      jump\t// out\n        /* \"Clase 02/pru1.sol\":427:539  function devuelve(uint x) public view returns(string memory, uint) {... */\n    tag_18:\n        /* \"Clase 02/pru1.sol\":473:486  string memory */\n      0x60\n        /* \"Clase 02/pru1.sol\":488:492  uint */\n      0x00\n        /* \"Clase 02/pru1.sol\":512:520  personas */\n      dup1\n        /* \"Clase 02/pru1.sol\":521:522  x */\n      dup4\n        /* \"Clase 02/pru1.sol\":512:523  personas[x] */\n      0x19\n      dup2\n      lt\n      tag_55\n      jumpi\n      tag_56\n      tag_45\n      jump\t// in\n    tag_56:\n    tag_55:\n      add\n        /* \"Clase 02/pru1.sol\":524:528  edad */\n      0x19\n        /* \"Clase 02/pru1.sol\":529:530  x */\n      dup5\n        /* \"Clase 02/pru1.sol\":524:531  edad[x] */\n      0x19\n      dup2\n      lt\n      tag_58\n      jumpi\n      tag_59\n      tag_45\n      jump\t// in\n    tag_59:\n    tag_58:\n      add\n      sload\n        /* \"Clase 02/pru1.sol\":504:532  return (personas[x],edad[x]) */\n      dup2\n      dup1\n      sload\n      tag_61\n      swap1\n      tag_34\n      jump\t// in\n    tag_61:\n      dup1\n      0x1f\n      add\n      0x20\n      dup1\n      swap2\n      div\n      mul\n      0x20\n      add\n      mload(0x40)\n      swap1\n      dup2\n      add\n      0x40\n      mstore\n      dup1\n      swap3\n      swap2\n      swap1\n      dup2\n      dup2\n      mstore\n      0x20\n      add\n      dup3\n      dup1\n      sload\n      tag_62\n      swap1\n      tag_34\n      jump\t// in\n    tag_62:\n      dup1\n      iszero\n      tag_63\n      jumpi\n      dup1\n      0x1f\n      lt\n      tag_64\n      jumpi\n      0x0100\n      dup1\n      dup4\n      sload\n      div\n      mul\n      dup4\n      mstore\n      swap2\n      0x20\n      add\n      swap2\n      jump(tag_63)\n    tag_64:\n      dup3\n      add\n      swap2\n      swap1\n      0x00\n      mstore\n      keccak256(0x00, 0x20)\n      swap1\n    tag_65:\n      dup2\n      sload\n      dup2\n      mstore\n      swap1\n      0x01\n      add\n      swap1\n      0x20\n      add\n      dup1\n      dup4\n      gt\n      tag_65\n      jumpi\n      dup3\n      swap1\n      sub\n      0x1f\n      and\n      dup3\n      add\n      swap2\n    tag_63:\n      pop\n      pop\n      pop\n      pop\n      pop\n      swap2\n      pop\n      swap2\n      pop\n      swap2\n      pop\n        /* \"Clase 02/pru1.sol\":427:539  function devuelve(uint x) public view returns(string memory, uint) {... */\n      swap2\n      pop\n      swap2\n      jump\t// out\n        /* \"Clase 02/pru1.sol\":193:220  uint public nroPersonas = 0 */\n    tag_22:\n      sload(0x32)\n      dup2\n      jump\t// out\n    tag_26:\n      mload(0x40)\n      dup1\n      0x0320\n      add\n      0x40\n      mstore\n      dup1\n      0x19\n      swap1\n    tag_66:\n      0x60\n      dup2\n      mstore\n      0x20\n      add\n      swap1\n      0x01\n      swap1\n      sub\n      swap1\n      dup2\n      tag_66\n      jumpi\n      swap1\n      pop\n      pop\n      swap1\n      jump\t// out\n    tag_28:\n      mload(0x40)\n      dup1\n      0x0320\n      add\n      0x40\n      mstore\n      dup1\n      0x19\n      swap1\n      0x20\n      dup3\n      mul\n      dup1\n      calldatasize\n      dup4\n      calldatacopy\n      dup1\n      dup3\n      add\n      swap2\n      pop\n      pop\n      swap1\n      pop\n      pop\n      swap1\n      jump\t// out\n        /* \"#utility.yul\":7:122   */\n    tag_67:\n        /* \"#utility.yul\":83:89   */\n      0x00\n        /* \"#utility.yul\":111:115   */\n      0x19\n        /* \"#utility.yul\":101:115   */\n      swap1\n      pop\n        /* \"#utility.yul\":7:122   */\n      swap2\n      swap1\n      pop\n      jump\t// out\n        /* \"#utility.yul\":128:282   */\n    tag_68:\n        /* \"#utility.yul\":236:247   */\n      0x00\n        /* \"#utility.yul\":273:276   */\n      dup2\n        /* \"#utility.yul\":258:276   */\n      swap1\n      pop\n        /* \"#utility.yul\":128:282   */\n      swap3\n      swap2\n      pop\n      pop\n      jump\t// out\n        /* \"#utility.yul\":288:397   */\n    tag_69:\n        /* \"#utility.yul\":364:368   */\n      0x00\n        /* \"#utility.yul\":387:390   */\n      dup2\n        /* \"#utility.yul\":379:390   */\n      swap1\n      pop\n        /* \"#utility.yul\":288:397   */\n      swap2\n      swap1\n      pop\n      jump\t// out\n        /* \"#utility.yul\":403:502   */\n    tag_70:\n        /* \"#utility.yul\":455:461   */\n      0x00\n        /* \"#utility.yul\":489:494   */\n      dup2\n        /* \"#utility.yul\":483:495   */\n      mload\n        /* \"#utility.yul\":473:495   */\n      swap1\n      pop\n        /* \"#utility.yul\":403:502   */\n      swap2\n      swap1\n      pop\n      jump\t// out\n        /* \"#utility.yul\":508:667   */\n    tag_71:\n        /* \"#utility.yul\":582:593   */\n      0x00\n        /* \"#utility.yul\":616:622   */\n      dup3\n        /* \"#utility.yul\":611:614   */\n      dup3\n        /* \"#utility.yul\":604:623   */\n      mstore\n        /* \"#utility.yul\":656:660   */\n      0x20\n        /* \"#utility.yul\":651:654   */\n      dup3\n        /* \"#utility.yul\":647:661   */\n      add\n        /* \"#utility.yul\":632:661   */\n      swap1\n      pop\n        /* \"#utility.yul\":508:667   */\n      swap3\n      swap2\n      pop\n      pop\n      jump\t// out\n        /* \"#utility.yul\":673:812   */\n    tag_72:\n        /* \"#utility.yul\":762:768   */\n      dup3\n        /* \"#utility.yul\":757:760   */\n      dup2\n        /* \"#utility.yul\":752:755   */\n      dup4\n        /* \"#utility.yul\":746:769   */\n      mcopy\n        /* \"#utility.yul\":803:804   */\n      0x00\n        /* \"#utility.yul\":794:800   */\n      dup4\n        /* \"#utility.yul\":789:792   */\n      dup4\n        /* \"#utility.yul\":785:801   */\n      add\n        /* \"#utility.yul\":778:805   */\n      mstore\n        /* \"#utility.yul\":673:812   */\n      pop\n      pop\n      pop\n      jump\t// out\n        /* \"#utility.yul\":818:920   */\n    tag_73:\n        /* \"#utility.yul\":859:865   */\n      0x00\n        /* \"#utility.yul\":910:912   */\n      0x1f\n        /* \"#utility.yul\":906:913   */\n      not\n        /* \"#utility.yul\":901:903   */\n      0x1f\n        /* \"#utility.yul\":894:899   */\n      dup4\n        /* \"#utility.yul\":890:904   */\n      add\n        /* \"#utility.yul\":886:914   */\n      and\n        /* \"#utility.yul\":876:914   */\n      swap1\n      pop\n        /* \"#utility.yul\":818:920   */\n      swap2\n      swap1\n      pop\n      jump\t// out\n        /* \"#utility.yul\":926:1283   */\n    tag_74:\n        /* \"#utility.yul\":1004:1007   */\n      0x00\n        /* \"#utility.yul\":1032:1071   */\n      tag_129\n        /* \"#utility.yul\":1065:1070   */\n      dup3\n        /* \"#utility.yul\":1032:1071   */\n      tag_70\n      jump\t// in\n    tag_129:\n        /* \"#utility.yul\":1087:1148   */\n      tag_130\n        /* \"#utility.yul\":1141:1147   */\n      dup2\n        /* \"#utility.yul\":1136:1139   */\n      dup6\n        /* \"#utility.yul\":1087:1148   */\n      tag_71\n      jump\t// in\n    tag_130:\n        /* \"#utility.yul\":1080:1148   */\n      swap4\n      pop\n        /* \"#utility.yul\":1157:1222   */\n      tag_131\n        /* \"#utility.yul\":1215:1221   */\n      dup2\n        /* \"#utility.yul\":1210:1213   */\n      dup6\n        /* \"#utility.yul\":1203:1207   */\n      0x20\n        /* \"#utility.yul\":1196:1201   */\n      dup7\n        /* \"#utility.yul\":1192:1208   */\n      add\n        /* \"#utility.yul\":1157:1222   */\n      tag_72\n      jump\t// in\n    tag_131:\n        /* \"#utility.yul\":1247:1276   */\n      tag_132\n        /* \"#utility.yul\":1269:1275   */\n      dup2\n        /* \"#utility.yul\":1247:1276   */\n      tag_73\n      jump\t// in\n    tag_132:\n        /* \"#utility.yul\":1242:1245   */\n      dup5\n        /* \"#utility.yul\":1238:1277   */\n      add\n        /* \"#utility.yul\":1231:1277   */\n      swap2\n      pop\n        /* \"#utility.yul\":1008:1283   */\n      pop\n        /* \"#utility.yul\":926:1283   */\n      swap3\n      swap2\n      pop\n      pop\n      jump\t// out\n        /* \"#utility.yul\":1289:1485   */\n    tag_75:\n        /* \"#utility.yul\":1378:1388   */\n      0x00\n        /* \"#utility.yul\":1413:1479   */\n      tag_134\n        /* \"#utility.yul\":1475:1478   */\n      dup4\n        /* \"#utility.yul\":1467:1473   */\n      dup4\n        /* \"#utility.yul\":1413:1479   */\n      tag_74\n      jump\t// in\n    tag_134:\n        /* \"#utility.yul\":1399:1479   */\n      swap1\n      pop\n        /* \"#utility.yul\":1289:1485   */\n      swap3\n      swap2\n      pop\n      pop\n      jump\t// out\n        /* \"#utility.yul\":1491:1613   */\n    tag_76:\n        /* \"#utility.yul\":1570:1574   */\n      0x00\n        /* \"#utility.yul\":1602:1606   */\n      0x20\n        /* \"#utility.yul\":1597:1600   */\n      dup3\n        /* \"#utility.yul\":1593:1607   */\n      add\n        /* \"#utility.yul\":1585:1607   */\n      swap1\n      pop\n        /* \"#utility.yul\":1491:1613   */\n      swap2\n      swap1\n      pop\n      jump\t// out\n        /* \"#utility.yul\":1651:2636   */\n    tag_77:\n        /* \"#utility.yul\":1788:1791   */\n      0x00\n        /* \"#utility.yul\":1817:1880   */\n      tag_137\n        /* \"#utility.yul\":1874:1879   */\n      dup3\n        /* \"#utility.yul\":1817:1880   */\n      tag_67\n      jump\t// in\n    tag_137:\n        /* \"#utility.yul\":1896:1991   */\n      tag_138\n        /* \"#utility.yul\":1984:1990   */\n      dup2\n        /* \"#utility.yul\":1979:1982   */\n      dup6\n        /* \"#utility.yul\":1896:1991   */\n      tag_68\n      jump\t// in\n    tag_138:\n        /* \"#utility.yul\":1889:1991   */\n      swap4\n      pop\n        /* \"#utility.yul\":2017:2020   */\n      dup4\n        /* \"#utility.yul\":2062:2066   */\n      0x20\n        /* \"#utility.yul\":2054:2060   */\n      dup3\n        /* \"#utility.yul\":2050:2067   */\n      mul\n        /* \"#utility.yul\":2045:2048   */\n      dup6\n        /* \"#utility.yul\":2041:2068   */\n      add\n        /* \"#utility.yul\":2092:2157   */\n      tag_139\n        /* \"#utility.yul\":2151:2156   */\n      dup6\n        /* \"#utility.yul\":2092:2157   */\n      tag_69\n      jump\t// in\n    tag_139:\n        /* \"#utility.yul\":2180:2187   */\n      dup1\n        /* \"#utility.yul\":2211:2212   */\n      0x00\n        /* \"#utility.yul\":2196:2591   */\n    tag_140:\n        /* \"#utility.yul\":2221:2227   */\n      dup6\n        /* \"#utility.yul\":2218:2219   */\n      dup2\n        /* \"#utility.yul\":2215:2228   */\n      lt\n        /* \"#utility.yul\":2196:2591   */\n      iszero\n      tag_142\n      jumpi\n        /* \"#utility.yul\":2292:2301   */\n      dup5\n        /* \"#utility.yul\":2286:2290   */\n      dup5\n        /* \"#utility.yul\":2282:2302   */\n      sub\n        /* \"#utility.yul\":2277:2280   */\n      dup10\n        /* \"#utility.yul\":2270:2303   */\n      mstore\n        /* \"#utility.yul\":2343:2349   */\n      dup2\n        /* \"#utility.yul\":2337:2350   */\n      mload\n        /* \"#utility.yul\":2371:2455   */\n      tag_143\n        /* \"#utility.yul\":2450:2454   */\n      dup6\n        /* \"#utility.yul\":2435:2448   */\n      dup3\n        /* \"#utility.yul\":2371:2455   */\n      tag_75\n      jump\t// in\n    tag_143:\n        /* \"#utility.yul\":2363:2455   */\n      swap5\n      pop\n        /* \"#utility.yul\":2478:2547   */\n      tag_144\n        /* \"#utility.yul\":2540:2546   */\n      dup4\n        /* \"#utility.yul\":2478:2547   */\n      tag_76\n      jump\t// in\n    tag_144:\n        /* \"#utility.yul\":2468:2547   */\n      swap3\n      pop\n        /* \"#utility.yul\":2576:2580   */\n      0x20\n        /* \"#utility.yul\":2571:2574   */\n      dup11\n        /* \"#utility.yul\":2567:2581   */\n      add\n        /* \"#utility.yul\":2560:2581   */\n      swap10\n      pop\n        /* \"#utility.yul\":2256:2591   */\n      pop\n        /* \"#utility.yul\":2243:2244   */\n      0x01\n        /* \"#utility.yul\":2240:2241   */\n      dup2\n        /* \"#utility.yul\":2236:2245   */\n      add\n        /* \"#utility.yul\":2231:2245   */\n      swap1\n      pop\n        /* \"#utility.yul\":2196:2591   */\n      jump(tag_140)\n    tag_142:\n        /* \"#utility.yul\":2200:2214   */\n      pop\n        /* \"#utility.yul\":2607:2611   */\n      dup3\n        /* \"#utility.yul\":2600:2611   */\n      swap8\n      pop\n        /* \"#utility.yul\":2627:2630   */\n      dup8\n        /* \"#utility.yul\":2620:2630   */\n      swap6\n      pop\n        /* \"#utility.yul\":1793:2636   */\n      pop\n      pop\n      pop\n      pop\n      pop\n        /* \"#utility.yul\":1651:2636   */\n      swap3\n      swap2\n      pop\n      pop\n      jump\t// out\n        /* \"#utility.yul\":2642:2747   */\n    tag_78:\n        /* \"#utility.yul\":2708:2714   */\n      0x00\n        /* \"#utility.yul\":2736:2740   */\n      0x19\n        /* \"#utility.yul\":2726:2740   */\n      swap1\n      pop\n        /* \"#utility.yul\":2642:2747   */\n      swap2\n      swap1\n      pop\n      jump\t// out\n        /* \"#utility.yul\":2753:2897   */\n    tag_79:\n        /* \"#utility.yul\":2851:2862   */\n      0x00\n        /* \"#utility.yul\":2888:2891   */\n      dup2\n        /* \"#utility.yul\":2873:2891   */\n      swap1\n      pop\n        /* \"#utility.yul\":2753:2897   */\n      swap3\n      swap2\n      pop\n      pop\n      jump\t// out\n        /* \"#utility.yul\":2903:3002   */\n    tag_80:\n        /* \"#utility.yul\":2969:2973   */\n      0x00\n        /* \"#utility.yul\":2992:2995   */\n      dup2\n        /* \"#utility.yul\":2984:2995   */\n      swap1\n      pop\n        /* \"#utility.yul\":2903:3002   */\n      swap2\n      swap1\n      pop\n      jump\t// out\n        /* \"#utility.yul\":3008:3085   */\n    tag_81:\n        /* \"#utility.yul\":3045:3052   */\n      0x00\n        /* \"#utility.yul\":3074:3079   */\n      dup2\n        /* \"#utility.yul\":3063:3079   */\n      swap1\n      pop\n        /* \"#utility.yul\":3008:3085   */\n      swap2\n      swap1\n      pop\n      jump\t// out\n        /* \"#utility.yul\":3091:3199   */\n    tag_82:\n        /* \"#utility.yul\":3168:3192   */\n      tag_150\n        /* \"#utility.yul\":3186:3191   */\n      dup2\n        /* \"#utility.yul\":3168:3192   */\n      tag_81\n      jump\t// in\n    tag_150:\n        /* \"#utility.yul\":3163:3166   */\n      dup3\n        /* \"#utility.yul\":3156:3193   */\n      mstore\n        /* \"#utility.yul\":3091:3199   */\n      pop\n      pop\n      jump\t// out\n        /* \"#utility.yul\":3205:3384   */\n    tag_83:\n        /* \"#utility.yul\":3274:3284   */\n      0x00\n        /* \"#utility.yul\":3295:3341   */\n      tag_152\n        /* \"#utility.yul\":3337:3340   */\n      dup4\n        /* \"#utility.yul\":3329:3335   */\n      dup4\n        /* \"#utility.yul\":3295:3341   */\n      tag_82\n      jump\t// in\n    tag_152:\n        /* \"#utility.yul\":3373:3377   */\n      0x20\n        /* \"#utility.yul\":3368:3371   */\n      dup4\n        /* \"#utility.yul\":3364:3378   */\n      add\n        /* \"#utility.yul\":3350:3378   */\n      swap1\n      pop\n        /* \"#utility.yul\":3205:3384   */\n      swap3\n      swap2\n      pop\n      pop\n      jump\t// out\n        /* \"#utility.yul\":3390:3502   */\n    tag_84:\n        /* \"#utility.yul\":3459:3463   */\n      0x00\n        /* \"#utility.yul\":3491:3495   */\n      0x20\n        /* \"#utility.yul\":3486:3489   */\n      dup3\n        /* \"#utility.yul\":3482:3496   */\n      add\n        /* \"#utility.yul\":3474:3496   */\n      swap1\n      pop\n        /* \"#utility.yul\":3390:3502   */\n      swap2\n      swap1\n      pop\n      jump\t// out\n        /* \"#utility.yul\":3542:4242   */\n    tag_85:\n        /* \"#utility.yul\":3680:3733   */\n      tag_155\n        /* \"#utility.yul\":3727:3732   */\n      dup2\n        /* \"#utility.yul\":3680:3733   */\n      tag_78\n      jump\t// in\n    tag_155:\n        /* \"#utility.yul\":3749:3834   */\n      tag_156\n        /* \"#utility.yul\":3827:3833   */\n      dup2\n        /* \"#utility.yul\":3822:3825   */\n      dup5\n        /* \"#utility.yul\":3749:3834   */\n      tag_79\n      jump\t// in\n    tag_156:\n        /* \"#utility.yul\":3742:3834   */\n      swap3\n      pop\n        /* \"#utility.yul\":3858:3913   */\n      tag_157\n        /* \"#utility.yul\":3907:3912   */\n      dup3\n        /* \"#utility.yul\":3858:3913   */\n      tag_80\n      jump\t// in\n    tag_157:\n        /* \"#utility.yul\":3936:3943   */\n      dup1\n        /* \"#utility.yul\":3967:3968   */\n      0x00\n        /* \"#utility.yul\":3952:4235   */\n    tag_158:\n        /* \"#utility.yul\":3977:3983   */\n      dup4\n        /* \"#utility.yul\":3974:3975   */\n      dup2\n        /* \"#utility.yul\":3971:3984   */\n      lt\n        /* \"#utility.yul\":3952:4235   */\n      iszero\n      tag_160\n      jumpi\n        /* \"#utility.yul\":4053:4059   */\n      dup2\n        /* \"#utility.yul\":4047:4060   */\n      mload\n        /* \"#utility.yul\":4080:4143   */\n      tag_161\n        /* \"#utility.yul\":4139:4142   */\n      dup8\n        /* \"#utility.yul\":4124:4137   */\n      dup3\n        /* \"#utility.yul\":4080:4143   */\n      tag_83\n      jump\t// in\n    tag_161:\n        /* \"#utility.yul\":4073:4143   */\n      swap7\n      pop\n        /* \"#utility.yul\":4166:4225   */\n      tag_162\n        /* \"#utility.yul\":4218:4224   */\n      dup4\n        /* \"#utility.yul\":4166:4225   */\n      tag_84\n      jump\t// in\n    tag_162:\n        /* \"#utility.yul\":4156:4225   */\n      swap3\n      pop\n        /* \"#utility.yul\":4012:4235   */\n      pop\n        /* \"#utility.yul\":3999:4000   */\n      0x01\n        /* \"#utility.yul\":3996:3997   */\n      dup2\n        /* \"#utility.yul\":3992:4001   */\n      add\n        /* \"#utility.yul\":3987:4001   */\n      swap1\n      pop\n        /* \"#utility.yul\":3952:4235   */\n      jump(tag_158)\n    tag_160:\n        /* \"#utility.yul\":3956:3970   */\n      pop\n        /* \"#utility.yul\":3656:4242   */\n      pop\n      pop\n      pop\n        /* \"#utility.yul\":3542:4242   */\n      pop\n      pop\n      jump\t// out\n        /* \"#utility.yul\":4248:4864   */\n    tag_10:\n        /* \"#utility.yul\":4485:4489   */\n      0x00\n        /* \"#utility.yul\":4523:4526   */\n      0x0340\n        /* \"#utility.yul\":4512:4521   */\n      dup3\n        /* \"#utility.yul\":4508:4527   */\n      add\n        /* \"#utility.yul\":4500:4527   */\n      swap1\n      pop\n        /* \"#utility.yul\":4573:4582   */\n      dup2\n        /* \"#utility.yul\":4567:4571   */\n      dup2\n        /* \"#utility.yul\":4563:4583   */\n      sub\n        /* \"#utility.yul\":4559:4560   */\n      0x00\n        /* \"#utility.yul\":4548:4557   */\n      dup4\n        /* \"#utility.yul\":4544:4561   */\n      add\n        /* \"#utility.yul\":4537:4584   */\n      mstore\n        /* \"#utility.yul\":4601:4727   */\n      tag_164\n        /* \"#utility.yul\":4722:4726   */\n      dup2\n        /* \"#utility.yul\":4713:4719   */\n      dup6\n        /* \"#utility.yul\":4601:4727   */\n      tag_77\n      jump\t// in\n    tag_164:\n        /* \"#utility.yul\":4593:4727   */\n      swap1\n      pop\n        /* \"#utility.yul\":4737:4857   */\n      tag_165\n        /* \"#utility.yul\":4853:4855   */\n      0x20\n        /* \"#utility.yul\":4842:4851   */\n      dup4\n        /* \"#utility.yul\":4838:4856   */\n      add\n        /* \"#utility.yul\":4829:4835   */\n      dup5\n        /* \"#utility.yul\":4737:4857   */\n      tag_85\n      jump\t// in\n    tag_165:\n        /* \"#utility.yul\":4248:4864   */\n      swap4\n      swap3\n      pop\n      pop\n      pop\n      jump\t// out\n        /* \"#utility.yul\":4870:4945   */\n    tag_86:\n        /* \"#utility.yul\":4903:4909   */\n      0x00\n        /* \"#utility.yul\":4936:4938   */\n      0x40\n        /* \"#utility.yul\":4930:4939   */\n      mload\n        /* \"#utility.yul\":4920:4939   */\n      swap1\n      pop\n        /* \"#utility.yul\":4870:4945   */\n      swap1\n      jump\t// out\n        /* \"#utility.yul\":4951:5068   */\n    tag_87:\n        /* \"#utility.yul\":5060:5061   */\n      0x00\n        /* \"#utility.yul\":5057:5058   */\n      dup1\n        /* \"#utility.yul\":5050:5062   */\n      revert\n        /* \"#utility.yul\":5074:5191   */\n    tag_88:\n        /* \"#utility.yul\":5183:5184   */\n      0x00\n        /* \"#utility.yul\":5180:5181   */\n      dup1\n        /* \"#utility.yul\":5173:5185   */\n      revert\n        /* \"#utility.yul\":5197:5314   */\n    tag_89:\n        /* \"#utility.yul\":5306:5307   */\n      0x00\n        /* \"#utility.yul\":5303:5304   */\n      dup1\n        /* \"#utility.yul\":5296:5308   */\n      revert\n        /* \"#utility.yul\":5320:5437   */\n    tag_90:\n        /* \"#utility.yul\":5429:5430   */\n      0x00\n        /* \"#utility.yul\":5426:5427   */\n      dup1\n        /* \"#utility.yul\":5419:5431   */\n      revert\n        /* \"#utility.yul\":5443:5623   */\n    tag_91:\n        /* \"#utility.yul\":5491:5568   */\n      0x4e487b7100000000000000000000000000000000000000000000000000000000\n        /* \"#utility.yul\":5488:5489   */\n      0x00\n        /* \"#utility.yul\":5481:5569   */\n      mstore\n        /* \"#utility.yul\":5588:5592   */\n      0x41\n        /* \"#utility.yul\":5585:5586   */\n      0x04\n        /* \"#utility.yul\":5578:5593   */\n      mstore\n        /* \"#utility.yul\":5612:5616   */\n      0x24\n        /* \"#utility.yul\":5609:5610   */\n      0x00\n        /* \"#utility.yul\":5602:5617   */\n      revert\n        /* \"#utility.yul\":5629:5910   */\n    tag_92:\n        /* \"#utility.yul\":5712:5739   */\n      tag_173\n        /* \"#utility.yul\":5734:5738   */\n      dup3\n        /* \"#utility.yul\":5712:5739   */\n      tag_73\n      jump\t// in\n    tag_173:\n        /* \"#utility.yul\":5704:5710   */\n      dup2\n        /* \"#utility.yul\":5700:5740   */\n      add\n        /* \"#utility.yul\":5842:5848   */\n      dup2\n        /* \"#utility.yul\":5830:5840   */\n      dup2\n        /* \"#utility.yul\":5827:5849   */\n      lt\n        /* \"#utility.yul\":5806:5824   */\n      0xffffffffffffffff\n        /* \"#utility.yul\":5794:5804   */\n      dup3\n        /* \"#utility.yul\":5791:5825   */\n      gt\n        /* \"#utility.yul\":5788:5850   */\n      or\n        /* \"#utility.yul\":5785:5873   */\n      iszero\n      tag_174\n      jumpi\n        /* \"#utility.yul\":5853:5871   */\n      tag_175\n      tag_91\n      jump\t// in\n    tag_175:\n        /* \"#utility.yul\":5785:5873   */\n    tag_174:\n        /* \"#utility.yul\":5893:5903   */\n      dup1\n        /* \"#utility.yul\":5889:5891   */\n      0x40\n        /* \"#utility.yul\":5882:5904   */\n      mstore\n        /* \"#utility.yul\":5672:5910   */\n      pop\n        /* \"#utility.yul\":5629:5910   */\n      pop\n      pop\n      jump\t// out\n        /* \"#utility.yul\":5916:6045   */\n    tag_93:\n        /* \"#utility.yul\":5950:5956   */\n      0x00\n        /* \"#utility.yul\":5977:5997   */\n      tag_177\n      tag_86\n      jump\t// in\n    tag_177:\n        /* \"#utility.yul\":5967:5997   */\n      swap1\n      pop\n        /* \"#utility.yul\":6006:6039   */\n      tag_178\n        /* \"#utility.yul\":6034:6038   */\n      dup3\n        /* \"#utility.yul\":6026:6032   */\n      dup3\n        /* \"#utility.yul\":6006:6039   */\n      tag_92\n      jump\t// in\n    tag_178:\n        /* \"#utility.yul\":5916:6045   */\n      swap2\n      swap1\n      pop\n      jump\t// out\n        /* \"#utility.yul\":6051:6359   */\n    tag_94:\n        /* \"#utility.yul\":6113:6117   */\n      0x00\n        /* \"#utility.yul\":6203:6221   */\n      0xffffffffffffffff\n        /* \"#utility.yul\":6195:6201   */\n      dup3\n        /* \"#utility.yul\":6192:6222   */\n      gt\n        /* \"#utility.yul\":6189:6245   */\n      iszero\n      tag_180\n      jumpi\n        /* \"#utility.yul\":6225:6243   */\n      tag_181\n      tag_91\n      jump\t// in\n    tag_181:\n        /* \"#utility.yul\":6189:6245   */\n    tag_180:\n        /* \"#utility.yul\":6263:6292   */\n      tag_182\n        /* \"#utility.yul\":6285:6291   */\n      dup3\n        /* \"#utility.yul\":6263:6292   */\n      tag_73\n      jump\t// in\n    tag_182:\n        /* \"#utility.yul\":6255:6292   */\n      swap1\n      pop\n        /* \"#utility.yul\":6347:6351   */\n      0x20\n        /* \"#utility.yul\":6341:6345   */\n      dup2\n        /* \"#utility.yul\":6337:6352   */\n      add\n        /* \"#utility.yul\":6329:6352   */\n      swap1\n      pop\n        /* \"#utility.yul\":6051:6359   */\n      swap2\n      swap1\n      pop\n      jump\t// out\n        /* \"#utility.yul\":6365:6513   */\n    tag_95:\n        /* \"#utility.yul\":6463:6469   */\n      dup3\n        /* \"#utility.yul\":6458:6461   */\n      dup2\n        /* \"#utility.yul\":6453:6456   */\n      dup4\n        /* \"#utility.yul\":6440:6470   */\n      calldatacopy\n        /* \"#utility.yul\":6504:6505   */\n      0x00\n        /* \"#utility.yul\":6495:6501   */\n      dup4\n        /* \"#utility.yul\":6490:6493   */\n      dup4\n        /* \"#utility.yul\":6486:6502   */\n      add\n        /* \"#utility.yul\":6479:6506   */\n      mstore\n        /* \"#utility.yul\":6365:6513   */\n      pop\n      pop\n      pop\n      jump\t// out\n        /* \"#utility.yul\":6519:6944   */\n    tag_96:\n        /* \"#utility.yul\":6597:6602   */\n      0x00\n        /* \"#utility.yul\":6622:6688   */\n      tag_185\n        /* \"#utility.yul\":6638:6687   */\n      tag_186\n        /* \"#utility.yul\":6680:6686   */\n      dup5\n        /* \"#utility.yul\":6638:6687   */\n      tag_94\n      jump\t// in\n    tag_186:\n        /* \"#utility.yul\":6622:6688   */\n      tag_93\n      jump\t// in\n    tag_185:\n        /* \"#utility.yul\":6613:6688   */\n      swap1\n      pop\n        /* \"#utility.yul\":6711:6717   */\n      dup3\n        /* \"#utility.yul\":6704:6709   */\n      dup2\n        /* \"#utility.yul\":6697:6718   */\n      mstore\n        /* \"#utility.yul\":6749:6753   */\n      0x20\n        /* \"#utility.yul\":6742:6747   */\n      dup2\n        /* \"#utility.yul\":6738:6754   */\n      add\n        /* \"#utility.yul\":6787:6790   */\n      dup5\n        /* \"#utility.yul\":6778:6784   */\n      dup5\n        /* \"#utility.yul\":6773:6776   */\n      dup5\n        /* \"#utility.yul\":6769:6785   */\n      add\n        /* \"#utility.yul\":6766:6791   */\n      gt\n        /* \"#utility.yul\":6763:6875   */\n      iszero\n      tag_187\n      jumpi\n        /* \"#utility.yul\":6794:6873   */\n      tag_188\n      tag_90\n      jump\t// in\n    tag_188:\n        /* \"#utility.yul\":6763:6875   */\n    tag_187:\n        /* \"#utility.yul\":6884:6938   */\n      tag_189\n        /* \"#utility.yul\":6931:6937   */\n      dup5\n        /* \"#utility.yul\":6926:6929   */\n      dup3\n        /* \"#utility.yul\":6921:6924   */\n      dup6\n        /* \"#utility.yul\":6884:6938   */\n      tag_95\n      jump\t// in\n    tag_189:\n        /* \"#utility.yul\":6603:6944   */\n      pop\n        /* \"#utility.yul\":6519:6944   */\n      swap4\n      swap3\n      pop\n      pop\n      pop\n      jump\t// out\n        /* \"#utility.yul\":6964:7304   */\n    tag_97:\n        /* \"#utility.yul\":7020:7025   */\n      0x00\n        /* \"#utility.yul\":7069:7072   */\n      dup3\n        /* \"#utility.yul\":7062:7066   */\n      0x1f\n        /* \"#utility.yul\":7054:7060   */\n      dup4\n        /* \"#utility.yul\":7050:7067   */\n      add\n        /* \"#utility.yul\":7046:7073   */\n      slt\n        /* \"#utility.yul\":7036:7158   */\n      tag_191\n      jumpi\n        /* \"#utility.yul\":7077:7156   */\n      tag_192\n      tag_89\n      jump\t// in\n    tag_192:\n        /* \"#utility.yul\":7036:7158   */\n    tag_191:\n        /* \"#utility.yul\":7194:7200   */\n      dup2\n        /* \"#utility.yul\":7181:7201   */\n      calldataload\n        /* \"#utility.yul\":7219:7298   */\n      tag_193\n        /* \"#utility.yul\":7294:7297   */\n      dup5\n        /* \"#utility.yul\":7286:7292   */\n      dup3\n        /* \"#utility.yul\":7279:7283   */\n      0x20\n        /* \"#utility.yul\":7271:7277   */\n      dup7\n        /* \"#utility.yul\":7267:7284   */\n      add\n        /* \"#utility.yul\":7219:7298   */\n      tag_96\n      jump\t// in\n    tag_193:\n        /* \"#utility.yul\":7210:7298   */\n      swap2\n      pop\n        /* \"#utility.yul\":7026:7304   */\n      pop\n        /* \"#utility.yul\":6964:7304   */\n      swap3\n      swap2\n      pop\n      pop\n      jump\t// out\n        /* \"#utility.yul\":7310:7432   */\n    tag_98:\n        /* \"#utility.yul\":7383:7407   */\n      tag_195\n        /* \"#utility.yul\":7401:7406   */\n      dup2\n        /* \"#utility.yul\":7383:7407   */\n      tag_81\n      jump\t// in\n    tag_195:\n        /* \"#utility.yul\":7376:7381   */\n      dup2\n        /* \"#utility.yul\":7373:7408   */\n      eq\n        /* \"#utility.yul\":7363:7426   */\n      tag_196\n      jumpi\n        /* \"#utility.yul\":7422:7423   */\n      0x00\n        /* \"#utility.yul\":7419:7420   */\n      dup1\n        /* \"#utility.yul\":7412:7424   */\n      revert\n        /* \"#utility.yul\":7363:7426   */\n    tag_196:\n        /* \"#utility.yul\":7310:7432   */\n      pop\n      jump\t// out\n        /* \"#utility.yul\":7438:7577   */\n    tag_99:\n        /* \"#utility.yul\":7484:7489   */\n      0x00\n        /* \"#utility.yul\":7522:7528   */\n      dup2\n        /* \"#utility.yul\":7509:7529   */\n      calldataload\n        /* \"#utility.yul\":7500:7529   */\n      swap1\n      pop\n        /* \"#utility.yul\":7538:7571   */\n      tag_198\n        /* \"#utility.yul\":7565:7570   */\n      dup2\n        /* \"#utility.yul\":7538:7571   */\n      tag_98\n      jump\t// in\n    tag_198:\n        /* \"#utility.yul\":7438:7577   */\n      swap3\n      swap2\n      pop\n      pop\n      jump\t// out\n        /* \"#utility.yul\":7583:8237   */\n    tag_13:\n        /* \"#utility.yul\":7661:7667   */\n      0x00\n        /* \"#utility.yul\":7669:7675   */\n      dup1\n        /* \"#utility.yul\":7718:7720   */\n      0x40\n        /* \"#utility.yul\":7706:7715   */\n      dup4\n        /* \"#utility.yul\":7697:7704   */\n      dup6\n        /* \"#utility.yul\":7693:7716   */\n      sub\n        /* \"#utility.yul\":7689:7721   */\n      slt\n        /* \"#utility.yul\":7686:7805   */\n      iszero\n      tag_200\n      jumpi\n        /* \"#utility.yul\":7724:7803   */\n      tag_201\n      tag_87\n      jump\t// in\n    tag_201:\n        /* \"#utility.yul\":7686:7805   */\n    tag_200:\n        /* \"#utility.yul\":7872:7873   */\n      0x00\n        /* \"#utility.yul\":7861:7870   */\n      dup4\n        /* \"#utility.yul\":7857:7874   */\n      add\n        /* \"#utility.yul\":7844:7875   */\n      calldataload\n        /* \"#utility.yul\":7902:7920   */\n      0xffffffffffffffff\n        /* \"#utility.yul\":7894:7900   */\n      dup2\n        /* \"#utility.yul\":7891:7921   */\n      gt\n        /* \"#utility.yul\":7888:8005   */\n      iszero\n      tag_202\n      jumpi\n        /* \"#utility.yul\":7924:8003   */\n      tag_203\n      tag_88\n      jump\t// in\n    tag_203:\n        /* \"#utility.yul\":7888:8005   */\n    tag_202:\n        /* \"#utility.yul\":8029:8092   */\n      tag_204\n        /* \"#utility.yul\":8084:8091   */\n      dup6\n        /* \"#utility.yul\":8075:8081   */\n      dup3\n        /* \"#utility.yul\":8064:8073   */\n      dup7\n        /* \"#utility.yul\":8060:8082   */\n      add\n        /* \"#utility.yul\":8029:8092   */\n      tag_97\n      jump\t// in\n    tag_204:\n        /* \"#utility.yul\":8019:8092   */\n      swap3\n      pop\n        /* \"#utility.yul\":7815:8102   */\n      pop\n        /* \"#utility.yul\":8141:8143   */\n      0x20\n        /* \"#utility.yul\":8167:8220   */\n      tag_205\n        /* \"#utility.yul\":8212:8219   */\n      dup6\n        /* \"#utility.yul\":8203:8209   */\n      dup3\n        /* \"#utility.yul\":8192:8201   */\n      dup7\n        /* \"#utility.yul\":8188:8210   */\n      add\n        /* \"#utility.yul\":8167:8220   */\n      tag_99\n      jump\t// in\n    tag_205:\n        /* \"#utility.yul\":8157:8220   */\n      swap2\n      pop\n        /* \"#utility.yul\":8112:8230   */\n      pop\n        /* \"#utility.yul\":7583:8237   */\n      swap3\n      pop\n      swap3\n      swap1\n      pop\n      jump\t// out\n        /* \"#utility.yul\":8243:8572   */\n    tag_17:\n        /* \"#utility.yul\":8302:8308   */\n      0x00\n        /* \"#utility.yul\":8351:8353   */\n      0x20\n        /* \"#utility.yul\":8339:8348   */\n      dup3\n        /* \"#utility.yul\":8330:8337   */\n      dup5\n        /* \"#utility.yul\":8326:8349   */\n      sub\n        /* \"#utility.yul\":8322:8354   */\n      slt\n        /* \"#utility.yul\":8319:8438   */\n      iszero\n      tag_207\n      jumpi\n        /* \"#utility.yul\":8357:8436   */\n      tag_208\n      tag_87\n      jump\t// in\n    tag_208:\n        /* \"#utility.yul\":8319:8438   */\n    tag_207:\n        /* \"#utility.yul\":8477:8478   */\n      0x00\n        /* \"#utility.yul\":8502:8555   */\n      tag_209\n        /* \"#utility.yul\":8547:8554   */\n      dup5\n        /* \"#utility.yul\":8538:8544   */\n      dup3\n        /* \"#utility.yul\":8527:8536   */\n      dup6\n        /* \"#utility.yul\":8523:8545   */\n      add\n        /* \"#utility.yul\":8502:8555   */\n      tag_99\n      jump\t// in\n    tag_209:\n        /* \"#utility.yul\":8492:8555   */\n      swap2\n      pop\n        /* \"#utility.yul\":8448:8565   */\n      pop\n        /* \"#utility.yul\":8243:8572   */\n      swap3\n      swap2\n      pop\n      pop\n      jump\t// out\n        /* \"#utility.yul\":8578:8747   */\n    tag_100:\n        /* \"#utility.yul\":8662:8673   */\n      0x00\n        /* \"#utility.yul\":8696:8702   */\n      dup3\n        /* \"#utility.yul\":8691:8694   */\n      dup3\n        /* \"#utility.yul\":8684:8703   */\n      mstore\n        /* \"#utility.yul\":8736:8740   */\n      0x20\n        /* \"#utility.yul\":8731:8734   */\n      dup3\n        /* \"#utility.yul\":8727:8741   */\n      add\n        /* \"#utility.yul\":8712:8741   */\n      swap1\n      pop\n        /* \"#utility.yul\":8578:8747   */\n      swap3\n      swap2\n      pop\n      pop\n      jump\t// out\n        /* \"#utility.yul\":8753:9130   */\n    tag_101:\n        /* \"#utility.yul\":8841:8844   */\n      0x00\n        /* \"#utility.yul\":8869:8908   */\n      tag_212\n        /* \"#utility.yul\":8902:8907   */\n      dup3\n        /* \"#utility.yul\":8869:8908   */\n      tag_70\n      jump\t// in\n    tag_212:\n        /* \"#utility.yul\":8924:8995   */\n      tag_213\n        /* \"#utility.yul\":8988:8994   */\n      dup2\n        /* \"#utility.yul\":8983:8986   */\n      dup6\n        /* \"#utility.yul\":8924:8995   */\n      tag_100\n      jump\t// in\n    tag_213:\n        /* \"#utility.yul\":8917:8995   */\n      swap4\n      pop\n        /* \"#utility.yul\":9004:9069   */\n      tag_214\n        /* \"#utility.yul\":9062:9068   */\n      dup2\n        /* \"#utility.yul\":9057:9060   */\n      dup6\n        /* \"#utility.yul\":9050:9054   */\n      0x20\n        /* \"#utility.yul\":9043:9048   */\n      dup7\n        /* \"#utility.yul\":9039:9055   */\n      add\n        /* \"#utility.yul\":9004:9069   */\n      tag_72\n      jump\t// in\n    tag_214:\n        /* \"#utility.yul\":9094:9123   */\n      tag_215\n        /* \"#utility.yul\":9116:9122   */\n      dup2\n        /* \"#utility.yul\":9094:9123   */\n      tag_73\n      jump\t// in\n    tag_215:\n        /* \"#utility.yul\":9089:9092   */\n      dup5\n        /* \"#utility.yul\":9085:9124   */\n      add\n        /* \"#utility.yul\":9078:9124   */\n      swap2\n      pop\n        /* \"#utility.yul\":8845:9130   */\n      pop\n        /* \"#utility.yul\":8753:9130   */\n      swap3\n      swap2\n      pop\n      pop\n      jump\t// out\n        /* \"#utility.yul\":9136:9254   */\n    tag_102:\n        /* \"#utility.yul\":9223:9247   */\n      tag_217\n        /* \"#utility.yul\":9241:9246   */\n      dup2\n        /* \"#utility.yul\":9223:9247   */\n      tag_81\n      jump\t// in\n    tag_217:\n        /* \"#utility.yul\":9218:9221   */\n      dup3\n        /* \"#utility.yul\":9211:9248   */\n      mstore\n        /* \"#utility.yul\":9136:9254   */\n      pop\n      pop\n      jump\t// out\n        /* \"#utility.yul\":9260:9683   */\n    tag_20:\n        /* \"#utility.yul\":9401:9405   */\n      0x00\n        /* \"#utility.yul\":9439:9441   */\n      0x40\n        /* \"#utility.yul\":9428:9437   */\n      dup3\n        /* \"#utility.yul\":9424:9442   */\n      add\n        /* \"#utility.yul\":9416:9442   */\n      swap1\n      pop\n        /* \"#utility.yul\":9488:9497   */\n      dup2\n        /* \"#utility.yul\":9482:9486   */\n      dup2\n        /* \"#utility.yul\":9478:9498   */\n      sub\n        /* \"#utility.yul\":9474:9475   */\n      0x00\n        /* \"#utility.yul\":9463:9472   */\n      dup4\n        /* \"#utility.yul\":9459:9476   */\n      add\n        /* \"#utility.yul\":9452:9499   */\n      mstore\n        /* \"#utility.yul\":9516:9594   */\n      tag_219\n        /* \"#utility.yul\":9589:9593   */\n      dup2\n        /* \"#utility.yul\":9580:9586   */\n      dup6\n        /* \"#utility.yul\":9516:9594   */\n      tag_101\n      jump\t// in\n    tag_219:\n        /* \"#utility.yul\":9508:9594   */\n      swap1\n      pop\n        /* \"#utility.yul\":9604:9676   */\n      tag_220\n        /* \"#utility.yul\":9672:9674   */\n      0x20\n        /* \"#utility.yul\":9661:9670   */\n      dup4\n        /* \"#utility.yul\":9657:9675   */\n      add\n        /* \"#utility.yul\":9648:9654   */\n      dup5\n        /* \"#utility.yul\":9604:9676   */\n      tag_102\n      jump\t// in\n    tag_220:\n        /* \"#utility.yul\":9260:9683   */\n      swap4\n      swap3\n      pop\n      pop\n      pop\n      jump\t// out\n        /* \"#utility.yul\":9689:9911   */\n    tag_24:\n        /* \"#utility.yul\":9782:9786   */\n      0x00\n        /* \"#utility.yul\":9820:9822   */\n      0x20\n        /* \"#utility.yul\":9809:9818   */\n      dup3\n        /* \"#utility.yul\":9805:9823   */\n      add\n        /* \"#utility.yul\":9797:9823   */\n      swap1\n      pop\n        /* \"#utility.yul\":9833:9904   */\n      tag_222\n        /* \"#utility.yul\":9901:9902   */\n      0x00\n        /* \"#utility.yul\":9890:9899   */\n      dup4\n        /* \"#utility.yul\":9886:9903   */\n      add\n        /* \"#utility.yul\":9877:9883   */\n      dup5\n        /* \"#utility.yul\":9833:9904   */\n      tag_102\n      jump\t// in\n    tag_222:\n        /* \"#utility.yul\":9689:9911   */\n      swap3\n      swap2\n      pop\n      pop\n      jump\t// out\n        /* \"#utility.yul\":9917:10097   */\n    tag_103:\n        /* \"#utility.yul\":9965:10042   */\n      0x4e487b7100000000000000000000000000000000000000000000000000000000\n        /* \"#utility.yul\":9962:9963   */\n      0x00\n        /* \"#utility.yul\":9955:10043   */\n      mstore\n        /* \"#utility.yul\":10062:10066   */\n      0x22\n        /* \"#utility.yul\":10059:10060   */\n      0x04\n        /* \"#utility.yul\":10052:10067   */\n      mstore\n        /* \"#utility.yul\":10086:10090   */\n      0x24\n        /* \"#utility.yul\":10083:10084   */\n      0x00\n        /* \"#utility.yul\":10076:10091   */\n      revert\n        /* \"#utility.yul\":10103:10423   */\n    tag_34:\n        /* \"#utility.yul\":10147:10153   */\n      0x00\n        /* \"#utility.yul\":10184:10185   */\n      0x02\n        /* \"#utility.yul\":10178:10182   */\n      dup3\n        /* \"#utility.yul\":10174:10186   */\n      div\n        /* \"#utility.yul\":10164:10186   */\n      swap1\n      pop\n        /* \"#utility.yul\":10231:10232   */\n      0x01\n        /* \"#utility.yul\":10225:10229   */\n      dup3\n        /* \"#utility.yul\":10221:10233   */\n      and\n        /* \"#utility.yul\":10252:10270   */\n      dup1\n        /* \"#utility.yul\":10242:10323   */\n      tag_225\n      jumpi\n        /* \"#utility.yul\":10308:10312   */\n      0x7f\n        /* \"#utility.yul\":10300:10306   */\n      dup3\n        /* \"#utility.yul\":10296:10313   */\n      and\n        /* \"#utility.yul\":10286:10313   */\n      swap2\n      pop\n        /* \"#utility.yul\":10242:10323   */\n    tag_225:\n        /* \"#utility.yul\":10370:10372   */\n      0x20\n        /* \"#utility.yul\":10362:10368   */\n      dup3\n        /* \"#utility.yul\":10359:10373   */\n      lt\n        /* \"#utility.yul\":10339:10357   */\n      dup2\n        /* \"#utility.yul\":10336:10374   */\n      sub\n        /* \"#utility.yul\":10333:10417   */\n      tag_226\n      jumpi\n        /* \"#utility.yul\":10389:10407   */\n      tag_227\n      tag_103\n      jump\t// in\n    tag_227:\n        /* \"#utility.yul\":10333:10417   */\n    tag_226:\n        /* \"#utility.yul\":10154:10423   */\n      pop\n        /* \"#utility.yul\":10103:10423   */\n      swap2\n      swap1\n      pop\n      jump\t// out\n        /* \"#utility.yul\":10429:10609   */\n    tag_45:\n        /* \"#utility.yul\":10477:10554   */\n      0x4e487b7100000000000000000000000000000000000000000000000000000000\n        /* \"#utility.yul\":10474:10475   */\n      0x00\n        /* \"#utility.yul\":10467:10555   */\n      mstore\n        /* \"#utility.yul\":10574:10578   */\n      0x32\n        /* \"#utility.yul\":10571:10572   */\n      0x04\n        /* \"#utility.yul\":10564:10579   */\n      mstore\n        /* \"#utility.yul\":10598:10602   */\n      0x24\n        /* \"#utility.yul\":10595:10596   */\n      0x00\n        /* \"#utility.yul\":10588:10603   */\n      revert\n        /* \"#utility.yul\":10615:10756   */\n    tag_104:\n        /* \"#utility.yul\":10664:10668   */\n      0x00\n        /* \"#utility.yul\":10687:10690   */\n      dup2\n        /* \"#utility.yul\":10679:10690   */\n      swap1\n      pop\n        /* \"#utility.yul\":10710:10713   */\n      dup2\n        /* \"#utility.yul\":10707:10708   */\n      0x00\n        /* \"#utility.yul\":10700:10714   */\n      mstore\n        /* \"#utility.yul\":10744:10748   */\n      0x20\n        /* \"#utility.yul\":10741:10742   */\n      0x00\n        /* \"#utility.yul\":10731:10749   */\n      keccak256\n        /* \"#utility.yul\":10723:10749   */\n      swap1\n      pop\n        /* \"#utility.yul\":10615:10756   */\n      swap2\n      swap1\n      pop\n      jump\t// out\n        /* \"#utility.yul\":10762:10855   */\n    tag_105:\n        /* \"#utility.yul\":10799:10805   */\n      0x00\n        /* \"#utility.yul\":10846:10848   */\n      0x20\n        /* \"#utility.yul\":10841:10843   */\n      0x1f\n        /* \"#utility.yul\":10834:10839   */\n      dup4\n        /* \"#utility.yul\":10830:10844   */\n      add\n        /* \"#utility.yul\":10826:10849   */\n      div\n        /* \"#utility.yul\":10816:10849   */\n      swap1\n      pop\n        /* \"#utility.yul\":10762:10855   */\n      swap2\n      swap1\n      pop\n      jump\t// out\n        /* \"#utility.yul\":10861:10968   */\n    tag_106:\n        /* \"#utility.yul\":10905:10913   */\n      0x00\n        /* \"#utility.yul\":10955:10960   */\n      dup3\n        /* \"#utility.yul\":10949:10953   */\n      dup3\n        /* \"#utility.yul\":10945:10961   */\n      shl\n        /* \"#utility.yul\":10924:10961   */\n      swap1\n      pop\n        /* \"#utility.yul\":10861:10968   */\n      swap3\n      swap2\n      pop\n      pop\n      jump\t// out\n        /* \"#utility.yul\":10974:11367   */\n    tag_107:\n        /* \"#utility.yul\":11043:11049   */\n      0x00\n        /* \"#utility.yul\":11093:11094   */\n      0x08\n        /* \"#utility.yul\":11081:11091   */\n      dup4\n        /* \"#utility.yul\":11077:11095   */\n      mul\n        /* \"#utility.yul\":11116:11213   */\n      tag_233\n        /* \"#utility.yul\":11146:11212   */\n      0xffffffffffffffffffffffffffffffffffffffffffffffffffffffffffffffff\n        /* \"#utility.yul\":11135:11144   */\n      dup3\n        /* \"#utility.yul\":11116:11213   */\n      tag_106\n      jump\t// in\n    tag_233:\n        /* \"#utility.yul\":11234:11273   */\n      tag_234\n        /* \"#utility.yul\":11264:11272   */\n      dup7\n        /* \"#utility.yul\":11253:11262   */\n      dup4\n        /* \"#utility.yul\":11234:11273   */\n      tag_106\n      jump\t// in\n    tag_234:\n        /* \"#utility.yul\":11222:11273   */\n      swap6\n      pop\n        /* \"#utility.yul\":11306:11310   */\n      dup1\n        /* \"#utility.yul\":11302:11311   */\n      not\n        /* \"#utility.yul\":11295:11300   */\n      dup5\n        /* \"#utility.yul\":11291:11312   */\n      and\n        /* \"#utility.yul\":11282:11312   */\n      swap4\n      pop\n        /* \"#utility.yul\":11355:11359   */\n      dup1\n        /* \"#utility.yul\":11345:11353   */\n      dup7\n        /* \"#utility.yul\":11341:11360   */\n      and\n        /* \"#utility.yul\":11334:11339   */\n      dup5\n        /* \"#utility.yul\":11331:11361   */\n      or\n        /* \"#utility.yul\":11321:11361   */\n      swap3\n      pop\n        /* \"#utility.yul\":11050:11367   */\n      pop\n      pop\n        /* \"#utility.yul\":10974:11367   */\n      swap4\n      swap3\n      pop\n      pop\n      pop\n      jump\t// out\n        /* \"#utility.yul\":11373:11433   */\n    tag_108:\n        /* \"#utility.yul\":11401:11404   */\n      0x00\n        /* \"#utility.yul\":11422:11427   */\n      dup2\n        /* \"#utility.yul\":11415:11427   */\n      swap1\n      pop\n        /* \"#utility.yul\":11373:11433   */\n      swap2\n      swap1\n      pop\n      jump\t// out\n        /* \"#utility.yul\":11439:11581   */\n    tag_109:\n        /* \"#utility.yul\":11489:11498   */\n      0x00\n        /* \"#utility.yul\":11522:11575   */\n      tag_237\n        /* \"#utility.yul\":11540:11574   */\n      tag_238\n        /* \"#utility.yul\":11549:11573   */\n      tag_239\n        /* \"#utility.yul\":11567:11572   */\n      dup5\n        /* \"#utility.yul\":11549:11573   */\n      tag_81\n      jump\t// in\n    tag_239:\n        /* \"#utility.yul\":11540:11574   */\n      tag_108\n      jump\t// in\n    tag_238:\n        /* \"#utility.yul\":11522:11575   */\n      tag_81\n      jump\t// in\n    tag_237:\n        /* \"#utility.yul\":11509:11575   */\n      swap1\n      pop\n        /* \"#utility.yul\":11439:11581   */\n      swap2\n      swap1\n      pop\n      jump\t// out\n        /* \"#utility.yul\":11587:11662   */\n    tag_110:\n        /* \"#utility.yul\":11630:11633   */\n      0x00\n        /* \"#utility.yul\":11651:11656   */\n      dup2\n        /* \"#utility.yul\":11644:11656   */\n      swap1\n      pop\n        /* \"#utility.yul\":11587:11662   */\n      swap2\n      swap1\n      pop\n      jump\t// out\n        /* \"#utility.yul\":11668:11937   */\n    tag_111:\n        /* \"#utility.yul\":11778:11817   */\n      tag_242\n        /* \"#utility.yul\":11809:11816   */\n      dup4\n        /* \"#utility.yul\":11778:11817   */\n      tag_109\n      jump\t// in\n    tag_242:\n        /* \"#utility.yul\":11839:11930   */\n      tag_243\n        /* \"#utility.yul\":11888:11929   */\n      tag_244\n        /* \"#utility.yul\":11912:11928   */\n      dup3\n        /* \"#utility.yul\":11888:11929   */\n      tag_110\n      jump\t// in\n    tag_244:\n        /* \"#utility.yul\":11880:11886   */\n      dup5\n        /* \"#utility.yul\":11873:11877   */\n      dup5\n        /* \"#utility.yul\":11867:11878   */\n      sload\n        /* \"#utility.yul\":11839:11930   */\n      tag_107\n      jump\t// in\n    tag_243:\n        /* \"#utility.yul\":11833:11837   */\n      dup3\n        /* \"#utility.yul\":11826:11931   */\n      sstore\n        /* \"#utility.yul\":11744:11937   */\n      pop\n        /* \"#utility.yul\":11668:11937   */\n      pop\n      pop\n      pop\n      jump\t// out\n        /* \"#utility.yul\":11943:12016   */\n    tag_112:\n        /* \"#utility.yul\":11988:11991   */\n      0x00\n        /* \"#utility.yul\":11943:12016   */\n      swap1\n      jump\t// out\n        /* \"#utility.yul\":12022:12211   */\n    tag_113:\n        /* \"#utility.yul\":12099:12131   */\n      tag_247\n      tag_112\n      jump\t// in\n    tag_247:\n        /* \"#utility.yul\":12140:12205   */\n      tag_248\n        /* \"#utility.yul\":12198:12204   */\n      dup2\n        /* \"#utility.yul\":12190:12196   */\n      dup5\n        /* \"#utility.yul\":12184:12188   */\n      dup5\n        /* \"#utility.yul\":12140:12205   */\n      tag_111\n      jump\t// in\n    tag_248:\n        /* \"#utility.yul\":12075:12211   */\n      pop\n        /* \"#utility.yul\":12022:12211   */\n      pop\n      pop\n      jump\t// out\n        /* \"#utility.yul\":12217:12403   */\n    tag_114:\n        /* \"#utility.yul\":12277:12397   */\n    tag_250:\n        /* \"#utility.yul\":12294:12297   */\n      dup2\n        /* \"#utility.yul\":12287:12292   */\n      dup2\n        /* \"#utility.yul\":12284:12298   */\n      lt\n        /* \"#utility.yul\":12277:12397   */\n      iszero\n      tag_252\n      jumpi\n        /* \"#utility.yul\":12348:12387   */\n      tag_253\n        /* \"#utility.yul\":12385:12386   */\n      0x00\n        /* \"#utility.yul\":12378:12383   */\n      dup3\n        /* \"#utility.yul\":12348:12387   */\n      tag_113\n      jump\t// in\n    tag_253:\n        /* \"#utility.yul\":12321:12322   */\n      0x01\n        /* \"#utility.yul\":12314:12319   */\n      dup2\n        /* \"#utility.yul\":12310:12323   */\n      add\n        /* \"#utility.yul\":12301:12323   */\n      swap1\n      pop\n        /* \"#utility.yul\":12277:12397   */\n      jump(tag_250)\n    tag_252:\n        /* \"#utility.yul\":12217:12403   */\n      pop\n      pop\n      jump\t// out\n        /* \"#utility.yul\":12409:12952   */\n    tag_115:\n        /* \"#utility.yul\":12510:12512   */\n      0x1f\n        /* \"#utility.yul\":12505:12508   */\n      dup3\n        /* \"#utility.yul\":12502:12513   */\n      gt\n        /* \"#utility.yul\":12499:12945   */\n      iszero\n      tag_255\n      jumpi\n        /* \"#utility.yul\":12544:12582   */\n      tag_256\n        /* \"#utility.yul\":12576:12581   */\n      dup2\n        /* \"#utility.yul\":12544:12582   */\n      tag_104\n      jump\t// in\n    tag_256:\n        /* \"#utility.yul\":12628:12657   */\n      tag_257\n        /* \"#utility.yul\":12646:12656   */\n      dup5\n        /* \"#utility.yul\":12628:12657   */\n      tag_105\n      jump\t// in\n    tag_257:\n        /* \"#utility.yul\":12618:12626   */\n      dup2\n        /* \"#utility.yul\":12614:12658   */\n      add\n        /* \"#utility.yul\":12811:12813   */\n      0x20\n        /* \"#utility.yul\":12799:12809   */\n      dup6\n        /* \"#utility.yul\":12796:12814   */\n      lt\n        /* \"#utility.yul\":12793:12842   */\n      iszero\n      tag_258\n      jumpi\n        /* \"#utility.yul\":12832:12840   */\n      dup2\n        /* \"#utility.yul\":12817:12840   */\n      swap1\n      pop\n        /* \"#utility.yul\":12793:12842   */\n    tag_258:\n        /* \"#utility.yul\":12855:12935   */\n      tag_259\n        /* \"#utility.yul\":12911:12933   */\n      tag_260\n        /* \"#utility.yul\":12929:12932   */\n      dup6\n        /* \"#utility.yul\":12911:12933   */\n      tag_105\n      jump\t// in\n    tag_260:\n        /* \"#utility.yul\":12901:12909   */\n      dup4\n        /* \"#utility.yul\":12897:12934   */\n      add\n        /* \"#utility.yul\":12884:12895   */\n      dup3\n        /* \"#utility.yul\":12855:12935   */\n      tag_114\n      jump\t// in\n    tag_259:\n        /* \"#utility.yul\":12514:12945   */\n      pop\n      pop\n        /* \"#utility.yul\":12499:12945   */\n    tag_255:\n        /* \"#utility.yul\":12409:12952   */\n      pop\n      pop\n      pop\n      jump\t// out\n        /* \"#utility.yul\":12958:13075   */\n    tag_116:\n        /* \"#utility.yul\":13012:13020   */\n      0x00\n        /* \"#utility.yul\":13062:13067   */\n      dup3\n        /* \"#utility.yul\":13056:13060   */\n      dup3\n        /* \"#utility.yul\":13052:13068   */\n      shr\n        /* \"#utility.yul\":13031:13068   */\n      swap1\n      pop\n        /* \"#utility.yul\":12958:13075   */\n      swap3\n      swap2\n      pop\n      pop\n      jump\t// out\n        /* \"#utility.yul\":13081:13250   */\n    tag_117:\n        /* \"#utility.yul\":13125:13131   */\n      0x00\n        /* \"#utility.yul\":13158:13209   */\n      tag_263\n        /* \"#utility.yul\":13206:13207   */\n      0x00\n        /* \"#utility.yul\":13202:13208   */\n      not\n        /* \"#utility.yul\":13194:13199   */\n      dup5\n        /* \"#utility.yul\":13191:13192   */\n      0x08\n        /* \"#utility.yul\":13187:13200   */\n      mul\n        /* \"#utility.yul\":13158:13209   */\n      tag_116\n      jump\t// in\n    tag_263:\n        /* \"#utility.yul\":13154:13210   */\n      not\n        /* \"#utility.yul\":13239:13243   */\n      dup1\n        /* \"#utility.yul\":13233:13237   */\n      dup4\n        /* \"#utility.yul\":13229:13244   */\n      and\n        /* \"#utility.yul\":13219:13244   */\n      swap2\n      pop\n        /* \"#utility.yul\":13132:13250   */\n      pop\n        /* \"#utility.yul\":13081:13250   */\n      swap3\n      swap2\n      pop\n      pop\n      jump\t// out\n        /* \"#utility.yul\":13255:13550   */\n    tag_118:\n        /* \"#utility.yul\":13331:13335   */\n      0x00\n        /* \"#utility.yul\":13477:13506   */\n      tag_265\n        /* \"#utility.yul\":13502:13505   */\n      dup4\n        /* \"#utility.yul\":13496:13500   */\n      dup4\n        /* \"#utility.yul\":13477:13506   */\n      tag_117\n      jump\t// in\n    tag_265:\n        /* \"#utility.yul\":13469:13506   */\n      swap2\n      pop\n        /* \"#utility.yul\":13539:13542   */\n      dup3\n        /* \"#utility.yul\":13536:13537   */\n      0x02\n        /* \"#utility.yul\":13532:13543   */\n      mul\n        /* \"#utility.yul\":13526:13530   */\n      dup3\n        /* \"#utility.yul\":13523:13544   */\n      or\n        /* \"#utility.yul\":13515:13544   */\n      swap1\n      pop\n        /* \"#utility.yul\":13255:13550   */\n      swap3\n      swap2\n      pop\n      pop\n      jump\t// out\n        /* \"#utility.yul\":13555:14950   */\n    tag_48:\n        /* \"#utility.yul\":13672:13709   */\n      tag_267\n        /* \"#utility.yul\":13705:13708   */\n      dup3\n        /* \"#utility.yul\":13672:13709   */\n      tag_70\n      jump\t// in\n    tag_267:\n        /* \"#utility.yul\":13774:13792   */\n      0xffffffffffffffff\n        /* \"#utility.yul\":13766:13772   */\n      dup2\n        /* \"#utility.yul\":13763:13793   */\n      gt\n        /* \"#utility.yul\":13760:13816   */\n      iszero\n      tag_268\n      jumpi\n        /* \"#utility.yul\":13796:13814   */\n      tag_269\n      tag_91\n      jump\t// in\n    tag_269:\n        /* \"#utility.yul\":13760:13816   */\n    tag_268:\n        /* \"#utility.yul\":13840:13878   */\n      tag_270\n        /* \"#utility.yul\":13872:13876   */\n      dup3\n        /* \"#utility.yul\":13866:13877   */\n      sload\n        /* \"#utility.yul\":13840:13878   */\n      tag_34\n      jump\t// in\n    tag_270:\n        /* \"#utility.yul\":13925:13992   */\n      tag_271\n        /* \"#utility.yul\":13985:13991   */\n      dup3\n        /* \"#utility.yul\":13977:13983   */\n      dup3\n        /* \"#utility.yul\":13971:13975   */\n      dup6\n        /* \"#utility.yul\":13925:13992   */\n      tag_115\n      jump\t// in\n    tag_271:\n        /* \"#utility.yul\":14019:14020   */\n      0x00\n        /* \"#utility.yul\":14043:14047   */\n      0x20\n        /* \"#utility.yul\":14030:14047   */\n      swap1\n      pop\n        /* \"#utility.yul\":14075:14077   */\n      0x1f\n        /* \"#utility.yul\":14067:14073   */\n      dup4\n        /* \"#utility.yul\":14064:14078   */\n      gt\n        /* \"#utility.yul\":14092:14093   */\n      0x01\n        /* \"#utility.yul\":14087:14705   */\n      dup2\n      eq\n      tag_273\n      jumpi\n        /* \"#utility.yul\":14749:14750   */\n      0x00\n        /* \"#utility.yul\":14766:14772   */\n      dup5\n        /* \"#utility.yul\":14763:14840   */\n      iszero\n      tag_274\n      jumpi\n        /* \"#utility.yul\":14815:14824   */\n      dup3\n        /* \"#utility.yul\":14810:14813   */\n      dup8\n        /* \"#utility.yul\":14806:14825   */\n      add\n        /* \"#utility.yul\":14800:14826   */\n      mload\n        /* \"#utility.yul\":14791:14826   */\n      swap1\n      pop\n        /* \"#utility.yul\":14763:14840   */\n    tag_274:\n        /* \"#utility.yul\":14866:14933   */\n      tag_275\n        /* \"#utility.yul\":14926:14932   */\n      dup6\n        /* \"#utility.yul\":14919:14924   */\n      dup3\n        /* \"#utility.yul\":14866:14933   */\n      tag_118\n      jump\t// in\n    tag_275:\n        /* \"#utility.yul\":14860:14864   */\n      dup7\n        /* \"#utility.yul\":14853:14934   */\n      sstore\n        /* \"#utility.yul\":14722:14944   */\n      pop\n        /* \"#utility.yul\":14057:14944   */\n      jump(tag_272)\n        /* \"#utility.yul\":14087:14705   */\n    tag_273:\n        /* \"#utility.yul\":14139:14143   */\n      0x1f\n        /* \"#utility.yul\":14135:14144   */\n      not\n        /* \"#utility.yul\":14127:14133   */\n      dup5\n        /* \"#utility.yul\":14123:14145   */\n      and\n        /* \"#utility.yul\":14173:14210   */\n      tag_276\n        /* \"#utility.yul\":14205:14209   */\n      dup7\n        /* \"#utility.yul\":14173:14210   */\n      tag_104\n      jump\t// in\n    tag_276:\n        /* \"#utility.yul\":14232:14233   */\n      0x00\n        /* \"#utility.yul\":14246:14454   */\n    tag_277:\n        /* \"#utility.yul\":14260:14267   */\n      dup3\n        /* \"#utility.yul\":14257:14258   */\n      dup2\n        /* \"#utility.yul\":14254:14268   */\n      lt\n        /* \"#utility.yul\":14246:14454   */\n      iszero\n      tag_279\n      jumpi\n        /* \"#utility.yul\":14339:14348   */\n      dup5\n        /* \"#utility.yul\":14334:14337   */\n      dup10\n        /* \"#utility.yul\":14330:14349   */\n      add\n        /* \"#utility.yul\":14324:14350   */\n      mload\n        /* \"#utility.yul\":14316:14322   */\n      dup3\n        /* \"#utility.yul\":14309:14351   */\n      sstore\n        /* \"#utility.yul\":14390:14391   */\n      0x01\n        /* \"#utility.yul\":14382:14388   */\n      dup3\n        /* \"#utility.yul\":14378:14392   */\n      add\n        /* \"#utility.yul\":14368:14392   */\n      swap2\n      pop\n        /* \"#utility.yul\":14437:14439   */\n      0x20\n        /* \"#utility.yul\":14426:14435   */\n      dup6\n        /* \"#utility.yul\":14422:14440   */\n      add\n        /* \"#utility.yul\":14409:14440   */\n      swap5\n      pop\n        /* \"#utility.yul\":14283:14287   */\n      0x20\n        /* \"#utility.yul\":14280:14281   */\n      dup2\n        /* \"#utility.yul\":14276:14288   */\n      add\n        /* \"#utility.yul\":14271:14288   */\n      swap1\n      pop\n        /* \"#utility.yul\":14246:14454   */\n      jump(tag_277)\n    tag_279:\n        /* \"#utility.yul\":14482:14488   */\n      dup7\n        /* \"#utility.yul\":14473:14480   */\n      dup4\n        /* \"#utility.yul\":14470:14489   */\n      lt\n        /* \"#utility.yul\":14467:14646   */\n      iszero\n      tag_280\n      jumpi\n        /* \"#utility.yul\":14540:14549   */\n      dup5\n        /* \"#utility.yul\":14535:14538   */\n      dup10\n        /* \"#utility.yul\":14531:14550   */\n      add\n        /* \"#utility.yul\":14525:14551   */\n      mload\n        /* \"#utility.yul\":14583:14631   */\n      tag_281\n        /* \"#utility.yul\":14625:14629   */\n      0x1f\n        /* \"#utility.yul\":14617:14623   */\n      dup10\n        /* \"#utility.yul\":14613:14630   */\n      and\n        /* \"#utility.yul\":14602:14611   */\n      dup3\n        /* \"#utility.yul\":14583:14631   */\n      tag_117\n      jump\t// in\n    tag_281:\n        /* \"#utility.yul\":14575:14581   */\n      dup4\n        /* \"#utility.yul\":14568:14632   */\n      sstore\n        /* \"#utility.yul\":14490:14646   */\n      pop\n        /* \"#utility.yul\":14467:14646   */\n    tag_280:\n        /* \"#utility.yul\":14692:14693   */\n      0x01\n        /* \"#utility.yul\":14688:14689   */\n      0x02\n        /* \"#utility.yul\":14680:14686   */\n      dup9\n        /* \"#utility.yul\":14676:14690   */\n      mul\n        /* \"#utility.yul\":14672:14694   */\n      add\n        /* \"#utility.yul\":14666:14670   */\n      dup9\n        /* \"#utility.yul\":14659:14695   */\n      sstore\n        /* \"#utility.yul\":14094:14705   */\n      pop\n      pop\n      pop\n        /* \"#utility.yul\":14057:14944   */\n    tag_272:\n      pop\n        /* \"#utility.yul\":13647:14950   */\n      pop\n      pop\n      pop\n        /* \"#utility.yul\":13555:14950   */\n      pop\n      pop\n      jump\t// out\n        /* \"#utility.yul\":14956:15136   */\n    tag_119:\n        /* \"#utility.yul\":15004:15081   */\n      0x4e487b7100000000000000000000000000000000000000000000000000000000\n        /* \"#utility.yul\":15001:15002   */\n      0x00\n        /* \"#utility.yul\":14994:15082   */\n      mstore\n        /* \"#utility.yul\":15101:15105   */\n      0x11\n        /* \"#utility.yul\":15098:15099   */\n      0x04\n        /* \"#utility.yul\":15091:15106   */\n      mstore\n        /* \"#utility.yul\":15125:15129   */\n      0x24\n        /* \"#utility.yul\":15122:15123   */\n      0x00\n        /* \"#utility.yul\":15115:15130   */\n      revert\n        /* \"#utility.yul\":15142:15375   */\n    tag_53:\n        /* \"#utility.yul\":15181:15184   */\n      0x00\n        /* \"#utility.yul\":15204:15228   */\n      tag_284\n        /* \"#utility.yul\":15222:15227   */\n      dup3\n        /* \"#utility.yul\":15204:15228   */\n      tag_81\n      jump\t// in\n    tag_284:\n        /* \"#utility.yul\":15195:15228   */\n      swap2\n      pop\n        /* \"#utility.yul\":15250:15316   */\n      0xffffffffffffffffffffffffffffffffffffffffffffffffffffffffffffffff\n        /* \"#utility.yul\":15243:15248   */\n      dup3\n        /* \"#utility.yul\":15240:15317   */\n      sub\n        /* \"#utility.yul\":15237:15340   */\n      tag_285\n      jumpi\n        /* \"#utility.yul\":15320:15338   */\n      tag_286\n      tag_119\n      jump\t// in\n    tag_286:\n        /* \"#utility.yul\":15237:15340   */\n    tag_285:\n        /* \"#utility.yul\":15367:15368   */\n      0x01\n        /* \"#utility.yul\":15360:15365   */\n      dup3\n        /* \"#utility.yul\":15356:15369   */\n      add\n        /* \"#utility.yul\":15349:15369   */\n      swap1\n      pop\n        /* \"#utility.yul\":15142:15375   */\n      swap2\n      swap1\n      pop\n      jump\t// out\n\n    auxdata: 0xa2646970667358221220e0c2a374a897acded6ed17cb34cb78aceec9fb46a9f617781b186982f860c35264736f6c63430008190033\n}\n",
				"bytecode": {
					"linkReferences": {},
					"object": "60806040525f6032553480156012575f80fd5b50610b8e806100205f395ff3fe608060405234801561000f575f80fd5b506004361061004a575f3560e01c8063d3fb3a9a1461004e578063df8eda7a1461006d578063fa29caa514610089578063fb26ee24146100ba575b5f80fd5b6100566100d8565b604051610064929190610535565b60405180910390f35b610087600480360381019061008291906106cb565b6101f0565b005b6100a3600480360381019061009e9190610725565b610257565b6040516100b19291906107a7565b60405180910390f35b6100c2610317565b6040516100cf91906107d5565b60405180910390f35b6100e061031d565b6100e8610345565b5f601981601980602002604051908101604052809291905f905b828210156101a35783820180546101189061081b565b80601f01602080910402602001604051908101604052809291908181526020018280546101449061081b565b801561018f5780601f106101665761010080835404028352916020019161018f565b820191905f5260205f20905b81548152906001019060200180831161017257829003601f168201915b505050505081526020019060010190610102565b505050509150806019806020026040519081016040528092919082601980156101e1576020028201915b8154815260200190600101908083116101cd575b50505050509050915091509091565b6019603254101561025357815f603254601981106102115761021061084b565b5b01908161021e9190610a15565b50806019603254601981106102365761023561084b565b5b018190555060325f81548092919061024d90610b11565b91905055505b5050565b60605f80836019811061026d5761026c61084b565b5b01601984601981106102825761028161084b565b5b01548180546102909061081b565b80601f01602080910402602001604051908101604052809291908181526020018280546102bc9061081b565b80156103075780601f106102de57610100808354040283529160200191610307565b820191905f5260205f20905b8154815290600101906020018083116102ea57829003601f168201915b5050505050915091509150915091565b60325481565b6040518061032001604052806019905b606081526020019060019003908161032d5790505090565b604051806103200160405280601990602082028036833780820191505090505090565b5f60199050919050565b5f81905092915050565b5f819050919050565b5f81519050919050565b5f82825260208201905092915050565b8281835e5f83830152505050565b5f601f19601f8301169050919050565b5f6103c782610385565b6103d1818561038f565b93506103e181856020860161039f565b6103ea816103ad565b840191505092915050565b5f61040083836103bd565b905092915050565b5f602082019050919050565b5f61041e82610368565b6104288185610372565b93508360208202850161043a8561037c565b805f5b85811015610475578484038952815161045685826103f5565b945061046183610408565b925060208a0199505060018101905061043d565b50829750879550505050505092915050565b5f60199050919050565b5f81905092915050565b5f819050919050565b5f819050919050565b6104b6816104a4565b82525050565b5f6104c783836104ad565b60208301905092915050565b5f602082019050919050565b6104e881610487565b6104f28184610491565b92506104fd8261049b565b805f5b8381101561052d57815161051487826104bc565b965061051f836104d3565b925050600181019050610500565b505050505050565b5f610340820190508181035f83015261054e8185610414565b905061055d60208301846104df565b9392505050565b5f604051905090565b5f80fd5b5f80fd5b5f80fd5b5f80fd5b7f4e487b71000000000000000000000000000000000000000000000000000000005f52604160045260245ffd5b6105b3826103ad565b810181811067ffffffffffffffff821117156105d2576105d161057d565b5b80604052505050565b5f6105e4610564565b90506105f082826105aa565b919050565b5f67ffffffffffffffff82111561060f5761060e61057d565b5b610618826103ad565b9050602081019050919050565b828183375f83830152505050565b5f610645610640846105f5565b6105db565b90508281526020810184848401111561066157610660610579565b5b61066c848285610625565b509392505050565b5f82601f83011261068857610687610575565b5b8135610698848260208601610633565b91505092915050565b6106aa816104a4565b81146106b4575f80fd5b50565b5f813590506106c5816106a1565b92915050565b5f80604083850312156106e1576106e061056d565b5b5f83013567ffffffffffffffff8111156106fe576106fd610571565b5b61070a85828601610674565b925050602061071b858286016106b7565b9150509250929050565b5f6020828403121561073a5761073961056d565b5b5f610747848285016106b7565b91505092915050565b5f82825260208201905092915050565b5f61076a82610385565b6107748185610750565b935061078481856020860161039f565b61078d816103ad565b840191505092915050565b6107a1816104a4565b82525050565b5f6040820190508181035f8301526107bf8185610760565b90506107ce6020830184610798565b9392505050565b5f6020820190506107e85f830184610798565b92915050565b7f4e487b71000000000000000000000000000000000000000000000000000000005f52602260045260245ffd5b5f600282049050600182168061083257607f821691505b602082108103610845576108446107ee565b5b50919050565b7f4e487b71000000000000000000000000000000000000000000000000000000005f52603260045260245ffd5b5f819050815f5260205f209050919050565b5f6020601f8301049050919050565b5f82821b905092915050565b5f600883026108d47fffffffffffffffffffffffffffffffffffffffffffffffffffffffffffffffff82610899565b6108de8683610899565b95508019841693508086168417925050509392505050565b5f819050919050565b5f61091961091461090f846104a4565b6108f6565b6104a4565b9050919050565b5f819050919050565b610932836108ff565b61094661093e82610920565b8484546108a5565b825550505050565b5f90565b61095a61094e565b610965818484610929565b505050565b5b818110156109885761097d5f82610952565b60018101905061096b565b5050565b601f8211156109cd5761099e81610878565b6109a78461088a565b810160208510156109b6578190505b6109ca6109c28561088a565b83018261096a565b50505b505050565b5f82821c905092915050565b5f6109ed5f19846008026109d2565b1980831691505092915050565b5f610a0583836109de565b9150826002028217905092915050565b610a1e82610385565b67ffffffffffffffff811115610a3757610a3661057d565b5b610a41825461081b565b610a4c82828561098c565b5f60209050601f831160018114610a7d575f8415610a6b578287015190505b610a7585826109fa565b865550610adc565b601f198416610a8b86610878565b5f5b82811015610ab257848901518255600182019150602085019450602081019050610a8d565b86831015610acf5784890151610acb601f8916826109de565b8355505b6001600288020188555050505b505050505050565b7f4e487b71000000000000000000000000000000000000000000000000000000005f52601160045260245ffd5b5f610b1b826104a4565b91507fffffffffffffffffffffffffffffffffffffffffffffffffffffffffffffffff8203610b4d57610b4c610ae4565b5b60018201905091905056fea2646970667358221220e0c2a374a897acded6ed17cb34cb78aceec9fb46a9f617781b186982f860c35264736f6c63430008190033",
					"opcodes": "PUSH1 0x80 PUSH1 0x40 MSTORE PUSH0 PUSH1 0x32 SSTORE CALLVALUE DUP1 ISZERO PUSH1 0x12 JUMPI PUSH0 DUP1 REVERT JUMPDEST POP PUSH2 0xB8E DUP1 PUSH2 0x20 PUSH0 CODECOPY PUSH0 RETURN INVALID PUSH1 0x80 PUSH1 0x40 MSTORE CALLVALUE DUP1 ISZERO PUSH2 0xF JUMPI PUSH0 DUP1 REVERT JUMPDEST POP PUSH1 0x4 CALLDATASIZE LT PUSH2 0x4A JUMPI PUSH0 CALLDATALOAD PUSH1 0xE0 SHR DUP1 PUSH4 0xD3FB3A9A EQ PUSH2 0x4E JUMPI DUP1 PUSH4 0xDF8EDA7A EQ PUSH2 0x6D JUMPI DUP1 PUSH4 0xFA29CAA5 EQ PUSH2 0x89 JUMPI DUP1 PUSH4 0xFB26EE24 EQ PUSH2 0xBA JUMPI JUMPDEST PUSH0 DUP1 REVERT JUMPDEST PUSH2 0x56 PUSH2 0xD8 JUMP JUMPDEST PUSH1 0x40 MLOAD PUSH2 0x64 SWAP3 SWAP2 SWAP1 PUSH2 0x535 JUMP JUMPDEST PUSH1 0x40 MLOAD DUP1 SWAP2 SUB SWAP1 RETURN JUMPDEST PUSH2 0x87 PUSH1 0x4 DUP1 CALLDATASIZE SUB DUP2 ADD SWAP1 PUSH2 0x82 SWAP2 SWAP1 PUSH2 0x6CB JUMP JUMPDEST PUSH2 0x1F0 JUMP JUMPDEST STOP JUMPDEST PUSH2 0xA3 PUSH1 0x4 DUP1 CALLDATASIZE SUB DUP2 ADD SWAP1 PUSH2 0x9E SWAP2 SWAP1 PUSH2 0x725 JUMP JUMPDEST PUSH2 0x257 JUMP JUMPDEST PUSH1 0x40 MLOAD PUSH2 0xB1 SWAP3 SWAP2 SWAP1 PUSH2 0x7A7 JUMP JUMPDEST PUSH1 0x40 MLOAD DUP1 SWAP2 SUB SWAP1 RETURN JUMPDEST PUSH2 0xC2 PUSH2 0x317 JUMP JUMPDEST PUSH1 0x40 MLOAD PUSH2 0xCF SWAP2 SWAP1 PUSH2 0x7D5 JUMP JUMPDEST PUSH1 0x40 MLOAD DUP1 SWAP2 SUB SWAP1 RETURN JUMPDEST PUSH2 0xE0 PUSH2 0x31D JUMP JUMPDEST PUSH2 0xE8 PUSH2 0x345 JUMP JUMPDEST PUSH0 PUSH1 0x19 DUP2 PUSH1 0x19 DUP1 PUSH1 0x20 MUL PUSH1 0x40 MLOAD SWAP1 DUP2 ADD PUSH1 0x40 MSTORE DUP1 SWAP3 SWAP2 SWAP1 PUSH0 SWAP1 JUMPDEST DUP3 DUP3 LT ISZERO PUSH2 0x1A3 JUMPI DUP4 DUP3 ADD DUP1 SLOAD PUSH2 0x118 SWAP1 PUSH2 0x81B JUMP JUMPDEST DUP1 PUSH1 0x1F ADD PUSH1 0x20 DUP1 SWAP2 DIV MUL PUSH1 0x20 ADD PUSH1 0x40 MLOAD SWAP1 DUP2 ADD PUSH1 0x40 MSTORE DUP1 SWAP3 SWAP2 SWAP1 DUP2 DUP2 MSTORE PUSH1 0x20 ADD DUP3 DUP1 SLOAD PUSH2 0x144 SWAP1 PUSH2 0x81B JUMP JUMPDEST DUP1 ISZERO PUSH2 0x18F JUMPI DUP1 PUSH1 0x1F LT PUSH2 0x166 JUMPI PUSH2 0x100 DUP1 DUP4 SLOAD DIV MUL DUP4 MSTORE SWAP2 PUSH1 0x20 ADD SWAP2 PUSH2 0x18F JUMP JUMPDEST DUP3 ADD SWAP2 SWAP1 PUSH0 MSTORE PUSH1 0x20 PUSH0 KECCAK256 SWAP1 JUMPDEST DUP2 SLOAD DUP2 MSTORE SWAP1 PUSH1 0x1 ADD SWAP1 PUSH1 0x20 ADD DUP1 DUP4 GT PUSH2 0x172 JUMPI DUP3 SWAP1 SUB PUSH1 0x1F AND DUP3 ADD SWAP2 JUMPDEST POP POP POP POP POP DUP2 MSTORE PUSH1 0x20 ADD SWAP1 PUSH1 0x1 ADD SWAP1 PUSH2 0x102 JUMP JUMPDEST POP POP POP POP SWAP2 POP DUP1 PUSH1 0x19 DUP1 PUSH1 0x20 MUL PUSH1 0x40 MLOAD SWAP1 DUP2 ADD PUSH1 0x40 MSTORE DUP1 SWAP3 SWAP2 SWAP1 DUP3 PUSH1 0x19 DUP1 ISZERO PUSH2 0x1E1 JUMPI PUSH1 0x20 MUL DUP3 ADD SWAP2 JUMPDEST DUP2 SLOAD DUP2 MSTORE PUSH1 0x20 ADD SWAP1 PUSH1 0x1 ADD SWAP1 DUP1 DUP4 GT PUSH2 0x1CD JUMPI JUMPDEST POP POP POP POP POP SWAP1 POP SWAP2 POP SWAP2 POP SWAP1 SWAP2 JUMP JUMPDEST PUSH1 0x19 PUSH1 0x32 SLOAD LT ISZERO PUSH2 0x253 JUMPI DUP2 PUSH0 PUSH1 0x32 SLOAD PUSH1 0x19 DUP2 LT PUSH2 0x211 JUMPI PUSH2 0x210 PUSH2 0x84B JUMP JUMPDEST JUMPDEST ADD SWAP1 DUP2 PUSH2 0x21E SWAP2 SWAP1 PUSH2 0xA15 JUMP JUMPDEST POP DUP1 PUSH1 0x19 PUSH1 0x32 SLOAD PUSH1 0x19 DUP2 LT PUSH2 0x236 JUMPI PUSH2 0x235 PUSH2 0x84B JUMP JUMPDEST JUMPDEST ADD DUP2 SWAP1 SSTORE POP PUSH1 0x32 PUSH0 DUP2 SLOAD DUP1 SWAP3 SWAP2 SWAP1 PUSH2 0x24D SWAP1 PUSH2 0xB11 JUMP JUMPDEST SWAP2 SWAP1 POP SSTORE POP JUMPDEST POP POP JUMP JUMPDEST PUSH1 0x60 PUSH0 DUP1 DUP4 PUSH1 0x19 DUP2 LT PUSH2 0x26D JUMPI PUSH2 0x26C PUSH2 0x84B JUMP JUMPDEST JUMPDEST ADD PUSH1 0x19 DUP5 PUSH1 0x19 DUP2 LT PUSH2 0x282 JUMPI PUSH2 0x281 PUSH2 0x84B JUMP JUMPDEST JUMPDEST ADD SLOAD DUP2 DUP1 SLOAD PUSH2 0x290 SWAP1 PUSH2 0x81B JUMP JUMPDEST DUP1 PUSH1 0x1F ADD PUSH1 0x20 DUP1 SWAP2 DIV MUL PUSH1 0x20 ADD PUSH1 0x40 MLOAD SWAP1 DUP2 ADD PUSH1 0x40 MSTORE DUP1 SWAP3 SWAP2 SWAP1 DUP2 DUP2 MSTORE PUSH1 0x20 ADD DUP3 DUP1 SLOAD PUSH2 0x2BC SWAP1 PUSH2 0x81B JUMP JUMPDEST DUP1 ISZERO PUSH2 0x307 JUMPI DUP1 PUSH1 0x1F LT PUSH2 0x2DE JUMPI PUSH2 0x100 DUP1 DUP4 SLOAD DIV MUL DUP4 MSTORE SWAP2 PUSH1 0x20 ADD SWAP2 PUSH2 0x307 JUMP JUMPDEST DUP3 ADD SWAP2 SWAP1 PUSH0 MSTORE PUSH1 0x20 PUSH0 KECCAK256 SWAP1 JUMPDEST DUP2 SLOAD DUP2 MSTORE SWAP1 PUSH1 0x1 ADD SWAP1 PUSH1 0x20 ADD DUP1 DUP4 GT PUSH2 0x2EA JUMPI DUP3 SWAP1 SUB PUSH1 0x1F AND DUP3 ADD SWAP2 JUMPDEST POP POP POP POP POP SWAP2 POP SWAP2 POP SWAP2 POP SWAP2 POP SWAP2 JUMP JUMPDEST PUSH1 0x32 SLOAD DUP2 JUMP JUMPDEST PUSH1 0x40 MLOAD DUP1 PUSH2 0x320 ADD PUSH1 0x40 MSTORE DUP1 PUSH1 0x19 SWAP1 JUMPDEST PUSH1 0x60 DUP2 MSTORE PUSH1 0x20 ADD SWAP1 PUSH1 0x1 SWAP1 SUB SWAP1 DUP2 PUSH2 0x32D JUMPI SWAP1 POP POP SWAP1 JUMP JUMPDEST PUSH1 0x40 MLOAD DUP1 PUSH2 0x320 ADD PUSH1 0x40 MSTORE DUP1 PUSH1 0x19 SWAP1 PUSH1 0x20 DUP3 MUL DUP1 CALLDATASIZE DUP4 CALLDATACOPY DUP1 DUP3 ADD SWAP2 POP POP SWAP1 POP POP SWAP1 JUMP JUMPDEST PUSH0 PUSH1 0x19 SWAP1 POP SWAP2 SWAP1 POP JUMP JUMPDEST PUSH0 DUP2 SWAP1 POP SWAP3 SWAP2 POP POP JUMP JUMPDEST PUSH0 DUP2 SWAP1 POP SWAP2 SWAP1 POP JUMP JUMPDEST PUSH0 DUP2 MLOAD SWAP1 POP SWAP2 SWAP1 POP JUMP JUMPDEST PUSH0 DUP3 DUP3 MSTORE PUSH1 0x20 DUP3 ADD SWAP1 POP SWAP3 SWAP2 POP POP JUMP JUMPDEST DUP3 DUP2 DUP4 MCOPY PUSH0 DUP4 DUP4 ADD MSTORE POP POP POP JUMP JUMPDEST PUSH0 PUSH1 0x1F NOT PUSH1 0x1F DUP4 ADD AND SWAP1 POP SWAP2 SWAP1 POP JUMP JUMPDEST PUSH0 PUSH2 0x3C7 DUP3 PUSH2 0x385 JUMP JUMPDEST PUSH2 0x3D1 DUP2 DUP6 PUSH2 0x38F JUMP JUMPDEST SWAP4 POP PUSH2 0x3E1 DUP2 DUP6 PUSH1 0x20 DUP7 ADD PUSH2 0x39F JUMP JUMPDEST PUSH2 0x3EA DUP2 PUSH2 0x3AD JUMP JUMPDEST DUP5 ADD SWAP2 POP POP SWAP3 SWAP2 POP POP JUMP JUMPDEST PUSH0 PUSH2 0x400 DUP4 DUP4 PUSH2 0x3BD JUMP JUMPDEST SWAP1 POP SWAP3 SWAP2 POP POP JUMP JUMPDEST PUSH0 PUSH1 0x20 DUP3 ADD SWAP1 POP SWAP2 SWAP1 POP JUMP JUMPDEST PUSH0 PUSH2 0x41E DUP3 PUSH2 0x368 JUMP JUMPDEST PUSH2 0x428 DUP2 DUP6 PUSH2 0x372 JUMP JUMPDEST SWAP4 POP DUP4 PUSH1 0x20 DUP3 MUL DUP6 ADD PUSH2 0x43A DUP6 PUSH2 0x37C JUMP JUMPDEST DUP1 PUSH0 JUMPDEST DUP6 DUP2 LT ISZERO PUSH2 0x475 JUMPI DUP5 DUP5 SUB DUP10 MSTORE DUP2 MLOAD PUSH2 0x456 DUP6 DUP3 PUSH2 0x3F5 JUMP JUMPDEST SWAP5 POP PUSH2 0x461 DUP4 PUSH2 0x408 JUMP JUMPDEST SWAP3 POP PUSH1 0x20 DUP11 ADD SWAP10 POP POP PUSH1 0x1 DUP2 ADD SWAP1 POP PUSH2 0x43D JUMP JUMPDEST POP DUP3 SWAP8 POP DUP8 SWAP6 POP POP POP POP POP POP SWAP3 SWAP2 POP POP JUMP JUMPDEST PUSH0 PUSH1 0x19 SWAP1 POP SWAP2 SWAP1 POP JUMP JUMPDEST PUSH0 DUP2 SWAP1 POP SWAP3 SWAP2 POP POP JUMP JUMPDEST PUSH0 DUP2 SWAP1 POP SWAP2 SWAP1 POP JUMP JUMPDEST PUSH0 DUP2 SWAP1 POP SWAP2 SWAP1 POP JUMP JUMPDEST PUSH2 0x4B6 DUP2 PUSH2 0x4A4 JUMP JUMPDEST DUP3 MSTORE POP POP JUMP JUMPDEST PUSH0 PUSH2 0x4C7 DUP4 DUP4 PUSH2 0x4AD JUMP JUMPDEST PUSH1 0x20 DUP4 ADD SWAP1 POP SWAP3 SWAP2 POP POP JUMP JUMPDEST PUSH0 PUSH1 0x20 DUP3 ADD SWAP1 POP SWAP2 SWAP1 POP JUMP JUMPDEST PUSH2 0x4E8 DUP2 PUSH2 0x487 JUMP JUMPDEST PUSH2 0x4F2 DUP2 DUP5 PUSH2 0x491 JUMP JUMPDEST SWAP3 POP PUSH2 0x4FD DUP3 PUSH2 0x49B JUMP JUMPDEST DUP1 PUSH0 JUMPDEST DUP4 DUP2 LT ISZERO PUSH2 0x52D JUMPI DUP2 MLOAD PUSH2 0x514 DUP8 DUP3 PUSH2 0x4BC JUMP JUMPDEST SWAP7 POP PUSH2 0x51F DUP4 PUSH2 0x4D3 JUMP JUMPDEST SWAP3 POP POP PUSH1 0x1 DUP2 ADD SWAP1 POP PUSH2 0x500 JUMP JUMPDEST POP POP POP POP POP POP JUMP JUMPDEST PUSH0 PUSH2 0x340 DUP3 ADD SWAP1 POP DUP2 DUP2 SUB PUSH0 DUP4 ADD MSTORE PUSH2 0x54E DUP2 DUP6 PUSH2 0x414 JUMP JUMPDEST SWAP1 POP PUSH2 0x55D PUSH1 0x20 DUP4 ADD DUP5 PUSH2 0x4DF JUMP JUMPDEST SWAP4 SWAP3 POP POP POP JUMP JUMPDEST PUSH0 PUSH1 0x40 MLOAD SWAP1 POP SWAP1 JUMP JUMPDEST PUSH0 DUP1 REVERT JUMPDEST PUSH0 DUP1 REVERT JUMPDEST PUSH0 DUP1 REVERT JUMPDEST PUSH0 DUP1 REVERT JUMPDEST PUSH32 0x4E487B7100000000000000000000000000000000000000000000000000000000 PUSH0 MSTORE PUSH1 0x41 PUSH1 0x4 MSTORE PUSH1 0x24 PUSH0 REVERT JUMPDEST PUSH2 0x5B3 DUP3 PUSH2 0x3AD JUMP JUMPDEST DUP2 ADD DUP2 DUP2 LT PUSH8 0xFFFFFFFFFFFFFFFF DUP3 GT OR ISZERO PUSH2 0x5D2 JUMPI PUSH2 0x5D1 PUSH2 0x57D JUMP JUMPDEST JUMPDEST DUP1 PUSH1 0x40 MSTORE POP POP POP JUMP JUMPDEST PUSH0 PUSH2 0x5E4 PUSH2 0x564 JUMP JUMPDEST SWAP1 POP PUSH2 0x5F0 DUP3 DUP3 PUSH2 0x5AA JUMP JUMPDEST SWAP2 SWAP1 POP JUMP JUMPDEST PUSH0 PUSH8 0xFFFFFFFFFFFFFFFF DUP3 GT ISZERO PUSH2 0x60F JUMPI PUSH2 0x60E PUSH2 0x57D JUMP JUMPDEST JUMPDEST PUSH2 0x618 DUP3 PUSH2 0x3AD JUMP JUMPDEST SWAP1 POP PUSH1 0x20 DUP2 ADD SWAP1 POP SWAP2 SWAP1 POP JUMP JUMPDEST DUP3 DUP2 DUP4 CALLDATACOPY PUSH0 DUP4 DUP4 ADD MSTORE POP POP POP JUMP JUMPDEST PUSH0 PUSH2 0x645 PUSH2 0x640 DUP5 PUSH2 0x5F5 JUMP JUMPDEST PUSH2 0x5DB JUMP JUMPDEST SWAP1 POP DUP3 DUP2 MSTORE PUSH1 0x20 DUP2 ADD DUP5 DUP5 DUP5 ADD GT ISZERO PUSH2 0x661 JUMPI PUSH2 0x660 PUSH2 0x579 JUMP JUMPDEST JUMPDEST PUSH2 0x66C DUP5 DUP3 DUP6 PUSH2 0x625 JUMP JUMPDEST POP SWAP4 SWAP3 POP POP POP JUMP JUMPDEST PUSH0 DUP3 PUSH1 0x1F DUP4 ADD SLT PUSH2 0x688 JUMPI PUSH2 0x687 PUSH2 0x575 JUMP JUMPDEST JUMPDEST DUP2 CALLDATALOAD PUSH2 0x698 DUP5 DUP3 PUSH1 0x20 DUP7 ADD PUSH2 0x633 JUMP JUMPDEST SWAP2 POP POP SWAP3 SWAP2 POP POP JUMP JUMPDEST PUSH2 0x6AA DUP2 PUSH2 0x4A4 JUMP JUMPDEST DUP2 EQ PUSH2 0x6B4 JUMPI PUSH0 DUP1 REVERT JUMPDEST POP JUMP JUMPDEST PUSH0 DUP2 CALLDATALOAD SWAP1 POP PUSH2 0x6C5 DUP2 PUSH2 0x6A1 JUMP JUMPDEST SWAP3 SWAP2 POP POP JUMP JUMPDEST PUSH0 DUP1 PUSH1 0x40 DUP4 DUP6 SUB SLT ISZERO PUSH2 0x6E1 JUMPI PUSH2 0x6E0 PUSH2 0x56D JUMP JUMPDEST JUMPDEST PUSH0 DUP4 ADD CALLDATALOAD PUSH8 0xFFFFFFFFFFFFFFFF DUP2 GT ISZERO PUSH2 0x6FE JUMPI PUSH2 0x6FD PUSH2 0x571 JUMP JUMPDEST JUMPDEST PUSH2 0x70A DUP6 DUP3 DUP7 ADD PUSH2 0x674 JUMP JUMPDEST SWAP3 POP POP PUSH1 0x20 PUSH2 0x71B DUP6 DUP3 DUP7 ADD PUSH2 0x6B7 JUMP JUMPDEST SWAP2 POP POP SWAP3 POP SWAP3 SWAP1 POP JUMP JUMPDEST PUSH0 PUSH1 0x20 DUP3 DUP5 SUB SLT ISZERO PUSH2 0x73A JUMPI PUSH2 0x739 PUSH2 0x56D JUMP JUMPDEST JUMPDEST PUSH0 PUSH2 0x747 DUP5 DUP3 DUP6 ADD PUSH2 0x6B7 JUMP JUMPDEST SWAP2 POP POP SWAP3 SWAP2 POP POP JUMP JUMPDEST PUSH0 DUP3 DUP3 MSTORE PUSH1 0x20 DUP3 ADD SWAP1 POP SWAP3 SWAP2 POP POP JUMP JUMPDEST PUSH0 PUSH2 0x76A DUP3 PUSH2 0x385 JUMP JUMPDEST PUSH2 0x774 DUP2 DUP6 PUSH2 0x750 JUMP JUMPDEST SWAP4 POP PUSH2 0x784 DUP2 DUP6 PUSH1 0x20 DUP7 ADD PUSH2 0x39F JUMP JUMPDEST PUSH2 0x78D DUP2 PUSH2 0x3AD JUMP JUMPDEST DUP5 ADD SWAP2 POP POP SWAP3 SWAP2 POP POP JUMP JUMPDEST PUSH2 0x7A1 DUP2 PUSH2 0x4A4 JUMP JUMPDEST DUP3 MSTORE POP POP JUMP JUMPDEST PUSH0 PUSH1 0x40 DUP3 ADD SWAP1 POP DUP2 DUP2 SUB PUSH0 DUP4 ADD MSTORE PUSH2 0x7BF DUP2 DUP6 PUSH2 0x760 JUMP JUMPDEST SWAP1 POP PUSH2 0x7CE PUSH1 0x20 DUP4 ADD DUP5 PUSH2 0x798 JUMP JUMPDEST SWAP4 SWAP3 POP POP POP JUMP JUMPDEST PUSH0 PUSH1 0x20 DUP3 ADD SWAP1 POP PUSH2 0x7E8 PUSH0 DUP4 ADD DUP5 PUSH2 0x798 JUMP JUMPDEST SWAP3 SWAP2 POP POP JUMP JUMPDEST PUSH32 0x4E487B7100000000000000000000000000000000000000000000000000000000 PUSH0 MSTORE PUSH1 0x22 PUSH1 0x4 MSTORE PUSH1 0x24 PUSH0 REVERT JUMPDEST PUSH0 PUSH1 0x2 DUP3 DIV SWAP1 POP PUSH1 0x1 DUP3 AND DUP1 PUSH2 0x832 JUMPI PUSH1 0x7F DUP3 AND SWAP2 POP JUMPDEST PUSH1 0x20 DUP3 LT DUP2 SUB PUSH2 0x845 JUMPI PUSH2 0x844 PUSH2 0x7EE JUMP JUMPDEST JUMPDEST POP SWAP2 SWAP1 POP JUMP JUMPDEST PUSH32 0x4E487B7100000000000000000000000000000000000000000000000000000000 PUSH0 MSTORE PUSH1 0x32 PUSH1 0x4 MSTORE PUSH1 0x24 PUSH0 REVERT JUMPDEST PUSH0 DUP2 SWAP1 POP DUP2 PUSH0 MSTORE PUSH1 0x20 PUSH0 KECCAK256 SWAP1 POP SWAP2 SWAP1 POP JUMP JUMPDEST PUSH0 PUSH1 0x20 PUSH1 0x1F DUP4 ADD DIV SWAP1 POP SWAP2 SWAP1 POP JUMP JUMPDEST PUSH0 DUP3 DUP3 SHL SWAP1 POP SWAP3 SWAP2 POP POP JUMP JUMPDEST PUSH0 PUSH1 0x8 DUP4 MUL PUSH2 0x8D4 PUSH32 0xFFFFFFFFFFFFFFFFFFFFFFFFFFFFFFFFFFFFFFFFFFFFFFFFFFFFFFFFFFFFFFFF DUP3 PUSH2 0x899 JUMP JUMPDEST PUSH2 0x8DE DUP7 DUP4 PUSH2 0x899 JUMP JUMPDEST SWAP6 POP DUP1 NOT DUP5 AND SWAP4 POP DUP1 DUP7 AND DUP5 OR SWAP3 POP POP POP SWAP4 SWAP3 POP POP POP JUMP JUMPDEST PUSH0 DUP2 SWAP1 POP SWAP2 SWAP1 POP JUMP JUMPDEST PUSH0 PUSH2 0x919 PUSH2 0x914 PUSH2 0x90F DUP5 PUSH2 0x4A4 JUMP JUMPDEST PUSH2 0x8F6 JUMP JUMPDEST PUSH2 0x4A4 JUMP JUMPDEST SWAP1 POP SWAP2 SWAP1 POP JUMP JUMPDEST PUSH0 DUP2 SWAP1 POP SWAP2 SWAP1 POP JUMP JUMPDEST PUSH2 0x932 DUP4 PUSH2 0x8FF JUMP JUMPDEST PUSH2 0x946 PUSH2 0x93E DUP3 PUSH2 0x920 JUMP JUMPDEST DUP5 DUP5 SLOAD PUSH2 0x8A5 JUMP JUMPDEST DUP3 SSTORE POP POP POP POP JUMP JUMPDEST PUSH0 SWAP1 JUMP JUMPDEST PUSH2 0x95A PUSH2 0x94E JUMP JUMPDEST PUSH2 0x965 DUP2 DUP5 DUP5 PUSH2 0x929 JUMP JUMPDEST POP POP POP JUMP JUMPDEST JUMPDEST DUP2 DUP2 LT ISZERO PUSH2 0x988 JUMPI PUSH2 0x97D PUSH0 DUP3 PUSH2 0x952 JUMP JUMPDEST PUSH1 0x1 DUP2 ADD SWAP1 POP PUSH2 0x96B JUMP JUMPDEST POP POP JUMP JUMPDEST PUSH1 0x1F DUP3 GT ISZERO PUSH2 0x9CD JUMPI PUSH2 0x99E DUP2 PUSH2 0x878 JUMP JUMPDEST PUSH2 0x9A7 DUP5 PUSH2 0x88A JUMP JUMPDEST DUP2 ADD PUSH1 0x20 DUP6 LT ISZERO PUSH2 0x9B6 JUMPI DUP2 SWAP1 POP JUMPDEST PUSH2 0x9CA PUSH2 0x9C2 DUP6 PUSH2 0x88A JUMP JUMPDEST DUP4 ADD DUP3 PUSH2 0x96A JUMP JUMPDEST POP POP JUMPDEST POP POP POP JUMP JUMPDEST PUSH0 DUP3 DUP3 SHR SWAP1 POP SWAP3 SWAP2 POP POP JUMP JUMPDEST PUSH0 PUSH2 0x9ED PUSH0 NOT DUP5 PUSH1 0x8 MUL PUSH2 0x9D2 JUMP JUMPDEST NOT DUP1 DUP4 AND SWAP2 POP POP SWAP3 SWAP2 POP POP JUMP JUMPDEST PUSH0 PUSH2 0xA05 DUP4 DUP4 PUSH2 0x9DE JUMP JUMPDEST SWAP2 POP DUP3 PUSH1 0x2 MUL DUP3 OR SWAP1 POP SWAP3 SWAP2 POP POP JUMP JUMPDEST PUSH2 0xA1E DUP3 PUSH2 0x385 JUMP JUMPDEST PUSH8 0xFFFFFFFFFFFFFFFF DUP2 GT ISZERO PUSH2 0xA37 JUMPI PUSH2 0xA36 PUSH2 0x57D JUMP JUMPDEST JUMPDEST PUSH2 0xA41 DUP3 SLOAD PUSH2 0x81B JUMP JUMPDEST PUSH2 0xA4C DUP3 DUP3 DUP6 PUSH2 0x98C JUMP JUMPDEST PUSH0 PUSH1 0x20 SWAP1 POP PUSH1 0x1F DUP4 GT PUSH1 0x1 DUP2 EQ PUSH2 0xA7D JUMPI PUSH0 DUP5 ISZERO PUSH2 0xA6B JUMPI DUP3 DUP8 ADD MLOAD SWAP1 POP JUMPDEST PUSH2 0xA75 DUP6 DUP3 PUSH2 0x9FA JUMP JUMPDEST DUP7 SSTORE POP PUSH2 0xADC JUMP JUMPDEST PUSH1 0x1F NOT DUP5 AND PUSH2 0xA8B DUP7 PUSH2 0x878 JUMP JUMPDEST PUSH0 JUMPDEST DUP3 DUP2 LT ISZERO PUSH2 0xAB2 JUMPI DUP5 DUP10 ADD MLOAD DUP3 SSTORE PUSH1 0x1 DUP3 ADD SWAP2 POP PUSH1 0x20 DUP6 ADD SWAP5 POP PUSH1 0x20 DUP2 ADD SWAP1 POP PUSH2 0xA8D JUMP JUMPDEST DUP7 DUP4 LT ISZERO PUSH2 0xACF JUMPI DUP5 DUP10 ADD MLOAD PUSH2 0xACB PUSH1 0x1F DUP10 AND DUP3 PUSH2 0x9DE JUMP JUMPDEST DUP4 SSTORE POP JUMPDEST PUSH1 0x1 PUSH1 0x2 DUP9 MUL ADD DUP9 SSTORE POP POP POP JUMPDEST POP POP POP POP POP POP JUMP JUMPDEST PUSH32 0x4E487B7100000000000000000000000000000000000000000000000000000000 PUSH0 MSTORE PUSH1 0x11 PUSH1 0x4 MSTORE PUSH1 0x24 PUSH0 REVERT JUMPDEST PUSH0 PUSH2 0xB1B DUP3 PUSH2 0x4A4 JUMP JUMPDEST SWAP2 POP PUSH32 0xFFFFFFFFFFFFFFFFFFFFFFFFFFFFFFFFFFFFFFFFFFFFFFFFFFFFFFFFFFFFFFFF DUP3 SUB PUSH2 0xB4D JUMPI PUSH2 0xB4C PUSH2 0xAE4 JUMP JUMPDEST JUMPDEST PUSH1 0x1 DUP3 ADD SWAP1 POP SWAP2 SWAP1 POP JUMP INVALID LOG2 PUSH5 0x6970667358 0x22 SLT KECCAK256 0xE0 0xC2 LOG3 PUSH21 0xA897ACDED6ED17CB34CB78ACEEC9FB46A9F617781B XOR PUSH10 0x82F860C35264736F6C63 NUMBER STOP ADDMOD NOT STOP CALLER "
				},
				"gasEstimates": {
					"creation": {
						"codeDepositCost": "591600",
						"executionCost": "5628",
						"totalCost": "597228"
					},
					"external": {
						"adiciona(string,uint256)": "infinite",
						"devuelve(uint256)": "infinite",
						"devuelveNombres()": "infinite",
						"nroPersonas()": "2469"
					}
				},
				"methodIdentifiers": {
					"adiciona(string,uint256)": "df8eda7a",
					"devuelve(uint256)": "fa29caa5",
					"devuelveNombres()": "d3fb3a9a",
					"nroPersonas()": "fb26ee24"
				}
			},
			"storageLayout": {
				"storage": [
					{
						"astId": 5,
						"contract": "Clase 02/pru1.sol:pru1",
						"label": "personas",
						"offset": 0,
						"slot": "0",
						"type": "t_array(t_string_storage)25_storage"
					},
					{
						"astId": 9,
						"contract": "Clase 02/pru1.sol:pru1",
						"label": "edad",
						"offset": 0,
						"slot": "25",
						"type": "t_array(t_uint256)25_storage"
					},
					{
						"astId": 12,
						"contract": "Clase 02/pru1.sol:pru1",
						"label": "nroPersonas",
						"offset": 0,
						"slot": "50",
						"type": "t_uint256"
					}
				],
				"types": {
					"t_array(t_string_storage)25_storage": {
						"base": "t_string_storage",
						"encoding": "inplace",
						"label": "string[25]",
						"numberOfBytes": "800"
					},
					"t_array(t_uint256)25_storage": {
						"base": "t_uint256",
						"encoding": "inplace",
						"label": "uint256[25]",
						"numberOfBytes": "800"
					},
					"t_string_storage": {
						"encoding": "bytes",
						"label": "string",
						"numberOfBytes": "32"
					},
					"t_uint256": {
						"encoding": "inplace",
						"label": "uint256",
						"numberOfBytes": "32"
					}
				}
			},
			"userdoc": {
				"kind": "user",
				"methods": {},
				"version": 1
			}
		}
	}
}