{
	"Clase 02/pru9.sol": {
		"pru9": {
			"abi": [
				{
					"inputs": [],
					"name": "cadena",
					"outputs": [
						{
							"internalType": "string",
							"name": "",
							"type": "string"
						}
					],
					"stateMutability": "view",
					"type": "function"
				},
				{
					"inputs": [],
					"name": "deposito",
					"outputs": [],
					"stateMutability": "payable",
					"type": "function"
				},
				{
					"inputs": [],
					"name": "getMon",
					"outputs": [
						{
							"internalType": "uint256",
							"name": "",
							"type": "uint256"
						}
					],
					"stateMutability": "view",
					"type": "function"
				},
				{
					"inputs": [
						{
							"internalType": "string",
							"name": "x",
							"type": "string"
						}
					],
					"name": "modifica1",
					"outputs": [],
					"stateMutability": "nonpayable",
					"type": "function"
				},
				{
					"inputs": [
						{
							"internalType": "string",
							"name": "x",
							"type": "string"
						}
					],
					"name": "modifica3",
					"outputs": [],
					"stateMutability": "nonpayable",
					"type": "function"
				},
				{
					"inputs": [],
					"name": "numero",
					"outputs": [
						{
							"internalType": "uint256",
							"name": "",
							"type": "uint256"
						}
					],
					"stateMutability": "view",
					"type": "function"
				},
				{
					"inputs": [
						{
							"internalType": "uint256",
							"name": "a",
							"type": "uint256"
						}
					],
					"name": "obtResult",
					"outputs": [
						{
							"internalType": "uint256",
							"name": "product",
							"type": "uint256"
						},
						{
							"internalType": "uint256",
							"name": "sum",
							"type": "uint256"
						}
					],
					"stateMutability": "view",
					"type": "function"
				},
				{
					"inputs": [
						{
							"internalType": "uint256",
							"name": "a",
							"type": "uint256"
						},
						{
							"internalType": "uint256",
							"name": "b",
							"type": "uint256"
						}
					],
					"name": "obtResult2",
					"outputs": [
						{
							"internalType": "uint256",
							"name": "product",
							"type": "uint256"
						},
						{
							"internalType": "uint256",
							"name": "sum",
							"type": "uint256"
						}
					],
					"stateMutability": "pure",
					"type": "function"
				}
			],
			"devdoc": {
				"kind": "dev",
				"methods": {},
				"version": 1
			},
			"evm": {
				"assembly": "    /* \"Clase 02/pru9.sol\":69:788  contract pru9 {... */\n  mstore(0x40, 0x80)\n    /* \"Clase 02/pru9.sol\":89:120  string public cadena = \"prueba\" */\n  mload(0x40)\n  dup1\n  0x40\n  add\n  0x40\n  mstore\n  dup1\n  0x06\n  dup2\n  mstore\n  0x20\n  add\n  0x7072756562610000000000000000000000000000000000000000000000000000\n  dup2\n  mstore\n  pop\n  0x00\n  swap1\n  dup2\n  tag_1\n  swap2\n  swap1\n  tag_2\n  jump\t// in\ntag_1:\n  pop\n    /* \"Clase 02/pru9.sol\":147:148  1 */\n  0x01\n    /* \"Clase 02/pru9.sol\":126:148  uint public numero = 1 */\n  dup1\n  sstore\n    /* \"Clase 02/pru9.sol\":69:788  contract pru9 {... */\n  callvalue\n  dup1\n  iszero\n  tag_3\n  jumpi\n  0x00\n  dup1\n  revert\ntag_3:\n  pop\n  jump(tag_4)\n    /* \"#utility.yul\":7:106   */\ntag_5:\n    /* \"#utility.yul\":59:65   */\n  0x00\n    /* \"#utility.yul\":93:98   */\n  dup2\n    /* \"#utility.yul\":87:99   */\n  mload\n    /* \"#utility.yul\":77:99   */\n  swap1\n  pop\n    /* \"#utility.yul\":7:106   */\n  swap2\n  swap1\n  pop\n  jump\t// out\n    /* \"#utility.yul\":112:292   */\ntag_6:\n    /* \"#utility.yul\":160:237   */\n  0x4e487b7100000000000000000000000000000000000000000000000000000000\n    /* \"#utility.yul\":157:158   */\n  0x00\n    /* \"#utility.yul\":150:238   */\n  mstore\n    /* \"#utility.yul\":257:261   */\n  0x41\n    /* \"#utility.yul\":254:255   */\n  0x04\n    /* \"#utility.yul\":247:262   */\n  mstore\n    /* \"#utility.yul\":281:285   */\n  0x24\n    /* \"#utility.yul\":278:279   */\n  0x00\n    /* \"#utility.yul\":271:286   */\n  revert\n    /* \"#utility.yul\":298:478   */\ntag_7:\n    /* \"#utility.yul\":346:423   */\n  0x4e487b7100000000000000000000000000000000000000000000000000000000\n    /* \"#utility.yul\":343:344   */\n  0x00\n    /* \"#utility.yul\":336:424   */\n  mstore\n    /* \"#utility.yul\":443:447   */\n  0x22\n    /* \"#utility.yul\":440:441   */\n  0x04\n    /* \"#utility.yul\":433:448   */\n  mstore\n    /* \"#utility.yul\":467:471   */\n  0x24\n    /* \"#utility.yul\":464:465   */\n  0x00\n    /* \"#utility.yul\":457:472   */\n  revert\n    /* \"#utility.yul\":484:804   */\ntag_8:\n    /* \"#utility.yul\":528:534   */\n  0x00\n    /* \"#utility.yul\":565:566   */\n  0x02\n    /* \"#utility.yul\":559:563   */\n  dup3\n    /* \"#utility.yul\":555:567   */\n  div\n    /* \"#utility.yul\":545:567   */\n  swap1\n  pop\n    /* \"#utility.yul\":612:613   */\n  0x01\n    /* \"#utility.yul\":606:610   */\n  dup3\n    /* \"#utility.yul\":602:614   */\n  and\n    /* \"#utility.yul\":633:651   */\n  dup1\n    /* \"#utility.yul\":623:704   */\n  tag_30\n  jumpi\n    /* \"#utility.yul\":689:693   */\n  0x7f\n    /* \"#utility.yul\":681:687   */\n  dup3\n    /* \"#utility.yul\":677:694   */\n  and\n    /* \"#utility.yul\":667:694   */\n  swap2\n  pop\n    /* \"#utility.yul\":623:704   */\ntag_30:\n    /* \"#utility.yul\":751:753   */\n  0x20\n    /* \"#utility.yul\":743:749   */\n  dup3\n    /* \"#utility.yul\":740:754   */\n  lt\n    /* \"#utility.yul\":720:738   */\n  dup2\n    /* \"#utility.yul\":717:755   */\n  sub\n    /* \"#utility.yul\":714:798   */\n  tag_31\n  jumpi\n    /* \"#utility.yul\":770:788   */\n  tag_32\n  tag_7\n  jump\t// in\ntag_32:\n    /* \"#utility.yul\":714:798   */\ntag_31:\n    /* \"#utility.yul\":535:804   */\n  pop\n    /* \"#utility.yul\":484:804   */\n  swap2\n  swap1\n  pop\n  jump\t// out\n    /* \"#utility.yul\":810:951   */\ntag_9:\n    /* \"#utility.yul\":859:863   */\n  0x00\n    /* \"#utility.yul\":882:885   */\n  dup2\n    /* \"#utility.yul\":874:885   */\n  swap1\n  pop\n    /* \"#utility.yul\":905:908   */\n  dup2\n    /* \"#utility.yul\":902:903   */\n  0x00\n    /* \"#utility.yul\":895:909   */\n  mstore\n    /* \"#utility.yul\":939:943   */\n  0x20\n    /* \"#utility.yul\":936:937   */\n  0x00\n    /* \"#utility.yul\":926:944   */\n  keccak256\n    /* \"#utility.yul\":918:944   */\n  swap1\n  pop\n    /* \"#utility.yul\":810:951   */\n  swap2\n  swap1\n  pop\n  jump\t// out\n    /* \"#utility.yul\":957:1050   */\ntag_10:\n    /* \"#utility.yul\":994:1000   */\n  0x00\n    /* \"#utility.yul\":1041:1043   */\n  0x20\n    /* \"#utility.yul\":1036:1038   */\n  0x1f\n    /* \"#utility.yul\":1029:1034   */\n  dup4\n    /* \"#utility.yul\":1025:1039   */\n  add\n    /* \"#utility.yul\":1021:1044   */\n  div\n    /* \"#utility.yul\":1011:1044   */\n  swap1\n  pop\n    /* \"#utility.yul\":957:1050   */\n  swap2\n  swap1\n  pop\n  jump\t// out\n    /* \"#utility.yul\":1056:1163   */\ntag_11:\n    /* \"#utility.yul\":1100:1108   */\n  0x00\n    /* \"#utility.yul\":1150:1155   */\n  dup3\n    /* \"#utility.yul\":1144:1148   */\n  dup3\n    /* \"#utility.yul\":1140:1156   */\n  shl\n    /* \"#utility.yul\":1119:1156   */\n  swap1\n  pop\n    /* \"#utility.yul\":1056:1163   */\n  swap3\n  swap2\n  pop\n  pop\n  jump\t// out\n    /* \"#utility.yul\":1169:1562   */\ntag_12:\n    /* \"#utility.yul\":1238:1244   */\n  0x00\n    /* \"#utility.yul\":1288:1289   */\n  0x08\n    /* \"#utility.yul\":1276:1286   */\n  dup4\n    /* \"#utility.yul\":1272:1290   */\n  mul\n    /* \"#utility.yul\":1311:1408   */\n  tag_37\n    /* \"#utility.yul\":1341:1407   */\n  0xffffffffffffffffffffffffffffffffffffffffffffffffffffffffffffffff\n    /* \"#utility.yul\":1330:1339   */\n  dup3\n    /* \"#utility.yul\":1311:1408   */\n  tag_11\n  jump\t// in\ntag_37:\n    /* \"#utility.yul\":1429:1468   */\n  tag_38\n    /* \"#utility.yul\":1459:1467   */\n  dup7\n    /* \"#utility.yul\":1448:1457   */\n  dup4\n    /* \"#utility.yul\":1429:1468   */\n  tag_11\n  jump\t// in\ntag_38:\n    /* \"#utility.yul\":1417:1468   */\n  swap6\n  pop\n    /* \"#utility.yul\":1501:1505   */\n  dup1\n    /* \"#utility.yul\":1497:1506   */\n  not\n    /* \"#utility.yul\":1490:1495   */\n  dup5\n    /* \"#utility.yul\":1486:1507   */\n  and\n    /* \"#utility.yul\":1477:1507   */\n  swap4\n  pop\n    /* \"#utility.yul\":1550:1554   */\n  dup1\n    /* \"#utility.yul\":1540:1548   */\n  dup7\n    /* \"#utility.yul\":1536:1555   */\n  and\n    /* \"#utility.yul\":1529:1534   */\n  dup5\n    /* \"#utility.yul\":1526:1556   */\n  or\n    /* \"#utility.yul\":1516:1556   */\n  swap3\n  pop\n    /* \"#utility.yul\":1245:1562   */\n  pop\n  pop\n    /* \"#utility.yul\":1169:1562   */\n  swap4\n  swap3\n  pop\n  pop\n  pop\n  jump\t// out\n    /* \"#utility.yul\":1568:1645   */\ntag_13:\n    /* \"#utility.yul\":1605:1612   */\n  0x00\n    /* \"#utility.yul\":1634:1639   */\n  dup2\n    /* \"#utility.yul\":1623:1639   */\n  swap1\n  pop\n    /* \"#utility.yul\":1568:1645   */\n  swap2\n  swap1\n  pop\n  jump\t// out\n    /* \"#utility.yul\":1651:1711   */\ntag_14:\n    /* \"#utility.yul\":1679:1682   */\n  0x00\n    /* \"#utility.yul\":1700:1705   */\n  dup2\n    /* \"#utility.yul\":1693:1705   */\n  swap1\n  pop\n    /* \"#utility.yul\":1651:1711   */\n  swap2\n  swap1\n  pop\n  jump\t// out\n    /* \"#utility.yul\":1717:1859   */\ntag_15:\n    /* \"#utility.yul\":1767:1776   */\n  0x00\n    /* \"#utility.yul\":1800:1853   */\n  tag_42\n    /* \"#utility.yul\":1818:1852   */\n  tag_43\n    /* \"#utility.yul\":1827:1851   */\n  tag_44\n    /* \"#utility.yul\":1845:1850   */\n  dup5\n    /* \"#utility.yul\":1827:1851   */\n  tag_13\n  jump\t// in\ntag_44:\n    /* \"#utility.yul\":1818:1852   */\n  tag_14\n  jump\t// in\ntag_43:\n    /* \"#utility.yul\":1800:1853   */\n  tag_13\n  jump\t// in\ntag_42:\n    /* \"#utility.yul\":1787:1853   */\n  swap1\n  pop\n    /* \"#utility.yul\":1717:1859   */\n  swap2\n  swap1\n  pop\n  jump\t// out\n    /* \"#utility.yul\":1865:1940   */\ntag_16:\n    /* \"#utility.yul\":1908:1911   */\n  0x00\n    /* \"#utility.yul\":1929:1934   */\n  dup2\n    /* \"#utility.yul\":1922:1934   */\n  swap1\n  pop\n    /* \"#utility.yul\":1865:1940   */\n  swap2\n  swap1\n  pop\n  jump\t// out\n    /* \"#utility.yul\":1946:2215   */\ntag_17:\n    /* \"#utility.yul\":2056:2095   */\n  tag_47\n    /* \"#utility.yul\":2087:2094   */\n  dup4\n    /* \"#utility.yul\":2056:2095   */\n  tag_15\n  jump\t// in\ntag_47:\n    /* \"#utility.yul\":2117:2208   */\n  tag_48\n    /* \"#utility.yul\":2166:2207   */\n  tag_49\n    /* \"#utility.yul\":2190:2206   */\n  dup3\n    /* \"#utility.yul\":2166:2207   */\n  tag_16\n  jump\t// in\ntag_49:\n    /* \"#utility.yul\":2158:2164   */\n  dup5\n    /* \"#utility.yul\":2151:2155   */\n  dup5\n    /* \"#utility.yul\":2145:2156   */\n  sload\n    /* \"#utility.yul\":2117:2208   */\n  tag_12\n  jump\t// in\ntag_48:\n    /* \"#utility.yul\":2111:2115   */\n  dup3\n    /* \"#utility.yul\":2104:2209   */\n  sstore\n    /* \"#utility.yul\":2022:2215   */\n  pop\n    /* \"#utility.yul\":1946:2215   */\n  pop\n  pop\n  pop\n  jump\t// out\n    /* \"#utility.yul\":2221:2294   */\ntag_18:\n    /* \"#utility.yul\":2266:2269   */\n  0x00\n    /* \"#utility.yul\":2221:2294   */\n  swap1\n  jump\t// out\n    /* \"#utility.yul\":2300:2489   */\ntag_19:\n    /* \"#utility.yul\":2377:2409   */\n  tag_52\n  tag_18\n  jump\t// in\ntag_52:\n    /* \"#utility.yul\":2418:2483   */\n  tag_53\n    /* \"#utility.yul\":2476:2482   */\n  dup2\n    /* \"#utility.yul\":2468:2474   */\n  dup5\n    /* \"#utility.yul\":2462:2466   */\n  dup5\n    /* \"#utility.yul\":2418:2483   */\n  tag_17\n  jump\t// in\ntag_53:\n    /* \"#utility.yul\":2353:2489   */\n  pop\n    /* \"#utility.yul\":2300:2489   */\n  pop\n  pop\n  jump\t// out\n    /* \"#utility.yul\":2495:2681   */\ntag_20:\n    /* \"#utility.yul\":2555:2675   */\ntag_55:\n    /* \"#utility.yul\":2572:2575   */\n  dup2\n    /* \"#utility.yul\":2565:2570   */\n  dup2\n    /* \"#utility.yul\":2562:2576   */\n  lt\n    /* \"#utility.yul\":2555:2675   */\n  iszero\n  tag_57\n  jumpi\n    /* \"#utility.yul\":2626:2665   */\n  tag_58\n    /* \"#utility.yul\":2663:2664   */\n  0x00\n    /* \"#utility.yul\":2656:2661   */\n  dup3\n    /* \"#utility.yul\":2626:2665   */\n  tag_19\n  jump\t// in\ntag_58:\n    /* \"#utility.yul\":2599:2600   */\n  0x01\n    /* \"#utility.yul\":2592:2597   */\n  dup2\n    /* \"#utility.yul\":2588:2601   */\n  add\n    /* \"#utility.yul\":2579:2601   */\n  swap1\n  pop\n    /* \"#utility.yul\":2555:2675   */\n  jump(tag_55)\ntag_57:\n    /* \"#utility.yul\":2495:2681   */\n  pop\n  pop\n  jump\t// out\n    /* \"#utility.yul\":2687:3230   */\ntag_21:\n    /* \"#utility.yul\":2788:2790   */\n  0x1f\n    /* \"#utility.yul\":2783:2786   */\n  dup3\n    /* \"#utility.yul\":2780:2791   */\n  gt\n    /* \"#utility.yul\":2777:3223   */\n  iszero\n  tag_60\n  jumpi\n    /* \"#utility.yul\":2822:2860   */\n  tag_61\n    /* \"#utility.yul\":2854:2859   */\n  dup2\n    /* \"#utility.yul\":2822:2860   */\n  tag_9\n  jump\t// in\ntag_61:\n    /* \"#utility.yul\":2906:2935   */\n  tag_62\n    /* \"#utility.yul\":2924:2934   */\n  dup5\n    /* \"#utility.yul\":2906:2935   */\n  tag_10\n  jump\t// in\ntag_62:\n    /* \"#utility.yul\":2896:2904   */\n  dup2\n    /* \"#utility.yul\":2892:2936   */\n  add\n    /* \"#utility.yul\":3089:3091   */\n  0x20\n    /* \"#utility.yul\":3077:3087   */\n  dup6\n    /* \"#utility.yul\":3074:3092   */\n  lt\n    /* \"#utility.yul\":3071:3120   */\n  iszero\n  tag_63\n  jumpi\n    /* \"#utility.yul\":3110:3118   */\n  dup2\n    /* \"#utility.yul\":3095:3118   */\n  swap1\n  pop\n    /* \"#utility.yul\":3071:3120   */\ntag_63:\n    /* \"#utility.yul\":3133:3213   */\n  tag_64\n    /* \"#utility.yul\":3189:3211   */\n  tag_65\n    /* \"#utility.yul\":3207:3210   */\n  dup6\n    /* \"#utility.yul\":3189:3211   */\n  tag_10\n  jump\t// in\ntag_65:\n    /* \"#utility.yul\":3179:3187   */\n  dup4\n    /* \"#utility.yul\":3175:3212   */\n  add\n    /* \"#utility.yul\":3162:3173   */\n  dup3\n    /* \"#utility.yul\":3133:3213   */\n  tag_20\n  jump\t// in\ntag_64:\n    /* \"#utility.yul\":2792:3223   */\n  pop\n  pop\n    /* \"#utility.yul\":2777:3223   */\ntag_60:\n    /* \"#utility.yul\":2687:3230   */\n  pop\n  pop\n  pop\n  jump\t// out\n    /* \"#utility.yul\":3236:3353   */\ntag_22:\n    /* \"#utility.yul\":3290:3298   */\n  0x00\n    /* \"#utility.yul\":3340:3345   */\n  dup3\n    /* \"#utility.yul\":3334:3338   */\n  dup3\n    /* \"#utility.yul\":3330:3346   */\n  shr\n    /* \"#utility.yul\":3309:3346   */\n  swap1\n  pop\n    /* \"#utility.yul\":3236:3353   */\n  swap3\n  swap2\n  pop\n  pop\n  jump\t// out\n    /* \"#utility.yul\":3359:3528   */\ntag_23:\n    /* \"#utility.yul\":3403:3409   */\n  0x00\n    /* \"#utility.yul\":3436:3487   */\n  tag_68\n    /* \"#utility.yul\":3484:3485   */\n  0x00\n    /* \"#utility.yul\":3480:3486   */\n  not\n    /* \"#utility.yul\":3472:3477   */\n  dup5\n    /* \"#utility.yul\":3469:3470   */\n  0x08\n    /* \"#utility.yul\":3465:3478   */\n  mul\n    /* \"#utility.yul\":3436:3487   */\n  tag_22\n  jump\t// in\ntag_68:\n    /* \"#utility.yul\":3432:3488   */\n  not\n    /* \"#utility.yul\":3517:3521   */\n  dup1\n    /* \"#utility.yul\":3511:3515   */\n  dup4\n    /* \"#utility.yul\":3507:3522   */\n  and\n    /* \"#utility.yul\":3497:3522   */\n  swap2\n  pop\n    /* \"#utility.yul\":3410:3528   */\n  pop\n    /* \"#utility.yul\":3359:3528   */\n  swap3\n  swap2\n  pop\n  pop\n  jump\t// out\n    /* \"#utility.yul\":3533:3828   */\ntag_24:\n    /* \"#utility.yul\":3609:3613   */\n  0x00\n    /* \"#utility.yul\":3755:3784   */\n  tag_70\n    /* \"#utility.yul\":3780:3783   */\n  dup4\n    /* \"#utility.yul\":3774:3778   */\n  dup4\n    /* \"#utility.yul\":3755:3784   */\n  tag_23\n  jump\t// in\ntag_70:\n    /* \"#utility.yul\":3747:3784   */\n  swap2\n  pop\n    /* \"#utility.yul\":3817:3820   */\n  dup3\n    /* \"#utility.yul\":3814:3815   */\n  0x02\n    /* \"#utility.yul\":3810:3821   */\n  mul\n    /* \"#utility.yul\":3804:3808   */\n  dup3\n    /* \"#utility.yul\":3801:3822   */\n  or\n    /* \"#utility.yul\":3793:3822   */\n  swap1\n  pop\n    /* \"#utility.yul\":3533:3828   */\n  swap3\n  swap2\n  pop\n  pop\n  jump\t// out\n    /* \"#utility.yul\":3833:5228   */\ntag_2:\n    /* \"#utility.yul\":3950:3987   */\n  tag_72\n    /* \"#utility.yul\":3983:3986   */\n  dup3\n    /* \"#utility.yul\":3950:3987   */\n  tag_5\n  jump\t// in\ntag_72:\n    /* \"#utility.yul\":4052:4070   */\n  0xffffffffffffffff\n    /* \"#utility.yul\":4044:4050   */\n  dup2\n    /* \"#utility.yul\":4041:4071   */\n  gt\n    /* \"#utility.yul\":4038:4094   */\n  iszero\n  tag_73\n  jumpi\n    /* \"#utility.yul\":4074:4092   */\n  tag_74\n  tag_6\n  jump\t// in\ntag_74:\n    /* \"#utility.yul\":4038:4094   */\ntag_73:\n    /* \"#utility.yul\":4118:4156   */\n  tag_75\n    /* \"#utility.yul\":4150:4154   */\n  dup3\n    /* \"#utility.yul\":4144:4155   */\n  sload\n    /* \"#utility.yul\":4118:4156   */\n  tag_8\n  jump\t// in\ntag_75:\n    /* \"#utility.yul\":4203:4270   */\n  tag_76\n    /* \"#utility.yul\":4263:4269   */\n  dup3\n    /* \"#utility.yul\":4255:4261   */\n  dup3\n    /* \"#utility.yul\":4249:4253   */\n  dup6\n    /* \"#utility.yul\":4203:4270   */\n  tag_21\n  jump\t// in\ntag_76:\n    /* \"#utility.yul\":4297:4298   */\n  0x00\n    /* \"#utility.yul\":4321:4325   */\n  0x20\n    /* \"#utility.yul\":4308:4325   */\n  swap1\n  pop\n    /* \"#utility.yul\":4353:4355   */\n  0x1f\n    /* \"#utility.yul\":4345:4351   */\n  dup4\n    /* \"#utility.yul\":4342:4356   */\n  gt\n    /* \"#utility.yul\":4370:4371   */\n  0x01\n    /* \"#utility.yul\":4365:4983   */\n  dup2\n  eq\n  tag_78\n  jumpi\n    /* \"#utility.yul\":5027:5028   */\n  0x00\n    /* \"#utility.yul\":5044:5050   */\n  dup5\n    /* \"#utility.yul\":5041:5118   */\n  iszero\n  tag_79\n  jumpi\n    /* \"#utility.yul\":5093:5102   */\n  dup3\n    /* \"#utility.yul\":5088:5091   */\n  dup8\n    /* \"#utility.yul\":5084:5103   */\n  add\n    /* \"#utility.yul\":5078:5104   */\n  mload\n    /* \"#utility.yul\":5069:5104   */\n  swap1\n  pop\n    /* \"#utility.yul\":5041:5118   */\ntag_79:\n    /* \"#utility.yul\":5144:5211   */\n  tag_80\n    /* \"#utility.yul\":5204:5210   */\n  dup6\n    /* \"#utility.yul\":5197:5202   */\n  dup3\n    /* \"#utility.yul\":5144:5211   */\n  tag_24\n  jump\t// in\ntag_80:\n    /* \"#utility.yul\":5138:5142   */\n  dup7\n    /* \"#utility.yul\":5131:5212   */\n  sstore\n    /* \"#utility.yul\":5000:5222   */\n  pop\n    /* \"#utility.yul\":4335:5222   */\n  jump(tag_77)\n    /* \"#utility.yul\":4365:4983   */\ntag_78:\n    /* \"#utility.yul\":4417:4421   */\n  0x1f\n    /* \"#utility.yul\":4413:4422   */\n  not\n    /* \"#utility.yul\":4405:4411   */\n  dup5\n    /* \"#utility.yul\":4401:4423   */\n  and\n    /* \"#utility.yul\":4451:4488   */\n  tag_81\n    /* \"#utility.yul\":4483:4487   */\n  dup7\n    /* \"#utility.yul\":4451:4488   */\n  tag_9\n  jump\t// in\ntag_81:\n    /* \"#utility.yul\":4510:4511   */\n  0x00\n    /* \"#utility.yul\":4524:4732   */\ntag_82:\n    /* \"#utility.yul\":4538:4545   */\n  dup3\n    /* \"#utility.yul\":4535:4536   */\n  dup2\n    /* \"#utility.yul\":4532:4546   */\n  lt\n    /* \"#utility.yul\":4524:4732   */\n  iszero\n  tag_84\n  jumpi\n    /* \"#utility.yul\":4617:4626   */\n  dup5\n    /* \"#utility.yul\":4612:4615   */\n  dup10\n    /* \"#utility.yul\":4608:4627   */\n  add\n    /* \"#utility.yul\":4602:4628   */\n  mload\n    /* \"#utility.yul\":4594:4600   */\n  dup3\n    /* \"#utility.yul\":4587:4629   */\n  sstore\n    /* \"#utility.yul\":4668:4669   */\n  0x01\n    /* \"#utility.yul\":4660:4666   */\n  dup3\n    /* \"#utility.yul\":4656:4670   */\n  add\n    /* \"#utility.yul\":4646:4670   */\n  swap2\n  pop\n    /* \"#utility.yul\":4715:4717   */\n  0x20\n    /* \"#utility.yul\":4704:4713   */\n  dup6\n    /* \"#utility.yul\":4700:4718   */\n  add\n    /* \"#utility.yul\":4687:4718   */\n  swap5\n  pop\n    /* \"#utility.yul\":4561:4565   */\n  0x20\n    /* \"#utility.yul\":4558:4559   */\n  dup2\n    /* \"#utility.yul\":4554:4566   */\n  add\n    /* \"#utility.yul\":4549:4566   */\n  swap1\n  pop\n    /* \"#utility.yul\":4524:4732   */\n  jump(tag_82)\ntag_84:\n    /* \"#utility.yul\":4760:4766   */\n  dup7\n    /* \"#utility.yul\":4751:4758   */\n  dup4\n    /* \"#utility.yul\":4748:4767   */\n  lt\n    /* \"#utility.yul\":4745:4924   */\n  iszero\n  tag_85\n  jumpi\n    /* \"#utility.yul\":4818:4827   */\n  dup5\n    /* \"#utility.yul\":4813:4816   */\n  dup10\n    /* \"#utility.yul\":4809:4828   */\n  add\n    /* \"#utility.yul\":4803:4829   */\n  mload\n    /* \"#utility.yul\":4861:4909   */\n  tag_86\n    /* \"#utility.yul\":4903:4907   */\n  0x1f\n    /* \"#utility.yul\":4895:4901   */\n  dup10\n    /* \"#utility.yul\":4891:4908   */\n  and\n    /* \"#utility.yul\":4880:4889   */\n  dup3\n    /* \"#utility.yul\":4861:4909   */\n  tag_23\n  jump\t// in\ntag_86:\n    /* \"#utility.yul\":4853:4859   */\n  dup4\n    /* \"#utility.yul\":4846:4910   */\n  sstore\n    /* \"#utility.yul\":4768:4924   */\n  pop\n    /* \"#utility.yul\":4745:4924   */\ntag_85:\n    /* \"#utility.yul\":4970:4971   */\n  0x01\n    /* \"#utility.yul\":4966:4967   */\n  0x02\n    /* \"#utility.yul\":4958:4964   */\n  dup9\n    /* \"#utility.yul\":4954:4968   */\n  mul\n    /* \"#utility.yul\":4950:4972   */\n  add\n    /* \"#utility.yul\":4944:4948   */\n  dup9\n    /* \"#utility.yul\":4937:4973   */\n  sstore\n    /* \"#utility.yul\":4372:4983   */\n  pop\n  pop\n  pop\n    /* \"#utility.yul\":4335:5222   */\ntag_77:\n  pop\n    /* \"#utility.yul\":3925:5228   */\n  pop\n  pop\n  pop\n    /* \"#utility.yul\":3833:5228   */\n  pop\n  pop\n  jump\t// out\n    /* \"Clase 02/pru9.sol\":69:788  contract pru9 {... */\ntag_4:\n  dataSize(sub_0)\n  dup1\n  dataOffset(sub_0)\n  0x00\n  codecopy\n  0x00\n  return\nstop\n\nsub_0: assembly {\n        /* \"Clase 02/pru9.sol\":69:788  contract pru9 {... */\n      mstore(0x40, 0x80)\n      jumpi(tag_1, lt(calldatasize, 0x04))\n      shr(0xe0, calldataload(0x00))\n      dup1\n      0x91f5de38\n      gt\n      tag_10\n      jumpi\n      dup1\n      0x91f5de38\n      eq\n      tag_6\n      jumpi\n      dup1\n      0xb592f484\n      eq\n      tag_7\n      jumpi\n      dup1\n      0xbe56daed\n      eq\n      tag_8\n      jumpi\n      dup1\n      0xe5484ae4\n      eq\n      tag_9\n      jumpi\n      jump(tag_1)\n    tag_10:\n      dup1\n      0x096f6663\n      eq\n      tag_2\n      jumpi\n      dup1\n      0x0e428757\n      eq\n      tag_3\n      jumpi\n      dup1\n      0x7af327a0\n      eq\n      tag_4\n      jumpi\n      dup1\n      0x8f0aa695\n      eq\n      tag_5\n      jumpi\n    tag_1:\n      0x00\n      dup1\n      revert\n        /* \"Clase 02/pru9.sol\":307:378  function modifica3(string memory x) public {... */\n    tag_2:\n      callvalue\n      dup1\n      iszero\n      tag_11\n      jumpi\n      0x00\n      dup1\n      revert\n    tag_11:\n      pop\n      tag_12\n      0x04\n      dup1\n      calldatasize\n      sub\n      dup2\n      add\n      swap1\n      tag_13\n      swap2\n      swap1\n      tag_14\n      jump\t// in\n    tag_13:\n      tag_15\n      jump\t// in\n    tag_12:\n      stop\n        /* \"Clase 02/pru9.sol\":89:120  string public cadena = \"prueba\" */\n    tag_3:\n      callvalue\n      dup1\n      iszero\n      tag_16\n      jumpi\n      0x00\n      dup1\n      revert\n    tag_16:\n      pop\n      tag_17\n      tag_18\n      jump\t// in\n    tag_17:\n      mload(0x40)\n      tag_19\n      swap2\n      swap1\n      tag_20\n      jump\t// in\n    tag_19:\n      mload(0x40)\n      dup1\n      swap2\n      sub\n      swap1\n      return\n        /* \"Clase 02/pru9.sol\":648:693  function deposito() public payable{... */\n    tag_4:\n      tag_21\n      tag_22\n      jump\t// in\n    tag_21:\n      stop\n        /* \"Clase 02/pru9.sol\":154:225  function modifica1(string memory x) public  {... */\n    tag_5:\n      callvalue\n      dup1\n      iszero\n      tag_23\n      jumpi\n      0x00\n      dup1\n      revert\n    tag_23:\n      pop\n      tag_24\n      0x04\n      dup1\n      calldatasize\n      sub\n      dup2\n      add\n      swap1\n      tag_25\n      swap2\n      swap1\n      tag_14\n      jump\t// in\n    tag_25:\n      tag_26\n      jump\t// in\n    tag_24:\n      stop\n        /* \"Clase 02/pru9.sol\":126:148  uint public numero = 1 */\n    tag_6:\n      callvalue\n      dup1\n      iszero\n      tag_27\n      jumpi\n      0x00\n      dup1\n      revert\n    tag_27:\n      pop\n      tag_28\n      tag_29\n      jump\t// in\n    tag_28:\n      mload(0x40)\n      tag_30\n      swap2\n      swap1\n      tag_31\n      jump\t// in\n    tag_30:\n      mload(0x40)\n      dup1\n      swap2\n      sub\n      swap1\n      return\n        /* \"Clase 02/pru9.sol\":697:786  function getMon() public view returns(uint)  {... */\n    tag_7:\n      callvalue\n      dup1\n      iszero\n      tag_32\n      jumpi\n      0x00\n      dup1\n      revert\n    tag_32:\n      pop\n      tag_33\n      tag_34\n      jump\t// in\n    tag_33:\n      mload(0x40)\n      tag_35\n      swap2\n      swap1\n      tag_31\n      jump\t// in\n    tag_35:\n      mload(0x40)\n      dup1\n      swap2\n      sub\n      swap1\n      return\n        /* \"Clase 02/pru9.sol\":383:512  function obtResult(uint a) public view returns(uint product, uint sum){... */\n    tag_8:\n      callvalue\n      dup1\n      iszero\n      tag_36\n      jumpi\n      0x00\n      dup1\n      revert\n    tag_36:\n      pop\n      tag_37\n      0x04\n      dup1\n      calldatasize\n      sub\n      dup2\n      add\n      swap1\n      tag_38\n      swap2\n      swap1\n      tag_39\n      jump\t// in\n    tag_38:\n      tag_40\n      jump\t// in\n    tag_37:\n      mload(0x40)\n      tag_41\n      swap3\n      swap2\n      swap1\n      tag_42\n      jump\t// in\n    tag_41:\n      mload(0x40)\n      dup1\n      swap2\n      sub\n      swap1\n      return\n        /* \"Clase 02/pru9.sol\":516:644  function obtResult2(uint a, uint b) public pure returns(uint product, uint sum){... */\n    tag_9:\n      callvalue\n      dup1\n      iszero\n      tag_43\n      jumpi\n      0x00\n      dup1\n      revert\n    tag_43:\n      pop\n      tag_44\n      0x04\n      dup1\n      calldatasize\n      sub\n      dup2\n      add\n      swap1\n      tag_45\n      swap2\n      swap1\n      tag_46\n      jump\t// in\n    tag_45:\n      tag_47\n      jump\t// in\n    tag_44:\n      mload(0x40)\n      tag_48\n      swap3\n      swap2\n      swap1\n      tag_42\n      jump\t// in\n    tag_48:\n      mload(0x40)\n      dup1\n      swap2\n      sub\n      swap1\n      return\n        /* \"Clase 02/pru9.sol\":307:378  function modifica3(string memory x) public {... */\n    tag_15:\n        /* \"Clase 02/pru9.sol\":359:371  modifica2(x) */\n      tag_50\n        /* \"Clase 02/pru9.sol\":369:370  x */\n      dup2\n        /* \"Clase 02/pru9.sol\":359:368  modifica2 */\n      tag_51\n        /* \"Clase 02/pru9.sol\":359:371  modifica2(x) */\n      jump\t// in\n    tag_50:\n        /* \"Clase 02/pru9.sol\":307:378  function modifica3(string memory x) public {... */\n      pop\n      jump\t// out\n        /* \"Clase 02/pru9.sol\":89:120  string public cadena = \"prueba\" */\n    tag_18:\n      0x00\n      dup1\n      sload\n      tag_52\n      swap1\n      tag_53\n      jump\t// in\n    tag_52:\n      dup1\n      0x1f\n      add\n      0x20\n      dup1\n      swap2\n      div\n      mul\n      0x20\n      add\n      mload(0x40)\n      swap1\n      dup2\n      add\n      0x40\n      mstore\n      dup1\n      swap3\n      swap2\n      swap1\n      dup2\n      dup2\n      mstore\n      0x20\n      add\n      dup3\n      dup1\n      sload\n      tag_54\n      swap1\n      tag_53\n      jump\t// in\n    tag_54:\n      dup1\n      iszero\n      tag_55\n      jumpi\n      dup1\n      0x1f\n      lt\n      tag_56\n      jumpi\n      0x0100\n      dup1\n      dup4\n      sload\n      div\n      mul\n      dup4\n      mstore\n      swap2\n      0x20\n      add\n      swap2\n      jump(tag_55)\n    tag_56:\n      dup3\n      add\n      swap2\n      swap1\n      0x00\n      mstore\n      keccak256(0x00, 0x20)\n      swap1\n    tag_57:\n      dup2\n      sload\n      dup2\n      mstore\n      swap1\n      0x01\n      add\n      swap1\n      0x20\n      add\n      dup1\n      dup4\n      gt\n      tag_57\n      jumpi\n      dup3\n      swap1\n      sub\n      0x1f\n      and\n      dup3\n      add\n      swap2\n    tag_55:\n      pop\n      pop\n      pop\n      pop\n      pop\n      dup2\n      jump\t// out\n        /* \"Clase 02/pru9.sol\":648:693  function deposito() public payable{... */\n    tag_22:\n      jump\t// out\n        /* \"Clase 02/pru9.sol\":154:225  function modifica1(string memory x) public  {... */\n    tag_26:\n        /* \"Clase 02/pru9.sol\":217:218  x */\n      dup1\n        /* \"Clase 02/pru9.sol\":208:214  cadena */\n      0x00\n        /* \"Clase 02/pru9.sol\":208:218  cadena = x */\n      swap1\n      dup2\n      tag_60\n      swap2\n      swap1\n      tag_61\n      jump\t// in\n    tag_60:\n      pop\n        /* \"Clase 02/pru9.sol\":154:225  function modifica1(string memory x) public  {... */\n      pop\n      jump\t// out\n        /* \"Clase 02/pru9.sol\":126:148  uint public numero = 1 */\n    tag_29:\n      sload(0x01)\n      dup2\n      jump\t// out\n        /* \"Clase 02/pru9.sol\":697:786  function getMon() public view returns(uint)  {... */\n    tag_34:\n        /* \"Clase 02/pru9.sol\":735:739  uint */\n      0x00\n        /* \"Clase 02/pru9.sol\":759:780  address(this).balance */\n      selfbalance\n        /* \"Clase 02/pru9.sol\":752:780  return address(this).balance */\n      swap1\n      pop\n        /* \"Clase 02/pru9.sol\":697:786  function getMon() public view returns(uint)  {... */\n      swap1\n      jump\t// out\n        /* \"Clase 02/pru9.sol\":383:512  function obtResult(uint a) public view returns(uint product, uint sum){... */\n    tag_40:\n        /* \"Clase 02/pru9.sol\":430:442  uint product */\n      0x00\n        /* \"Clase 02/pru9.sol\":444:452  uint sum */\n      dup1\n        /* \"Clase 02/pru9.sol\":475:481  numero */\n      sload(0x01)\n        /* \"Clase 02/pru9.sol\":471:472  a */\n      dup4\n        /* \"Clase 02/pru9.sol\":471:481  a * numero */\n      tag_64\n      swap2\n      swap1\n      tag_65\n      jump\t// in\n    tag_64:\n        /* \"Clase 02/pru9.sol\":461:481  product = a * numero */\n      swap2\n      pop\n        /* \"Clase 02/pru9.sol\":499:505  numero */\n      sload(0x01)\n        /* \"Clase 02/pru9.sol\":495:496  a */\n      dup4\n        /* \"Clase 02/pru9.sol\":495:505  a + numero */\n      tag_66\n      swap2\n      swap1\n      tag_67\n      jump\t// in\n    tag_66:\n        /* \"Clase 02/pru9.sol\":489:505  sum = a + numero */\n      swap1\n      pop\n        /* \"Clase 02/pru9.sol\":383:512  function obtResult(uint a) public view returns(uint product, uint sum){... */\n      swap2\n      pop\n      swap2\n      jump\t// out\n        /* \"Clase 02/pru9.sol\":516:644  function obtResult2(uint a, uint b) public pure returns(uint product, uint sum){... */\n    tag_47:\n        /* \"Clase 02/pru9.sol\":572:584  uint product */\n      0x00\n        /* \"Clase 02/pru9.sol\":586:594  uint sum */\n      dup1\n        /* \"Clase 02/pru9.sol\":617:618  b */\n      dup3\n        /* \"Clase 02/pru9.sol\":613:614  a */\n      dup5\n        /* \"Clase 02/pru9.sol\":613:618  a * b */\n      tag_69\n      swap2\n      swap1\n      tag_65\n      jump\t// in\n    tag_69:\n        /* \"Clase 02/pru9.sol\":603:618  product = a * b */\n      swap2\n      pop\n        /* \"Clase 02/pru9.sol\":636:637  b */\n      dup3\n        /* \"Clase 02/pru9.sol\":632:633  a */\n      dup5\n        /* \"Clase 02/pru9.sol\":632:637  a + b */\n      tag_70\n      swap2\n      swap1\n      tag_67\n      jump\t// in\n    tag_70:\n        /* \"Clase 02/pru9.sol\":626:637  sum = a + b */\n      swap1\n      pop\n        /* \"Clase 02/pru9.sol\":516:644  function obtResult2(uint a, uint b) public pure returns(uint product, uint sum){... */\n      swap3\n      pop\n      swap3\n      swap1\n      pop\n      jump\t// out\n        /* \"Clase 02/pru9.sol\":230:302  function modifica2(string memory x) private  {... */\n    tag_51:\n        /* \"Clase 02/pru9.sol\":294:295  x */\n      dup1\n        /* \"Clase 02/pru9.sol\":285:291  cadena */\n      0x00\n        /* \"Clase 02/pru9.sol\":285:295  cadena = x */\n      swap1\n      dup2\n      tag_72\n      swap2\n      swap1\n      tag_61\n      jump\t// in\n    tag_72:\n      pop\n        /* \"Clase 02/pru9.sol\":230:302  function modifica2(string memory x) private  {... */\n      pop\n      jump\t// out\n        /* \"#utility.yul\":7:82   */\n    tag_73:\n        /* \"#utility.yul\":40:46   */\n      0x00\n        /* \"#utility.yul\":73:75   */\n      0x40\n        /* \"#utility.yul\":67:76   */\n      mload\n        /* \"#utility.yul\":57:76   */\n      swap1\n      pop\n        /* \"#utility.yul\":7:82   */\n      swap1\n      jump\t// out\n        /* \"#utility.yul\":88:205   */\n    tag_74:\n        /* \"#utility.yul\":197:198   */\n      0x00\n        /* \"#utility.yul\":194:195   */\n      dup1\n        /* \"#utility.yul\":187:199   */\n      revert\n        /* \"#utility.yul\":211:328   */\n    tag_75:\n        /* \"#utility.yul\":320:321   */\n      0x00\n        /* \"#utility.yul\":317:318   */\n      dup1\n        /* \"#utility.yul\":310:322   */\n      revert\n        /* \"#utility.yul\":334:451   */\n    tag_76:\n        /* \"#utility.yul\":443:444   */\n      0x00\n        /* \"#utility.yul\":440:441   */\n      dup1\n        /* \"#utility.yul\":433:445   */\n      revert\n        /* \"#utility.yul\":457:574   */\n    tag_77:\n        /* \"#utility.yul\":566:567   */\n      0x00\n        /* \"#utility.yul\":563:564   */\n      dup1\n        /* \"#utility.yul\":556:568   */\n      revert\n        /* \"#utility.yul\":580:682   */\n    tag_78:\n        /* \"#utility.yul\":621:627   */\n      0x00\n        /* \"#utility.yul\":672:674   */\n      0x1f\n        /* \"#utility.yul\":668:675   */\n      not\n        /* \"#utility.yul\":663:665   */\n      0x1f\n        /* \"#utility.yul\":656:661   */\n      dup4\n        /* \"#utility.yul\":652:666   */\n      add\n        /* \"#utility.yul\":648:676   */\n      and\n        /* \"#utility.yul\":638:676   */\n      swap1\n      pop\n        /* \"#utility.yul\":580:682   */\n      swap2\n      swap1\n      pop\n      jump\t// out\n        /* \"#utility.yul\":688:868   */\n    tag_79:\n        /* \"#utility.yul\":736:813   */\n      0x4e487b7100000000000000000000000000000000000000000000000000000000\n        /* \"#utility.yul\":733:734   */\n      0x00\n        /* \"#utility.yul\":726:814   */\n      mstore\n        /* \"#utility.yul\":833:837   */\n      0x41\n        /* \"#utility.yul\":830:831   */\n      0x04\n        /* \"#utility.yul\":823:838   */\n      mstore\n        /* \"#utility.yul\":857:861   */\n      0x24\n        /* \"#utility.yul\":854:855   */\n      0x00\n        /* \"#utility.yul\":847:862   */\n      revert\n        /* \"#utility.yul\":874:1155   */\n    tag_80:\n        /* \"#utility.yul\":957:984   */\n      tag_120\n        /* \"#utility.yul\":979:983   */\n      dup3\n        /* \"#utility.yul\":957:984   */\n      tag_78\n      jump\t// in\n    tag_120:\n        /* \"#utility.yul\":949:955   */\n      dup2\n        /* \"#utility.yul\":945:985   */\n      add\n        /* \"#utility.yul\":1087:1093   */\n      dup2\n        /* \"#utility.yul\":1075:1085   */\n      dup2\n        /* \"#utility.yul\":1072:1094   */\n      lt\n        /* \"#utility.yul\":1051:1069   */\n      0xffffffffffffffff\n        /* \"#utility.yul\":1039:1049   */\n      dup3\n        /* \"#utility.yul\":1036:1070   */\n      gt\n        /* \"#utility.yul\":1033:1095   */\n      or\n        /* \"#utility.yul\":1030:1118   */\n      iszero\n      tag_121\n      jumpi\n        /* \"#utility.yul\":1098:1116   */\n      tag_122\n      tag_79\n      jump\t// in\n    tag_122:\n        /* \"#utility.yul\":1030:1118   */\n    tag_121:\n        /* \"#utility.yul\":1138:1148   */\n      dup1\n        /* \"#utility.yul\":1134:1136   */\n      0x40\n        /* \"#utility.yul\":1127:1149   */\n      mstore\n        /* \"#utility.yul\":917:1155   */\n      pop\n        /* \"#utility.yul\":874:1155   */\n      pop\n      pop\n      jump\t// out\n        /* \"#utility.yul\":1161:1290   */\n    tag_81:\n        /* \"#utility.yul\":1195:1201   */\n      0x00\n        /* \"#utility.yul\":1222:1242   */\n      tag_124\n      tag_73\n      jump\t// in\n    tag_124:\n        /* \"#utility.yul\":1212:1242   */\n      swap1\n      pop\n        /* \"#utility.yul\":1251:1284   */\n      tag_125\n        /* \"#utility.yul\":1279:1283   */\n      dup3\n        /* \"#utility.yul\":1271:1277   */\n      dup3\n        /* \"#utility.yul\":1251:1284   */\n      tag_80\n      jump\t// in\n    tag_125:\n        /* \"#utility.yul\":1161:1290   */\n      swap2\n      swap1\n      pop\n      jump\t// out\n        /* \"#utility.yul\":1296:1604   */\n    tag_82:\n        /* \"#utility.yul\":1358:1362   */\n      0x00\n        /* \"#utility.yul\":1448:1466   */\n      0xffffffffffffffff\n        /* \"#utility.yul\":1440:1446   */\n      dup3\n        /* \"#utility.yul\":1437:1467   */\n      gt\n        /* \"#utility.yul\":1434:1490   */\n      iszero\n      tag_127\n      jumpi\n        /* \"#utility.yul\":1470:1488   */\n      tag_128\n      tag_79\n      jump\t// in\n    tag_128:\n        /* \"#utility.yul\":1434:1490   */\n    tag_127:\n        /* \"#utility.yul\":1508:1537   */\n      tag_129\n        /* \"#utility.yul\":1530:1536   */\n      dup3\n        /* \"#utility.yul\":1508:1537   */\n      tag_78\n      jump\t// in\n    tag_129:\n        /* \"#utility.yul\":1500:1537   */\n      swap1\n      pop\n        /* \"#utility.yul\":1592:1596   */\n      0x20\n        /* \"#utility.yul\":1586:1590   */\n      dup2\n        /* \"#utility.yul\":1582:1597   */\n      add\n        /* \"#utility.yul\":1574:1597   */\n      swap1\n      pop\n        /* \"#utility.yul\":1296:1604   */\n      swap2\n      swap1\n      pop\n      jump\t// out\n        /* \"#utility.yul\":1610:1758   */\n    tag_83:\n        /* \"#utility.yul\":1708:1714   */\n      dup3\n        /* \"#utility.yul\":1703:1706   */\n      dup2\n        /* \"#utility.yul\":1698:1701   */\n      dup4\n        /* \"#utility.yul\":1685:1715   */\n      calldatacopy\n        /* \"#utility.yul\":1749:1750   */\n      0x00\n        /* \"#utility.yul\":1740:1746   */\n      dup4\n        /* \"#utility.yul\":1735:1738   */\n      dup4\n        /* \"#utility.yul\":1731:1747   */\n      add\n        /* \"#utility.yul\":1724:1751   */\n      mstore\n        /* \"#utility.yul\":1610:1758   */\n      pop\n      pop\n      pop\n      jump\t// out\n        /* \"#utility.yul\":1764:2189   */\n    tag_84:\n        /* \"#utility.yul\":1842:1847   */\n      0x00\n        /* \"#utility.yul\":1867:1933   */\n      tag_132\n        /* \"#utility.yul\":1883:1932   */\n      tag_133\n        /* \"#utility.yul\":1925:1931   */\n      dup5\n        /* \"#utility.yul\":1883:1932   */\n      tag_82\n      jump\t// in\n    tag_133:\n        /* \"#utility.yul\":1867:1933   */\n      tag_81\n      jump\t// in\n    tag_132:\n        /* \"#utility.yul\":1858:1933   */\n      swap1\n      pop\n        /* \"#utility.yul\":1956:1962   */\n      dup3\n        /* \"#utility.yul\":1949:1954   */\n      dup2\n        /* \"#utility.yul\":1942:1963   */\n      mstore\n        /* \"#utility.yul\":1994:1998   */\n      0x20\n        /* \"#utility.yul\":1987:1992   */\n      dup2\n        /* \"#utility.yul\":1983:1999   */\n      add\n        /* \"#utility.yul\":2032:2035   */\n      dup5\n        /* \"#utility.yul\":2023:2029   */\n      dup5\n        /* \"#utility.yul\":2018:2021   */\n      dup5\n        /* \"#utility.yul\":2014:2030   */\n      add\n        /* \"#utility.yul\":2011:2036   */\n      gt\n        /* \"#utility.yul\":2008:2120   */\n      iszero\n      tag_134\n      jumpi\n        /* \"#utility.yul\":2039:2118   */\n      tag_135\n      tag_77\n      jump\t// in\n    tag_135:\n        /* \"#utility.yul\":2008:2120   */\n    tag_134:\n        /* \"#utility.yul\":2129:2183   */\n      tag_136\n        /* \"#utility.yul\":2176:2182   */\n      dup5\n        /* \"#utility.yul\":2171:2174   */\n      dup3\n        /* \"#utility.yul\":2166:2169   */\n      dup6\n        /* \"#utility.yul\":2129:2183   */\n      tag_83\n      jump\t// in\n    tag_136:\n        /* \"#utility.yul\":1848:2189   */\n      pop\n        /* \"#utility.yul\":1764:2189   */\n      swap4\n      swap3\n      pop\n      pop\n      pop\n      jump\t// out\n        /* \"#utility.yul\":2209:2549   */\n    tag_85:\n        /* \"#utility.yul\":2265:2270   */\n      0x00\n        /* \"#utility.yul\":2314:2317   */\n      dup3\n        /* \"#utility.yul\":2307:2311   */\n      0x1f\n        /* \"#utility.yul\":2299:2305   */\n      dup4\n        /* \"#utility.yul\":2295:2312   */\n      add\n        /* \"#utility.yul\":2291:2318   */\n      slt\n        /* \"#utility.yul\":2281:2403   */\n      tag_138\n      jumpi\n        /* \"#utility.yul\":2322:2401   */\n      tag_139\n      tag_76\n      jump\t// in\n    tag_139:\n        /* \"#utility.yul\":2281:2403   */\n    tag_138:\n        /* \"#utility.yul\":2439:2445   */\n      dup2\n        /* \"#utility.yul\":2426:2446   */\n      calldataload\n        /* \"#utility.yul\":2464:2543   */\n      tag_140\n        /* \"#utility.yul\":2539:2542   */\n      dup5\n        /* \"#utility.yul\":2531:2537   */\n      dup3\n        /* \"#utility.yul\":2524:2528   */\n      0x20\n        /* \"#utility.yul\":2516:2522   */\n      dup7\n        /* \"#utility.yul\":2512:2529   */\n      add\n        /* \"#utility.yul\":2464:2543   */\n      tag_84\n      jump\t// in\n    tag_140:\n        /* \"#utility.yul\":2455:2543   */\n      swap2\n      pop\n        /* \"#utility.yul\":2271:2549   */\n      pop\n        /* \"#utility.yul\":2209:2549   */\n      swap3\n      swap2\n      pop\n      pop\n      jump\t// out\n        /* \"#utility.yul\":2555:3064   */\n    tag_14:\n        /* \"#utility.yul\":2624:2630   */\n      0x00\n        /* \"#utility.yul\":2673:2675   */\n      0x20\n        /* \"#utility.yul\":2661:2670   */\n      dup3\n        /* \"#utility.yul\":2652:2659   */\n      dup5\n        /* \"#utility.yul\":2648:2671   */\n      sub\n        /* \"#utility.yul\":2644:2676   */\n      slt\n        /* \"#utility.yul\":2641:2760   */\n      iszero\n      tag_142\n      jumpi\n        /* \"#utility.yul\":2679:2758   */\n      tag_143\n      tag_74\n      jump\t// in\n    tag_143:\n        /* \"#utility.yul\":2641:2760   */\n    tag_142:\n        /* \"#utility.yul\":2827:2828   */\n      0x00\n        /* \"#utility.yul\":2816:2825   */\n      dup3\n        /* \"#utility.yul\":2812:2829   */\n      add\n        /* \"#utility.yul\":2799:2830   */\n      calldataload\n        /* \"#utility.yul\":2857:2875   */\n      0xffffffffffffffff\n        /* \"#utility.yul\":2849:2855   */\n      dup2\n        /* \"#utility.yul\":2846:2876   */\n      gt\n        /* \"#utility.yul\":2843:2960   */\n      iszero\n      tag_144\n      jumpi\n        /* \"#utility.yul\":2879:2958   */\n      tag_145\n      tag_75\n      jump\t// in\n    tag_145:\n        /* \"#utility.yul\":2843:2960   */\n    tag_144:\n        /* \"#utility.yul\":2984:3047   */\n      tag_146\n        /* \"#utility.yul\":3039:3046   */\n      dup5\n        /* \"#utility.yul\":3030:3036   */\n      dup3\n        /* \"#utility.yul\":3019:3028   */\n      dup6\n        /* \"#utility.yul\":3015:3037   */\n      add\n        /* \"#utility.yul\":2984:3047   */\n      tag_85\n      jump\t// in\n    tag_146:\n        /* \"#utility.yul\":2974:3047   */\n      swap2\n      pop\n        /* \"#utility.yul\":2770:3057   */\n      pop\n        /* \"#utility.yul\":2555:3064   */\n      swap3\n      swap2\n      pop\n      pop\n      jump\t// out\n        /* \"#utility.yul\":3070:3169   */\n    tag_86:\n        /* \"#utility.yul\":3122:3128   */\n      0x00\n        /* \"#utility.yul\":3156:3161   */\n      dup2\n        /* \"#utility.yul\":3150:3162   */\n      mload\n        /* \"#utility.yul\":3140:3162   */\n      swap1\n      pop\n        /* \"#utility.yul\":3070:3169   */\n      swap2\n      swap1\n      pop\n      jump\t// out\n        /* \"#utility.yul\":3175:3344   */\n    tag_87:\n        /* \"#utility.yul\":3259:3270   */\n      0x00\n        /* \"#utility.yul\":3293:3299   */\n      dup3\n        /* \"#utility.yul\":3288:3291   */\n      dup3\n        /* \"#utility.yul\":3281:3300   */\n      mstore\n        /* \"#utility.yul\":3333:3337   */\n      0x20\n        /* \"#utility.yul\":3328:3331   */\n      dup3\n        /* \"#utility.yul\":3324:3338   */\n      add\n        /* \"#utility.yul\":3309:3338   */\n      swap1\n      pop\n        /* \"#utility.yul\":3175:3344   */\n      swap3\n      swap2\n      pop\n      pop\n      jump\t// out\n        /* \"#utility.yul\":3350:3489   */\n    tag_88:\n        /* \"#utility.yul\":3439:3445   */\n      dup3\n        /* \"#utility.yul\":3434:3437   */\n      dup2\n        /* \"#utility.yul\":3429:3432   */\n      dup4\n        /* \"#utility.yul\":3423:3446   */\n      mcopy\n        /* \"#utility.yul\":3480:3481   */\n      0x00\n        /* \"#utility.yul\":3471:3477   */\n      dup4\n        /* \"#utility.yul\":3466:3469   */\n      dup4\n        /* \"#utility.yul\":3462:3478   */\n      add\n        /* \"#utility.yul\":3455:3482   */\n      mstore\n        /* \"#utility.yul\":3350:3489   */\n      pop\n      pop\n      pop\n      jump\t// out\n        /* \"#utility.yul\":3495:3872   */\n    tag_89:\n        /* \"#utility.yul\":3583:3586   */\n      0x00\n        /* \"#utility.yul\":3611:3650   */\n      tag_151\n        /* \"#utility.yul\":3644:3649   */\n      dup3\n        /* \"#utility.yul\":3611:3650   */\n      tag_86\n      jump\t// in\n    tag_151:\n        /* \"#utility.yul\":3666:3737   */\n      tag_152\n        /* \"#utility.yul\":3730:3736   */\n      dup2\n        /* \"#utility.yul\":3725:3728   */\n      dup6\n        /* \"#utility.yul\":3666:3737   */\n      tag_87\n      jump\t// in\n    tag_152:\n        /* \"#utility.yul\":3659:3737   */\n      swap4\n      pop\n        /* \"#utility.yul\":3746:3811   */\n      tag_153\n        /* \"#utility.yul\":3804:3810   */\n      dup2\n        /* \"#utility.yul\":3799:3802   */\n      dup6\n        /* \"#utility.yul\":3792:3796   */\n      0x20\n        /* \"#utility.yul\":3785:3790   */\n      dup7\n        /* \"#utility.yul\":3781:3797   */\n      add\n        /* \"#utility.yul\":3746:3811   */\n      tag_88\n      jump\t// in\n    tag_153:\n        /* \"#utility.yul\":3836:3865   */\n      tag_154\n        /* \"#utility.yul\":3858:3864   */\n      dup2\n        /* \"#utility.yul\":3836:3865   */\n      tag_78\n      jump\t// in\n    tag_154:\n        /* \"#utility.yul\":3831:3834   */\n      dup5\n        /* \"#utility.yul\":3827:3866   */\n      add\n        /* \"#utility.yul\":3820:3866   */\n      swap2\n      pop\n        /* \"#utility.yul\":3587:3872   */\n      pop\n        /* \"#utility.yul\":3495:3872   */\n      swap3\n      swap2\n      pop\n      pop\n      jump\t// out\n        /* \"#utility.yul\":3878:4191   */\n    tag_20:\n        /* \"#utility.yul\":3991:3995   */\n      0x00\n        /* \"#utility.yul\":4029:4031   */\n      0x20\n        /* \"#utility.yul\":4018:4027   */\n      dup3\n        /* \"#utility.yul\":4014:4032   */\n      add\n        /* \"#utility.yul\":4006:4032   */\n      swap1\n      pop\n        /* \"#utility.yul\":4078:4087   */\n      dup2\n        /* \"#utility.yul\":4072:4076   */\n      dup2\n        /* \"#utility.yul\":4068:4088   */\n      sub\n        /* \"#utility.yul\":4064:4065   */\n      0x00\n        /* \"#utility.yul\":4053:4062   */\n      dup4\n        /* \"#utility.yul\":4049:4066   */\n      add\n        /* \"#utility.yul\":4042:4089   */\n      mstore\n        /* \"#utility.yul\":4106:4184   */\n      tag_156\n        /* \"#utility.yul\":4179:4183   */\n      dup2\n        /* \"#utility.yul\":4170:4176   */\n      dup5\n        /* \"#utility.yul\":4106:4184   */\n      tag_89\n      jump\t// in\n    tag_156:\n        /* \"#utility.yul\":4098:4184   */\n      swap1\n      pop\n        /* \"#utility.yul\":3878:4191   */\n      swap3\n      swap2\n      pop\n      pop\n      jump\t// out\n        /* \"#utility.yul\":4197:4274   */\n    tag_90:\n        /* \"#utility.yul\":4234:4241   */\n      0x00\n        /* \"#utility.yul\":4263:4268   */\n      dup2\n        /* \"#utility.yul\":4252:4268   */\n      swap1\n      pop\n        /* \"#utility.yul\":4197:4274   */\n      swap2\n      swap1\n      pop\n      jump\t// out\n        /* \"#utility.yul\":4280:4398   */\n    tag_91:\n        /* \"#utility.yul\":4367:4391   */\n      tag_159\n        /* \"#utility.yul\":4385:4390   */\n      dup2\n        /* \"#utility.yul\":4367:4391   */\n      tag_90\n      jump\t// in\n    tag_159:\n        /* \"#utility.yul\":4362:4365   */\n      dup3\n        /* \"#utility.yul\":4355:4392   */\n      mstore\n        /* \"#utility.yul\":4280:4398   */\n      pop\n      pop\n      jump\t// out\n        /* \"#utility.yul\":4404:4626   */\n    tag_31:\n        /* \"#utility.yul\":4497:4501   */\n      0x00\n        /* \"#utility.yul\":4535:4537   */\n      0x20\n        /* \"#utility.yul\":4524:4533   */\n      dup3\n        /* \"#utility.yul\":4520:4538   */\n      add\n        /* \"#utility.yul\":4512:4538   */\n      swap1\n      pop\n        /* \"#utility.yul\":4548:4619   */\n      tag_161\n        /* \"#utility.yul\":4616:4617   */\n      0x00\n        /* \"#utility.yul\":4605:4614   */\n      dup4\n        /* \"#utility.yul\":4601:4618   */\n      add\n        /* \"#utility.yul\":4592:4598   */\n      dup5\n        /* \"#utility.yul\":4548:4619   */\n      tag_91\n      jump\t// in\n    tag_161:\n        /* \"#utility.yul\":4404:4626   */\n      swap3\n      swap2\n      pop\n      pop\n      jump\t// out\n        /* \"#utility.yul\":4632:4754   */\n    tag_92:\n        /* \"#utility.yul\":4705:4729   */\n      tag_163\n        /* \"#utility.yul\":4723:4728   */\n      dup2\n        /* \"#utility.yul\":4705:4729   */\n      tag_90\n      jump\t// in\n    tag_163:\n        /* \"#utility.yul\":4698:4703   */\n      dup2\n        /* \"#utility.yul\":4695:4730   */\n      eq\n        /* \"#utility.yul\":4685:4748   */\n      tag_164\n      jumpi\n        /* \"#utility.yul\":4744:4745   */\n      0x00\n        /* \"#utility.yul\":4741:4742   */\n      dup1\n        /* \"#utility.yul\":4734:4746   */\n      revert\n        /* \"#utility.yul\":4685:4748   */\n    tag_164:\n        /* \"#utility.yul\":4632:4754   */\n      pop\n      jump\t// out\n        /* \"#utility.yul\":4760:4899   */\n    tag_93:\n        /* \"#utility.yul\":4806:4811   */\n      0x00\n        /* \"#utility.yul\":4844:4850   */\n      dup2\n        /* \"#utility.yul\":4831:4851   */\n      calldataload\n        /* \"#utility.yul\":4822:4851   */\n      swap1\n      pop\n        /* \"#utility.yul\":4860:4893   */\n      tag_166\n        /* \"#utility.yul\":4887:4892   */\n      dup2\n        /* \"#utility.yul\":4860:4893   */\n      tag_92\n      jump\t// in\n    tag_166:\n        /* \"#utility.yul\":4760:4899   */\n      swap3\n      swap2\n      pop\n      pop\n      jump\t// out\n        /* \"#utility.yul\":4905:5234   */\n    tag_39:\n        /* \"#utility.yul\":4964:4970   */\n      0x00\n        /* \"#utility.yul\":5013:5015   */\n      0x20\n        /* \"#utility.yul\":5001:5010   */\n      dup3\n        /* \"#utility.yul\":4992:4999   */\n      dup5\n        /* \"#utility.yul\":4988:5011   */\n      sub\n        /* \"#utility.yul\":4984:5016   */\n      slt\n        /* \"#utility.yul\":4981:5100   */\n      iszero\n      tag_168\n      jumpi\n        /* \"#utility.yul\":5019:5098   */\n      tag_169\n      tag_74\n      jump\t// in\n    tag_169:\n        /* \"#utility.yul\":4981:5100   */\n    tag_168:\n        /* \"#utility.yul\":5139:5140   */\n      0x00\n        /* \"#utility.yul\":5164:5217   */\n      tag_170\n        /* \"#utility.yul\":5209:5216   */\n      dup5\n        /* \"#utility.yul\":5200:5206   */\n      dup3\n        /* \"#utility.yul\":5189:5198   */\n      dup6\n        /* \"#utility.yul\":5185:5207   */\n      add\n        /* \"#utility.yul\":5164:5217   */\n      tag_93\n      jump\t// in\n    tag_170:\n        /* \"#utility.yul\":5154:5217   */\n      swap2\n      pop\n        /* \"#utility.yul\":5110:5227   */\n      pop\n        /* \"#utility.yul\":4905:5234   */\n      swap3\n      swap2\n      pop\n      pop\n      jump\t// out\n        /* \"#utility.yul\":5240:5572   */\n    tag_42:\n        /* \"#utility.yul\":5361:5365   */\n      0x00\n        /* \"#utility.yul\":5399:5401   */\n      0x40\n        /* \"#utility.yul\":5388:5397   */\n      dup3\n        /* \"#utility.yul\":5384:5402   */\n      add\n        /* \"#utility.yul\":5376:5402   */\n      swap1\n      pop\n        /* \"#utility.yul\":5412:5483   */\n      tag_172\n        /* \"#utility.yul\":5480:5481   */\n      0x00\n        /* \"#utility.yul\":5469:5478   */\n      dup4\n        /* \"#utility.yul\":5465:5482   */\n      add\n        /* \"#utility.yul\":5456:5462   */\n      dup6\n        /* \"#utility.yul\":5412:5483   */\n      tag_91\n      jump\t// in\n    tag_172:\n        /* \"#utility.yul\":5493:5565   */\n      tag_173\n        /* \"#utility.yul\":5561:5563   */\n      0x20\n        /* \"#utility.yul\":5550:5559   */\n      dup4\n        /* \"#utility.yul\":5546:5564   */\n      add\n        /* \"#utility.yul\":5537:5543   */\n      dup5\n        /* \"#utility.yul\":5493:5565   */\n      tag_91\n      jump\t// in\n    tag_173:\n        /* \"#utility.yul\":5240:5572   */\n      swap4\n      swap3\n      pop\n      pop\n      pop\n      jump\t// out\n        /* \"#utility.yul\":5578:6052   */\n    tag_46:\n        /* \"#utility.yul\":5646:5652   */\n      0x00\n        /* \"#utility.yul\":5654:5660   */\n      dup1\n        /* \"#utility.yul\":5703:5705   */\n      0x40\n        /* \"#utility.yul\":5691:5700   */\n      dup4\n        /* \"#utility.yul\":5682:5689   */\n      dup6\n        /* \"#utility.yul\":5678:5701   */\n      sub\n        /* \"#utility.yul\":5674:5706   */\n      slt\n        /* \"#utility.yul\":5671:5790   */\n      iszero\n      tag_175\n      jumpi\n        /* \"#utility.yul\":5709:5788   */\n      tag_176\n      tag_74\n      jump\t// in\n    tag_176:\n        /* \"#utility.yul\":5671:5790   */\n    tag_175:\n        /* \"#utility.yul\":5829:5830   */\n      0x00\n        /* \"#utility.yul\":5854:5907   */\n      tag_177\n        /* \"#utility.yul\":5899:5906   */\n      dup6\n        /* \"#utility.yul\":5890:5896   */\n      dup3\n        /* \"#utility.yul\":5879:5888   */\n      dup7\n        /* \"#utility.yul\":5875:5897   */\n      add\n        /* \"#utility.yul\":5854:5907   */\n      tag_93\n      jump\t// in\n    tag_177:\n        /* \"#utility.yul\":5844:5907   */\n      swap3\n      pop\n        /* \"#utility.yul\":5800:5917   */\n      pop\n        /* \"#utility.yul\":5956:5958   */\n      0x20\n        /* \"#utility.yul\":5982:6035   */\n      tag_178\n        /* \"#utility.yul\":6027:6034   */\n      dup6\n        /* \"#utility.yul\":6018:6024   */\n      dup3\n        /* \"#utility.yul\":6007:6016   */\n      dup7\n        /* \"#utility.yul\":6003:6025   */\n      add\n        /* \"#utility.yul\":5982:6035   */\n      tag_93\n      jump\t// in\n    tag_178:\n        /* \"#utility.yul\":5972:6035   */\n      swap2\n      pop\n        /* \"#utility.yul\":5927:6045   */\n      pop\n        /* \"#utility.yul\":5578:6052   */\n      swap3\n      pop\n      swap3\n      swap1\n      pop\n      jump\t// out\n        /* \"#utility.yul\":6058:6238   */\n    tag_94:\n        /* \"#utility.yul\":6106:6183   */\n      0x4e487b7100000000000000000000000000000000000000000000000000000000\n        /* \"#utility.yul\":6103:6104   */\n      0x00\n        /* \"#utility.yul\":6096:6184   */\n      mstore\n        /* \"#utility.yul\":6203:6207   */\n      0x22\n        /* \"#utility.yul\":6200:6201   */\n      0x04\n        /* \"#utility.yul\":6193:6208   */\n      mstore\n        /* \"#utility.yul\":6227:6231   */\n      0x24\n        /* \"#utility.yul\":6224:6225   */\n      0x00\n        /* \"#utility.yul\":6217:6232   */\n      revert\n        /* \"#utility.yul\":6244:6564   */\n    tag_53:\n        /* \"#utility.yul\":6288:6294   */\n      0x00\n        /* \"#utility.yul\":6325:6326   */\n      0x02\n        /* \"#utility.yul\":6319:6323   */\n      dup3\n        /* \"#utility.yul\":6315:6327   */\n      div\n        /* \"#utility.yul\":6305:6327   */\n      swap1\n      pop\n        /* \"#utility.yul\":6372:6373   */\n      0x01\n        /* \"#utility.yul\":6366:6370   */\n      dup3\n        /* \"#utility.yul\":6362:6374   */\n      and\n        /* \"#utility.yul\":6393:6411   */\n      dup1\n        /* \"#utility.yul\":6383:6464   */\n      tag_181\n      jumpi\n        /* \"#utility.yul\":6449:6453   */\n      0x7f\n        /* \"#utility.yul\":6441:6447   */\n      dup3\n        /* \"#utility.yul\":6437:6454   */\n      and\n        /* \"#utility.yul\":6427:6454   */\n      swap2\n      pop\n        /* \"#utility.yul\":6383:6464   */\n    tag_181:\n        /* \"#utility.yul\":6511:6513   */\n      0x20\n        /* \"#utility.yul\":6503:6509   */\n      dup3\n        /* \"#utility.yul\":6500:6514   */\n      lt\n        /* \"#utility.yul\":6480:6498   */\n      dup2\n        /* \"#utility.yul\":6477:6515   */\n      sub\n        /* \"#utility.yul\":6474:6558   */\n      tag_182\n      jumpi\n        /* \"#utility.yul\":6530:6548   */\n      tag_183\n      tag_94\n      jump\t// in\n    tag_183:\n        /* \"#utility.yul\":6474:6558   */\n    tag_182:\n        /* \"#utility.yul\":6295:6564   */\n      pop\n        /* \"#utility.yul\":6244:6564   */\n      swap2\n      swap1\n      pop\n      jump\t// out\n        /* \"#utility.yul\":6570:6711   */\n    tag_95:\n        /* \"#utility.yul\":6619:6623   */\n      0x00\n        /* \"#utility.yul\":6642:6645   */\n      dup2\n        /* \"#utility.yul\":6634:6645   */\n      swap1\n      pop\n        /* \"#utility.yul\":6665:6668   */\n      dup2\n        /* \"#utility.yul\":6662:6663   */\n      0x00\n        /* \"#utility.yul\":6655:6669   */\n      mstore\n        /* \"#utility.yul\":6699:6703   */\n      0x20\n        /* \"#utility.yul\":6696:6697   */\n      0x00\n        /* \"#utility.yul\":6686:6704   */\n      keccak256\n        /* \"#utility.yul\":6678:6704   */\n      swap1\n      pop\n        /* \"#utility.yul\":6570:6711   */\n      swap2\n      swap1\n      pop\n      jump\t// out\n        /* \"#utility.yul\":6717:6810   */\n    tag_96:\n        /* \"#utility.yul\":6754:6760   */\n      0x00\n        /* \"#utility.yul\":6801:6803   */\n      0x20\n        /* \"#utility.yul\":6796:6798   */\n      0x1f\n        /* \"#utility.yul\":6789:6794   */\n      dup4\n        /* \"#utility.yul\":6785:6799   */\n      add\n        /* \"#utility.yul\":6781:6804   */\n      div\n        /* \"#utility.yul\":6771:6804   */\n      swap1\n      pop\n        /* \"#utility.yul\":6717:6810   */\n      swap2\n      swap1\n      pop\n      jump\t// out\n        /* \"#utility.yul\":6816:6923   */\n    tag_97:\n        /* \"#utility.yul\":6860:6868   */\n      0x00\n        /* \"#utility.yul\":6910:6915   */\n      dup3\n        /* \"#utility.yul\":6904:6908   */\n      dup3\n        /* \"#utility.yul\":6900:6916   */\n      shl\n        /* \"#utility.yul\":6879:6916   */\n      swap1\n      pop\n        /* \"#utility.yul\":6816:6923   */\n      swap3\n      swap2\n      pop\n      pop\n      jump\t// out\n        /* \"#utility.yul\":6929:7322   */\n    tag_98:\n        /* \"#utility.yul\":6998:7004   */\n      0x00\n        /* \"#utility.yul\":7048:7049   */\n      0x08\n        /* \"#utility.yul\":7036:7046   */\n      dup4\n        /* \"#utility.yul\":7032:7050   */\n      mul\n        /* \"#utility.yul\":7071:7168   */\n      tag_188\n        /* \"#utility.yul\":7101:7167   */\n      0xffffffffffffffffffffffffffffffffffffffffffffffffffffffffffffffff\n        /* \"#utility.yul\":7090:7099   */\n      dup3\n        /* \"#utility.yul\":7071:7168   */\n      tag_97\n      jump\t// in\n    tag_188:\n        /* \"#utility.yul\":7189:7228   */\n      tag_189\n        /* \"#utility.yul\":7219:7227   */\n      dup7\n        /* \"#utility.yul\":7208:7217   */\n      dup4\n        /* \"#utility.yul\":7189:7228   */\n      tag_97\n      jump\t// in\n    tag_189:\n        /* \"#utility.yul\":7177:7228   */\n      swap6\n      pop\n        /* \"#utility.yul\":7261:7265   */\n      dup1\n        /* \"#utility.yul\":7257:7266   */\n      not\n        /* \"#utility.yul\":7250:7255   */\n      dup5\n        /* \"#utility.yul\":7246:7267   */\n      and\n        /* \"#utility.yul\":7237:7267   */\n      swap4\n      pop\n        /* \"#utility.yul\":7310:7314   */\n      dup1\n        /* \"#utility.yul\":7300:7308   */\n      dup7\n        /* \"#utility.yul\":7296:7315   */\n      and\n        /* \"#utility.yul\":7289:7294   */\n      dup5\n        /* \"#utility.yul\":7286:7316   */\n      or\n        /* \"#utility.yul\":7276:7316   */\n      swap3\n      pop\n        /* \"#utility.yul\":7005:7322   */\n      pop\n      pop\n        /* \"#utility.yul\":6929:7322   */\n      swap4\n      swap3\n      pop\n      pop\n      pop\n      jump\t// out\n        /* \"#utility.yul\":7328:7388   */\n    tag_99:\n        /* \"#utility.yul\":7356:7359   */\n      0x00\n        /* \"#utility.yul\":7377:7382   */\n      dup2\n        /* \"#utility.yul\":7370:7382   */\n      swap1\n      pop\n        /* \"#utility.yul\":7328:7388   */\n      swap2\n      swap1\n      pop\n      jump\t// out\n        /* \"#utility.yul\":7394:7536   */\n    tag_100:\n        /* \"#utility.yul\":7444:7453   */\n      0x00\n        /* \"#utility.yul\":7477:7530   */\n      tag_192\n        /* \"#utility.yul\":7495:7529   */\n      tag_193\n        /* \"#utility.yul\":7504:7528   */\n      tag_194\n        /* \"#utility.yul\":7522:7527   */\n      dup5\n        /* \"#utility.yul\":7504:7528   */\n      tag_90\n      jump\t// in\n    tag_194:\n        /* \"#utility.yul\":7495:7529   */\n      tag_99\n      jump\t// in\n    tag_193:\n        /* \"#utility.yul\":7477:7530   */\n      tag_90\n      jump\t// in\n    tag_192:\n        /* \"#utility.yul\":7464:7530   */\n      swap1\n      pop\n        /* \"#utility.yul\":7394:7536   */\n      swap2\n      swap1\n      pop\n      jump\t// out\n        /* \"#utility.yul\":7542:7617   */\n    tag_101:\n        /* \"#utility.yul\":7585:7588   */\n      0x00\n        /* \"#utility.yul\":7606:7611   */\n      dup2\n        /* \"#utility.yul\":7599:7611   */\n      swap1\n      pop\n        /* \"#utility.yul\":7542:7617   */\n      swap2\n      swap1\n      pop\n      jump\t// out\n        /* \"#utility.yul\":7623:7892   */\n    tag_102:\n        /* \"#utility.yul\":7733:7772   */\n      tag_197\n        /* \"#utility.yul\":7764:7771   */\n      dup4\n        /* \"#utility.yul\":7733:7772   */\n      tag_100\n      jump\t// in\n    tag_197:\n        /* \"#utility.yul\":7794:7885   */\n      tag_198\n        /* \"#utility.yul\":7843:7884   */\n      tag_199\n        /* \"#utility.yul\":7867:7883   */\n      dup3\n        /* \"#utility.yul\":7843:7884   */\n      tag_101\n      jump\t// in\n    tag_199:\n        /* \"#utility.yul\":7835:7841   */\n      dup5\n        /* \"#utility.yul\":7828:7832   */\n      dup5\n        /* \"#utility.yul\":7822:7833   */\n      sload\n        /* \"#utility.yul\":7794:7885   */\n      tag_98\n      jump\t// in\n    tag_198:\n        /* \"#utility.yul\":7788:7792   */\n      dup3\n        /* \"#utility.yul\":7781:7886   */\n      sstore\n        /* \"#utility.yul\":7699:7892   */\n      pop\n        /* \"#utility.yul\":7623:7892   */\n      pop\n      pop\n      pop\n      jump\t// out\n        /* \"#utility.yul\":7898:7971   */\n    tag_103:\n        /* \"#utility.yul\":7943:7946   */\n      0x00\n        /* \"#utility.yul\":7898:7971   */\n      swap1\n      jump\t// out\n        /* \"#utility.yul\":7977:8166   */\n    tag_104:\n        /* \"#utility.yul\":8054:8086   */\n      tag_202\n      tag_103\n      jump\t// in\n    tag_202:\n        /* \"#utility.yul\":8095:8160   */\n      tag_203\n        /* \"#utility.yul\":8153:8159   */\n      dup2\n        /* \"#utility.yul\":8145:8151   */\n      dup5\n        /* \"#utility.yul\":8139:8143   */\n      dup5\n        /* \"#utility.yul\":8095:8160   */\n      tag_102\n      jump\t// in\n    tag_203:\n        /* \"#utility.yul\":8030:8166   */\n      pop\n        /* \"#utility.yul\":7977:8166   */\n      pop\n      pop\n      jump\t// out\n        /* \"#utility.yul\":8172:8358   */\n    tag_105:\n        /* \"#utility.yul\":8232:8352   */\n    tag_205:\n        /* \"#utility.yul\":8249:8252   */\n      dup2\n        /* \"#utility.yul\":8242:8247   */\n      dup2\n        /* \"#utility.yul\":8239:8253   */\n      lt\n        /* \"#utility.yul\":8232:8352   */\n      iszero\n      tag_207\n      jumpi\n        /* \"#utility.yul\":8303:8342   */\n      tag_208\n        /* \"#utility.yul\":8340:8341   */\n      0x00\n        /* \"#utility.yul\":8333:8338   */\n      dup3\n        /* \"#utility.yul\":8303:8342   */\n      tag_104\n      jump\t// in\n    tag_208:\n        /* \"#utility.yul\":8276:8277   */\n      0x01\n        /* \"#utility.yul\":8269:8274   */\n      dup2\n        /* \"#utility.yul\":8265:8278   */\n      add\n        /* \"#utility.yul\":8256:8278   */\n      swap1\n      pop\n        /* \"#utility.yul\":8232:8352   */\n      jump(tag_205)\n    tag_207:\n        /* \"#utility.yul\":8172:8358   */\n      pop\n      pop\n      jump\t// out\n        /* \"#utility.yul\":8364:8907   */\n    tag_106:\n        /* \"#utility.yul\":8465:8467   */\n      0x1f\n        /* \"#utility.yul\":8460:8463   */\n      dup3\n        /* \"#utility.yul\":8457:8468   */\n      gt\n        /* \"#utility.yul\":8454:8900   */\n      iszero\n      tag_210\n      jumpi\n        /* \"#utility.yul\":8499:8537   */\n      tag_211\n        /* \"#utility.yul\":8531:8536   */\n      dup2\n        /* \"#utility.yul\":8499:8537   */\n      tag_95\n      jump\t// in\n    tag_211:\n        /* \"#utility.yul\":8583:8612   */\n      tag_212\n        /* \"#utility.yul\":8601:8611   */\n      dup5\n        /* \"#utility.yul\":8583:8612   */\n      tag_96\n      jump\t// in\n    tag_212:\n        /* \"#utility.yul\":8573:8581   */\n      dup2\n        /* \"#utility.yul\":8569:8613   */\n      add\n        /* \"#utility.yul\":8766:8768   */\n      0x20\n        /* \"#utility.yul\":8754:8764   */\n      dup6\n        /* \"#utility.yul\":8751:8769   */\n      lt\n        /* \"#utility.yul\":8748:8797   */\n      iszero\n      tag_213\n      jumpi\n        /* \"#utility.yul\":8787:8795   */\n      dup2\n        /* \"#utility.yul\":8772:8795   */\n      swap1\n      pop\n        /* \"#utility.yul\":8748:8797   */\n    tag_213:\n        /* \"#utility.yul\":8810:8890   */\n      tag_214\n        /* \"#utility.yul\":8866:8888   */\n      tag_215\n        /* \"#utility.yul\":8884:8887   */\n      dup6\n        /* \"#utility.yul\":8866:8888   */\n      tag_96\n      jump\t// in\n    tag_215:\n        /* \"#utility.yul\":8856:8864   */\n      dup4\n        /* \"#utility.yul\":8852:8889   */\n      add\n        /* \"#utility.yul\":8839:8850   */\n      dup3\n        /* \"#utility.yul\":8810:8890   */\n      tag_105\n      jump\t// in\n    tag_214:\n        /* \"#utility.yul\":8469:8900   */\n      pop\n      pop\n        /* \"#utility.yul\":8454:8900   */\n    tag_210:\n        /* \"#utility.yul\":8364:8907   */\n      pop\n      pop\n      pop\n      jump\t// out\n        /* \"#utility.yul\":8913:9030   */\n    tag_107:\n        /* \"#utility.yul\":8967:8975   */\n      0x00\n        /* \"#utility.yul\":9017:9022   */\n      dup3\n        /* \"#utility.yul\":9011:9015   */\n      dup3\n        /* \"#utility.yul\":9007:9023   */\n      shr\n        /* \"#utility.yul\":8986:9023   */\n      swap1\n      pop\n        /* \"#utility.yul\":8913:9030   */\n      swap3\n      swap2\n      pop\n      pop\n      jump\t// out\n        /* \"#utility.yul\":9036:9205   */\n    tag_108:\n        /* \"#utility.yul\":9080:9086   */\n      0x00\n        /* \"#utility.yul\":9113:9164   */\n      tag_218\n        /* \"#utility.yul\":9161:9162   */\n      0x00\n        /* \"#utility.yul\":9157:9163   */\n      not\n        /* \"#utility.yul\":9149:9154   */\n      dup5\n        /* \"#utility.yul\":9146:9147   */\n      0x08\n        /* \"#utility.yul\":9142:9155   */\n      mul\n        /* \"#utility.yul\":9113:9164   */\n      tag_107\n      jump\t// in\n    tag_218:\n        /* \"#utility.yul\":9109:9165   */\n      not\n        /* \"#utility.yul\":9194:9198   */\n      dup1\n        /* \"#utility.yul\":9188:9192   */\n      dup4\n        /* \"#utility.yul\":9184:9199   */\n      and\n        /* \"#utility.yul\":9174:9199   */\n      swap2\n      pop\n        /* \"#utility.yul\":9087:9205   */\n      pop\n        /* \"#utility.yul\":9036:9205   */\n      swap3\n      swap2\n      pop\n      pop\n      jump\t// out\n        /* \"#utility.yul\":9210:9505   */\n    tag_109:\n        /* \"#utility.yul\":9286:9290   */\n      0x00\n        /* \"#utility.yul\":9432:9461   */\n      tag_220\n        /* \"#utility.yul\":9457:9460   */\n      dup4\n        /* \"#utility.yul\":9451:9455   */\n      dup4\n        /* \"#utility.yul\":9432:9461   */\n      tag_108\n      jump\t// in\n    tag_220:\n        /* \"#utility.yul\":9424:9461   */\n      swap2\n      pop\n        /* \"#utility.yul\":9494:9497   */\n      dup3\n        /* \"#utility.yul\":9491:9492   */\n      0x02\n        /* \"#utility.yul\":9487:9498   */\n      mul\n        /* \"#utility.yul\":9481:9485   */\n      dup3\n        /* \"#utility.yul\":9478:9499   */\n      or\n        /* \"#utility.yul\":9470:9499   */\n      swap1\n      pop\n        /* \"#utility.yul\":9210:9505   */\n      swap3\n      swap2\n      pop\n      pop\n      jump\t// out\n        /* \"#utility.yul\":9510:10905   */\n    tag_61:\n        /* \"#utility.yul\":9627:9664   */\n      tag_222\n        /* \"#utility.yul\":9660:9663   */\n      dup3\n        /* \"#utility.yul\":9627:9664   */\n      tag_86\n      jump\t// in\n    tag_222:\n        /* \"#utility.yul\":9729:9747   */\n      0xffffffffffffffff\n        /* \"#utility.yul\":9721:9727   */\n      dup2\n        /* \"#utility.yul\":9718:9748   */\n      gt\n        /* \"#utility.yul\":9715:9771   */\n      iszero\n      tag_223\n      jumpi\n        /* \"#utility.yul\":9751:9769   */\n      tag_224\n      tag_79\n      jump\t// in\n    tag_224:\n        /* \"#utility.yul\":9715:9771   */\n    tag_223:\n        /* \"#utility.yul\":9795:9833   */\n      tag_225\n        /* \"#utility.yul\":9827:9831   */\n      dup3\n        /* \"#utility.yul\":9821:9832   */\n      sload\n        /* \"#utility.yul\":9795:9833   */\n      tag_53\n      jump\t// in\n    tag_225:\n        /* \"#utility.yul\":9880:9947   */\n      tag_226\n        /* \"#utility.yul\":9940:9946   */\n      dup3\n        /* \"#utility.yul\":9932:9938   */\n      dup3\n        /* \"#utility.yul\":9926:9930   */\n      dup6\n        /* \"#utility.yul\":9880:9947   */\n      tag_106\n      jump\t// in\n    tag_226:\n        /* \"#utility.yul\":9974:9975   */\n      0x00\n        /* \"#utility.yul\":9998:10002   */\n      0x20\n        /* \"#utility.yul\":9985:10002   */\n      swap1\n      pop\n        /* \"#utility.yul\":10030:10032   */\n      0x1f\n        /* \"#utility.yul\":10022:10028   */\n      dup4\n        /* \"#utility.yul\":10019:10033   */\n      gt\n        /* \"#utility.yul\":10047:10048   */\n      0x01\n        /* \"#utility.yul\":10042:10660   */\n      dup2\n      eq\n      tag_228\n      jumpi\n        /* \"#utility.yul\":10704:10705   */\n      0x00\n        /* \"#utility.yul\":10721:10727   */\n      dup5\n        /* \"#utility.yul\":10718:10795   */\n      iszero\n      tag_229\n      jumpi\n        /* \"#utility.yul\":10770:10779   */\n      dup3\n        /* \"#utility.yul\":10765:10768   */\n      dup8\n        /* \"#utility.yul\":10761:10780   */\n      add\n        /* \"#utility.yul\":10755:10781   */\n      mload\n        /* \"#utility.yul\":10746:10781   */\n      swap1\n      pop\n        /* \"#utility.yul\":10718:10795   */\n    tag_229:\n        /* \"#utility.yul\":10821:10888   */\n      tag_230\n        /* \"#utility.yul\":10881:10887   */\n      dup6\n        /* \"#utility.yul\":10874:10879   */\n      dup3\n        /* \"#utility.yul\":10821:10888   */\n      tag_109\n      jump\t// in\n    tag_230:\n        /* \"#utility.yul\":10815:10819   */\n      dup7\n        /* \"#utility.yul\":10808:10889   */\n      sstore\n        /* \"#utility.yul\":10677:10899   */\n      pop\n        /* \"#utility.yul\":10012:10899   */\n      jump(tag_227)\n        /* \"#utility.yul\":10042:10660   */\n    tag_228:\n        /* \"#utility.yul\":10094:10098   */\n      0x1f\n        /* \"#utility.yul\":10090:10099   */\n      not\n        /* \"#utility.yul\":10082:10088   */\n      dup5\n        /* \"#utility.yul\":10078:10100   */\n      and\n        /* \"#utility.yul\":10128:10165   */\n      tag_231\n        /* \"#utility.yul\":10160:10164   */\n      dup7\n        /* \"#utility.yul\":10128:10165   */\n      tag_95\n      jump\t// in\n    tag_231:\n        /* \"#utility.yul\":10187:10188   */\n      0x00\n        /* \"#utility.yul\":10201:10409   */\n    tag_232:\n        /* \"#utility.yul\":10215:10222   */\n      dup3\n        /* \"#utility.yul\":10212:10213   */\n      dup2\n        /* \"#utility.yul\":10209:10223   */\n      lt\n        /* \"#utility.yul\":10201:10409   */\n      iszero\n      tag_234\n      jumpi\n        /* \"#utility.yul\":10294:10303   */\n      dup5\n        /* \"#utility.yul\":10289:10292   */\n      dup10\n        /* \"#utility.yul\":10285:10304   */\n      add\n        /* \"#utility.yul\":10279:10305   */\n      mload\n        /* \"#utility.yul\":10271:10277   */\n      dup3\n        /* \"#utility.yul\":10264:10306   */\n      sstore\n        /* \"#utility.yul\":10345:10346   */\n      0x01\n        /* \"#utility.yul\":10337:10343   */\n      dup3\n        /* \"#utility.yul\":10333:10347   */\n      add\n        /* \"#utility.yul\":10323:10347   */\n      swap2\n      pop\n        /* \"#utility.yul\":10392:10394   */\n      0x20\n        /* \"#utility.yul\":10381:10390   */\n      dup6\n        /* \"#utility.yul\":10377:10395   */\n      add\n        /* \"#utility.yul\":10364:10395   */\n      swap5\n      pop\n        /* \"#utility.yul\":10238:10242   */\n      0x20\n        /* \"#utility.yul\":10235:10236   */\n      dup2\n        /* \"#utility.yul\":10231:10243   */\n      add\n        /* \"#utility.yul\":10226:10243   */\n      swap1\n      pop\n        /* \"#utility.yul\":10201:10409   */\n      jump(tag_232)\n    tag_234:\n        /* \"#utility.yul\":10437:10443   */\n      dup7\n        /* \"#utility.yul\":10428:10435   */\n      dup4\n        /* \"#utility.yul\":10425:10444   */\n      lt\n        /* \"#utility.yul\":10422:10601   */\n      iszero\n      tag_235\n      jumpi\n        /* \"#utility.yul\":10495:10504   */\n      dup5\n        /* \"#utility.yul\":10490:10493   */\n      dup10\n        /* \"#utility.yul\":10486:10505   */\n      add\n        /* \"#utility.yul\":10480:10506   */\n      mload\n        /* \"#utility.yul\":10538:10586   */\n      tag_236\n        /* \"#utility.yul\":10580:10584   */\n      0x1f\n        /* \"#utility.yul\":10572:10578   */\n      dup10\n        /* \"#utility.yul\":10568:10585   */\n      and\n        /* \"#utility.yul\":10557:10566   */\n      dup3\n        /* \"#utility.yul\":10538:10586   */\n      tag_108\n      jump\t// in\n    tag_236:\n        /* \"#utility.yul\":10530:10536   */\n      dup4\n        /* \"#utility.yul\":10523:10587   */\n      sstore\n        /* \"#utility.yul\":10445:10601   */\n      pop\n        /* \"#utility.yul\":10422:10601   */\n    tag_235:\n        /* \"#utility.yul\":10647:10648   */\n      0x01\n        /* \"#utility.yul\":10643:10644   */\n      0x02\n        /* \"#utility.yul\":10635:10641   */\n      dup9\n        /* \"#utility.yul\":10631:10645   */\n      mul\n        /* \"#utility.yul\":10627:10649   */\n      add\n        /* \"#utility.yul\":10621:10625   */\n      dup9\n        /* \"#utility.yul\":10614:10650   */\n      sstore\n        /* \"#utility.yul\":10049:10660   */\n      pop\n      pop\n      pop\n        /* \"#utility.yul\":10012:10899   */\n    tag_227:\n      pop\n        /* \"#utility.yul\":9602:10905   */\n      pop\n      pop\n      pop\n        /* \"#utility.yul\":9510:10905   */\n      pop\n      pop\n      jump\t// out\n        /* \"#utility.yul\":10911:11091   */\n    tag_110:\n        /* \"#utility.yul\":10959:11036   */\n      0x4e487b7100000000000000000000000000000000000000000000000000000000\n        /* \"#utility.yul\":10956:10957   */\n      0x00\n        /* \"#utility.yul\":10949:11037   */\n      mstore\n        /* \"#utility.yul\":11056:11060   */\n      0x11\n        /* \"#utility.yul\":11053:11054   */\n      0x04\n        /* \"#utility.yul\":11046:11061   */\n      mstore\n        /* \"#utility.yul\":11080:11084   */\n      0x24\n        /* \"#utility.yul\":11077:11078   */\n      0x00\n        /* \"#utility.yul\":11070:11085   */\n      revert\n        /* \"#utility.yul\":11097:11507   */\n    tag_65:\n        /* \"#utility.yul\":11137:11144   */\n      0x00\n        /* \"#utility.yul\":11160:11180   */\n      tag_239\n        /* \"#utility.yul\":11178:11179   */\n      dup3\n        /* \"#utility.yul\":11160:11180   */\n      tag_90\n      jump\t// in\n    tag_239:\n        /* \"#utility.yul\":11155:11180   */\n      swap2\n      pop\n        /* \"#utility.yul\":11194:11214   */\n      tag_240\n        /* \"#utility.yul\":11212:11213   */\n      dup4\n        /* \"#utility.yul\":11194:11214   */\n      tag_90\n      jump\t// in\n    tag_240:\n        /* \"#utility.yul\":11189:11214   */\n      swap3\n      pop\n        /* \"#utility.yul\":11249:11250   */\n      dup3\n        /* \"#utility.yul\":11246:11247   */\n      dup3\n        /* \"#utility.yul\":11242:11251   */\n      mul\n        /* \"#utility.yul\":11271:11301   */\n      tag_241\n        /* \"#utility.yul\":11289:11300   */\n      dup2\n        /* \"#utility.yul\":11271:11301   */\n      tag_90\n      jump\t// in\n    tag_241:\n        /* \"#utility.yul\":11260:11301   */\n      swap2\n      pop\n        /* \"#utility.yul\":11450:11451   */\n      dup3\n        /* \"#utility.yul\":11441:11448   */\n      dup3\n        /* \"#utility.yul\":11437:11452   */\n      div\n        /* \"#utility.yul\":11434:11435   */\n      dup5\n        /* \"#utility.yul\":11431:11453   */\n      eq\n        /* \"#utility.yul\":11411:11412   */\n      dup4\n        /* \"#utility.yul\":11404:11413   */\n      iszero\n        /* \"#utility.yul\":11384:11467   */\n      or\n        /* \"#utility.yul\":11361:11500   */\n      tag_242\n      jumpi\n        /* \"#utility.yul\":11480:11498   */\n      tag_243\n      tag_110\n      jump\t// in\n    tag_243:\n        /* \"#utility.yul\":11361:11500   */\n    tag_242:\n        /* \"#utility.yul\":11145:11507   */\n      pop\n        /* \"#utility.yul\":11097:11507   */\n      swap3\n      swap2\n      pop\n      pop\n      jump\t// out\n        /* \"#utility.yul\":11513:11704   */\n    tag_67:\n        /* \"#utility.yul\":11553:11556   */\n      0x00\n        /* \"#utility.yul\":11572:11592   */\n      tag_245\n        /* \"#utility.yul\":11590:11591   */\n      dup3\n        /* \"#utility.yul\":11572:11592   */\n      tag_90\n      jump\t// in\n    tag_245:\n        /* \"#utility.yul\":11567:11592   */\n      swap2\n      pop\n        /* \"#utility.yul\":11606:11626   */\n      tag_246\n        /* \"#utility.yul\":11624:11625   */\n      dup4\n        /* \"#utility.yul\":11606:11626   */\n      tag_90\n      jump\t// in\n    tag_246:\n        /* \"#utility.yul\":11601:11626   */\n      swap3\n      pop\n        /* \"#utility.yul\":11649:11650   */\n      dup3\n        /* \"#utility.yul\":11646:11647   */\n      dup3\n        /* \"#utility.yul\":11642:11651   */\n      add\n        /* \"#utility.yul\":11635:11651   */\n      swap1\n      pop\n        /* \"#utility.yul\":11670:11673   */\n      dup1\n        /* \"#utility.yul\":11667:11668   */\n      dup3\n        /* \"#utility.yul\":11664:11674   */\n      gt\n        /* \"#utility.yul\":11661:11697   */\n      iszero\n      tag_247\n      jumpi\n        /* \"#utility.yul\":11677:11695   */\n      tag_248\n      tag_110\n      jump\t// in\n    tag_248:\n        /* \"#utility.yul\":11661:11697   */\n    tag_247:\n        /* \"#utility.yul\":11513:11704   */\n      swap3\n      swap2\n      pop\n      pop\n      jump\t// out\n\n    auxdata: 0xa26469706673582212208873b866be106d16dc144bf7788de91a486401db51884f94d879171daa67affa64736f6c63430008190033\n}\n",
				"bytecode": {
					"linkReferences": {},
					"object": "60806040526040518060400160405280600681526020017f70727565626100000000000000000000000000000000000000000000000000008152505f90816100479190610297565b5060018055348015610057575f80fd5b50610366565b5f81519050919050565b7f4e487b71000000000000000000000000000000000000000000000000000000005f52604160045260245ffd5b7f4e487b71000000000000000000000000000000000000000000000000000000005f52602260045260245ffd5b5f60028204905060018216806100d857607f821691505b6020821081036100eb576100ea610094565b5b50919050565b5f819050815f5260205f209050919050565b5f6020601f8301049050919050565b5f82821b905092915050565b5f6008830261014d7fffffffffffffffffffffffffffffffffffffffffffffffffffffffffffffffff82610112565b6101578683610112565b95508019841693508086168417925050509392505050565b5f819050919050565b5f819050919050565b5f61019b6101966101918461016f565b610178565b61016f565b9050919050565b5f819050919050565b6101b483610181565b6101c86101c0826101a2565b84845461011e565b825550505050565b5f90565b6101dc6101d0565b6101e78184846101ab565b505050565b5b8181101561020a576101ff5f826101d4565b6001810190506101ed565b5050565b601f82111561024f57610220816100f1565b61022984610103565b81016020851015610238578190505b61024c61024485610103565b8301826101ec565b50505b505050565b5f82821c905092915050565b5f61026f5f1984600802610254565b1980831691505092915050565b5f6102878383610260565b9150826002028217905092915050565b6102a08261005d565b67ffffffffffffffff8111156102b9576102b8610067565b5b6102c382546100c1565b6102ce82828561020e565b5f60209050601f8311600181146102ff575f84156102ed578287015190505b6102f7858261027c565b86555061035e565b601f19841661030d866100f1565b5f5b828110156103345784890151825560018201915060208501945060208101905061030f565b86831015610351578489015161034d601f891682610260565b8355505b6001600288020188555050505b505050505050565b610985806103735f395ff3fe60806040526004361061007a575f3560e01c806391f5de381161004d57806391f5de3814610102578063b592f4841461012c578063be56daed14610156578063e5484ae4146101935761007a565b8063096f66631461007e5780630e428757146100a65780637af327a0146100d05780638f0aa695146100da575b5f80fd5b348015610089575f80fd5b506100a4600480360381019061009f9190610433565b6101d0565b005b3480156100b1575f80fd5b506100ba6101dc565b6040516100c791906104da565b60405180910390f35b6100d8610267565b005b3480156100e5575f80fd5b5061010060048036038101906100fb9190610433565b610269565b005b34801561010d575f80fd5b5061011661027b565b6040516101239190610512565b60405180910390f35b348015610137575f80fd5b50610140610281565b60405161014d9190610512565b60405180910390f35b348015610161575f80fd5b5061017c60048036038101906101779190610555565b610288565b60405161018a929190610580565b60405180910390f35b34801561019e575f80fd5b506101b960048036038101906101b491906105a7565b6102af565b6040516101c7929190610580565b60405180910390f35b6101d9816102d4565b50565b5f80546101e890610612565b80601f016020809104026020016040519081016040528092919081815260200182805461021490610612565b801561025f5780601f106102365761010080835404028352916020019161025f565b820191905f5260205f20905b81548152906001019060200180831161024257829003601f168201915b505050505081565b565b805f908161027791906107df565b5050565b60015481565b5f47905090565b5f806001548361029891906108db565b9150600154836102a8919061091c565b9050915091565b5f8082846102bd91906108db565b915082846102cb919061091c565b90509250929050565b805f90816102e291906107df565b5050565b5f604051905090565b5f80fd5b5f80fd5b5f80fd5b5f80fd5b5f601f19601f8301169050919050565b7f4e487b71000000000000000000000000000000000000000000000000000000005f52604160045260245ffd5b610345826102ff565b810181811067ffffffffffffffff821117156103645761036361030f565b5b80604052505050565b5f6103766102e6565b9050610382828261033c565b919050565b5f67ffffffffffffffff8211156103a1576103a061030f565b5b6103aa826102ff565b9050602081019050919050565b828183375f83830152505050565b5f6103d76103d284610387565b61036d565b9050828152602081018484840111156103f3576103f26102fb565b5b6103fe8482856103b7565b509392505050565b5f82601f83011261041a576104196102f7565b5b813561042a8482602086016103c5565b91505092915050565b5f60208284031215610448576104476102ef565b5b5f82013567ffffffffffffffff811115610465576104646102f3565b5b61047184828501610406565b91505092915050565b5f81519050919050565b5f82825260208201905092915050565b8281835e5f83830152505050565b5f6104ac8261047a565b6104b68185610484565b93506104c6818560208601610494565b6104cf816102ff565b840191505092915050565b5f6020820190508181035f8301526104f281846104a2565b905092915050565b5f819050919050565b61050c816104fa565b82525050565b5f6020820190506105255f830184610503565b92915050565b610534816104fa565b811461053e575f80fd5b50565b5f8135905061054f8161052b565b92915050565b5f6020828403121561056a576105696102ef565b5b5f61057784828501610541565b91505092915050565b5f6040820190506105935f830185610503565b6105a06020830184610503565b9392505050565b5f80604083850312156105bd576105bc6102ef565b5b5f6105ca85828601610541565b92505060206105db85828601610541565b9150509250929050565b7f4e487b71000000000000000000000000000000000000000000000000000000005f52602260045260245ffd5b5f600282049050600182168061062957607f821691505b60208210810361063c5761063b6105e5565b5b50919050565b5f819050815f5260205f209050919050565b5f6020601f8301049050919050565b5f82821b905092915050565b5f6008830261069e7fffffffffffffffffffffffffffffffffffffffffffffffffffffffffffffffff82610663565b6106a88683610663565b95508019841693508086168417925050509392505050565b5f819050919050565b5f6106e36106de6106d9846104fa565b6106c0565b6104fa565b9050919050565b5f819050919050565b6106fc836106c9565b610710610708826106ea565b84845461066f565b825550505050565b5f90565b610724610718565b61072f8184846106f3565b505050565b5b81811015610752576107475f8261071c565b600181019050610735565b5050565b601f8211156107975761076881610642565b61077184610654565b81016020851015610780578190505b61079461078c85610654565b830182610734565b50505b505050565b5f82821c905092915050565b5f6107b75f198460080261079c565b1980831691505092915050565b5f6107cf83836107a8565b9150826002028217905092915050565b6107e88261047a565b67ffffffffffffffff8111156108015761080061030f565b5b61080b8254610612565b610816828285610756565b5f60209050601f831160018114610847575f8415610835578287015190505b61083f85826107c4565b8655506108a6565b601f19841661085586610642565b5f5b8281101561087c57848901518255600182019150602085019450602081019050610857565b868310156108995784890151610895601f8916826107a8565b8355505b6001600288020188555050505b505050505050565b7f4e487b71000000000000000000000000000000000000000000000000000000005f52601160045260245ffd5b5f6108e5826104fa565b91506108f0836104fa565b92508282026108fe816104fa565b91508282048414831517610915576109146108ae565b5b5092915050565b5f610926826104fa565b9150610931836104fa565b9250828201905080821115610949576109486108ae565b5b9291505056fea26469706673582212208873b866be106d16dc144bf7788de91a486401db51884f94d879171daa67affa64736f6c63430008190033",
					"opcodes": "PUSH1 0x80 PUSH1 0x40 MSTORE PUSH1 0x40 MLOAD DUP1 PUSH1 0x40 ADD PUSH1 0x40 MSTORE DUP1 PUSH1 0x6 DUP2 MSTORE PUSH1 0x20 ADD PUSH32 0x7072756562610000000000000000000000000000000000000000000000000000 DUP2 MSTORE POP PUSH0 SWAP1 DUP2 PUSH2 0x47 SWAP2 SWAP1 PUSH2 0x297 JUMP JUMPDEST POP PUSH1 0x1 DUP1 SSTORE CALLVALUE DUP1 ISZERO PUSH2 0x57 JUMPI PUSH0 DUP1 REVERT JUMPDEST POP PUSH2 0x366 JUMP JUMPDEST PUSH0 DUP2 MLOAD SWAP1 POP SWAP2 SWAP1 POP JUMP JUMPDEST PUSH32 0x4E487B7100000000000000000000000000000000000000000000000000000000 PUSH0 MSTORE PUSH1 0x41 PUSH1 0x4 MSTORE PUSH1 0x24 PUSH0 REVERT JUMPDEST PUSH32 0x4E487B7100000000000000000000000000000000000000000000000000000000 PUSH0 MSTORE PUSH1 0x22 PUSH1 0x4 MSTORE PUSH1 0x24 PUSH0 REVERT JUMPDEST PUSH0 PUSH1 0x2 DUP3 DIV SWAP1 POP PUSH1 0x1 DUP3 AND DUP1 PUSH2 0xD8 JUMPI PUSH1 0x7F DUP3 AND SWAP2 POP JUMPDEST PUSH1 0x20 DUP3 LT DUP2 SUB PUSH2 0xEB JUMPI PUSH2 0xEA PUSH2 0x94 JUMP JUMPDEST JUMPDEST POP SWAP2 SWAP1 POP JUMP JUMPDEST PUSH0 DUP2 SWAP1 POP DUP2 PUSH0 MSTORE PUSH1 0x20 PUSH0 KECCAK256 SWAP1 POP SWAP2 SWAP1 POP JUMP JUMPDEST PUSH0 PUSH1 0x20 PUSH1 0x1F DUP4 ADD DIV SWAP1 POP SWAP2 SWAP1 POP JUMP JUMPDEST PUSH0 DUP3 DUP3 SHL SWAP1 POP SWAP3 SWAP2 POP POP JUMP JUMPDEST PUSH0 PUSH1 0x8 DUP4 MUL PUSH2 0x14D PUSH32 0xFFFFFFFFFFFFFFFFFFFFFFFFFFFFFFFFFFFFFFFFFFFFFFFFFFFFFFFFFFFFFFFF DUP3 PUSH2 0x112 JUMP JUMPDEST PUSH2 0x157 DUP7 DUP4 PUSH2 0x112 JUMP JUMPDEST SWAP6 POP DUP1 NOT DUP5 AND SWAP4 POP DUP1 DUP7 AND DUP5 OR SWAP3 POP POP POP SWAP4 SWAP3 POP POP POP JUMP JUMPDEST PUSH0 DUP2 SWAP1 POP SWAP2 SWAP1 POP JUMP JUMPDEST PUSH0 DUP2 SWAP1 POP SWAP2 SWAP1 POP JUMP JUMPDEST PUSH0 PUSH2 0x19B PUSH2 0x196 PUSH2 0x191 DUP5 PUSH2 0x16F JUMP JUMPDEST PUSH2 0x178 JUMP JUMPDEST PUSH2 0x16F JUMP JUMPDEST SWAP1 POP SWAP2 SWAP1 POP JUMP JUMPDEST PUSH0 DUP2 SWAP1 POP SWAP2 SWAP1 POP JUMP JUMPDEST PUSH2 0x1B4 DUP4 PUSH2 0x181 JUMP JUMPDEST PUSH2 0x1C8 PUSH2 0x1C0 DUP3 PUSH2 0x1A2 JUMP JUMPDEST DUP5 DUP5 SLOAD PUSH2 0x11E JUMP JUMPDEST DUP3 SSTORE POP POP POP POP JUMP JUMPDEST PUSH0 SWAP1 JUMP JUMPDEST PUSH2 0x1DC PUSH2 0x1D0 JUMP JUMPDEST PUSH2 0x1E7 DUP2 DUP5 DUP5 PUSH2 0x1AB JUMP JUMPDEST POP POP POP JUMP JUMPDEST JUMPDEST DUP2 DUP2 LT ISZERO PUSH2 0x20A JUMPI PUSH2 0x1FF PUSH0 DUP3 PUSH2 0x1D4 JUMP JUMPDEST PUSH1 0x1 DUP2 ADD SWAP1 POP PUSH2 0x1ED JUMP JUMPDEST POP POP JUMP JUMPDEST PUSH1 0x1F DUP3 GT ISZERO PUSH2 0x24F JUMPI PUSH2 0x220 DUP2 PUSH2 0xF1 JUMP JUMPDEST PUSH2 0x229 DUP5 PUSH2 0x103 JUMP JUMPDEST DUP2 ADD PUSH1 0x20 DUP6 LT ISZERO PUSH2 0x238 JUMPI DUP2 SWAP1 POP JUMPDEST PUSH2 0x24C PUSH2 0x244 DUP6 PUSH2 0x103 JUMP JUMPDEST DUP4 ADD DUP3 PUSH2 0x1EC JUMP JUMPDEST POP POP JUMPDEST POP POP POP JUMP JUMPDEST PUSH0 DUP3 DUP3 SHR SWAP1 POP SWAP3 SWAP2 POP POP JUMP JUMPDEST PUSH0 PUSH2 0x26F PUSH0 NOT DUP5 PUSH1 0x8 MUL PUSH2 0x254 JUMP JUMPDEST NOT DUP1 DUP4 AND SWAP2 POP POP SWAP3 SWAP2 POP POP JUMP JUMPDEST PUSH0 PUSH2 0x287 DUP4 DUP4 PUSH2 0x260 JUMP JUMPDEST SWAP2 POP DUP3 PUSH1 0x2 MUL DUP3 OR SWAP1 POP SWAP3 SWAP2 POP POP JUMP JUMPDEST PUSH2 0x2A0 DUP3 PUSH2 0x5D JUMP JUMPDEST PUSH8 0xFFFFFFFFFFFFFFFF DUP2 GT ISZERO PUSH2 0x2B9 JUMPI PUSH2 0x2B8 PUSH2 0x67 JUMP JUMPDEST JUMPDEST PUSH2 0x2C3 DUP3 SLOAD PUSH2 0xC1 JUMP JUMPDEST PUSH2 0x2CE DUP3 DUP3 DUP6 PUSH2 0x20E JUMP JUMPDEST PUSH0 PUSH1 0x20 SWAP1 POP PUSH1 0x1F DUP4 GT PUSH1 0x1 DUP2 EQ PUSH2 0x2FF JUMPI PUSH0 DUP5 ISZERO PUSH2 0x2ED JUMPI DUP3 DUP8 ADD MLOAD SWAP1 POP JUMPDEST PUSH2 0x2F7 DUP6 DUP3 PUSH2 0x27C JUMP JUMPDEST DUP7 SSTORE POP PUSH2 0x35E JUMP JUMPDEST PUSH1 0x1F NOT DUP5 AND PUSH2 0x30D DUP7 PUSH2 0xF1 JUMP JUMPDEST PUSH0 JUMPDEST DUP3 DUP2 LT ISZERO PUSH2 0x334 JUMPI DUP5 DUP10 ADD MLOAD DUP3 SSTORE PUSH1 0x1 DUP3 ADD SWAP2 POP PUSH1 0x20 DUP6 ADD SWAP5 POP PUSH1 0x20 DUP2 ADD SWAP1 POP PUSH2 0x30F JUMP JUMPDEST DUP7 DUP4 LT ISZERO PUSH2 0x351 JUMPI DUP5 DUP10 ADD MLOAD PUSH2 0x34D PUSH1 0x1F DUP10 AND DUP3 PUSH2 0x260 JUMP JUMPDEST DUP4 SSTORE POP JUMPDEST PUSH1 0x1 PUSH1 0x2 DUP9 MUL ADD DUP9 SSTORE POP POP POP JUMPDEST POP POP POP POP POP POP JUMP JUMPDEST PUSH2 0x985 DUP1 PUSH2 0x373 PUSH0 CODECOPY PUSH0 RETURN INVALID PUSH1 0x80 PUSH1 0x40 MSTORE PUSH1 0x4 CALLDATASIZE LT PUSH2 0x7A JUMPI PUSH0 CALLDATALOAD PUSH1 0xE0 SHR DUP1 PUSH4 0x91F5DE38 GT PUSH2 0x4D JUMPI DUP1 PUSH4 0x91F5DE38 EQ PUSH2 0x102 JUMPI DUP1 PUSH4 0xB592F484 EQ PUSH2 0x12C JUMPI DUP1 PUSH4 0xBE56DAED EQ PUSH2 0x156 JUMPI DUP1 PUSH4 0xE5484AE4 EQ PUSH2 0x193 JUMPI PUSH2 0x7A JUMP JUMPDEST DUP1 PUSH4 0x96F6663 EQ PUSH2 0x7E JUMPI DUP1 PUSH4 0xE428757 EQ PUSH2 0xA6 JUMPI DUP1 PUSH4 0x7AF327A0 EQ PUSH2 0xD0 JUMPI DUP1 PUSH4 0x8F0AA695 EQ PUSH2 0xDA JUMPI JUMPDEST PUSH0 DUP1 REVERT JUMPDEST CALLVALUE DUP1 ISZERO PUSH2 0x89 JUMPI PUSH0 DUP1 REVERT JUMPDEST POP PUSH2 0xA4 PUSH1 0x4 DUP1 CALLDATASIZE SUB DUP2 ADD SWAP1 PUSH2 0x9F SWAP2 SWAP1 PUSH2 0x433 JUMP JUMPDEST PUSH2 0x1D0 JUMP JUMPDEST STOP JUMPDEST CALLVALUE DUP1 ISZERO PUSH2 0xB1 JUMPI PUSH0 DUP1 REVERT JUMPDEST POP PUSH2 0xBA PUSH2 0x1DC JUMP JUMPDEST PUSH1 0x40 MLOAD PUSH2 0xC7 SWAP2 SWAP1 PUSH2 0x4DA JUMP JUMPDEST PUSH1 0x40 MLOAD DUP1 SWAP2 SUB SWAP1 RETURN JUMPDEST PUSH2 0xD8 PUSH2 0x267 JUMP JUMPDEST STOP JUMPDEST CALLVALUE DUP1 ISZERO PUSH2 0xE5 JUMPI PUSH0 DUP1 REVERT JUMPDEST POP PUSH2 0x100 PUSH1 0x4 DUP1 CALLDATASIZE SUB DUP2 ADD SWAP1 PUSH2 0xFB SWAP2 SWAP1 PUSH2 0x433 JUMP JUMPDEST PUSH2 0x269 JUMP JUMPDEST STOP JUMPDEST CALLVALUE DUP1 ISZERO PUSH2 0x10D JUMPI PUSH0 DUP1 REVERT JUMPDEST POP PUSH2 0x116 PUSH2 0x27B JUMP JUMPDEST PUSH1 0x40 MLOAD PUSH2 0x123 SWAP2 SWAP1 PUSH2 0x512 JUMP JUMPDEST PUSH1 0x40 MLOAD DUP1 SWAP2 SUB SWAP1 RETURN JUMPDEST CALLVALUE DUP1 ISZERO PUSH2 0x137 JUMPI PUSH0 DUP1 REVERT JUMPDEST POP PUSH2 0x140 PUSH2 0x281 JUMP JUMPDEST PUSH1 0x40 MLOAD PUSH2 0x14D SWAP2 SWAP1 PUSH2 0x512 JUMP JUMPDEST PUSH1 0x40 MLOAD DUP1 SWAP2 SUB SWAP1 RETURN JUMPDEST CALLVALUE DUP1 ISZERO PUSH2 0x161 JUMPI PUSH0 DUP1 REVERT JUMPDEST POP PUSH2 0x17C PUSH1 0x4 DUP1 CALLDATASIZE SUB DUP2 ADD SWAP1 PUSH2 0x177 SWAP2 SWAP1 PUSH2 0x555 JUMP JUMPDEST PUSH2 0x288 JUMP JUMPDEST PUSH1 0x40 MLOAD PUSH2 0x18A SWAP3 SWAP2 SWAP1 PUSH2 0x580 JUMP JUMPDEST PUSH1 0x40 MLOAD DUP1 SWAP2 SUB SWAP1 RETURN JUMPDEST CALLVALUE DUP1 ISZERO PUSH2 0x19E JUMPI PUSH0 DUP1 REVERT JUMPDEST POP PUSH2 0x1B9 PUSH1 0x4 DUP1 CALLDATASIZE SUB DUP2 ADD SWAP1 PUSH2 0x1B4 SWAP2 SWAP1 PUSH2 0x5A7 JUMP JUMPDEST PUSH2 0x2AF JUMP JUMPDEST PUSH1 0x40 MLOAD PUSH2 0x1C7 SWAP3 SWAP2 SWAP1 PUSH2 0x580 JUMP JUMPDEST PUSH1 0x40 MLOAD DUP1 SWAP2 SUB SWAP1 RETURN JUMPDEST PUSH2 0x1D9 DUP2 PUSH2 0x2D4 JUMP JUMPDEST POP JUMP JUMPDEST PUSH0 DUP1 SLOAD PUSH2 0x1E8 SWAP1 PUSH2 0x612 JUMP JUMPDEST DUP1 PUSH1 0x1F ADD PUSH1 0x20 DUP1 SWAP2 DIV MUL PUSH1 0x20 ADD PUSH1 0x40 MLOAD SWAP1 DUP2 ADD PUSH1 0x40 MSTORE DUP1 SWAP3 SWAP2 SWAP1 DUP2 DUP2 MSTORE PUSH1 0x20 ADD DUP3 DUP1 SLOAD PUSH2 0x214 SWAP1 PUSH2 0x612 JUMP JUMPDEST DUP1 ISZERO PUSH2 0x25F JUMPI DUP1 PUSH1 0x1F LT PUSH2 0x236 JUMPI PUSH2 0x100 DUP1 DUP4 SLOAD DIV MUL DUP4 MSTORE SWAP2 PUSH1 0x20 ADD SWAP2 PUSH2 0x25F JUMP JUMPDEST DUP3 ADD SWAP2 SWAP1 PUSH0 MSTORE PUSH1 0x20 PUSH0 KECCAK256 SWAP1 JUMPDEST DUP2 SLOAD DUP2 MSTORE SWAP1 PUSH1 0x1 ADD SWAP1 PUSH1 0x20 ADD DUP1 DUP4 GT PUSH2 0x242 JUMPI DUP3 SWAP1 SUB PUSH1 0x1F AND DUP3 ADD SWAP2 JUMPDEST POP POP POP POP POP DUP2 JUMP JUMPDEST JUMP JUMPDEST DUP1 PUSH0 SWAP1 DUP2 PUSH2 0x277 SWAP2 SWAP1 PUSH2 0x7DF JUMP JUMPDEST POP POP JUMP JUMPDEST PUSH1 0x1 SLOAD DUP2 JUMP JUMPDEST PUSH0 SELFBALANCE SWAP1 POP SWAP1 JUMP JUMPDEST PUSH0 DUP1 PUSH1 0x1 SLOAD DUP4 PUSH2 0x298 SWAP2 SWAP1 PUSH2 0x8DB JUMP JUMPDEST SWAP2 POP PUSH1 0x1 SLOAD DUP4 PUSH2 0x2A8 SWAP2 SWAP1 PUSH2 0x91C JUMP JUMPDEST SWAP1 POP SWAP2 POP SWAP2 JUMP JUMPDEST PUSH0 DUP1 DUP3 DUP5 PUSH2 0x2BD SWAP2 SWAP1 PUSH2 0x8DB JUMP JUMPDEST SWAP2 POP DUP3 DUP5 PUSH2 0x2CB SWAP2 SWAP1 PUSH2 0x91C JUMP JUMPDEST SWAP1 POP SWAP3 POP SWAP3 SWAP1 POP JUMP JUMPDEST DUP1 PUSH0 SWAP1 DUP2 PUSH2 0x2E2 SWAP2 SWAP1 PUSH2 0x7DF JUMP JUMPDEST POP POP JUMP JUMPDEST PUSH0 PUSH1 0x40 MLOAD SWAP1 POP SWAP1 JUMP JUMPDEST PUSH0 DUP1 REVERT JUMPDEST PUSH0 DUP1 REVERT JUMPDEST PUSH0 DUP1 REVERT JUMPDEST PUSH0 DUP1 REVERT JUMPDEST PUSH0 PUSH1 0x1F NOT PUSH1 0x1F DUP4 ADD AND SWAP1 POP SWAP2 SWAP1 POP JUMP JUMPDEST PUSH32 0x4E487B7100000000000000000000000000000000000000000000000000000000 PUSH0 MSTORE PUSH1 0x41 PUSH1 0x4 MSTORE PUSH1 0x24 PUSH0 REVERT JUMPDEST PUSH2 0x345 DUP3 PUSH2 0x2FF JUMP JUMPDEST DUP2 ADD DUP2 DUP2 LT PUSH8 0xFFFFFFFFFFFFFFFF DUP3 GT OR ISZERO PUSH2 0x364 JUMPI PUSH2 0x363 PUSH2 0x30F JUMP JUMPDEST JUMPDEST DUP1 PUSH1 0x40 MSTORE POP POP POP JUMP JUMPDEST PUSH0 PUSH2 0x376 PUSH2 0x2E6 JUMP JUMPDEST SWAP1 POP PUSH2 0x382 DUP3 DUP3 PUSH2 0x33C JUMP JUMPDEST SWAP2 SWAP1 POP JUMP JUMPDEST PUSH0 PUSH8 0xFFFFFFFFFFFFFFFF DUP3 GT ISZERO PUSH2 0x3A1 JUMPI PUSH2 0x3A0 PUSH2 0x30F JUMP JUMPDEST JUMPDEST PUSH2 0x3AA DUP3 PUSH2 0x2FF JUMP JUMPDEST SWAP1 POP PUSH1 0x20 DUP2 ADD SWAP1 POP SWAP2 SWAP1 POP JUMP JUMPDEST DUP3 DUP2 DUP4 CALLDATACOPY PUSH0 DUP4 DUP4 ADD MSTORE POP POP POP JUMP JUMPDEST PUSH0 PUSH2 0x3D7 PUSH2 0x3D2 DUP5 PUSH2 0x387 JUMP JUMPDEST PUSH2 0x36D JUMP JUMPDEST SWAP1 POP DUP3 DUP2 MSTORE PUSH1 0x20 DUP2 ADD DUP5 DUP5 DUP5 ADD GT ISZERO PUSH2 0x3F3 JUMPI PUSH2 0x3F2 PUSH2 0x2FB JUMP JUMPDEST JUMPDEST PUSH2 0x3FE DUP5 DUP3 DUP6 PUSH2 0x3B7 JUMP JUMPDEST POP SWAP4 SWAP3 POP POP POP JUMP JUMPDEST PUSH0 DUP3 PUSH1 0x1F DUP4 ADD SLT PUSH2 0x41A JUMPI PUSH2 0x419 PUSH2 0x2F7 JUMP JUMPDEST JUMPDEST DUP2 CALLDATALOAD PUSH2 0x42A DUP5 DUP3 PUSH1 0x20 DUP7 ADD PUSH2 0x3C5 JUMP JUMPDEST SWAP2 POP POP SWAP3 SWAP2 POP POP JUMP JUMPDEST PUSH0 PUSH1 0x20 DUP3 DUP5 SUB SLT ISZERO PUSH2 0x448 JUMPI PUSH2 0x447 PUSH2 0x2EF JUMP JUMPDEST JUMPDEST PUSH0 DUP3 ADD CALLDATALOAD PUSH8 0xFFFFFFFFFFFFFFFF DUP2 GT ISZERO PUSH2 0x465 JUMPI PUSH2 0x464 PUSH2 0x2F3 JUMP JUMPDEST JUMPDEST PUSH2 0x471 DUP5 DUP3 DUP6 ADD PUSH2 0x406 JUMP JUMPDEST SWAP2 POP POP SWAP3 SWAP2 POP POP JUMP JUMPDEST PUSH0 DUP2 MLOAD SWAP1 POP SWAP2 SWAP1 POP JUMP JUMPDEST PUSH0 DUP3 DUP3 MSTORE PUSH1 0x20 DUP3 ADD SWAP1 POP SWAP3 SWAP2 POP POP JUMP JUMPDEST DUP3 DUP2 DUP4 MCOPY PUSH0 DUP4 DUP4 ADD MSTORE POP POP POP JUMP JUMPDEST PUSH0 PUSH2 0x4AC DUP3 PUSH2 0x47A JUMP JUMPDEST PUSH2 0x4B6 DUP2 DUP6 PUSH2 0x484 JUMP JUMPDEST SWAP4 POP PUSH2 0x4C6 DUP2 DUP6 PUSH1 0x20 DUP7 ADD PUSH2 0x494 JUMP JUMPDEST PUSH2 0x4CF DUP2 PUSH2 0x2FF JUMP JUMPDEST DUP5 ADD SWAP2 POP POP SWAP3 SWAP2 POP POP JUMP JUMPDEST PUSH0 PUSH1 0x20 DUP3 ADD SWAP1 POP DUP2 DUP2 SUB PUSH0 DUP4 ADD MSTORE PUSH2 0x4F2 DUP2 DUP5 PUSH2 0x4A2 JUMP JUMPDEST SWAP1 POP SWAP3 SWAP2 POP POP JUMP JUMPDEST PUSH0 DUP2 SWAP1 POP SWAP2 SWAP1 POP JUMP JUMPDEST PUSH2 0x50C DUP2 PUSH2 0x4FA JUMP JUMPDEST DUP3 MSTORE POP POP JUMP JUMPDEST PUSH0 PUSH1 0x20 DUP3 ADD SWAP1 POP PUSH2 0x525 PUSH0 DUP4 ADD DUP5 PUSH2 0x503 JUMP JUMPDEST SWAP3 SWAP2 POP POP JUMP JUMPDEST PUSH2 0x534 DUP2 PUSH2 0x4FA JUMP JUMPDEST DUP2 EQ PUSH2 0x53E JUMPI PUSH0 DUP1 REVERT JUMPDEST POP JUMP JUMPDEST PUSH0 DUP2 CALLDATALOAD SWAP1 POP PUSH2 0x54F DUP2 PUSH2 0x52B JUMP JUMPDEST SWAP3 SWAP2 POP POP JUMP JUMPDEST PUSH0 PUSH1 0x20 DUP3 DUP5 SUB SLT ISZERO PUSH2 0x56A JUMPI PUSH2 0x569 PUSH2 0x2EF JUMP JUMPDEST JUMPDEST PUSH0 PUSH2 0x577 DUP5 DUP3 DUP6 ADD PUSH2 0x541 JUMP JUMPDEST SWAP2 POP POP SWAP3 SWAP2 POP POP JUMP JUMPDEST PUSH0 PUSH1 0x40 DUP3 ADD SWAP1 POP PUSH2 0x593 PUSH0 DUP4 ADD DUP6 PUSH2 0x503 JUMP JUMPDEST PUSH2 0x5A0 PUSH1 0x20 DUP4 ADD DUP5 PUSH2 0x503 JUMP JUMPDEST SWAP4 SWAP3 POP POP POP JUMP JUMPDEST PUSH0 DUP1 PUSH1 0x40 DUP4 DUP6 SUB SLT ISZERO PUSH2 0x5BD JUMPI PUSH2 0x5BC PUSH2 0x2EF JUMP JUMPDEST JUMPDEST PUSH0 PUSH2 0x5CA DUP6 DUP3 DUP7 ADD PUSH2 0x541 JUMP JUMPDEST SWAP3 POP POP PUSH1 0x20 PUSH2 0x5DB DUP6 DUP3 DUP7 ADD PUSH2 0x541 JUMP JUMPDEST SWAP2 POP POP SWAP3 POP SWAP3 SWAP1 POP JUMP JUMPDEST PUSH32 0x4E487B7100000000000000000000000000000000000000000000000000000000 PUSH0 MSTORE PUSH1 0x22 PUSH1 0x4 MSTORE PUSH1 0x24 PUSH0 REVERT JUMPDEST PUSH0 PUSH1 0x2 DUP3 DIV SWAP1 POP PUSH1 0x1 DUP3 AND DUP1 PUSH2 0x629 JUMPI PUSH1 0x7F DUP3 AND SWAP2 POP JUMPDEST PUSH1 0x20 DUP3 LT DUP2 SUB PUSH2 0x63C JUMPI PUSH2 0x63B PUSH2 0x5E5 JUMP JUMPDEST JUMPDEST POP SWAP2 SWAP1 POP JUMP JUMPDEST PUSH0 DUP2 SWAP1 POP DUP2 PUSH0 MSTORE PUSH1 0x20 PUSH0 KECCAK256 SWAP1 POP SWAP2 SWAP1 POP JUMP JUMPDEST PUSH0 PUSH1 0x20 PUSH1 0x1F DUP4 ADD DIV SWAP1 POP SWAP2 SWAP1 POP JUMP JUMPDEST PUSH0 DUP3 DUP3 SHL SWAP1 POP SWAP3 SWAP2 POP POP JUMP JUMPDEST PUSH0 PUSH1 0x8 DUP4 MUL PUSH2 0x69E PUSH32 0xFFFFFFFFFFFFFFFFFFFFFFFFFFFFFFFFFFFFFFFFFFFFFFFFFFFFFFFFFFFFFFFF DUP3 PUSH2 0x663 JUMP JUMPDEST PUSH2 0x6A8 DUP7 DUP4 PUSH2 0x663 JUMP JUMPDEST SWAP6 POP DUP1 NOT DUP5 AND SWAP4 POP DUP1 DUP7 AND DUP5 OR SWAP3 POP POP POP SWAP4 SWAP3 POP POP POP JUMP JUMPDEST PUSH0 DUP2 SWAP1 POP SWAP2 SWAP1 POP JUMP JUMPDEST PUSH0 PUSH2 0x6E3 PUSH2 0x6DE PUSH2 0x6D9 DUP5 PUSH2 0x4FA JUMP JUMPDEST PUSH2 0x6C0 JUMP JUMPDEST PUSH2 0x4FA JUMP JUMPDEST SWAP1 POP SWAP2 SWAP1 POP JUMP JUMPDEST PUSH0 DUP2 SWAP1 POP SWAP2 SWAP1 POP JUMP JUMPDEST PUSH2 0x6FC DUP4 PUSH2 0x6C9 JUMP JUMPDEST PUSH2 0x710 PUSH2 0x708 DUP3 PUSH2 0x6EA JUMP JUMPDEST DUP5 DUP5 SLOAD PUSH2 0x66F JUMP JUMPDEST DUP3 SSTORE POP POP POP POP JUMP JUMPDEST PUSH0 SWAP1 JUMP JUMPDEST PUSH2 0x724 PUSH2 0x718 JUMP JUMPDEST PUSH2 0x72F DUP2 DUP5 DUP5 PUSH2 0x6F3 JUMP JUMPDEST POP POP POP JUMP JUMPDEST JUMPDEST DUP2 DUP2 LT ISZERO PUSH2 0x752 JUMPI PUSH2 0x747 PUSH0 DUP3 PUSH2 0x71C JUMP JUMPDEST PUSH1 0x1 DUP2 ADD SWAP1 POP PUSH2 0x735 JUMP JUMPDEST POP POP JUMP JUMPDEST PUSH1 0x1F DUP3 GT ISZERO PUSH2 0x797 JUMPI PUSH2 0x768 DUP2 PUSH2 0x642 JUMP JUMPDEST PUSH2 0x771 DUP5 PUSH2 0x654 JUMP JUMPDEST DUP2 ADD PUSH1 0x20 DUP6 LT ISZERO PUSH2 0x780 JUMPI DUP2 SWAP1 POP JUMPDEST PUSH2 0x794 PUSH2 0x78C DUP6 PUSH2 0x654 JUMP JUMPDEST DUP4 ADD DUP3 PUSH2 0x734 JUMP JUMPDEST POP POP JUMPDEST POP POP POP JUMP JUMPDEST PUSH0 DUP3 DUP3 SHR SWAP1 POP SWAP3 SWAP2 POP POP JUMP JUMPDEST PUSH0 PUSH2 0x7B7 PUSH0 NOT DUP5 PUSH1 0x8 MUL PUSH2 0x79C JUMP JUMPDEST NOT DUP1 DUP4 AND SWAP2 POP POP SWAP3 SWAP2 POP POP JUMP JUMPDEST PUSH0 PUSH2 0x7CF DUP4 DUP4 PUSH2 0x7A8 JUMP JUMPDEST SWAP2 POP DUP3 PUSH1 0x2 MUL DUP3 OR SWAP1 POP SWAP3 SWAP2 POP POP JUMP JUMPDEST PUSH2 0x7E8 DUP3 PUSH2 0x47A JUMP JUMPDEST PUSH8 0xFFFFFFFFFFFFFFFF DUP2 GT ISZERO PUSH2 0x801 JUMPI PUSH2 0x800 PUSH2 0x30F JUMP JUMPDEST JUMPDEST PUSH2 0x80B DUP3 SLOAD PUSH2 0x612 JUMP JUMPDEST PUSH2 0x816 DUP3 DUP3 DUP6 PUSH2 0x756 JUMP JUMPDEST PUSH0 PUSH1 0x20 SWAP1 POP PUSH1 0x1F DUP4 GT PUSH1 0x1 DUP2 EQ PUSH2 0x847 JUMPI PUSH0 DUP5 ISZERO PUSH2 0x835 JUMPI DUP3 DUP8 ADD MLOAD SWAP1 POP JUMPDEST PUSH2 0x83F DUP6 DUP3 PUSH2 0x7C4 JUMP JUMPDEST DUP7 SSTORE POP PUSH2 0x8A6 JUMP JUMPDEST PUSH1 0x1F NOT DUP5 AND PUSH2 0x855 DUP7 PUSH2 0x642 JUMP JUMPDEST PUSH0 JUMPDEST DUP3 DUP2 LT ISZERO PUSH2 0x87C JUMPI DUP5 DUP10 ADD MLOAD DUP3 SSTORE PUSH1 0x1 DUP3 ADD SWAP2 POP PUSH1 0x20 DUP6 ADD SWAP5 POP PUSH1 0x20 DUP2 ADD SWAP1 POP PUSH2 0x857 JUMP JUMPDEST DUP7 DUP4 LT ISZERO PUSH2 0x899 JUMPI DUP5 DUP10 ADD MLOAD PUSH2 0x895 PUSH1 0x1F DUP10 AND DUP3 PUSH2 0x7A8 JUMP JUMPDEST DUP4 SSTORE POP JUMPDEST PUSH1 0x1 PUSH1 0x2 DUP9 MUL ADD DUP9 SSTORE POP POP POP JUMPDEST POP POP POP POP POP POP JUMP JUMPDEST PUSH32 0x4E487B7100000000000000000000000000000000000000000000000000000000 PUSH0 MSTORE PUSH1 0x11 PUSH1 0x4 MSTORE PUSH1 0x24 PUSH0 REVERT JUMPDEST PUSH0 PUSH2 0x8E5 DUP3 PUSH2 0x4FA JUMP JUMPDEST SWAP2 POP PUSH2 0x8F0 DUP4 PUSH2 0x4FA JUMP JUMPDEST SWAP3 POP DUP3 DUP3 MUL PUSH2 0x8FE DUP2 PUSH2 0x4FA JUMP JUMPDEST SWAP2 POP DUP3 DUP3 DIV DUP5 EQ DUP4 ISZERO OR PUSH2 0x915 JUMPI PUSH2 0x914 PUSH2 0x8AE JUMP JUMPDEST JUMPDEST POP SWAP3 SWAP2 POP POP JUMP JUMPDEST PUSH0 PUSH2 0x926 DUP3 PUSH2 0x4FA JUMP JUMPDEST SWAP2 POP PUSH2 0x931 DUP4 PUSH2 0x4FA JUMP JUMPDEST SWAP3 POP DUP3 DUP3 ADD SWAP1 POP DUP1 DUP3 GT ISZERO PUSH2 0x949 JUMPI PUSH2 0x948 PUSH2 0x8AE JUMP JUMPDEST JUMPDEST SWAP3 SWAP2 POP POP JUMP INVALID LOG2 PUSH5 0x6970667358 0x22 SLT KECCAK256 DUP9 PUSH20 0xB866BE106D16DC144BF7788DE91A486401DB5188 0x4F SWAP5 0xD8 PUSH26 0x171DAA67AFFA64736F6C63430008190033000000000000000000 "
				},
				"gasEstimates": {
					"creation": {
						"codeDepositCost": "487400",
						"executionCost": "infinite",
						"totalCost": "infinite"
					},
					"external": {
						"cadena()": "infinite",
						"deposito()": "164",
						"getMon()": "356",
						"modifica1(string)": "infinite",
						"modifica3(string)": "infinite",
						"numero()": "2425",
						"obtResult(uint256)": "infinite",
						"obtResult2(uint256,uint256)": "infinite"
					},
					"internal": {
						"modifica2(string memory)": "infinite"
					}
				},
				"methodIdentifiers": {
					"cadena()": "0e428757",
					"deposito()": "7af327a0",
					"getMon()": "b592f484",
					"modifica1(string)": "8f0aa695",
					"modifica3(string)": "096f6663",
					"numero()": "91f5de38",
					"obtResult(uint256)": "be56daed",
					"obtResult2(uint256,uint256)": "e5484ae4"
				}
			},
			"storageLayout": {
				"storage": [
					{
						"astId": 4,
						"contract": "Clase 02/pru9.sol:pru9",
						"label": "cadena",
						"offset": 0,
						"slot": "0",
						"type": "t_string_storage"
					},
					{
						"astId": 7,
						"contract": "Clase 02/pru9.sol:pru9",
						"label": "numero",
						"offset": 0,
						"slot": "1",
						"type": "t_uint256"
					}
				],
				"types": {
					"t_string_storage": {
						"encoding": "bytes",
						"label": "string",
						"numberOfBytes": "32"
					},
					"t_uint256": {
						"encoding": "inplace",
						"label": "uint256",
						"numberOfBytes": "32"
					}
				}
			},
			"userdoc": {
				"kind": "user",
				"methods": {},
				"version": 1
			}
		}
	}
}